{
	"contracts/SimpleContract.sol": {
		"SimpleContract": {
			"abi": [
				{
					"inputs": [],
					"stateMutability": "nonpayable",
					"type": "constructor"
				},
				{
					"inputs": [
						{
							"internalType": "address",
							"name": "",
							"type": "address"
						}
					],
					"name": "allowance",
					"outputs": [
						{
							"internalType": "bool",
							"name": "",
							"type": "bool"
						}
					],
					"stateMutability": "view",
					"type": "function"
				},
				{
					"inputs": [],
					"name": "allowed",
					"outputs": [
						{
							"internalType": "bool",
							"name": "",
							"type": "bool"
						}
					],
					"stateMutability": "view",
					"type": "function"
				},
				{
					"inputs": [
						{
							"internalType": "address",
							"name": "_address",
							"type": "address"
						}
					],
					"name": "assignAllowence",
					"outputs": [],
					"stateMutability": "nonpayable",
					"type": "function"
				},
				{
					"inputs": [],
					"name": "buy",
					"outputs": [],
					"stateMutability": "nonpayable",
					"type": "function"
				},
				{
					"inputs": [],
					"name": "count",
					"outputs": [
						{
							"internalType": "uint256",
							"name": "",
							"type": "uint256"
						}
					],
					"stateMutability": "view",
					"type": "function"
				},
				{
					"inputs": [
						{
							"internalType": "uint256",
							"name": "_increment",
							"type": "uint256"
						}
					],
					"name": "increment",
					"outputs": [],
					"stateMutability": "nonpayable",
					"type": "function"
				},
				{
					"inputs": [],
					"name": "oneIncrement",
					"outputs": [],
					"stateMutability": "nonpayable",
					"type": "function"
				},
				{
					"inputs": [],
					"name": "owner",
					"outputs": [
						{
							"internalType": "address",
							"name": "",
							"type": "address"
						}
					],
					"stateMutability": "view",
					"type": "function"
				},
				{
					"inputs": [
						{
							"internalType": "bool",
							"name": "_allowed",
							"type": "bool"
						}
					],
					"name": "setAllowed",
					"outputs": [],
					"stateMutability": "nonpayable",
					"type": "function"
				},
				{
					"inputs": [],
					"name": "signedCount",
					"outputs": [
						{
							"internalType": "int256",
							"name": "",
							"type": "int256"
						}
					],
					"stateMutability": "view",
					"type": "function"
				},
				{
					"inputs": [
						{
							"internalType": "int256",
							"name": "_increment",
							"type": "int256"
						}
					],
					"name": "signedIncrement",
					"outputs": [],
					"stateMutability": "nonpayable",
					"type": "function"
				}
			],
			"devdoc": {
				"kind": "dev",
				"methods": {},
				"version": 1
			},
			"evm": {
				"assembly": "    /* \"contracts/SimpleContract.sol\":66:1316  contract SimpleContract {... */\n  mstore(0x40, 0x80)\n    /* \"contracts/SimpleContract.sol\":172:218  string private errorMessage = \"is not Allowed\" */\n  mload(0x40)\n  dup1\n  0x40\n  add\n  0x40\n  mstore\n  dup1\n  0x0e\n  dup2\n  mstore\n  0x20\n  add\n  0x6973206e6f7420416c6c6f776564000000000000000000000000000000000000\n  dup2\n  mstore\n  pop\n  0x03\n  swap1\n  dup2\n  tag_1\n  swap2\n  swap1\n  tag_2\n  jump\t// in\ntag_1:\n  pop\n    /* \"contracts/SimpleContract.sol\":484:571  constructor(){... */\n  callvalue\n  dup1\n  iszero\n  tag_3\n  jumpi\n  0x00\n  dup1\n  revert\ntag_3:\n  pop\n    /* \"contracts/SimpleContract.sol\":521:563  0xAb8483F64d9C6d1EcF9b849Ae677dD3315835cb2 */\n  0xab8483f64d9c6d1ecf9b849ae677dd3315835cb2\n    /* \"contracts/SimpleContract.sol\":507:512  owner */\n  0x05\n  0x00\n    /* \"contracts/SimpleContract.sol\":507:564  owner=address(0xAb8483F64d9C6d1EcF9b849Ae677dD3315835cb2) */\n  0x0100\n  exp\n  dup2\n  sload\n  dup2\n  0xffffffffffffffffffffffffffffffffffffffff\n  mul\n  not\n  and\n  swap1\n  dup4\n  0xffffffffffffffffffffffffffffffffffffffff\n  and\n  mul\n  or\n  swap1\n  sstore\n  pop\n    /* \"contracts/SimpleContract.sol\":66:1316  contract SimpleContract {... */\n  jump(tag_6)\n    /* \"#utility.yul\":7:106   */\ntag_7:\n    /* \"#utility.yul\":59:65   */\n  0x00\n    /* \"#utility.yul\":93:98   */\n  dup2\n    /* \"#utility.yul\":87:99   */\n  mload\n    /* \"#utility.yul\":77:99   */\n  swap1\n  pop\n    /* \"#utility.yul\":7:106   */\n  swap2\n  swap1\n  pop\n  jump\t// out\n    /* \"#utility.yul\":112:292   */\ntag_8:\n    /* \"#utility.yul\":160:237   */\n  0x4e487b7100000000000000000000000000000000000000000000000000000000\n    /* \"#utility.yul\":157:158   */\n  0x00\n    /* \"#utility.yul\":150:238   */\n  mstore\n    /* \"#utility.yul\":257:261   */\n  0x41\n    /* \"#utility.yul\":254:255   */\n  0x04\n    /* \"#utility.yul\":247:262   */\n  mstore\n    /* \"#utility.yul\":281:285   */\n  0x24\n    /* \"#utility.yul\":278:279   */\n  0x00\n    /* \"#utility.yul\":271:286   */\n  revert\n    /* \"#utility.yul\":298:478   */\ntag_9:\n    /* \"#utility.yul\":346:423   */\n  0x4e487b7100000000000000000000000000000000000000000000000000000000\n    /* \"#utility.yul\":343:344   */\n  0x00\n    /* \"#utility.yul\":336:424   */\n  mstore\n    /* \"#utility.yul\":443:447   */\n  0x22\n    /* \"#utility.yul\":440:441   */\n  0x04\n    /* \"#utility.yul\":433:448   */\n  mstore\n    /* \"#utility.yul\":467:471   */\n  0x24\n    /* \"#utility.yul\":464:465   */\n  0x00\n    /* \"#utility.yul\":457:472   */\n  revert\n    /* \"#utility.yul\":484:804   */\ntag_10:\n    /* \"#utility.yul\":528:534   */\n  0x00\n    /* \"#utility.yul\":565:566   */\n  0x02\n    /* \"#utility.yul\":559:563   */\n  dup3\n    /* \"#utility.yul\":555:567   */\n  div\n    /* \"#utility.yul\":545:567   */\n  swap1\n  pop\n    /* \"#utility.yul\":612:613   */\n  0x01\n    /* \"#utility.yul\":606:610   */\n  dup3\n    /* \"#utility.yul\":602:614   */\n  and\n    /* \"#utility.yul\":633:651   */\n  dup1\n    /* \"#utility.yul\":623:704   */\n  tag_32\n  jumpi\n    /* \"#utility.yul\":689:693   */\n  0x7f\n    /* \"#utility.yul\":681:687   */\n  dup3\n    /* \"#utility.yul\":677:694   */\n  and\n    /* \"#utility.yul\":667:694   */\n  swap2\n  pop\n    /* \"#utility.yul\":623:704   */\ntag_32:\n    /* \"#utility.yul\":751:753   */\n  0x20\n    /* \"#utility.yul\":743:749   */\n  dup3\n    /* \"#utility.yul\":740:754   */\n  lt\n    /* \"#utility.yul\":720:738   */\n  dup2\n    /* \"#utility.yul\":717:755   */\n  sub\n    /* \"#utility.yul\":714:798   */\n  tag_33\n  jumpi\n    /* \"#utility.yul\":770:788   */\n  tag_34\n  tag_9\n  jump\t// in\ntag_34:\n    /* \"#utility.yul\":714:798   */\ntag_33:\n    /* \"#utility.yul\":535:804   */\n  pop\n    /* \"#utility.yul\":484:804   */\n  swap2\n  swap1\n  pop\n  jump\t// out\n    /* \"#utility.yul\":810:951   */\ntag_11:\n    /* \"#utility.yul\":859:863   */\n  0x00\n    /* \"#utility.yul\":882:885   */\n  dup2\n    /* \"#utility.yul\":874:885   */\n  swap1\n  pop\n    /* \"#utility.yul\":905:908   */\n  dup2\n    /* \"#utility.yul\":902:903   */\n  0x00\n    /* \"#utility.yul\":895:909   */\n  mstore\n    /* \"#utility.yul\":939:943   */\n  0x20\n    /* \"#utility.yul\":936:937   */\n  0x00\n    /* \"#utility.yul\":926:944   */\n  keccak256\n    /* \"#utility.yul\":918:944   */\n  swap1\n  pop\n    /* \"#utility.yul\":810:951   */\n  swap2\n  swap1\n  pop\n  jump\t// out\n    /* \"#utility.yul\":957:1050   */\ntag_12:\n    /* \"#utility.yul\":994:1000   */\n  0x00\n    /* \"#utility.yul\":1041:1043   */\n  0x20\n    /* \"#utility.yul\":1036:1038   */\n  0x1f\n    /* \"#utility.yul\":1029:1034   */\n  dup4\n    /* \"#utility.yul\":1025:1039   */\n  add\n    /* \"#utility.yul\":1021:1044   */\n  div\n    /* \"#utility.yul\":1011:1044   */\n  swap1\n  pop\n    /* \"#utility.yul\":957:1050   */\n  swap2\n  swap1\n  pop\n  jump\t// out\n    /* \"#utility.yul\":1056:1163   */\ntag_13:\n    /* \"#utility.yul\":1100:1108   */\n  0x00\n    /* \"#utility.yul\":1150:1155   */\n  dup3\n    /* \"#utility.yul\":1144:1148   */\n  dup3\n    /* \"#utility.yul\":1140:1156   */\n  shl\n    /* \"#utility.yul\":1119:1156   */\n  swap1\n  pop\n    /* \"#utility.yul\":1056:1163   */\n  swap3\n  swap2\n  pop\n  pop\n  jump\t// out\n    /* \"#utility.yul\":1169:1562   */\ntag_14:\n    /* \"#utility.yul\":1238:1244   */\n  0x00\n    /* \"#utility.yul\":1288:1289   */\n  0x08\n    /* \"#utility.yul\":1276:1286   */\n  dup4\n    /* \"#utility.yul\":1272:1290   */\n  mul\n    /* \"#utility.yul\":1311:1408   */\n  tag_39\n    /* \"#utility.yul\":1341:1407   */\n  0xffffffffffffffffffffffffffffffffffffffffffffffffffffffffffffffff\n    /* \"#utility.yul\":1330:1339   */\n  dup3\n    /* \"#utility.yul\":1311:1408   */\n  tag_13\n  jump\t// in\ntag_39:\n    /* \"#utility.yul\":1429:1468   */\n  tag_40\n    /* \"#utility.yul\":1459:1467   */\n  dup7\n    /* \"#utility.yul\":1448:1457   */\n  dup4\n    /* \"#utility.yul\":1429:1468   */\n  tag_13\n  jump\t// in\ntag_40:\n    /* \"#utility.yul\":1417:1468   */\n  swap6\n  pop\n    /* \"#utility.yul\":1501:1505   */\n  dup1\n    /* \"#utility.yul\":1497:1506   */\n  not\n    /* \"#utility.yul\":1490:1495   */\n  dup5\n    /* \"#utility.yul\":1486:1507   */\n  and\n    /* \"#utility.yul\":1477:1507   */\n  swap4\n  pop\n    /* \"#utility.yul\":1550:1554   */\n  dup1\n    /* \"#utility.yul\":1540:1548   */\n  dup7\n    /* \"#utility.yul\":1536:1555   */\n  and\n    /* \"#utility.yul\":1529:1534   */\n  dup5\n    /* \"#utility.yul\":1526:1556   */\n  or\n    /* \"#utility.yul\":1516:1556   */\n  swap3\n  pop\n    /* \"#utility.yul\":1245:1562   */\n  pop\n  pop\n    /* \"#utility.yul\":1169:1562   */\n  swap4\n  swap3\n  pop\n  pop\n  pop\n  jump\t// out\n    /* \"#utility.yul\":1568:1645   */\ntag_15:\n    /* \"#utility.yul\":1605:1612   */\n  0x00\n    /* \"#utility.yul\":1634:1639   */\n  dup2\n    /* \"#utility.yul\":1623:1639   */\n  swap1\n  pop\n    /* \"#utility.yul\":1568:1645   */\n  swap2\n  swap1\n  pop\n  jump\t// out\n    /* \"#utility.yul\":1651:1711   */\ntag_16:\n    /* \"#utility.yul\":1679:1682   */\n  0x00\n    /* \"#utility.yul\":1700:1705   */\n  dup2\n    /* \"#utility.yul\":1693:1705   */\n  swap1\n  pop\n    /* \"#utility.yul\":1651:1711   */\n  swap2\n  swap1\n  pop\n  jump\t// out\n    /* \"#utility.yul\":1717:1859   */\ntag_17:\n    /* \"#utility.yul\":1767:1776   */\n  0x00\n    /* \"#utility.yul\":1800:1853   */\n  tag_44\n    /* \"#utility.yul\":1818:1852   */\n  tag_45\n    /* \"#utility.yul\":1827:1851   */\n  tag_46\n    /* \"#utility.yul\":1845:1850   */\n  dup5\n    /* \"#utility.yul\":1827:1851   */\n  tag_15\n  jump\t// in\ntag_46:\n    /* \"#utility.yul\":1818:1852   */\n  tag_16\n  jump\t// in\ntag_45:\n    /* \"#utility.yul\":1800:1853   */\n  tag_15\n  jump\t// in\ntag_44:\n    /* \"#utility.yul\":1787:1853   */\n  swap1\n  pop\n    /* \"#utility.yul\":1717:1859   */\n  swap2\n  swap1\n  pop\n  jump\t// out\n    /* \"#utility.yul\":1865:1940   */\ntag_18:\n    /* \"#utility.yul\":1908:1911   */\n  0x00\n    /* \"#utility.yul\":1929:1934   */\n  dup2\n    /* \"#utility.yul\":1922:1934   */\n  swap1\n  pop\n    /* \"#utility.yul\":1865:1940   */\n  swap2\n  swap1\n  pop\n  jump\t// out\n    /* \"#utility.yul\":1946:2215   */\ntag_19:\n    /* \"#utility.yul\":2056:2095   */\n  tag_49\n    /* \"#utility.yul\":2087:2094   */\n  dup4\n    /* \"#utility.yul\":2056:2095   */\n  tag_17\n  jump\t// in\ntag_49:\n    /* \"#utility.yul\":2117:2208   */\n  tag_50\n    /* \"#utility.yul\":2166:2207   */\n  tag_51\n    /* \"#utility.yul\":2190:2206   */\n  dup3\n    /* \"#utility.yul\":2166:2207   */\n  tag_18\n  jump\t// in\ntag_51:\n    /* \"#utility.yul\":2158:2164   */\n  dup5\n    /* \"#utility.yul\":2151:2155   */\n  dup5\n    /* \"#utility.yul\":2145:2156   */\n  sload\n    /* \"#utility.yul\":2117:2208   */\n  tag_14\n  jump\t// in\ntag_50:\n    /* \"#utility.yul\":2111:2115   */\n  dup3\n    /* \"#utility.yul\":2104:2209   */\n  sstore\n    /* \"#utility.yul\":2022:2215   */\n  pop\n    /* \"#utility.yul\":1946:2215   */\n  pop\n  pop\n  pop\n  jump\t// out\n    /* \"#utility.yul\":2221:2294   */\ntag_20:\n    /* \"#utility.yul\":2266:2269   */\n  0x00\n    /* \"#utility.yul\":2221:2294   */\n  swap1\n  jump\t// out\n    /* \"#utility.yul\":2300:2489   */\ntag_21:\n    /* \"#utility.yul\":2377:2409   */\n  tag_54\n  tag_20\n  jump\t// in\ntag_54:\n    /* \"#utility.yul\":2418:2483   */\n  tag_55\n    /* \"#utility.yul\":2476:2482   */\n  dup2\n    /* \"#utility.yul\":2468:2474   */\n  dup5\n    /* \"#utility.yul\":2462:2466   */\n  dup5\n    /* \"#utility.yul\":2418:2483   */\n  tag_19\n  jump\t// in\ntag_55:\n    /* \"#utility.yul\":2353:2489   */\n  pop\n    /* \"#utility.yul\":2300:2489   */\n  pop\n  pop\n  jump\t// out\n    /* \"#utility.yul\":2495:2681   */\ntag_22:\n    /* \"#utility.yul\":2555:2675   */\ntag_57:\n    /* \"#utility.yul\":2572:2575   */\n  dup2\n    /* \"#utility.yul\":2565:2570   */\n  dup2\n    /* \"#utility.yul\":2562:2576   */\n  lt\n    /* \"#utility.yul\":2555:2675   */\n  iszero\n  tag_59\n  jumpi\n    /* \"#utility.yul\":2626:2665   */\n  tag_60\n    /* \"#utility.yul\":2663:2664   */\n  0x00\n    /* \"#utility.yul\":2656:2661   */\n  dup3\n    /* \"#utility.yul\":2626:2665   */\n  tag_21\n  jump\t// in\ntag_60:\n    /* \"#utility.yul\":2599:2600   */\n  0x01\n    /* \"#utility.yul\":2592:2597   */\n  dup2\n    /* \"#utility.yul\":2588:2601   */\n  add\n    /* \"#utility.yul\":2579:2601   */\n  swap1\n  pop\n    /* \"#utility.yul\":2555:2675   */\n  jump(tag_57)\ntag_59:\n    /* \"#utility.yul\":2495:2681   */\n  pop\n  pop\n  jump\t// out\n    /* \"#utility.yul\":2687:3230   */\ntag_23:\n    /* \"#utility.yul\":2788:2790   */\n  0x1f\n    /* \"#utility.yul\":2783:2786   */\n  dup3\n    /* \"#utility.yul\":2780:2791   */\n  gt\n    /* \"#utility.yul\":2777:3223   */\n  iszero\n  tag_62\n  jumpi\n    /* \"#utility.yul\":2822:2860   */\n  tag_63\n    /* \"#utility.yul\":2854:2859   */\n  dup2\n    /* \"#utility.yul\":2822:2860   */\n  tag_11\n  jump\t// in\ntag_63:\n    /* \"#utility.yul\":2906:2935   */\n  tag_64\n    /* \"#utility.yul\":2924:2934   */\n  dup5\n    /* \"#utility.yul\":2906:2935   */\n  tag_12\n  jump\t// in\ntag_64:\n    /* \"#utility.yul\":2896:2904   */\n  dup2\n    /* \"#utility.yul\":2892:2936   */\n  add\n    /* \"#utility.yul\":3089:3091   */\n  0x20\n    /* \"#utility.yul\":3077:3087   */\n  dup6\n    /* \"#utility.yul\":3074:3092   */\n  lt\n    /* \"#utility.yul\":3071:3120   */\n  iszero\n  tag_65\n  jumpi\n    /* \"#utility.yul\":3110:3118   */\n  dup2\n    /* \"#utility.yul\":3095:3118   */\n  swap1\n  pop\n    /* \"#utility.yul\":3071:3120   */\ntag_65:\n    /* \"#utility.yul\":3133:3213   */\n  tag_66\n    /* \"#utility.yul\":3189:3211   */\n  tag_67\n    /* \"#utility.yul\":3207:3210   */\n  dup6\n    /* \"#utility.yul\":3189:3211   */\n  tag_12\n  jump\t// in\ntag_67:\n    /* \"#utility.yul\":3179:3187   */\n  dup4\n    /* \"#utility.yul\":3175:3212   */\n  add\n    /* \"#utility.yul\":3162:3173   */\n  dup3\n    /* \"#utility.yul\":3133:3213   */\n  tag_22\n  jump\t// in\ntag_66:\n    /* \"#utility.yul\":2792:3223   */\n  pop\n  pop\n    /* \"#utility.yul\":2777:3223   */\ntag_62:\n    /* \"#utility.yul\":2687:3230   */\n  pop\n  pop\n  pop\n  jump\t// out\n    /* \"#utility.yul\":3236:3353   */\ntag_24:\n    /* \"#utility.yul\":3290:3298   */\n  0x00\n    /* \"#utility.yul\":3340:3345   */\n  dup3\n    /* \"#utility.yul\":3334:3338   */\n  dup3\n    /* \"#utility.yul\":3330:3346   */\n  shr\n    /* \"#utility.yul\":3309:3346   */\n  swap1\n  pop\n    /* \"#utility.yul\":3236:3353   */\n  swap3\n  swap2\n  pop\n  pop\n  jump\t// out\n    /* \"#utility.yul\":3359:3528   */\ntag_25:\n    /* \"#utility.yul\":3403:3409   */\n  0x00\n    /* \"#utility.yul\":3436:3487   */\n  tag_70\n    /* \"#utility.yul\":3484:3485   */\n  0x00\n    /* \"#utility.yul\":3480:3486   */\n  not\n    /* \"#utility.yul\":3472:3477   */\n  dup5\n    /* \"#utility.yul\":3469:3470   */\n  0x08\n    /* \"#utility.yul\":3465:3478   */\n  mul\n    /* \"#utility.yul\":3436:3487   */\n  tag_24\n  jump\t// in\ntag_70:\n    /* \"#utility.yul\":3432:3488   */\n  not\n    /* \"#utility.yul\":3517:3521   */\n  dup1\n    /* \"#utility.yul\":3511:3515   */\n  dup4\n    /* \"#utility.yul\":3507:3522   */\n  and\n    /* \"#utility.yul\":3497:3522   */\n  swap2\n  pop\n    /* \"#utility.yul\":3410:3528   */\n  pop\n    /* \"#utility.yul\":3359:3528   */\n  swap3\n  swap2\n  pop\n  pop\n  jump\t// out\n    /* \"#utility.yul\":3533:3828   */\ntag_26:\n    /* \"#utility.yul\":3609:3613   */\n  0x00\n    /* \"#utility.yul\":3755:3784   */\n  tag_72\n    /* \"#utility.yul\":3780:3783   */\n  dup4\n    /* \"#utility.yul\":3774:3778   */\n  dup4\n    /* \"#utility.yul\":3755:3784   */\n  tag_25\n  jump\t// in\ntag_72:\n    /* \"#utility.yul\":3747:3784   */\n  swap2\n  pop\n    /* \"#utility.yul\":3817:3820   */\n  dup3\n    /* \"#utility.yul\":3814:3815   */\n  0x02\n    /* \"#utility.yul\":3810:3821   */\n  mul\n    /* \"#utility.yul\":3804:3808   */\n  dup3\n    /* \"#utility.yul\":3801:3822   */\n  or\n    /* \"#utility.yul\":3793:3822   */\n  swap1\n  pop\n    /* \"#utility.yul\":3533:3828   */\n  swap3\n  swap2\n  pop\n  pop\n  jump\t// out\n    /* \"#utility.yul\":3833:5228   */\ntag_2:\n    /* \"#utility.yul\":3950:3987   */\n  tag_74\n    /* \"#utility.yul\":3983:3986   */\n  dup3\n    /* \"#utility.yul\":3950:3987   */\n  tag_7\n  jump\t// in\ntag_74:\n    /* \"#utility.yul\":4052:4070   */\n  0xffffffffffffffff\n    /* \"#utility.yul\":4044:4050   */\n  dup2\n    /* \"#utility.yul\":4041:4071   */\n  gt\n    /* \"#utility.yul\":4038:4094   */\n  iszero\n  tag_75\n  jumpi\n    /* \"#utility.yul\":4074:4092   */\n  tag_76\n  tag_8\n  jump\t// in\ntag_76:\n    /* \"#utility.yul\":4038:4094   */\ntag_75:\n    /* \"#utility.yul\":4118:4156   */\n  tag_77\n    /* \"#utility.yul\":4150:4154   */\n  dup3\n    /* \"#utility.yul\":4144:4155   */\n  sload\n    /* \"#utility.yul\":4118:4156   */\n  tag_10\n  jump\t// in\ntag_77:\n    /* \"#utility.yul\":4203:4270   */\n  tag_78\n    /* \"#utility.yul\":4263:4269   */\n  dup3\n    /* \"#utility.yul\":4255:4261   */\n  dup3\n    /* \"#utility.yul\":4249:4253   */\n  dup6\n    /* \"#utility.yul\":4203:4270   */\n  tag_23\n  jump\t// in\ntag_78:\n    /* \"#utility.yul\":4297:4298   */\n  0x00\n    /* \"#utility.yul\":4321:4325   */\n  0x20\n    /* \"#utility.yul\":4308:4325   */\n  swap1\n  pop\n    /* \"#utility.yul\":4353:4355   */\n  0x1f\n    /* \"#utility.yul\":4345:4351   */\n  dup4\n    /* \"#utility.yul\":4342:4356   */\n  gt\n    /* \"#utility.yul\":4370:4371   */\n  0x01\n    /* \"#utility.yul\":4365:4983   */\n  dup2\n  eq\n  tag_80\n  jumpi\n    /* \"#utility.yul\":5027:5028   */\n  0x00\n    /* \"#utility.yul\":5044:5050   */\n  dup5\n    /* \"#utility.yul\":5041:5118   */\n  iszero\n  tag_81\n  jumpi\n    /* \"#utility.yul\":5093:5102   */\n  dup3\n    /* \"#utility.yul\":5088:5091   */\n  dup8\n    /* \"#utility.yul\":5084:5103   */\n  add\n    /* \"#utility.yul\":5078:5104   */\n  mload\n    /* \"#utility.yul\":5069:5104   */\n  swap1\n  pop\n    /* \"#utility.yul\":5041:5118   */\ntag_81:\n    /* \"#utility.yul\":5144:5211   */\n  tag_82\n    /* \"#utility.yul\":5204:5210   */\n  dup6\n    /* \"#utility.yul\":5197:5202   */\n  dup3\n    /* \"#utility.yul\":5144:5211   */\n  tag_26\n  jump\t// in\ntag_82:\n    /* \"#utility.yul\":5138:5142   */\n  dup7\n    /* \"#utility.yul\":5131:5212   */\n  sstore\n    /* \"#utility.yul\":5000:5222   */\n  pop\n    /* \"#utility.yul\":4335:5222   */\n  jump(tag_79)\n    /* \"#utility.yul\":4365:4983   */\ntag_80:\n    /* \"#utility.yul\":4417:4421   */\n  0x1f\n    /* \"#utility.yul\":4413:4422   */\n  not\n    /* \"#utility.yul\":4405:4411   */\n  dup5\n    /* \"#utility.yul\":4401:4423   */\n  and\n    /* \"#utility.yul\":4451:4488   */\n  tag_83\n    /* \"#utility.yul\":4483:4487   */\n  dup7\n    /* \"#utility.yul\":4451:4488   */\n  tag_11\n  jump\t// in\ntag_83:\n    /* \"#utility.yul\":4510:4511   */\n  0x00\n    /* \"#utility.yul\":4524:4732   */\ntag_84:\n    /* \"#utility.yul\":4538:4545   */\n  dup3\n    /* \"#utility.yul\":4535:4536   */\n  dup2\n    /* \"#utility.yul\":4532:4546   */\n  lt\n    /* \"#utility.yul\":4524:4732   */\n  iszero\n  tag_86\n  jumpi\n    /* \"#utility.yul\":4617:4626   */\n  dup5\n    /* \"#utility.yul\":4612:4615   */\n  dup10\n    /* \"#utility.yul\":4608:4627   */\n  add\n    /* \"#utility.yul\":4602:4628   */\n  mload\n    /* \"#utility.yul\":4594:4600   */\n  dup3\n    /* \"#utility.yul\":4587:4629   */\n  sstore\n    /* \"#utility.yul\":4668:4669   */\n  0x01\n    /* \"#utility.yul\":4660:4666   */\n  dup3\n    /* \"#utility.yul\":4656:4670   */\n  add\n    /* \"#utility.yul\":4646:4670   */\n  swap2\n  pop\n    /* \"#utility.yul\":4715:4717   */\n  0x20\n    /* \"#utility.yul\":4704:4713   */\n  dup6\n    /* \"#utility.yul\":4700:4718   */\n  add\n    /* \"#utility.yul\":4687:4718   */\n  swap5\n  pop\n    /* \"#utility.yul\":4561:4565   */\n  0x20\n    /* \"#utility.yul\":4558:4559   */\n  dup2\n    /* \"#utility.yul\":4554:4566   */\n  add\n    /* \"#utility.yul\":4549:4566   */\n  swap1\n  pop\n    /* \"#utility.yul\":4524:4732   */\n  jump(tag_84)\ntag_86:\n    /* \"#utility.yul\":4760:4766   */\n  dup7\n    /* \"#utility.yul\":4751:4758   */\n  dup4\n    /* \"#utility.yul\":4748:4767   */\n  lt\n    /* \"#utility.yul\":4745:4924   */\n  iszero\n  tag_87\n  jumpi\n    /* \"#utility.yul\":4818:4827   */\n  dup5\n    /* \"#utility.yul\":4813:4816   */\n  dup10\n    /* \"#utility.yul\":4809:4828   */\n  add\n    /* \"#utility.yul\":4803:4829   */\n  mload\n    /* \"#utility.yul\":4861:4909   */\n  tag_88\n    /* \"#utility.yul\":4903:4907   */\n  0x1f\n    /* \"#utility.yul\":4895:4901   */\n  dup10\n    /* \"#utility.yul\":4891:4908   */\n  and\n    /* \"#utility.yul\":4880:4889   */\n  dup3\n    /* \"#utility.yul\":4861:4909   */\n  tag_25\n  jump\t// in\ntag_88:\n    /* \"#utility.yul\":4853:4859   */\n  dup4\n    /* \"#utility.yul\":4846:4910   */\n  sstore\n    /* \"#utility.yul\":4768:4924   */\n  pop\n    /* \"#utility.yul\":4745:4924   */\ntag_87:\n    /* \"#utility.yul\":4970:4971   */\n  0x01\n    /* \"#utility.yul\":4966:4967   */\n  0x02\n    /* \"#utility.yul\":4958:4964   */\n  dup9\n    /* \"#utility.yul\":4954:4968   */\n  mul\n    /* \"#utility.yul\":4950:4972   */\n  add\n    /* \"#utility.yul\":4944:4948   */\n  dup9\n    /* \"#utility.yul\":4937:4973   */\n  sstore\n    /* \"#utility.yul\":4372:4983   */\n  pop\n  pop\n  pop\n    /* \"#utility.yul\":4335:5222   */\ntag_79:\n  pop\n    /* \"#utility.yul\":3925:5228   */\n  pop\n  pop\n  pop\n    /* \"#utility.yul\":3833:5228   */\n  pop\n  pop\n  jump\t// out\n    /* \"contracts/SimpleContract.sol\":66:1316  contract SimpleContract {... */\ntag_6:\n  dataSize(sub_0)\n  dup1\n  dataOffset(sub_0)\n  0x00\n  codecopy\n  0x00\n  return\nstop\n\nsub_0: assembly {\n        /* \"contracts/SimpleContract.sol\":66:1316  contract SimpleContract {... */\n      mstore(0x40, 0x80)\n      callvalue\n      dup1\n      iszero\n      tag_1\n      jumpi\n      0x00\n      dup1\n      revert\n    tag_1:\n      pop\n      jumpi(tag_2, lt(calldatasize, 0x04))\n      shr(0xe0, calldataload(0x00))\n      dup1\n      0x7cf5dab0\n      gt\n      tag_14\n      jumpi\n      dup1\n      0x7cf5dab0\n      eq\n      tag_8\n      jumpi\n      dup1\n      0x865cebe7\n      eq\n      tag_9\n      jumpi\n      dup1\n      0x8da5cb5b\n      eq\n      tag_10\n      jumpi\n      dup1\n      0xa6f2ae3a\n      eq\n      tag_11\n      jumpi\n      dup1\n      0xbe7cb506\n      eq\n      tag_12\n      jumpi\n      dup1\n      0xffac3b1d\n      eq\n      tag_13\n      jumpi\n      jump(tag_2)\n    tag_14:\n      dup1\n      0x06661abd\n      eq\n      tag_3\n      jumpi\n      dup1\n      0x19e1fca4\n      eq\n      tag_4\n      jumpi\n      dup1\n      0x2babac22\n      eq\n      tag_5\n      jumpi\n      dup1\n      0x3e5beab9\n      eq\n      tag_6\n      jumpi\n      dup1\n      0x5f3d8f4a\n      eq\n      tag_7\n      jumpi\n    tag_2:\n      0x00\n      dup1\n      revert\n        /* \"contracts/SimpleContract.sol\":121:138  uint public count */\n    tag_3:\n      tag_15\n      tag_16\n      jump\t// in\n    tag_15:\n      mload(0x40)\n      tag_17\n      swap2\n      swap1\n      tag_18\n      jump\t// in\n    tag_17:\n      mload(0x40)\n      dup1\n      swap2\n      sub\n      swap1\n      return\n        /* \"contracts/SimpleContract.sol\":96:115  bool public allowed */\n    tag_4:\n      tag_19\n      tag_20\n      jump\t// in\n    tag_19:\n      mload(0x40)\n      tag_21\n      swap2\n      swap1\n      tag_22\n      jump\t// in\n    tag_21:\n      mload(0x40)\n      dup1\n      swap2\n      sub\n      swap1\n      return\n        /* \"contracts/SimpleContract.sol\":577:654  function setAllowed(bool _allowed) public {... */\n    tag_5:\n      tag_23\n      0x04\n      dup1\n      calldatasize\n      sub\n      dup2\n      add\n      swap1\n      tag_24\n      swap2\n      swap1\n      tag_25\n      jump\t// in\n    tag_24:\n      tag_26\n      jump\t// in\n    tag_23:\n      stop\n        /* \"contracts/SimpleContract.sol\":224:265  mapping(address => bool) public allowance */\n    tag_6:\n      tag_27\n      0x04\n      dup1\n      calldatasize\n      sub\n      dup2\n      add\n      swap1\n      tag_28\n      swap2\n      swap1\n      tag_29\n      jump\t// in\n    tag_28:\n      tag_30\n      jump\t// in\n    tag_27:\n      mload(0x40)\n      tag_31\n      swap2\n      swap1\n      tag_22\n      jump\t// in\n    tag_31:\n      mload(0x40)\n      dup1\n      swap2\n      sub\n      swap1\n      return\n        /* \"contracts/SimpleContract.sol\":144:166  int public signedCount */\n    tag_7:\n      tag_32\n      tag_33\n      jump\t// in\n    tag_32:\n      mload(0x40)\n      tag_34\n      swap2\n      swap1\n      tag_35\n      jump\t// in\n    tag_34:\n      mload(0x40)\n      dup1\n      swap2\n      sub\n      swap1\n      return\n        /* \"contracts/SimpleContract.sol\":962:1057  function increment(uint _increment) isAllowed public{... */\n    tag_8:\n      tag_36\n      0x04\n      dup1\n      calldatasize\n      sub\n      dup2\n      add\n      swap1\n      tag_37\n      swap2\n      swap1\n      tag_38\n      jump\t// in\n    tag_37:\n      tag_39\n      jump\t// in\n    tag_36:\n      stop\n        /* \"contracts/SimpleContract.sol\":1172:1312  function assignAllowence(address _address) public OnlyOwner{ ... */\n    tag_9:\n      tag_40\n      0x04\n      dup1\n      calldatasize\n      sub\n      dup2\n      add\n      swap1\n      tag_41\n      swap2\n      swap1\n      tag_29\n      jump\t// in\n    tag_41:\n      tag_42\n      jump\t// in\n    tag_40:\n      stop\n        /* \"contracts/SimpleContract.sol\":372:392  address public owner */\n    tag_10:\n      tag_43\n      tag_44\n      jump\t// in\n    tag_43:\n      mload(0x40)\n      tag_45\n      swap2\n      swap1\n      tag_46\n      jump\t// in\n    tag_45:\n      mload(0x40)\n      dup1\n      swap2\n      sub\n      swap1\n      return\n        /* \"contracts/SimpleContract.sol\":854:895  function buy() isAllowed public  {... */\n    tag_11:\n      tag_47\n      tag_48\n      jump\t// in\n    tag_47:\n      stop\n        /* \"contracts/SimpleContract.sol\":1063:1166  function signedIncrement(int _increment) public {... */\n    tag_12:\n      tag_49\n      0x04\n      dup1\n      calldatasize\n      sub\n      dup2\n      add\n      swap1\n      tag_50\n      swap2\n      swap1\n      tag_51\n      jump\t// in\n    tag_50:\n      tag_52\n      jump\t// in\n    tag_49:\n      stop\n        /* \"contracts/SimpleContract.sol\":901:956  function oneIncrement() public {... */\n    tag_13:\n      tag_53\n      tag_54\n      jump\t// in\n    tag_53:\n      stop\n        /* \"contracts/SimpleContract.sol\":121:138  uint public count */\n    tag_16:\n      sload(0x01)\n      dup2\n      jump\t// out\n        /* \"contracts/SimpleContract.sol\":96:115  bool public allowed */\n    tag_20:\n      0x00\n      dup1\n      sload\n      swap1\n      0x0100\n      exp\n      swap1\n      div\n      0xff\n      and\n      dup2\n      jump\t// out\n        /* \"contracts/SimpleContract.sol\":577:654  function setAllowed(bool _allowed) public {... */\n    tag_26:\n        /* \"contracts/SimpleContract.sol\":639:647  _allowed */\n      dup1\n        /* \"contracts/SimpleContract.sol\":629:636  allowed */\n      0x00\n      dup1\n        /* \"contracts/SimpleContract.sol\":629:647  allowed = _allowed */\n      0x0100\n      exp\n      dup2\n      sload\n      dup2\n      0xff\n      mul\n      not\n      and\n      swap1\n      dup4\n      iszero\n      iszero\n      mul\n      or\n      swap1\n      sstore\n      pop\n        /* \"contracts/SimpleContract.sol\":577:654  function setAllowed(bool _allowed) public {... */\n      pop\n      jump\t// out\n        /* \"contracts/SimpleContract.sol\":224:265  mapping(address => bool) public allowance */\n    tag_30:\n      mstore(0x20, 0x04)\n      dup1\n      0x00\n      mstore\n      keccak256(0x00, 0x40)\n      0x00\n      swap2\n      pop\n      sload\n      swap1\n      0x0100\n      exp\n      swap1\n      div\n      0xff\n      and\n      dup2\n      jump\t// out\n        /* \"contracts/SimpleContract.sol\":144:166  int public signedCount */\n    tag_33:\n      sload(0x02)\n      dup2\n      jump\t// out\n        /* \"contracts/SimpleContract.sol\":962:1057  function increment(uint _increment) isAllowed public{... */\n    tag_39:\n        /* \"contracts/SimpleContract.sol\":698:707  allowance */\n      0x04\n        /* \"contracts/SimpleContract.sol\":698:719  allowance[msg.sender] */\n      0x00\n        /* \"contracts/SimpleContract.sol\":708:718  msg.sender */\n      caller\n        /* \"contracts/SimpleContract.sol\":698:719  allowance[msg.sender] */\n      0xffffffffffffffffffffffffffffffffffffffff\n      and\n      0xffffffffffffffffffffffffffffffffffffffff\n      and\n      dup2\n      mstore\n      0x20\n      add\n      swap1\n      dup2\n      mstore\n      0x20\n      add\n      0x00\n      keccak256\n      0x00\n      swap1\n      sload\n      swap1\n      0x0100\n      exp\n      swap1\n      div\n      0xff\n      and\n        /* \"contracts/SimpleContract.sol\":720:732  errorMessage */\n      0x03\n        /* \"contracts/SimpleContract.sol\":690:733  require(allowance[msg.sender],errorMessage) */\n      swap1\n      tag_57\n      jumpi\n      mload(0x40)\n      0x08c379a000000000000000000000000000000000000000000000000000000000\n      dup2\n      mstore\n      0x04\n      add\n      tag_58\n      swap2\n      swap1\n      tag_59\n      jump\t// in\n    tag_58:\n      mload(0x40)\n      dup1\n      swap2\n      sub\n      swap1\n      revert\n    tag_57:\n      pop\n        /* \"contracts/SimpleContract.sol\":1040:1050  _increment */\n      dup1\n        /* \"contracts/SimpleContract.sol\":1032:1037  count */\n      sload(0x01)\n        /* \"contracts/SimpleContract.sol\":1032:1050  count + _increment */\n      tag_61\n      swap2\n      swap1\n      tag_62\n      jump\t// in\n    tag_61:\n        /* \"contracts/SimpleContract.sol\":1024:1029  count */\n      0x01\n        /* \"contracts/SimpleContract.sol\":1024:1050  count = count + _increment */\n      dup2\n      swap1\n      sstore\n      pop\n        /* \"contracts/SimpleContract.sol\":962:1057  function increment(uint _increment) isAllowed public{... */\n      pop\n      jump\t// out\n        /* \"contracts/SimpleContract.sol\":1172:1312  function assignAllowence(address _address) public OnlyOwner{ ... */\n    tag_42:\n        /* \"contracts/SimpleContract.sol\":804:814  msg.sender */\n      caller\n        /* \"contracts/SimpleContract.sol\":795:814  owner == msg.sender */\n      0xffffffffffffffffffffffffffffffffffffffff\n      and\n        /* \"contracts/SimpleContract.sol\":795:800  owner */\n      0x05\n      0x00\n      swap1\n      sload\n      swap1\n      0x0100\n      exp\n      swap1\n      div\n      0xffffffffffffffffffffffffffffffffffffffff\n      and\n        /* \"contracts/SimpleContract.sol\":795:814  owner == msg.sender */\n      0xffffffffffffffffffffffffffffffffffffffff\n      and\n      eq\n        /* \"contracts/SimpleContract.sol\":787:830  require(owner == msg.sender, \"only owner\" ) */\n      tag_64\n      jumpi\n      mload(0x40)\n      0x08c379a000000000000000000000000000000000000000000000000000000000\n      dup2\n      mstore\n      0x04\n      add\n      tag_65\n      swap1\n      tag_66\n      jump\t// in\n    tag_65:\n      mload(0x40)\n      dup1\n      swap2\n      sub\n      swap1\n      revert\n    tag_64:\n        /* \"contracts/SimpleContract.sol\":1264:1268  true */\n      0x01\n        /* \"contracts/SimpleContract.sol\":1242:1251  allowance */\n      0x04\n        /* \"contracts/SimpleContract.sol\":1242:1261  allowance[_address] */\n      0x00\n        /* \"contracts/SimpleContract.sol\":1252:1260  _address */\n      dup4\n        /* \"contracts/SimpleContract.sol\":1242:1261  allowance[_address] */\n      0xffffffffffffffffffffffffffffffffffffffff\n      and\n      0xffffffffffffffffffffffffffffffffffffffff\n      and\n      dup2\n      mstore\n      0x20\n      add\n      swap1\n      dup2\n      mstore\n      0x20\n      add\n      0x00\n      keccak256\n      0x00\n        /* \"contracts/SimpleContract.sol\":1242:1268  allowance[_address] = true */\n      0x0100\n      exp\n      dup2\n      sload\n      dup2\n      0xff\n      mul\n      not\n      and\n      swap1\n      dup4\n      iszero\n      iszero\n      mul\n      or\n      swap1\n      sstore\n      pop\n        /* \"contracts/SimpleContract.sol\":1172:1312  function assignAllowence(address _address) public OnlyOwner{ ... */\n      pop\n      jump\t// out\n        /* \"contracts/SimpleContract.sol\":372:392  address public owner */\n    tag_44:\n      0x05\n      0x00\n      swap1\n      sload\n      swap1\n      0x0100\n      exp\n      swap1\n      div\n      0xffffffffffffffffffffffffffffffffffffffff\n      and\n      dup2\n      jump\t// out\n        /* \"contracts/SimpleContract.sol\":854:895  function buy() isAllowed public  {... */\n    tag_48:\n        /* \"contracts/SimpleContract.sol\":698:707  allowance */\n      0x04\n        /* \"contracts/SimpleContract.sol\":698:719  allowance[msg.sender] */\n      0x00\n        /* \"contracts/SimpleContract.sol\":708:718  msg.sender */\n      caller\n        /* \"contracts/SimpleContract.sol\":698:719  allowance[msg.sender] */\n      0xffffffffffffffffffffffffffffffffffffffff\n      and\n      0xffffffffffffffffffffffffffffffffffffffff\n      and\n      dup2\n      mstore\n      0x20\n      add\n      swap1\n      dup2\n      mstore\n      0x20\n      add\n      0x00\n      keccak256\n      0x00\n      swap1\n      sload\n      swap1\n      0x0100\n      exp\n      swap1\n      div\n      0xff\n      and\n        /* \"contracts/SimpleContract.sol\":720:732  errorMessage */\n      0x03\n        /* \"contracts/SimpleContract.sol\":690:733  require(allowance[msg.sender],errorMessage) */\n      swap1\n      tag_69\n      jumpi\n      mload(0x40)\n      0x08c379a000000000000000000000000000000000000000000000000000000000\n      dup2\n      mstore\n      0x04\n      add\n      tag_70\n      swap2\n      swap1\n      tag_59\n      jump\t// in\n    tag_70:\n      mload(0x40)\n      dup1\n      swap2\n      sub\n      swap1\n      revert\n    tag_69:\n      pop\n        /* \"contracts/SimpleContract.sol\":854:895  function buy() isAllowed public  {... */\n      jump\t// out\n        /* \"contracts/SimpleContract.sol\":1063:1166  function signedIncrement(int _increment) public {... */\n    tag_52:\n        /* \"contracts/SimpleContract.sol\":1149:1159  _increment */\n      dup1\n        /* \"contracts/SimpleContract.sol\":1135:1146  signedCount */\n      sload(0x02)\n        /* \"contracts/SimpleContract.sol\":1135:1159  signedCount + _increment */\n      tag_73\n      swap2\n      swap1\n      tag_74\n      jump\t// in\n    tag_73:\n        /* \"contracts/SimpleContract.sol\":1121:1132  signedCount */\n      0x02\n        /* \"contracts/SimpleContract.sol\":1121:1159  signedCount = signedCount + _increment */\n      dup2\n      swap1\n      sstore\n      pop\n        /* \"contracts/SimpleContract.sol\":1063:1166  function signedIncrement(int _increment) public {... */\n      pop\n      jump\t// out\n        /* \"contracts/SimpleContract.sol\":901:956  function oneIncrement() public {... */\n    tag_54:\n        /* \"contracts/SimpleContract.sol\":944:949  count */\n      0x01\n      0x00\n        /* \"contracts/SimpleContract.sol\":942:949  ++count */\n      dup2\n      sload\n      tag_76\n      swap1\n      tag_77\n      jump\t// in\n    tag_76:\n      swap2\n      swap1\n      pop\n      dup2\n      swap1\n      sstore\n      pop\n        /* \"contracts/SimpleContract.sol\":901:956  function oneIncrement() public {... */\n      jump\t// out\n        /* \"#utility.yul\":7:84   */\n    tag_78:\n        /* \"#utility.yul\":44:51   */\n      0x00\n        /* \"#utility.yul\":73:78   */\n      dup2\n        /* \"#utility.yul\":62:78   */\n      swap1\n      pop\n        /* \"#utility.yul\":7:84   */\n      swap2\n      swap1\n      pop\n      jump\t// out\n        /* \"#utility.yul\":90:208   */\n    tag_79:\n        /* \"#utility.yul\":177:201   */\n      tag_109\n        /* \"#utility.yul\":195:200   */\n      dup2\n        /* \"#utility.yul\":177:201   */\n      tag_78\n      jump\t// in\n    tag_109:\n        /* \"#utility.yul\":172:175   */\n      dup3\n        /* \"#utility.yul\":165:202   */\n      mstore\n        /* \"#utility.yul\":90:208   */\n      pop\n      pop\n      jump\t// out\n        /* \"#utility.yul\":214:436   */\n    tag_18:\n        /* \"#utility.yul\":307:311   */\n      0x00\n        /* \"#utility.yul\":345:347   */\n      0x20\n        /* \"#utility.yul\":334:343   */\n      dup3\n        /* \"#utility.yul\":330:348   */\n      add\n        /* \"#utility.yul\":322:348   */\n      swap1\n      pop\n        /* \"#utility.yul\":358:429   */\n      tag_111\n        /* \"#utility.yul\":426:427   */\n      0x00\n        /* \"#utility.yul\":415:424   */\n      dup4\n        /* \"#utility.yul\":411:428   */\n      add\n        /* \"#utility.yul\":402:408   */\n      dup5\n        /* \"#utility.yul\":358:429   */\n      tag_79\n      jump\t// in\n    tag_111:\n        /* \"#utility.yul\":214:436   */\n      swap3\n      swap2\n      pop\n      pop\n      jump\t// out\n        /* \"#utility.yul\":442:532   */\n    tag_80:\n        /* \"#utility.yul\":476:483   */\n      0x00\n        /* \"#utility.yul\":519:524   */\n      dup2\n        /* \"#utility.yul\":512:525   */\n      iszero\n        /* \"#utility.yul\":505:526   */\n      iszero\n        /* \"#utility.yul\":494:526   */\n      swap1\n      pop\n        /* \"#utility.yul\":442:532   */\n      swap2\n      swap1\n      pop\n      jump\t// out\n        /* \"#utility.yul\":538:647   */\n    tag_81:\n        /* \"#utility.yul\":619:640   */\n      tag_114\n        /* \"#utility.yul\":634:639   */\n      dup2\n        /* \"#utility.yul\":619:640   */\n      tag_80\n      jump\t// in\n    tag_114:\n        /* \"#utility.yul\":614:617   */\n      dup3\n        /* \"#utility.yul\":607:641   */\n      mstore\n        /* \"#utility.yul\":538:647   */\n      pop\n      pop\n      jump\t// out\n        /* \"#utility.yul\":653:863   */\n    tag_22:\n        /* \"#utility.yul\":740:744   */\n      0x00\n        /* \"#utility.yul\":778:780   */\n      0x20\n        /* \"#utility.yul\":767:776   */\n      dup3\n        /* \"#utility.yul\":763:781   */\n      add\n        /* \"#utility.yul\":755:781   */\n      swap1\n      pop\n        /* \"#utility.yul\":791:856   */\n      tag_116\n        /* \"#utility.yul\":853:854   */\n      0x00\n        /* \"#utility.yul\":842:851   */\n      dup4\n        /* \"#utility.yul\":838:855   */\n      add\n        /* \"#utility.yul\":829:835   */\n      dup5\n        /* \"#utility.yul\":791:856   */\n      tag_81\n      jump\t// in\n    tag_116:\n        /* \"#utility.yul\":653:863   */\n      swap3\n      swap2\n      pop\n      pop\n      jump\t// out\n        /* \"#utility.yul\":950:1067   */\n    tag_83:\n        /* \"#utility.yul\":1059:1060   */\n      0x00\n        /* \"#utility.yul\":1056:1057   */\n      dup1\n        /* \"#utility.yul\":1049:1061   */\n      revert\n        /* \"#utility.yul\":1196:1312   */\n    tag_85:\n        /* \"#utility.yul\":1266:1287   */\n      tag_121\n        /* \"#utility.yul\":1281:1286   */\n      dup2\n        /* \"#utility.yul\":1266:1287   */\n      tag_80\n      jump\t// in\n    tag_121:\n        /* \"#utility.yul\":1259:1264   */\n      dup2\n        /* \"#utility.yul\":1256:1288   */\n      eq\n        /* \"#utility.yul\":1246:1306   */\n      tag_122\n      jumpi\n        /* \"#utility.yul\":1302:1303   */\n      0x00\n        /* \"#utility.yul\":1299:1300   */\n      dup1\n        /* \"#utility.yul\":1292:1304   */\n      revert\n        /* \"#utility.yul\":1246:1306   */\n    tag_122:\n        /* \"#utility.yul\":1196:1312   */\n      pop\n      jump\t// out\n        /* \"#utility.yul\":1318:1451   */\n    tag_86:\n        /* \"#utility.yul\":1361:1366   */\n      0x00\n        /* \"#utility.yul\":1399:1405   */\n      dup2\n        /* \"#utility.yul\":1386:1406   */\n      calldataload\n        /* \"#utility.yul\":1377:1406   */\n      swap1\n      pop\n        /* \"#utility.yul\":1415:1445   */\n      tag_124\n        /* \"#utility.yul\":1439:1444   */\n      dup2\n        /* \"#utility.yul\":1415:1445   */\n      tag_85\n      jump\t// in\n    tag_124:\n        /* \"#utility.yul\":1318:1451   */\n      swap3\n      swap2\n      pop\n      pop\n      jump\t// out\n        /* \"#utility.yul\":1457:1780   */\n    tag_25:\n        /* \"#utility.yul\":1513:1519   */\n      0x00\n        /* \"#utility.yul\":1562:1564   */\n      0x20\n        /* \"#utility.yul\":1550:1559   */\n      dup3\n        /* \"#utility.yul\":1541:1548   */\n      dup5\n        /* \"#utility.yul\":1537:1560   */\n      sub\n        /* \"#utility.yul\":1533:1565   */\n      slt\n        /* \"#utility.yul\":1530:1649   */\n      iszero\n      tag_126\n      jumpi\n        /* \"#utility.yul\":1568:1647   */\n      tag_127\n      tag_83\n      jump\t// in\n    tag_127:\n        /* \"#utility.yul\":1530:1649   */\n    tag_126:\n        /* \"#utility.yul\":1688:1689   */\n      0x00\n        /* \"#utility.yul\":1713:1763   */\n      tag_128\n        /* \"#utility.yul\":1755:1762   */\n      dup5\n        /* \"#utility.yul\":1746:1752   */\n      dup3\n        /* \"#utility.yul\":1735:1744   */\n      dup6\n        /* \"#utility.yul\":1731:1753   */\n      add\n        /* \"#utility.yul\":1713:1763   */\n      tag_86\n      jump\t// in\n    tag_128:\n        /* \"#utility.yul\":1703:1763   */\n      swap2\n      pop\n        /* \"#utility.yul\":1659:1773   */\n      pop\n        /* \"#utility.yul\":1457:1780   */\n      swap3\n      swap2\n      pop\n      pop\n      jump\t// out\n        /* \"#utility.yul\":1786:1912   */\n    tag_87:\n        /* \"#utility.yul\":1823:1830   */\n      0x00\n        /* \"#utility.yul\":1863:1905   */\n      0xffffffffffffffffffffffffffffffffffffffff\n        /* \"#utility.yul\":1856:1861   */\n      dup3\n        /* \"#utility.yul\":1852:1906   */\n      and\n        /* \"#utility.yul\":1841:1906   */\n      swap1\n      pop\n        /* \"#utility.yul\":1786:1912   */\n      swap2\n      swap1\n      pop\n      jump\t// out\n        /* \"#utility.yul\":1918:2014   */\n    tag_88:\n        /* \"#utility.yul\":1955:1962   */\n      0x00\n        /* \"#utility.yul\":1984:2008   */\n      tag_131\n        /* \"#utility.yul\":2002:2007   */\n      dup3\n        /* \"#utility.yul\":1984:2008   */\n      tag_87\n      jump\t// in\n    tag_131:\n        /* \"#utility.yul\":1973:2008   */\n      swap1\n      pop\n        /* \"#utility.yul\":1918:2014   */\n      swap2\n      swap1\n      pop\n      jump\t// out\n        /* \"#utility.yul\":2020:2142   */\n    tag_89:\n        /* \"#utility.yul\":2093:2117   */\n      tag_133\n        /* \"#utility.yul\":2111:2116   */\n      dup2\n        /* \"#utility.yul\":2093:2117   */\n      tag_88\n      jump\t// in\n    tag_133:\n        /* \"#utility.yul\":2086:2091   */\n      dup2\n        /* \"#utility.yul\":2083:2118   */\n      eq\n        /* \"#utility.yul\":2073:2136   */\n      tag_134\n      jumpi\n        /* \"#utility.yul\":2132:2133   */\n      0x00\n        /* \"#utility.yul\":2129:2130   */\n      dup1\n        /* \"#utility.yul\":2122:2134   */\n      revert\n        /* \"#utility.yul\":2073:2136   */\n    tag_134:\n        /* \"#utility.yul\":2020:2142   */\n      pop\n      jump\t// out\n        /* \"#utility.yul\":2148:2287   */\n    tag_90:\n        /* \"#utility.yul\":2194:2199   */\n      0x00\n        /* \"#utility.yul\":2232:2238   */\n      dup2\n        /* \"#utility.yul\":2219:2239   */\n      calldataload\n        /* \"#utility.yul\":2210:2239   */\n      swap1\n      pop\n        /* \"#utility.yul\":2248:2281   */\n      tag_136\n        /* \"#utility.yul\":2275:2280   */\n      dup2\n        /* \"#utility.yul\":2248:2281   */\n      tag_89\n      jump\t// in\n    tag_136:\n        /* \"#utility.yul\":2148:2287   */\n      swap3\n      swap2\n      pop\n      pop\n      jump\t// out\n        /* \"#utility.yul\":2293:2622   */\n    tag_29:\n        /* \"#utility.yul\":2352:2358   */\n      0x00\n        /* \"#utility.yul\":2401:2403   */\n      0x20\n        /* \"#utility.yul\":2389:2398   */\n      dup3\n        /* \"#utility.yul\":2380:2387   */\n      dup5\n        /* \"#utility.yul\":2376:2399   */\n      sub\n        /* \"#utility.yul\":2372:2404   */\n      slt\n        /* \"#utility.yul\":2369:2488   */\n      iszero\n      tag_138\n      jumpi\n        /* \"#utility.yul\":2407:2486   */\n      tag_139\n      tag_83\n      jump\t// in\n    tag_139:\n        /* \"#utility.yul\":2369:2488   */\n    tag_138:\n        /* \"#utility.yul\":2527:2528   */\n      0x00\n        /* \"#utility.yul\":2552:2605   */\n      tag_140\n        /* \"#utility.yul\":2597:2604   */\n      dup5\n        /* \"#utility.yul\":2588:2594   */\n      dup3\n        /* \"#utility.yul\":2577:2586   */\n      dup6\n        /* \"#utility.yul\":2573:2595   */\n      add\n        /* \"#utility.yul\":2552:2605   */\n      tag_90\n      jump\t// in\n    tag_140:\n        /* \"#utility.yul\":2542:2605   */\n      swap2\n      pop\n        /* \"#utility.yul\":2498:2615   */\n      pop\n        /* \"#utility.yul\":2293:2622   */\n      swap3\n      swap2\n      pop\n      pop\n      jump\t// out\n        /* \"#utility.yul\":2628:2704   */\n    tag_91:\n        /* \"#utility.yul\":2664:2671   */\n      0x00\n        /* \"#utility.yul\":2693:2698   */\n      dup2\n        /* \"#utility.yul\":2682:2698   */\n      swap1\n      pop\n        /* \"#utility.yul\":2628:2704   */\n      swap2\n      swap1\n      pop\n      jump\t// out\n        /* \"#utility.yul\":2710:2825   */\n    tag_92:\n        /* \"#utility.yul\":2795:2818   */\n      tag_143\n        /* \"#utility.yul\":2812:2817   */\n      dup2\n        /* \"#utility.yul\":2795:2818   */\n      tag_91\n      jump\t// in\n    tag_143:\n        /* \"#utility.yul\":2790:2793   */\n      dup3\n        /* \"#utility.yul\":2783:2819   */\n      mstore\n        /* \"#utility.yul\":2710:2825   */\n      pop\n      pop\n      jump\t// out\n        /* \"#utility.yul\":2831:3049   */\n    tag_35:\n        /* \"#utility.yul\":2922:2926   */\n      0x00\n        /* \"#utility.yul\":2960:2962   */\n      0x20\n        /* \"#utility.yul\":2949:2958   */\n      dup3\n        /* \"#utility.yul\":2945:2963   */\n      add\n        /* \"#utility.yul\":2937:2963   */\n      swap1\n      pop\n        /* \"#utility.yul\":2973:3042   */\n      tag_145\n        /* \"#utility.yul\":3039:3040   */\n      0x00\n        /* \"#utility.yul\":3028:3037   */\n      dup4\n        /* \"#utility.yul\":3024:3041   */\n      add\n        /* \"#utility.yul\":3015:3021   */\n      dup5\n        /* \"#utility.yul\":2973:3042   */\n      tag_92\n      jump\t// in\n    tag_145:\n        /* \"#utility.yul\":2831:3049   */\n      swap3\n      swap2\n      pop\n      pop\n      jump\t// out\n        /* \"#utility.yul\":3055:3177   */\n    tag_93:\n        /* \"#utility.yul\":3128:3152   */\n      tag_147\n        /* \"#utility.yul\":3146:3151   */\n      dup2\n        /* \"#utility.yul\":3128:3152   */\n      tag_78\n      jump\t// in\n    tag_147:\n        /* \"#utility.yul\":3121:3126   */\n      dup2\n        /* \"#utility.yul\":3118:3153   */\n      eq\n        /* \"#utility.yul\":3108:3171   */\n      tag_148\n      jumpi\n        /* \"#utility.yul\":3167:3168   */\n      0x00\n        /* \"#utility.yul\":3164:3165   */\n      dup1\n        /* \"#utility.yul\":3157:3169   */\n      revert\n        /* \"#utility.yul\":3108:3171   */\n    tag_148:\n        /* \"#utility.yul\":3055:3177   */\n      pop\n      jump\t// out\n        /* \"#utility.yul\":3183:3322   */\n    tag_94:\n        /* \"#utility.yul\":3229:3234   */\n      0x00\n        /* \"#utility.yul\":3267:3273   */\n      dup2\n        /* \"#utility.yul\":3254:3274   */\n      calldataload\n        /* \"#utility.yul\":3245:3274   */\n      swap1\n      pop\n        /* \"#utility.yul\":3283:3316   */\n      tag_150\n        /* \"#utility.yul\":3310:3315   */\n      dup2\n        /* \"#utility.yul\":3283:3316   */\n      tag_93\n      jump\t// in\n    tag_150:\n        /* \"#utility.yul\":3183:3322   */\n      swap3\n      swap2\n      pop\n      pop\n      jump\t// out\n        /* \"#utility.yul\":3328:3657   */\n    tag_38:\n        /* \"#utility.yul\":3387:3393   */\n      0x00\n        /* \"#utility.yul\":3436:3438   */\n      0x20\n        /* \"#utility.yul\":3424:3433   */\n      dup3\n        /* \"#utility.yul\":3415:3422   */\n      dup5\n        /* \"#utility.yul\":3411:3434   */\n      sub\n        /* \"#utility.yul\":3407:3439   */\n      slt\n        /* \"#utility.yul\":3404:3523   */\n      iszero\n      tag_152\n      jumpi\n        /* \"#utility.yul\":3442:3521   */\n      tag_153\n      tag_83\n      jump\t// in\n    tag_153:\n        /* \"#utility.yul\":3404:3523   */\n    tag_152:\n        /* \"#utility.yul\":3562:3563   */\n      0x00\n        /* \"#utility.yul\":3587:3640   */\n      tag_154\n        /* \"#utility.yul\":3632:3639   */\n      dup5\n        /* \"#utility.yul\":3623:3629   */\n      dup3\n        /* \"#utility.yul\":3612:3621   */\n      dup6\n        /* \"#utility.yul\":3608:3630   */\n      add\n        /* \"#utility.yul\":3587:3640   */\n      tag_94\n      jump\t// in\n    tag_154:\n        /* \"#utility.yul\":3577:3640   */\n      swap2\n      pop\n        /* \"#utility.yul\":3533:3650   */\n      pop\n        /* \"#utility.yul\":3328:3657   */\n      swap3\n      swap2\n      pop\n      pop\n      jump\t// out\n        /* \"#utility.yul\":3663:3781   */\n    tag_95:\n        /* \"#utility.yul\":3750:3774   */\n      tag_156\n        /* \"#utility.yul\":3768:3773   */\n      dup2\n        /* \"#utility.yul\":3750:3774   */\n      tag_88\n      jump\t// in\n    tag_156:\n        /* \"#utility.yul\":3745:3748   */\n      dup3\n        /* \"#utility.yul\":3738:3775   */\n      mstore\n        /* \"#utility.yul\":3663:3781   */\n      pop\n      pop\n      jump\t// out\n        /* \"#utility.yul\":3787:4009   */\n    tag_46:\n        /* \"#utility.yul\":3880:3884   */\n      0x00\n        /* \"#utility.yul\":3918:3920   */\n      0x20\n        /* \"#utility.yul\":3907:3916   */\n      dup3\n        /* \"#utility.yul\":3903:3921   */\n      add\n        /* \"#utility.yul\":3895:3921   */\n      swap1\n      pop\n        /* \"#utility.yul\":3931:4002   */\n      tag_158\n        /* \"#utility.yul\":3999:4000   */\n      0x00\n        /* \"#utility.yul\":3988:3997   */\n      dup4\n        /* \"#utility.yul\":3984:4001   */\n      add\n        /* \"#utility.yul\":3975:3981   */\n      dup5\n        /* \"#utility.yul\":3931:4002   */\n      tag_95\n      jump\t// in\n    tag_158:\n        /* \"#utility.yul\":3787:4009   */\n      swap3\n      swap2\n      pop\n      pop\n      jump\t// out\n        /* \"#utility.yul\":4015:4135   */\n    tag_96:\n        /* \"#utility.yul\":4087:4110   */\n      tag_160\n        /* \"#utility.yul\":4104:4109   */\n      dup2\n        /* \"#utility.yul\":4087:4110   */\n      tag_91\n      jump\t// in\n    tag_160:\n        /* \"#utility.yul\":4080:4085   */\n      dup2\n        /* \"#utility.yul\":4077:4111   */\n      eq\n        /* \"#utility.yul\":4067:4129   */\n      tag_161\n      jumpi\n        /* \"#utility.yul\":4125:4126   */\n      0x00\n        /* \"#utility.yul\":4122:4123   */\n      dup1\n        /* \"#utility.yul\":4115:4127   */\n      revert\n        /* \"#utility.yul\":4067:4129   */\n    tag_161:\n        /* \"#utility.yul\":4015:4135   */\n      pop\n      jump\t// out\n        /* \"#utility.yul\":4141:4278   */\n    tag_97:\n        /* \"#utility.yul\":4186:4191   */\n      0x00\n        /* \"#utility.yul\":4224:4230   */\n      dup2\n        /* \"#utility.yul\":4211:4231   */\n      calldataload\n        /* \"#utility.yul\":4202:4231   */\n      swap1\n      pop\n        /* \"#utility.yul\":4240:4272   */\n      tag_163\n        /* \"#utility.yul\":4266:4271   */\n      dup2\n        /* \"#utility.yul\":4240:4272   */\n      tag_96\n      jump\t// in\n    tag_163:\n        /* \"#utility.yul\":4141:4278   */\n      swap3\n      swap2\n      pop\n      pop\n      jump\t// out\n        /* \"#utility.yul\":4284:4611   */\n    tag_51:\n        /* \"#utility.yul\":4342:4348   */\n      0x00\n        /* \"#utility.yul\":4391:4393   */\n      0x20\n        /* \"#utility.yul\":4379:4388   */\n      dup3\n        /* \"#utility.yul\":4370:4377   */\n      dup5\n        /* \"#utility.yul\":4366:4389   */\n      sub\n        /* \"#utility.yul\":4362:4394   */\n      slt\n        /* \"#utility.yul\":4359:4478   */\n      iszero\n      tag_165\n      jumpi\n        /* \"#utility.yul\":4397:4476   */\n      tag_166\n      tag_83\n      jump\t// in\n    tag_166:\n        /* \"#utility.yul\":4359:4478   */\n    tag_165:\n        /* \"#utility.yul\":4517:4518   */\n      0x00\n        /* \"#utility.yul\":4542:4594   */\n      tag_167\n        /* \"#utility.yul\":4586:4593   */\n      dup5\n        /* \"#utility.yul\":4577:4583   */\n      dup3\n        /* \"#utility.yul\":4566:4575   */\n      dup6\n        /* \"#utility.yul\":4562:4584   */\n      add\n        /* \"#utility.yul\":4542:4594   */\n      tag_97\n      jump\t// in\n    tag_167:\n        /* \"#utility.yul\":4532:4594   */\n      swap2\n      pop\n        /* \"#utility.yul\":4488:4604   */\n      pop\n        /* \"#utility.yul\":4284:4611   */\n      swap3\n      swap2\n      pop\n      pop\n      jump\t// out\n        /* \"#utility.yul\":4617:4797   */\n    tag_98:\n        /* \"#utility.yul\":4665:4742   */\n      0x4e487b7100000000000000000000000000000000000000000000000000000000\n        /* \"#utility.yul\":4662:4663   */\n      0x00\n        /* \"#utility.yul\":4655:4743   */\n      mstore\n        /* \"#utility.yul\":4762:4766   */\n      0x22\n        /* \"#utility.yul\":4759:4760   */\n      0x04\n        /* \"#utility.yul\":4752:4767   */\n      mstore\n        /* \"#utility.yul\":4786:4790   */\n      0x24\n        /* \"#utility.yul\":4783:4784   */\n      0x00\n        /* \"#utility.yul\":4776:4791   */\n      revert\n        /* \"#utility.yul\":4803:5123   */\n    tag_99:\n        /* \"#utility.yul\":4847:4853   */\n      0x00\n        /* \"#utility.yul\":4884:4885   */\n      0x02\n        /* \"#utility.yul\":4878:4882   */\n      dup3\n        /* \"#utility.yul\":4874:4886   */\n      div\n        /* \"#utility.yul\":4864:4886   */\n      swap1\n      pop\n        /* \"#utility.yul\":4931:4932   */\n      0x01\n        /* \"#utility.yul\":4925:4929   */\n      dup3\n        /* \"#utility.yul\":4921:4933   */\n      and\n        /* \"#utility.yul\":4952:4970   */\n      dup1\n        /* \"#utility.yul\":4942:5023   */\n      tag_170\n      jumpi\n        /* \"#utility.yul\":5008:5012   */\n      0x7f\n        /* \"#utility.yul\":5000:5006   */\n      dup3\n        /* \"#utility.yul\":4996:5013   */\n      and\n        /* \"#utility.yul\":4986:5013   */\n      swap2\n      pop\n        /* \"#utility.yul\":4942:5023   */\n    tag_170:\n        /* \"#utility.yul\":5070:5072   */\n      0x20\n        /* \"#utility.yul\":5062:5068   */\n      dup3\n        /* \"#utility.yul\":5059:5073   */\n      lt\n        /* \"#utility.yul\":5039:5057   */\n      dup2\n        /* \"#utility.yul\":5036:5074   */\n      sub\n        /* \"#utility.yul\":5033:5117   */\n      tag_171\n      jumpi\n        /* \"#utility.yul\":5089:5107   */\n      tag_172\n      tag_98\n      jump\t// in\n    tag_172:\n        /* \"#utility.yul\":5033:5117   */\n    tag_171:\n        /* \"#utility.yul\":4854:5123   */\n      pop\n        /* \"#utility.yul\":4803:5123   */\n      swap2\n      swap1\n      pop\n      jump\t// out\n        /* \"#utility.yul\":5129:5298   */\n    tag_100:\n        /* \"#utility.yul\":5213:5224   */\n      0x00\n        /* \"#utility.yul\":5247:5253   */\n      dup3\n        /* \"#utility.yul\":5242:5245   */\n      dup3\n        /* \"#utility.yul\":5235:5254   */\n      mstore\n        /* \"#utility.yul\":5287:5291   */\n      0x20\n        /* \"#utility.yul\":5282:5285   */\n      dup3\n        /* \"#utility.yul\":5278:5292   */\n      add\n        /* \"#utility.yul\":5263:5292   */\n      swap1\n      pop\n        /* \"#utility.yul\":5129:5298   */\n      swap3\n      swap2\n      pop\n      pop\n      jump\t// out\n        /* \"#utility.yul\":5304:5445   */\n    tag_101:\n        /* \"#utility.yul\":5353:5357   */\n      0x00\n        /* \"#utility.yul\":5376:5379   */\n      dup2\n        /* \"#utility.yul\":5368:5379   */\n      swap1\n      pop\n        /* \"#utility.yul\":5399:5402   */\n      dup2\n        /* \"#utility.yul\":5396:5397   */\n      0x00\n        /* \"#utility.yul\":5389:5403   */\n      mstore\n        /* \"#utility.yul\":5433:5437   */\n      0x20\n        /* \"#utility.yul\":5430:5431   */\n      0x00\n        /* \"#utility.yul\":5420:5438   */\n      keccak256\n        /* \"#utility.yul\":5412:5438   */\n      swap1\n      pop\n        /* \"#utility.yul\":5304:5445   */\n      swap2\n      swap1\n      pop\n      jump\t// out\n        /* \"#utility.yul\":5475:6306   */\n    tag_102:\n        /* \"#utility.yul\":5560:5563   */\n      0x00\n        /* \"#utility.yul\":5597:5602   */\n      dup2\n        /* \"#utility.yul\":5591:5603   */\n      sload\n        /* \"#utility.yul\":5626:5662   */\n      tag_176\n        /* \"#utility.yul\":5652:5661   */\n      dup2\n        /* \"#utility.yul\":5626:5662   */\n      tag_99\n      jump\t// in\n    tag_176:\n        /* \"#utility.yul\":5678:5749   */\n      tag_177\n        /* \"#utility.yul\":5742:5748   */\n      dup2\n        /* \"#utility.yul\":5737:5740   */\n      dup7\n        /* \"#utility.yul\":5678:5749   */\n      tag_100\n      jump\t// in\n    tag_177:\n        /* \"#utility.yul\":5671:5749   */\n      swap5\n      pop\n        /* \"#utility.yul\":5780:5781   */\n      0x01\n        /* \"#utility.yul\":5769:5778   */\n      dup3\n        /* \"#utility.yul\":5765:5782   */\n      and\n        /* \"#utility.yul\":5796:5797   */\n      0x00\n        /* \"#utility.yul\":5791:5955   */\n      dup2\n      eq\n      tag_179\n      jumpi\n        /* \"#utility.yul\":5969:5970   */\n      0x01\n        /* \"#utility.yul\":5964:6300   */\n      dup2\n      eq\n      tag_180\n      jumpi\n        /* \"#utility.yul\":5758:6300   */\n      jump(tag_178)\n        /* \"#utility.yul\":5791:5955   */\n    tag_179:\n        /* \"#utility.yul\":5875:5879   */\n      0xff\n        /* \"#utility.yul\":5871:5880   */\n      not\n        /* \"#utility.yul\":5860:5869   */\n      dup4\n        /* \"#utility.yul\":5856:5881   */\n      and\n        /* \"#utility.yul\":5851:5854   */\n      dup7\n        /* \"#utility.yul\":5844:5882   */\n      mstore\n        /* \"#utility.yul\":5935:5941   */\n      dup2\n        /* \"#utility.yul\":5928:5942   */\n      iszero\n        /* \"#utility.yul\":5921:5943   */\n      iszero\n        /* \"#utility.yul\":5915:5919   */\n      0x20\n        /* \"#utility.yul\":5911:5944   */\n      mul\n        /* \"#utility.yul\":5906:5909   */\n      dup7\n        /* \"#utility.yul\":5902:5945   */\n      add\n        /* \"#utility.yul\":5895:5945   */\n      swap4\n      pop\n        /* \"#utility.yul\":5791:5955   */\n      jump(tag_178)\n        /* \"#utility.yul\":5964:6300   */\n    tag_180:\n        /* \"#utility.yul\":6031:6069   */\n      tag_181\n        /* \"#utility.yul\":6063:6068   */\n      dup6\n        /* \"#utility.yul\":6031:6069   */\n      tag_101\n      jump\t// in\n    tag_181:\n        /* \"#utility.yul\":6091:6092   */\n      0x00\n        /* \"#utility.yul\":6105:6259   */\n    tag_182:\n        /* \"#utility.yul\":6119:6125   */\n      dup4\n        /* \"#utility.yul\":6116:6117   */\n      dup2\n        /* \"#utility.yul\":6113:6126   */\n      lt\n        /* \"#utility.yul\":6105:6259   */\n      iszero\n      tag_184\n      jumpi\n        /* \"#utility.yul\":6193:6200   */\n      dup2\n        /* \"#utility.yul\":6187:6201   */\n      sload\n        /* \"#utility.yul\":6183:6184   */\n      dup2\n        /* \"#utility.yul\":6178:6181   */\n      dup10\n        /* \"#utility.yul\":6174:6185   */\n      add\n        /* \"#utility.yul\":6167:6202   */\n      mstore\n        /* \"#utility.yul\":6243:6244   */\n      0x01\n        /* \"#utility.yul\":6234:6241   */\n      dup3\n        /* \"#utility.yul\":6230:6245   */\n      add\n        /* \"#utility.yul\":6219:6245   */\n      swap2\n      pop\n        /* \"#utility.yul\":6141:6145   */\n      0x20\n        /* \"#utility.yul\":6138:6139   */\n      dup2\n        /* \"#utility.yul\":6134:6146   */\n      add\n        /* \"#utility.yul\":6129:6146   */\n      swap1\n      pop\n        /* \"#utility.yul\":6105:6259   */\n      jump(tag_182)\n    tag_184:\n        /* \"#utility.yul\":6288:6289   */\n      dup1\n        /* \"#utility.yul\":6283:6286   */\n      dup9\n        /* \"#utility.yul\":6279:6290   */\n      add\n        /* \"#utility.yul\":6272:6290   */\n      swap6\n      pop\n        /* \"#utility.yul\":5971:6300   */\n      pop\n      pop\n        /* \"#utility.yul\":5758:6300   */\n    tag_178:\n      pop\n        /* \"#utility.yul\":5564:6306   */\n      pop\n      pop\n        /* \"#utility.yul\":5475:6306   */\n      swap3\n      swap2\n      pop\n      pop\n      jump\t// out\n        /* \"#utility.yul\":6312:6619   */\n    tag_59:\n        /* \"#utility.yul\":6422:6426   */\n      0x00\n        /* \"#utility.yul\":6460:6462   */\n      0x20\n        /* \"#utility.yul\":6449:6458   */\n      dup3\n        /* \"#utility.yul\":6445:6463   */\n      add\n        /* \"#utility.yul\":6437:6463   */\n      swap1\n      pop\n        /* \"#utility.yul\":6509:6518   */\n      dup2\n        /* \"#utility.yul\":6503:6507   */\n      dup2\n        /* \"#utility.yul\":6499:6519   */\n      sub\n        /* \"#utility.yul\":6495:6496   */\n      0x00\n        /* \"#utility.yul\":6484:6493   */\n      dup4\n        /* \"#utility.yul\":6480:6497   */\n      add\n        /* \"#utility.yul\":6473:6520   */\n      mstore\n        /* \"#utility.yul\":6537:6612   */\n      tag_186\n        /* \"#utility.yul\":6607:6611   */\n      dup2\n        /* \"#utility.yul\":6598:6604   */\n      dup5\n        /* \"#utility.yul\":6537:6612   */\n      tag_102\n      jump\t// in\n    tag_186:\n        /* \"#utility.yul\":6529:6612   */\n      swap1\n      pop\n        /* \"#utility.yul\":6312:6619   */\n      swap3\n      swap2\n      pop\n      pop\n      jump\t// out\n        /* \"#utility.yul\":6625:6805   */\n    tag_103:\n        /* \"#utility.yul\":6673:6750   */\n      0x4e487b7100000000000000000000000000000000000000000000000000000000\n        /* \"#utility.yul\":6670:6671   */\n      0x00\n        /* \"#utility.yul\":6663:6751   */\n      mstore\n        /* \"#utility.yul\":6770:6774   */\n      0x11\n        /* \"#utility.yul\":6767:6768   */\n      0x04\n        /* \"#utility.yul\":6760:6775   */\n      mstore\n        /* \"#utility.yul\":6794:6798   */\n      0x24\n        /* \"#utility.yul\":6791:6792   */\n      0x00\n        /* \"#utility.yul\":6784:6799   */\n      revert\n        /* \"#utility.yul\":6811:7002   */\n    tag_62:\n        /* \"#utility.yul\":6851:6854   */\n      0x00\n        /* \"#utility.yul\":6870:6890   */\n      tag_189\n        /* \"#utility.yul\":6888:6889   */\n      dup3\n        /* \"#utility.yul\":6870:6890   */\n      tag_78\n      jump\t// in\n    tag_189:\n        /* \"#utility.yul\":6865:6890   */\n      swap2\n      pop\n        /* \"#utility.yul\":6904:6924   */\n      tag_190\n        /* \"#utility.yul\":6922:6923   */\n      dup4\n        /* \"#utility.yul\":6904:6924   */\n      tag_78\n      jump\t// in\n    tag_190:\n        /* \"#utility.yul\":6899:6924   */\n      swap3\n      pop\n        /* \"#utility.yul\":6947:6948   */\n      dup3\n        /* \"#utility.yul\":6944:6945   */\n      dup3\n        /* \"#utility.yul\":6940:6949   */\n      add\n        /* \"#utility.yul\":6933:6949   */\n      swap1\n      pop\n        /* \"#utility.yul\":6968:6971   */\n      dup1\n        /* \"#utility.yul\":6965:6966   */\n      dup3\n        /* \"#utility.yul\":6962:6972   */\n      gt\n        /* \"#utility.yul\":6959:6995   */\n      iszero\n      tag_191\n      jumpi\n        /* \"#utility.yul\":6975:6993   */\n      tag_192\n      tag_103\n      jump\t// in\n    tag_192:\n        /* \"#utility.yul\":6959:6995   */\n    tag_191:\n        /* \"#utility.yul\":6811:7002   */\n      swap3\n      swap2\n      pop\n      pop\n      jump\t// out\n        /* \"#utility.yul\":7008:7168   */\n    tag_104:\n        /* \"#utility.yul\":7148:7160   */\n      0x6f6e6c79206f776e657200000000000000000000000000000000000000000000\n        /* \"#utility.yul\":7144:7145   */\n      0x00\n        /* \"#utility.yul\":7136:7142   */\n      dup3\n        /* \"#utility.yul\":7132:7146   */\n      add\n        /* \"#utility.yul\":7125:7161   */\n      mstore\n        /* \"#utility.yul\":7008:7168   */\n      pop\n      jump\t// out\n        /* \"#utility.yul\":7174:7540   */\n    tag_105:\n        /* \"#utility.yul\":7316:7319   */\n      0x00\n        /* \"#utility.yul\":7337:7404   */\n      tag_195\n        /* \"#utility.yul\":7401:7403   */\n      0x0a\n        /* \"#utility.yul\":7396:7399   */\n      dup4\n        /* \"#utility.yul\":7337:7404   */\n      tag_100\n      jump\t// in\n    tag_195:\n        /* \"#utility.yul\":7330:7404   */\n      swap2\n      pop\n        /* \"#utility.yul\":7413:7506   */\n      tag_196\n        /* \"#utility.yul\":7502:7505   */\n      dup3\n        /* \"#utility.yul\":7413:7506   */\n      tag_104\n      jump\t// in\n    tag_196:\n        /* \"#utility.yul\":7531:7533   */\n      0x20\n        /* \"#utility.yul\":7526:7529   */\n      dup3\n        /* \"#utility.yul\":7522:7534   */\n      add\n        /* \"#utility.yul\":7515:7534   */\n      swap1\n      pop\n        /* \"#utility.yul\":7174:7540   */\n      swap2\n      swap1\n      pop\n      jump\t// out\n        /* \"#utility.yul\":7546:7965   */\n    tag_66:\n        /* \"#utility.yul\":7712:7716   */\n      0x00\n        /* \"#utility.yul\":7750:7752   */\n      0x20\n        /* \"#utility.yul\":7739:7748   */\n      dup3\n        /* \"#utility.yul\":7735:7753   */\n      add\n        /* \"#utility.yul\":7727:7753   */\n      swap1\n      pop\n        /* \"#utility.yul\":7799:7808   */\n      dup2\n        /* \"#utility.yul\":7793:7797   */\n      dup2\n        /* \"#utility.yul\":7789:7809   */\n      sub\n        /* \"#utility.yul\":7785:7786   */\n      0x00\n        /* \"#utility.yul\":7774:7783   */\n      dup4\n        /* \"#utility.yul\":7770:7787   */\n      add\n        /* \"#utility.yul\":7763:7810   */\n      mstore\n        /* \"#utility.yul\":7827:7958   */\n      tag_198\n        /* \"#utility.yul\":7953:7957   */\n      dup2\n        /* \"#utility.yul\":7827:7958   */\n      tag_105\n      jump\t// in\n    tag_198:\n        /* \"#utility.yul\":7819:7958   */\n      swap1\n      pop\n        /* \"#utility.yul\":7546:7965   */\n      swap2\n      swap1\n      pop\n      jump\t// out\n        /* \"#utility.yul\":7971:8346   */\n    tag_74:\n        /* \"#utility.yul\":8010:8013   */\n      0x00\n        /* \"#utility.yul\":8029:8048   */\n      tag_200\n        /* \"#utility.yul\":8046:8047   */\n      dup3\n        /* \"#utility.yul\":8029:8048   */\n      tag_91\n      jump\t// in\n    tag_200:\n        /* \"#utility.yul\":8024:8048   */\n      swap2\n      pop\n        /* \"#utility.yul\":8062:8081   */\n      tag_201\n        /* \"#utility.yul\":8079:8080   */\n      dup4\n        /* \"#utility.yul\":8062:8081   */\n      tag_91\n      jump\t// in\n    tag_201:\n        /* \"#utility.yul\":8057:8081   */\n      swap3\n      pop\n        /* \"#utility.yul\":8104:8105   */\n      dup3\n        /* \"#utility.yul\":8101:8102   */\n      dup3\n        /* \"#utility.yul\":8097:8106   */\n      add\n        /* \"#utility.yul\":8090:8106   */\n      swap1\n      pop\n        /* \"#utility.yul\":8302:8303   */\n      dup3\n        /* \"#utility.yul\":8297:8300   */\n      dup2\n        /* \"#utility.yul\":8293:8304   */\n      slt\n        /* \"#utility.yul\":8286:8305   */\n      iszero\n        /* \"#utility.yul\":8282:8283   */\n      0x00\n        /* \"#utility.yul\":8279:8280   */\n      dup4\n        /* \"#utility.yul\":8275:8284   */\n      slt\n        /* \"#utility.yul\":8271:8306   */\n      and\n        /* \"#utility.yul\":8254:8255   */\n      dup4\n        /* \"#utility.yul\":8249:8252   */\n      dup3\n        /* \"#utility.yul\":8245:8256   */\n      slt\n        /* \"#utility.yul\":8240:8241   */\n      0x00\n        /* \"#utility.yul\":8237:8238   */\n      dup5\n        /* \"#utility.yul\":8233:8242   */\n      slt\n        /* \"#utility.yul\":8226:8243   */\n      iszero\n        /* \"#utility.yul\":8222:8257   */\n      and\n        /* \"#utility.yul\":8206:8316   */\n      or\n        /* \"#utility.yul\":8203:8339   */\n      iszero\n      tag_202\n      jumpi\n        /* \"#utility.yul\":8319:8337   */\n      tag_203\n      tag_103\n      jump\t// in\n    tag_203:\n        /* \"#utility.yul\":8203:8339   */\n    tag_202:\n        /* \"#utility.yul\":7971:8346   */\n      swap3\n      swap2\n      pop\n      pop\n      jump\t// out\n        /* \"#utility.yul\":8352:8585   */\n    tag_77:\n        /* \"#utility.yul\":8391:8394   */\n      0x00\n        /* \"#utility.yul\":8414:8438   */\n      tag_205\n        /* \"#utility.yul\":8432:8437   */\n      dup3\n        /* \"#utility.yul\":8414:8438   */\n      tag_78\n      jump\t// in\n    tag_205:\n        /* \"#utility.yul\":8405:8438   */\n      swap2\n      pop\n        /* \"#utility.yul\":8460:8526   */\n      0xffffffffffffffffffffffffffffffffffffffffffffffffffffffffffffffff\n        /* \"#utility.yul\":8453:8458   */\n      dup3\n        /* \"#utility.yul\":8450:8527   */\n      sub\n        /* \"#utility.yul\":8447:8550   */\n      tag_206\n      jumpi\n        /* \"#utility.yul\":8530:8548   */\n      tag_207\n      tag_103\n      jump\t// in\n    tag_207:\n        /* \"#utility.yul\":8447:8550   */\n    tag_206:\n        /* \"#utility.yul\":8577:8578   */\n      0x01\n        /* \"#utility.yul\":8570:8575   */\n      dup3\n        /* \"#utility.yul\":8566:8579   */\n      add\n        /* \"#utility.yul\":8559:8579   */\n      swap1\n      pop\n        /* \"#utility.yul\":8352:8585   */\n      swap2\n      swap1\n      pop\n      jump\t// out\n\n    auxdata: 0xa264697066735822122025299f08ca8c3a6b49e676851ece7f6f683cb61cf5b2fa20e2536fe95a77806764736f6c63430008120033\n}\n",
				"bytecode": {
					"linkReferences": {},
					"object": "60806040526040518060400160405280600e81526020017f6973206e6f7420416c6c6f776564000000000000000000000000000000000000815250600390816200004a91906200032e565b503480156200005857600080fd5b5073ab8483f64d9c6d1ecf9b849ae677dd3315835cb2600560006101000a81548173ffffffffffffffffffffffffffffffffffffffff021916908373ffffffffffffffffffffffffffffffffffffffff16021790555062000415565b600081519050919050565b7f4e487b7100000000000000000000000000000000000000000000000000000000600052604160045260246000fd5b7f4e487b7100000000000000000000000000000000000000000000000000000000600052602260045260246000fd5b600060028204905060018216806200013657607f821691505b6020821081036200014c576200014b620000ee565b5b50919050565b60008190508160005260206000209050919050565b60006020601f8301049050919050565b600082821b905092915050565b600060088302620001b67fffffffffffffffffffffffffffffffffffffffffffffffffffffffffffffffff8262000177565b620001c2868362000177565b95508019841693508086168417925050509392505050565b6000819050919050565b6000819050919050565b60006200020f620002096200020384620001da565b620001e4565b620001da565b9050919050565b6000819050919050565b6200022b83620001ee565b620002436200023a8262000216565b84845462000184565b825550505050565b600090565b6200025a6200024b565b6200026781848462000220565b505050565b5b818110156200028f576200028360008262000250565b6001810190506200026d565b5050565b601f821115620002de57620002a88162000152565b620002b38462000167565b81016020851015620002c3578190505b620002db620002d28562000167565b8301826200026c565b50505b505050565b600082821c905092915050565b60006200030360001984600802620002e3565b1980831691505092915050565b60006200031e8383620002f0565b9150826002028217905092915050565b6200033982620000b4565b67ffffffffffffffff811115620003555762000354620000bf565b5b6200036182546200011d565b6200036e82828562000293565b600060209050601f831160018114620003a6576000841562000391578287015190505b6200039d858262000310565b8655506200040d565b601f198416620003b68662000152565b60005b82811015620003e057848901518255600182019150602085019450602081019050620003b9565b86831015620004005784890151620003fc601f891682620002f0565b8355505b6001600288020188555050505b505050505050565b6109ce80620004256000396000f3fe608060405234801561001057600080fd5b50600436106100a95760003560e01c80637cf5dab0116100715780637cf5dab014610154578063865cebe7146101705780638da5cb5b1461018c578063a6f2ae3a146101aa578063be7cb506146101b4578063ffac3b1d146101d0576100a9565b806306661abd146100ae57806319e1fca4146100cc5780632babac22146100ea5780633e5beab9146101065780635f3d8f4a14610136575b600080fd5b6100b66101da565b6040516100c391906104c7565b60405180910390f35b6100d46101e0565b6040516100e191906104fd565b60405180910390f35b61010460048036038101906100ff9190610549565b6101f1565b005b610120600480360381019061011b91906105d4565b61020d565b60405161012d91906104fd565b60405180910390f35b61013e61022d565b60405161014b919061061a565b60405180910390f35b61016e60048036038101906101699190610661565b610233565b005b61018a600480360381019061018591906105d4565b6102db565b005b6101946103c6565b6040516101a1919061069d565b60405180910390f35b6101b26103ec565b005b6101ce60048036038101906101c991906106e4565b61047f565b005b6101d8610496565b005b60015481565b60008054906101000a900460ff1681565b806000806101000a81548160ff02191690831515021790555050565b60046020528060005260406000206000915054906101000a900460ff1681565b60025481565b600460003373ffffffffffffffffffffffffffffffffffffffff1673ffffffffffffffffffffffffffffffffffffffff16815260200190815260200160002060009054906101000a900460ff166003906102c3576040517f08c379a00000000000000000000000000000000000000000000000000000000081526004016102ba919061081b565b60405180910390fd5b50806001546102d2919061086c565b60018190555050565b3373ffffffffffffffffffffffffffffffffffffffff16600560009054906101000a900473ffffffffffffffffffffffffffffffffffffffff1673ffffffffffffffffffffffffffffffffffffffff161461036b576040517f08c379a0000000000000000000000000000000000000000000000000000000008152600401610362906108ec565b60405180910390fd5b6001600460008373ffffffffffffffffffffffffffffffffffffffff1673ffffffffffffffffffffffffffffffffffffffff16815260200190815260200160002060006101000a81548160ff02191690831515021790555050565b600560009054906101000a900473ffffffffffffffffffffffffffffffffffffffff1681565b600460003373ffffffffffffffffffffffffffffffffffffffff1673ffffffffffffffffffffffffffffffffffffffff16815260200190815260200160002060009054906101000a900460ff1660039061047c576040517f08c379a0000000000000000000000000000000000000000000000000000000008152600401610473919061081b565b60405180910390fd5b50565b8060025461048d919061090c565b60028190555050565b6001600081546104a590610950565b91905081905550565b6000819050919050565b6104c1816104ae565b82525050565b60006020820190506104dc60008301846104b8565b92915050565b60008115159050919050565b6104f7816104e2565b82525050565b600060208201905061051260008301846104ee565b92915050565b600080fd5b610526816104e2565b811461053157600080fd5b50565b6000813590506105438161051d565b92915050565b60006020828403121561055f5761055e610518565b5b600061056d84828501610534565b91505092915050565b600073ffffffffffffffffffffffffffffffffffffffff82169050919050565b60006105a182610576565b9050919050565b6105b181610596565b81146105bc57600080fd5b50565b6000813590506105ce816105a8565b92915050565b6000602082840312156105ea576105e9610518565b5b60006105f8848285016105bf565b91505092915050565b6000819050919050565b61061481610601565b82525050565b600060208201905061062f600083018461060b565b92915050565b61063e816104ae565b811461064957600080fd5b50565b60008135905061065b81610635565b92915050565b60006020828403121561067757610676610518565b5b60006106858482850161064c565b91505092915050565b61069781610596565b82525050565b60006020820190506106b2600083018461068e565b92915050565b6106c181610601565b81146106cc57600080fd5b50565b6000813590506106de816106b8565b92915050565b6000602082840312156106fa576106f9610518565b5b6000610708848285016106cf565b91505092915050565b7f4e487b7100000000000000000000000000000000000000000000000000000000600052602260045260246000fd5b6000600282049050600182168061075857607f821691505b60208210810361076b5761076a610711565b5b50919050565b600082825260208201905092915050565b60008190508160005260206000209050919050565b600081546107a481610740565b6107ae8186610771565b945060018216600081146107c957600181146107df57610812565b60ff198316865281151560200286019350610812565b6107e885610782565b60005b8381101561080a578154818901526001820191506020810190506107eb565b808801955050505b50505092915050565b600060208201905081810360008301526108358184610797565b905092915050565b7f4e487b7100000000000000000000000000000000000000000000000000000000600052601160045260246000fd5b6000610877826104ae565b9150610882836104ae565b925082820190508082111561089a5761089961083d565b5b92915050565b7f6f6e6c79206f776e657200000000000000000000000000000000000000000000600082015250565b60006108d6600a83610771565b91506108e1826108a0565b602082019050919050565b60006020820190508181036000830152610905816108c9565b9050919050565b600061091782610601565b915061092283610601565b92508282019050828112156000831216838212600084121516171561094a5761094961083d565b5b92915050565b600061095b826104ae565b91507fffffffffffffffffffffffffffffffffffffffffffffffffffffffffffffffff820361098d5761098c61083d565b5b60018201905091905056fea264697066735822122025299f08ca8c3a6b49e676851ece7f6f683cb61cf5b2fa20e2536fe95a77806764736f6c63430008120033",
					"opcodes": "PUSH1 0x80 PUSH1 0x40 MSTORE PUSH1 0x40 MLOAD DUP1 PUSH1 0x40 ADD PUSH1 0x40 MSTORE DUP1 PUSH1 0xE DUP2 MSTORE PUSH1 0x20 ADD PUSH32 0x6973206E6F7420416C6C6F776564000000000000000000000000000000000000 DUP2 MSTORE POP PUSH1 0x3 SWAP1 DUP2 PUSH3 0x4A SWAP2 SWAP1 PUSH3 0x32E JUMP JUMPDEST POP CALLVALUE DUP1 ISZERO PUSH3 0x58 JUMPI PUSH1 0x0 DUP1 REVERT JUMPDEST POP PUSH20 0xAB8483F64D9C6D1ECF9B849AE677DD3315835CB2 PUSH1 0x5 PUSH1 0x0 PUSH2 0x100 EXP DUP2 SLOAD DUP2 PUSH20 0xFFFFFFFFFFFFFFFFFFFFFFFFFFFFFFFFFFFFFFFF MUL NOT AND SWAP1 DUP4 PUSH20 0xFFFFFFFFFFFFFFFFFFFFFFFFFFFFFFFFFFFFFFFF AND MUL OR SWAP1 SSTORE POP PUSH3 0x415 JUMP JUMPDEST PUSH1 0x0 DUP2 MLOAD SWAP1 POP SWAP2 SWAP1 POP JUMP JUMPDEST PUSH32 0x4E487B7100000000000000000000000000000000000000000000000000000000 PUSH1 0x0 MSTORE PUSH1 0x41 PUSH1 0x4 MSTORE PUSH1 0x24 PUSH1 0x0 REVERT JUMPDEST PUSH32 0x4E487B7100000000000000000000000000000000000000000000000000000000 PUSH1 0x0 MSTORE PUSH1 0x22 PUSH1 0x4 MSTORE PUSH1 0x24 PUSH1 0x0 REVERT JUMPDEST PUSH1 0x0 PUSH1 0x2 DUP3 DIV SWAP1 POP PUSH1 0x1 DUP3 AND DUP1 PUSH3 0x136 JUMPI PUSH1 0x7F DUP3 AND SWAP2 POP JUMPDEST PUSH1 0x20 DUP3 LT DUP2 SUB PUSH3 0x14C JUMPI PUSH3 0x14B PUSH3 0xEE JUMP JUMPDEST JUMPDEST POP SWAP2 SWAP1 POP JUMP JUMPDEST PUSH1 0x0 DUP2 SWAP1 POP DUP2 PUSH1 0x0 MSTORE PUSH1 0x20 PUSH1 0x0 KECCAK256 SWAP1 POP SWAP2 SWAP1 POP JUMP JUMPDEST PUSH1 0x0 PUSH1 0x20 PUSH1 0x1F DUP4 ADD DIV SWAP1 POP SWAP2 SWAP1 POP JUMP JUMPDEST PUSH1 0x0 DUP3 DUP3 SHL SWAP1 POP SWAP3 SWAP2 POP POP JUMP JUMPDEST PUSH1 0x0 PUSH1 0x8 DUP4 MUL PUSH3 0x1B6 PUSH32 0xFFFFFFFFFFFFFFFFFFFFFFFFFFFFFFFFFFFFFFFFFFFFFFFFFFFFFFFFFFFFFFFF DUP3 PUSH3 0x177 JUMP JUMPDEST PUSH3 0x1C2 DUP7 DUP4 PUSH3 0x177 JUMP JUMPDEST SWAP6 POP DUP1 NOT DUP5 AND SWAP4 POP DUP1 DUP7 AND DUP5 OR SWAP3 POP POP POP SWAP4 SWAP3 POP POP POP JUMP JUMPDEST PUSH1 0x0 DUP2 SWAP1 POP SWAP2 SWAP1 POP JUMP JUMPDEST PUSH1 0x0 DUP2 SWAP1 POP SWAP2 SWAP1 POP JUMP JUMPDEST PUSH1 0x0 PUSH3 0x20F PUSH3 0x209 PUSH3 0x203 DUP5 PUSH3 0x1DA JUMP JUMPDEST PUSH3 0x1E4 JUMP JUMPDEST PUSH3 0x1DA JUMP JUMPDEST SWAP1 POP SWAP2 SWAP1 POP JUMP JUMPDEST PUSH1 0x0 DUP2 SWAP1 POP SWAP2 SWAP1 POP JUMP JUMPDEST PUSH3 0x22B DUP4 PUSH3 0x1EE JUMP JUMPDEST PUSH3 0x243 PUSH3 0x23A DUP3 PUSH3 0x216 JUMP JUMPDEST DUP5 DUP5 SLOAD PUSH3 0x184 JUMP JUMPDEST DUP3 SSTORE POP POP POP POP JUMP JUMPDEST PUSH1 0x0 SWAP1 JUMP JUMPDEST PUSH3 0x25A PUSH3 0x24B JUMP JUMPDEST PUSH3 0x267 DUP2 DUP5 DUP5 PUSH3 0x220 JUMP JUMPDEST POP POP POP JUMP JUMPDEST JUMPDEST DUP2 DUP2 LT ISZERO PUSH3 0x28F JUMPI PUSH3 0x283 PUSH1 0x0 DUP3 PUSH3 0x250 JUMP JUMPDEST PUSH1 0x1 DUP2 ADD SWAP1 POP PUSH3 0x26D JUMP JUMPDEST POP POP JUMP JUMPDEST PUSH1 0x1F DUP3 GT ISZERO PUSH3 0x2DE JUMPI PUSH3 0x2A8 DUP2 PUSH3 0x152 JUMP JUMPDEST PUSH3 0x2B3 DUP5 PUSH3 0x167 JUMP JUMPDEST DUP2 ADD PUSH1 0x20 DUP6 LT ISZERO PUSH3 0x2C3 JUMPI DUP2 SWAP1 POP JUMPDEST PUSH3 0x2DB PUSH3 0x2D2 DUP6 PUSH3 0x167 JUMP JUMPDEST DUP4 ADD DUP3 PUSH3 0x26C JUMP JUMPDEST POP POP JUMPDEST POP POP POP JUMP JUMPDEST PUSH1 0x0 DUP3 DUP3 SHR SWAP1 POP SWAP3 SWAP2 POP POP JUMP JUMPDEST PUSH1 0x0 PUSH3 0x303 PUSH1 0x0 NOT DUP5 PUSH1 0x8 MUL PUSH3 0x2E3 JUMP JUMPDEST NOT DUP1 DUP4 AND SWAP2 POP POP SWAP3 SWAP2 POP POP JUMP JUMPDEST PUSH1 0x0 PUSH3 0x31E DUP4 DUP4 PUSH3 0x2F0 JUMP JUMPDEST SWAP2 POP DUP3 PUSH1 0x2 MUL DUP3 OR SWAP1 POP SWAP3 SWAP2 POP POP JUMP JUMPDEST PUSH3 0x339 DUP3 PUSH3 0xB4 JUMP JUMPDEST PUSH8 0xFFFFFFFFFFFFFFFF DUP2 GT ISZERO PUSH3 0x355 JUMPI PUSH3 0x354 PUSH3 0xBF JUMP JUMPDEST JUMPDEST PUSH3 0x361 DUP3 SLOAD PUSH3 0x11D JUMP JUMPDEST PUSH3 0x36E DUP3 DUP3 DUP6 PUSH3 0x293 JUMP JUMPDEST PUSH1 0x0 PUSH1 0x20 SWAP1 POP PUSH1 0x1F DUP4 GT PUSH1 0x1 DUP2 EQ PUSH3 0x3A6 JUMPI PUSH1 0x0 DUP5 ISZERO PUSH3 0x391 JUMPI DUP3 DUP8 ADD MLOAD SWAP1 POP JUMPDEST PUSH3 0x39D DUP6 DUP3 PUSH3 0x310 JUMP JUMPDEST DUP7 SSTORE POP PUSH3 0x40D JUMP JUMPDEST PUSH1 0x1F NOT DUP5 AND PUSH3 0x3B6 DUP7 PUSH3 0x152 JUMP JUMPDEST PUSH1 0x0 JUMPDEST DUP3 DUP2 LT ISZERO PUSH3 0x3E0 JUMPI DUP5 DUP10 ADD MLOAD DUP3 SSTORE PUSH1 0x1 DUP3 ADD SWAP2 POP PUSH1 0x20 DUP6 ADD SWAP5 POP PUSH1 0x20 DUP2 ADD SWAP1 POP PUSH3 0x3B9 JUMP JUMPDEST DUP7 DUP4 LT ISZERO PUSH3 0x400 JUMPI DUP5 DUP10 ADD MLOAD PUSH3 0x3FC PUSH1 0x1F DUP10 AND DUP3 PUSH3 0x2F0 JUMP JUMPDEST DUP4 SSTORE POP JUMPDEST PUSH1 0x1 PUSH1 0x2 DUP9 MUL ADD DUP9 SSTORE POP POP POP JUMPDEST POP POP POP POP POP POP JUMP JUMPDEST PUSH2 0x9CE DUP1 PUSH3 0x425 PUSH1 0x0 CODECOPY PUSH1 0x0 RETURN INVALID PUSH1 0x80 PUSH1 0x40 MSTORE CALLVALUE DUP1 ISZERO PUSH2 0x10 JUMPI PUSH1 0x0 DUP1 REVERT JUMPDEST POP PUSH1 0x4 CALLDATASIZE LT PUSH2 0xA9 JUMPI PUSH1 0x0 CALLDATALOAD PUSH1 0xE0 SHR DUP1 PUSH4 0x7CF5DAB0 GT PUSH2 0x71 JUMPI DUP1 PUSH4 0x7CF5DAB0 EQ PUSH2 0x154 JUMPI DUP1 PUSH4 0x865CEBE7 EQ PUSH2 0x170 JUMPI DUP1 PUSH4 0x8DA5CB5B EQ PUSH2 0x18C JUMPI DUP1 PUSH4 0xA6F2AE3A EQ PUSH2 0x1AA JUMPI DUP1 PUSH4 0xBE7CB506 EQ PUSH2 0x1B4 JUMPI DUP1 PUSH4 0xFFAC3B1D EQ PUSH2 0x1D0 JUMPI PUSH2 0xA9 JUMP JUMPDEST DUP1 PUSH4 0x6661ABD EQ PUSH2 0xAE JUMPI DUP1 PUSH4 0x19E1FCA4 EQ PUSH2 0xCC JUMPI DUP1 PUSH4 0x2BABAC22 EQ PUSH2 0xEA JUMPI DUP1 PUSH4 0x3E5BEAB9 EQ PUSH2 0x106 JUMPI DUP1 PUSH4 0x5F3D8F4A EQ PUSH2 0x136 JUMPI JUMPDEST PUSH1 0x0 DUP1 REVERT JUMPDEST PUSH2 0xB6 PUSH2 0x1DA JUMP JUMPDEST PUSH1 0x40 MLOAD PUSH2 0xC3 SWAP2 SWAP1 PUSH2 0x4C7 JUMP JUMPDEST PUSH1 0x40 MLOAD DUP1 SWAP2 SUB SWAP1 RETURN JUMPDEST PUSH2 0xD4 PUSH2 0x1E0 JUMP JUMPDEST PUSH1 0x40 MLOAD PUSH2 0xE1 SWAP2 SWAP1 PUSH2 0x4FD JUMP JUMPDEST PUSH1 0x40 MLOAD DUP1 SWAP2 SUB SWAP1 RETURN JUMPDEST PUSH2 0x104 PUSH1 0x4 DUP1 CALLDATASIZE SUB DUP2 ADD SWAP1 PUSH2 0xFF SWAP2 SWAP1 PUSH2 0x549 JUMP JUMPDEST PUSH2 0x1F1 JUMP JUMPDEST STOP JUMPDEST PUSH2 0x120 PUSH1 0x4 DUP1 CALLDATASIZE SUB DUP2 ADD SWAP1 PUSH2 0x11B SWAP2 SWAP1 PUSH2 0x5D4 JUMP JUMPDEST PUSH2 0x20D JUMP JUMPDEST PUSH1 0x40 MLOAD PUSH2 0x12D SWAP2 SWAP1 PUSH2 0x4FD JUMP JUMPDEST PUSH1 0x40 MLOAD DUP1 SWAP2 SUB SWAP1 RETURN JUMPDEST PUSH2 0x13E PUSH2 0x22D JUMP JUMPDEST PUSH1 0x40 MLOAD PUSH2 0x14B SWAP2 SWAP1 PUSH2 0x61A JUMP JUMPDEST PUSH1 0x40 MLOAD DUP1 SWAP2 SUB SWAP1 RETURN JUMPDEST PUSH2 0x16E PUSH1 0x4 DUP1 CALLDATASIZE SUB DUP2 ADD SWAP1 PUSH2 0x169 SWAP2 SWAP1 PUSH2 0x661 JUMP JUMPDEST PUSH2 0x233 JUMP JUMPDEST STOP JUMPDEST PUSH2 0x18A PUSH1 0x4 DUP1 CALLDATASIZE SUB DUP2 ADD SWAP1 PUSH2 0x185 SWAP2 SWAP1 PUSH2 0x5D4 JUMP JUMPDEST PUSH2 0x2DB JUMP JUMPDEST STOP JUMPDEST PUSH2 0x194 PUSH2 0x3C6 JUMP JUMPDEST PUSH1 0x40 MLOAD PUSH2 0x1A1 SWAP2 SWAP1 PUSH2 0x69D JUMP JUMPDEST PUSH1 0x40 MLOAD DUP1 SWAP2 SUB SWAP1 RETURN JUMPDEST PUSH2 0x1B2 PUSH2 0x3EC JUMP JUMPDEST STOP JUMPDEST PUSH2 0x1CE PUSH1 0x4 DUP1 CALLDATASIZE SUB DUP2 ADD SWAP1 PUSH2 0x1C9 SWAP2 SWAP1 PUSH2 0x6E4 JUMP JUMPDEST PUSH2 0x47F JUMP JUMPDEST STOP JUMPDEST PUSH2 0x1D8 PUSH2 0x496 JUMP JUMPDEST STOP JUMPDEST PUSH1 0x1 SLOAD DUP2 JUMP JUMPDEST PUSH1 0x0 DUP1 SLOAD SWAP1 PUSH2 0x100 EXP SWAP1 DIV PUSH1 0xFF AND DUP2 JUMP JUMPDEST DUP1 PUSH1 0x0 DUP1 PUSH2 0x100 EXP DUP2 SLOAD DUP2 PUSH1 0xFF MUL NOT AND SWAP1 DUP4 ISZERO ISZERO MUL OR SWAP1 SSTORE POP POP JUMP JUMPDEST PUSH1 0x4 PUSH1 0x20 MSTORE DUP1 PUSH1 0x0 MSTORE PUSH1 0x40 PUSH1 0x0 KECCAK256 PUSH1 0x0 SWAP2 POP SLOAD SWAP1 PUSH2 0x100 EXP SWAP1 DIV PUSH1 0xFF AND DUP2 JUMP JUMPDEST PUSH1 0x2 SLOAD DUP2 JUMP JUMPDEST PUSH1 0x4 PUSH1 0x0 CALLER PUSH20 0xFFFFFFFFFFFFFFFFFFFFFFFFFFFFFFFFFFFFFFFF AND PUSH20 0xFFFFFFFFFFFFFFFFFFFFFFFFFFFFFFFFFFFFFFFF AND DUP2 MSTORE PUSH1 0x20 ADD SWAP1 DUP2 MSTORE PUSH1 0x20 ADD PUSH1 0x0 KECCAK256 PUSH1 0x0 SWAP1 SLOAD SWAP1 PUSH2 0x100 EXP SWAP1 DIV PUSH1 0xFF AND PUSH1 0x3 SWAP1 PUSH2 0x2C3 JUMPI PUSH1 0x40 MLOAD PUSH32 0x8C379A000000000000000000000000000000000000000000000000000000000 DUP2 MSTORE PUSH1 0x4 ADD PUSH2 0x2BA SWAP2 SWAP1 PUSH2 0x81B JUMP JUMPDEST PUSH1 0x40 MLOAD DUP1 SWAP2 SUB SWAP1 REVERT JUMPDEST POP DUP1 PUSH1 0x1 SLOAD PUSH2 0x2D2 SWAP2 SWAP1 PUSH2 0x86C JUMP JUMPDEST PUSH1 0x1 DUP2 SWAP1 SSTORE POP POP JUMP JUMPDEST CALLER PUSH20 0xFFFFFFFFFFFFFFFFFFFFFFFFFFFFFFFFFFFFFFFF AND PUSH1 0x5 PUSH1 0x0 SWAP1 SLOAD SWAP1 PUSH2 0x100 EXP SWAP1 DIV PUSH20 0xFFFFFFFFFFFFFFFFFFFFFFFFFFFFFFFFFFFFFFFF AND PUSH20 0xFFFFFFFFFFFFFFFFFFFFFFFFFFFFFFFFFFFFFFFF AND EQ PUSH2 0x36B JUMPI PUSH1 0x40 MLOAD PUSH32 0x8C379A000000000000000000000000000000000000000000000000000000000 DUP2 MSTORE PUSH1 0x4 ADD PUSH2 0x362 SWAP1 PUSH2 0x8EC JUMP JUMPDEST PUSH1 0x40 MLOAD DUP1 SWAP2 SUB SWAP1 REVERT JUMPDEST PUSH1 0x1 PUSH1 0x4 PUSH1 0x0 DUP4 PUSH20 0xFFFFFFFFFFFFFFFFFFFFFFFFFFFFFFFFFFFFFFFF AND PUSH20 0xFFFFFFFFFFFFFFFFFFFFFFFFFFFFFFFFFFFFFFFF AND DUP2 MSTORE PUSH1 0x20 ADD SWAP1 DUP2 MSTORE PUSH1 0x20 ADD PUSH1 0x0 KECCAK256 PUSH1 0x0 PUSH2 0x100 EXP DUP2 SLOAD DUP2 PUSH1 0xFF MUL NOT AND SWAP1 DUP4 ISZERO ISZERO MUL OR SWAP1 SSTORE POP POP JUMP JUMPDEST PUSH1 0x5 PUSH1 0x0 SWAP1 SLOAD SWAP1 PUSH2 0x100 EXP SWAP1 DIV PUSH20 0xFFFFFFFFFFFFFFFFFFFFFFFFFFFFFFFFFFFFFFFF AND DUP2 JUMP JUMPDEST PUSH1 0x4 PUSH1 0x0 CALLER PUSH20 0xFFFFFFFFFFFFFFFFFFFFFFFFFFFFFFFFFFFFFFFF AND PUSH20 0xFFFFFFFFFFFFFFFFFFFFFFFFFFFFFFFFFFFFFFFF AND DUP2 MSTORE PUSH1 0x20 ADD SWAP1 DUP2 MSTORE PUSH1 0x20 ADD PUSH1 0x0 KECCAK256 PUSH1 0x0 SWAP1 SLOAD SWAP1 PUSH2 0x100 EXP SWAP1 DIV PUSH1 0xFF AND PUSH1 0x3 SWAP1 PUSH2 0x47C JUMPI PUSH1 0x40 MLOAD PUSH32 0x8C379A000000000000000000000000000000000000000000000000000000000 DUP2 MSTORE PUSH1 0x4 ADD PUSH2 0x473 SWAP2 SWAP1 PUSH2 0x81B JUMP JUMPDEST PUSH1 0x40 MLOAD DUP1 SWAP2 SUB SWAP1 REVERT JUMPDEST POP JUMP JUMPDEST DUP1 PUSH1 0x2 SLOAD PUSH2 0x48D SWAP2 SWAP1 PUSH2 0x90C JUMP JUMPDEST PUSH1 0x2 DUP2 SWAP1 SSTORE POP POP JUMP JUMPDEST PUSH1 0x1 PUSH1 0x0 DUP2 SLOAD PUSH2 0x4A5 SWAP1 PUSH2 0x950 JUMP JUMPDEST SWAP2 SWAP1 POP DUP2 SWAP1 SSTORE POP JUMP JUMPDEST PUSH1 0x0 DUP2 SWAP1 POP SWAP2 SWAP1 POP JUMP JUMPDEST PUSH2 0x4C1 DUP2 PUSH2 0x4AE JUMP JUMPDEST DUP3 MSTORE POP POP JUMP JUMPDEST PUSH1 0x0 PUSH1 0x20 DUP3 ADD SWAP1 POP PUSH2 0x4DC PUSH1 0x0 DUP4 ADD DUP5 PUSH2 0x4B8 JUMP JUMPDEST SWAP3 SWAP2 POP POP JUMP JUMPDEST PUSH1 0x0 DUP2 ISZERO ISZERO SWAP1 POP SWAP2 SWAP1 POP JUMP JUMPDEST PUSH2 0x4F7 DUP2 PUSH2 0x4E2 JUMP JUMPDEST DUP3 MSTORE POP POP JUMP JUMPDEST PUSH1 0x0 PUSH1 0x20 DUP3 ADD SWAP1 POP PUSH2 0x512 PUSH1 0x0 DUP4 ADD DUP5 PUSH2 0x4EE JUMP JUMPDEST SWAP3 SWAP2 POP POP JUMP JUMPDEST PUSH1 0x0 DUP1 REVERT JUMPDEST PUSH2 0x526 DUP2 PUSH2 0x4E2 JUMP JUMPDEST DUP2 EQ PUSH2 0x531 JUMPI PUSH1 0x0 DUP1 REVERT JUMPDEST POP JUMP JUMPDEST PUSH1 0x0 DUP2 CALLDATALOAD SWAP1 POP PUSH2 0x543 DUP2 PUSH2 0x51D JUMP JUMPDEST SWAP3 SWAP2 POP POP JUMP JUMPDEST PUSH1 0x0 PUSH1 0x20 DUP3 DUP5 SUB SLT ISZERO PUSH2 0x55F JUMPI PUSH2 0x55E PUSH2 0x518 JUMP JUMPDEST JUMPDEST PUSH1 0x0 PUSH2 0x56D DUP5 DUP3 DUP6 ADD PUSH2 0x534 JUMP JUMPDEST SWAP2 POP POP SWAP3 SWAP2 POP POP JUMP JUMPDEST PUSH1 0x0 PUSH20 0xFFFFFFFFFFFFFFFFFFFFFFFFFFFFFFFFFFFFFFFF DUP3 AND SWAP1 POP SWAP2 SWAP1 POP JUMP JUMPDEST PUSH1 0x0 PUSH2 0x5A1 DUP3 PUSH2 0x576 JUMP JUMPDEST SWAP1 POP SWAP2 SWAP1 POP JUMP JUMPDEST PUSH2 0x5B1 DUP2 PUSH2 0x596 JUMP JUMPDEST DUP2 EQ PUSH2 0x5BC JUMPI PUSH1 0x0 DUP1 REVERT JUMPDEST POP JUMP JUMPDEST PUSH1 0x0 DUP2 CALLDATALOAD SWAP1 POP PUSH2 0x5CE DUP2 PUSH2 0x5A8 JUMP JUMPDEST SWAP3 SWAP2 POP POP JUMP JUMPDEST PUSH1 0x0 PUSH1 0x20 DUP3 DUP5 SUB SLT ISZERO PUSH2 0x5EA JUMPI PUSH2 0x5E9 PUSH2 0x518 JUMP JUMPDEST JUMPDEST PUSH1 0x0 PUSH2 0x5F8 DUP5 DUP3 DUP6 ADD PUSH2 0x5BF JUMP JUMPDEST SWAP2 POP POP SWAP3 SWAP2 POP POP JUMP JUMPDEST PUSH1 0x0 DUP2 SWAP1 POP SWAP2 SWAP1 POP JUMP JUMPDEST PUSH2 0x614 DUP2 PUSH2 0x601 JUMP JUMPDEST DUP3 MSTORE POP POP JUMP JUMPDEST PUSH1 0x0 PUSH1 0x20 DUP3 ADD SWAP1 POP PUSH2 0x62F PUSH1 0x0 DUP4 ADD DUP5 PUSH2 0x60B JUMP JUMPDEST SWAP3 SWAP2 POP POP JUMP JUMPDEST PUSH2 0x63E DUP2 PUSH2 0x4AE JUMP JUMPDEST DUP2 EQ PUSH2 0x649 JUMPI PUSH1 0x0 DUP1 REVERT JUMPDEST POP JUMP JUMPDEST PUSH1 0x0 DUP2 CALLDATALOAD SWAP1 POP PUSH2 0x65B DUP2 PUSH2 0x635 JUMP JUMPDEST SWAP3 SWAP2 POP POP JUMP JUMPDEST PUSH1 0x0 PUSH1 0x20 DUP3 DUP5 SUB SLT ISZERO PUSH2 0x677 JUMPI PUSH2 0x676 PUSH2 0x518 JUMP JUMPDEST JUMPDEST PUSH1 0x0 PUSH2 0x685 DUP5 DUP3 DUP6 ADD PUSH2 0x64C JUMP JUMPDEST SWAP2 POP POP SWAP3 SWAP2 POP POP JUMP JUMPDEST PUSH2 0x697 DUP2 PUSH2 0x596 JUMP JUMPDEST DUP3 MSTORE POP POP JUMP JUMPDEST PUSH1 0x0 PUSH1 0x20 DUP3 ADD SWAP1 POP PUSH2 0x6B2 PUSH1 0x0 DUP4 ADD DUP5 PUSH2 0x68E JUMP JUMPDEST SWAP3 SWAP2 POP POP JUMP JUMPDEST PUSH2 0x6C1 DUP2 PUSH2 0x601 JUMP JUMPDEST DUP2 EQ PUSH2 0x6CC JUMPI PUSH1 0x0 DUP1 REVERT JUMPDEST POP JUMP JUMPDEST PUSH1 0x0 DUP2 CALLDATALOAD SWAP1 POP PUSH2 0x6DE DUP2 PUSH2 0x6B8 JUMP JUMPDEST SWAP3 SWAP2 POP POP JUMP JUMPDEST PUSH1 0x0 PUSH1 0x20 DUP3 DUP5 SUB SLT ISZERO PUSH2 0x6FA JUMPI PUSH2 0x6F9 PUSH2 0x518 JUMP JUMPDEST JUMPDEST PUSH1 0x0 PUSH2 0x708 DUP5 DUP3 DUP6 ADD PUSH2 0x6CF JUMP JUMPDEST SWAP2 POP POP SWAP3 SWAP2 POP POP JUMP JUMPDEST PUSH32 0x4E487B7100000000000000000000000000000000000000000000000000000000 PUSH1 0x0 MSTORE PUSH1 0x22 PUSH1 0x4 MSTORE PUSH1 0x24 PUSH1 0x0 REVERT JUMPDEST PUSH1 0x0 PUSH1 0x2 DUP3 DIV SWAP1 POP PUSH1 0x1 DUP3 AND DUP1 PUSH2 0x758 JUMPI PUSH1 0x7F DUP3 AND SWAP2 POP JUMPDEST PUSH1 0x20 DUP3 LT DUP2 SUB PUSH2 0x76B JUMPI PUSH2 0x76A PUSH2 0x711 JUMP JUMPDEST JUMPDEST POP SWAP2 SWAP1 POP JUMP JUMPDEST PUSH1 0x0 DUP3 DUP3 MSTORE PUSH1 0x20 DUP3 ADD SWAP1 POP SWAP3 SWAP2 POP POP JUMP JUMPDEST PUSH1 0x0 DUP2 SWAP1 POP DUP2 PUSH1 0x0 MSTORE PUSH1 0x20 PUSH1 0x0 KECCAK256 SWAP1 POP SWAP2 SWAP1 POP JUMP JUMPDEST PUSH1 0x0 DUP2 SLOAD PUSH2 0x7A4 DUP2 PUSH2 0x740 JUMP JUMPDEST PUSH2 0x7AE DUP2 DUP7 PUSH2 0x771 JUMP JUMPDEST SWAP5 POP PUSH1 0x1 DUP3 AND PUSH1 0x0 DUP2 EQ PUSH2 0x7C9 JUMPI PUSH1 0x1 DUP2 EQ PUSH2 0x7DF JUMPI PUSH2 0x812 JUMP JUMPDEST PUSH1 0xFF NOT DUP4 AND DUP7 MSTORE DUP2 ISZERO ISZERO PUSH1 0x20 MUL DUP7 ADD SWAP4 POP PUSH2 0x812 JUMP JUMPDEST PUSH2 0x7E8 DUP6 PUSH2 0x782 JUMP JUMPDEST PUSH1 0x0 JUMPDEST DUP4 DUP2 LT ISZERO PUSH2 0x80A JUMPI DUP2 SLOAD DUP2 DUP10 ADD MSTORE PUSH1 0x1 DUP3 ADD SWAP2 POP PUSH1 0x20 DUP2 ADD SWAP1 POP PUSH2 0x7EB JUMP JUMPDEST DUP1 DUP9 ADD SWAP6 POP POP POP JUMPDEST POP POP POP SWAP3 SWAP2 POP POP JUMP JUMPDEST PUSH1 0x0 PUSH1 0x20 DUP3 ADD SWAP1 POP DUP2 DUP2 SUB PUSH1 0x0 DUP4 ADD MSTORE PUSH2 0x835 DUP2 DUP5 PUSH2 0x797 JUMP JUMPDEST SWAP1 POP SWAP3 SWAP2 POP POP JUMP JUMPDEST PUSH32 0x4E487B7100000000000000000000000000000000000000000000000000000000 PUSH1 0x0 MSTORE PUSH1 0x11 PUSH1 0x4 MSTORE PUSH1 0x24 PUSH1 0x0 REVERT JUMPDEST PUSH1 0x0 PUSH2 0x877 DUP3 PUSH2 0x4AE JUMP JUMPDEST SWAP2 POP PUSH2 0x882 DUP4 PUSH2 0x4AE JUMP JUMPDEST SWAP3 POP DUP3 DUP3 ADD SWAP1 POP DUP1 DUP3 GT ISZERO PUSH2 0x89A JUMPI PUSH2 0x899 PUSH2 0x83D JUMP JUMPDEST JUMPDEST SWAP3 SWAP2 POP POP JUMP JUMPDEST PUSH32 0x6F6E6C79206F776E657200000000000000000000000000000000000000000000 PUSH1 0x0 DUP3 ADD MSTORE POP JUMP JUMPDEST PUSH1 0x0 PUSH2 0x8D6 PUSH1 0xA DUP4 PUSH2 0x771 JUMP JUMPDEST SWAP2 POP PUSH2 0x8E1 DUP3 PUSH2 0x8A0 JUMP JUMPDEST PUSH1 0x20 DUP3 ADD SWAP1 POP SWAP2 SWAP1 POP JUMP JUMPDEST PUSH1 0x0 PUSH1 0x20 DUP3 ADD SWAP1 POP DUP2 DUP2 SUB PUSH1 0x0 DUP4 ADD MSTORE PUSH2 0x905 DUP2 PUSH2 0x8C9 JUMP JUMPDEST SWAP1 POP SWAP2 SWAP1 POP JUMP JUMPDEST PUSH1 0x0 PUSH2 0x917 DUP3 PUSH2 0x601 JUMP JUMPDEST SWAP2 POP PUSH2 0x922 DUP4 PUSH2 0x601 JUMP JUMPDEST SWAP3 POP DUP3 DUP3 ADD SWAP1 POP DUP3 DUP2 SLT ISZERO PUSH1 0x0 DUP4 SLT AND DUP4 DUP3 SLT PUSH1 0x0 DUP5 SLT ISZERO AND OR ISZERO PUSH2 0x94A JUMPI PUSH2 0x949 PUSH2 0x83D JUMP JUMPDEST JUMPDEST SWAP3 SWAP2 POP POP JUMP JUMPDEST PUSH1 0x0 PUSH2 0x95B DUP3 PUSH2 0x4AE JUMP JUMPDEST SWAP2 POP PUSH32 0xFFFFFFFFFFFFFFFFFFFFFFFFFFFFFFFFFFFFFFFFFFFFFFFFFFFFFFFFFFFFFFFF DUP3 SUB PUSH2 0x98D JUMPI PUSH2 0x98C PUSH2 0x83D JUMP JUMPDEST JUMPDEST PUSH1 0x1 DUP3 ADD SWAP1 POP SWAP2 SWAP1 POP JUMP INVALID LOG2 PUSH5 0x6970667358 0x22 SLT KECCAK256 0x25 0x29 SWAP16 ADDMOD 0xCA DUP13 GASPRICE PUSH12 0x49E676851ECE7F6F683CB61C CREATE2 0xB2 STATICCALL KECCAK256 0xE2 MSTORE8 PUSH16 0xE95A77806764736F6C63430008120033 "
				},
				"gasEstimates": {
					"creation": {
						"codeDepositCost": "502000",
						"executionCost": "infinite",
						"totalCost": "infinite"
					},
					"external": {
						"allowance(address)": "2912",
						"allowed()": "2491",
						"assignAllowence(address)": "27004",
						"buy()": "infinite",
						"count()": "2430",
						"increment(uint256)": "infinite",
						"oneIncrement()": "24605",
						"owner()": "2558",
						"setAllowed(bool)": "24724",
						"signedCount()": "2518",
						"signedIncrement(int256)": "infinite"
					}
				},
				"methodIdentifiers": {
					"allowance(address)": "3e5beab9",
					"allowed()": "19e1fca4",
					"assignAllowence(address)": "865cebe7",
					"buy()": "a6f2ae3a",
					"count()": "06661abd",
					"increment(uint256)": "7cf5dab0",
					"oneIncrement()": "ffac3b1d",
					"owner()": "8da5cb5b",
					"setAllowed(bool)": "2babac22",
					"signedCount()": "5f3d8f4a",
					"signedIncrement(int256)": "be7cb506"
				}
			},
			"storageLayout": {
				"storage": [
					{
						"astId": 3,
						"contract": "contracts/SimpleContract.sol:SimpleContract",
						"label": "allowed",
						"offset": 0,
						"slot": "0",
						"type": "t_bool"
					},
					{
						"astId": 5,
						"contract": "contracts/SimpleContract.sol:SimpleContract",
						"label": "count",
						"offset": 0,
						"slot": "1",
						"type": "t_uint256"
					},
					{
						"astId": 7,
						"contract": "contracts/SimpleContract.sol:SimpleContract",
						"label": "signedCount",
						"offset": 0,
						"slot": "2",
						"type": "t_int256"
					},
					{
						"astId": 10,
						"contract": "contracts/SimpleContract.sol:SimpleContract",
						"label": "errorMessage",
						"offset": 0,
						"slot": "3",
						"type": "t_string_storage"
					},
					{
						"astId": 14,
						"contract": "contracts/SimpleContract.sol:SimpleContract",
						"label": "allowance",
						"offset": 0,
						"slot": "4",
						"type": "t_mapping(t_address,t_bool)"
					},
					{
						"astId": 16,
						"contract": "contracts/SimpleContract.sol:SimpleContract",
						"label": "owner",
						"offset": 0,
						"slot": "5",
						"type": "t_address"
					}
				],
				"types": {
					"t_address": {
						"encoding": "inplace",
						"label": "address",
						"numberOfBytes": "20"
					},
					"t_bool": {
						"encoding": "inplace",
						"label": "bool",
						"numberOfBytes": "1"
					},
					"t_int256": {
						"encoding": "inplace",
						"label": "int256",
						"numberOfBytes": "32"
					},
					"t_mapping(t_address,t_bool)": {
						"encoding": "mapping",
						"key": "t_address",
						"label": "mapping(address => bool)",
						"numberOfBytes": "32",
						"value": "t_bool"
					},
					"t_string_storage": {
						"encoding": "bytes",
						"label": "string",
						"numberOfBytes": "32"
					},
					"t_uint256": {
						"encoding": "inplace",
						"label": "uint256",
						"numberOfBytes": "32"
					}
				}
			},
			"userdoc": {
				"kind": "user",
				"methods": {},
				"version": 1
			}
		}
	}
}