{
	"contracts/SimpleContract.sol": {
		"SimpleContract": {
			"abi": [
				{
					"inputs": [],
					"name": "allowed",
					"outputs": [
						{
							"internalType": "bool",
							"name": "",
							"type": "bool"
						}
					],
					"stateMutability": "view",
					"type": "function"
				},
				{
					"inputs": [],
					"name": "buy",
					"outputs": [],
					"stateMutability": "nonpayable",
					"type": "function"
				},
				{
					"inputs": [
						{
							"internalType": "bool",
							"name": "_allowed",
							"type": "bool"
						}
					],
					"name": "setAllowed",
					"outputs": [],
					"stateMutability": "nonpayable",
					"type": "function"
				}
			],
			"devdoc": {
				"kind": "dev",
				"methods": {},
				"version": 1
			},
			"evm": {
				"assembly": "    /* \"contracts/SimpleContract.sol\":66:335  contract SimpleContract {... */\n  mstore(0x40, 0x80)\n  callvalue\n  dup1\n  iszero\n  tag_1\n  jumpi\n  0x00\n  dup1\n  revert\ntag_1:\n  pop\n  dataSize(sub_0)\n  dup1\n  dataOffset(sub_0)\n  0x00\n  codecopy\n  0x00\n  return\nstop\n\nsub_0: assembly {\n        /* \"contracts/SimpleContract.sol\":66:335  contract SimpleContract {... */\n      mstore(0x40, 0x80)\n      callvalue\n      dup1\n      iszero\n      tag_1\n      jumpi\n      0x00\n      dup1\n      revert\n    tag_1:\n      pop\n      jumpi(tag_2, lt(calldatasize, 0x04))\n      shr(0xe0, calldataload(0x00))\n      dup1\n      0x19e1fca4\n      eq\n      tag_3\n      jumpi\n      dup1\n      0x2babac22\n      eq\n      tag_4\n      jumpi\n      dup1\n      0xa6f2ae3a\n      eq\n      tag_5\n      jumpi\n    tag_2:\n      0x00\n      dup1\n      revert\n        /* \"contracts/SimpleContract.sol\":96:115  bool public allowed */\n    tag_3:\n      tag_6\n      tag_7\n      jump\t// in\n    tag_6:\n      mload(0x40)\n      tag_8\n      swap2\n      swap1\n      tag_9\n      jump\t// in\n    tag_8:\n      mload(0x40)\n      dup1\n      swap2\n      sub\n      swap1\n      return\n        /* \"contracts/SimpleContract.sol\":121:198  function setAllowed(bool _allowed) public {... */\n    tag_4:\n      tag_10\n      0x04\n      dup1\n      calldatasize\n      sub\n      dup2\n      add\n      swap1\n      tag_11\n      swap2\n      swap1\n      tag_12\n      jump\t// in\n    tag_11:\n      tag_13\n      jump\t// in\n    tag_10:\n      stop\n        /* \"contracts/SimpleContract.sol\":291:331  function buy() public isAllowed {... */\n    tag_5:\n      tag_14\n      tag_15\n      jump\t// in\n    tag_14:\n      stop\n        /* \"contracts/SimpleContract.sol\":96:115  bool public allowed */\n    tag_7:\n      0x00\n      dup1\n      sload\n      swap1\n      0x0100\n      exp\n      swap1\n      div\n      0xff\n      and\n      dup2\n      jump\t// out\n        /* \"contracts/SimpleContract.sol\":121:198  function setAllowed(bool _allowed) public {... */\n    tag_13:\n        /* \"contracts/SimpleContract.sol\":183:191  _allowed */\n      dup1\n        /* \"contracts/SimpleContract.sol\":173:180  allowed */\n      0x00\n      dup1\n        /* \"contracts/SimpleContract.sol\":173:191  allowed = _allowed */\n      0x0100\n      exp\n      dup2\n      sload\n      dup2\n      0xff\n      mul\n      not\n      and\n      swap1\n      dup4\n      iszero\n      iszero\n      mul\n      or\n      swap1\n      sstore\n      pop\n        /* \"contracts/SimpleContract.sol\":121:198  function setAllowed(bool _allowed) public {... */\n      pop\n      jump\t// out\n        /* \"contracts/SimpleContract.sol\":291:331  function buy() public isAllowed {... */\n    tag_15:\n        /* \"contracts/SimpleContract.sol\":242:249  allowed */\n      0x00\n      dup1\n      sload\n      swap1\n      0x0100\n      exp\n      swap1\n      div\n      0xff\n      and\n        /* \"contracts/SimpleContract.sol\":234:267  require(allowed,\"is not allowed\") */\n      tag_18\n      jumpi\n      mload(0x40)\n      0x08c379a000000000000000000000000000000000000000000000000000000000\n      dup2\n      mstore\n      0x04\n      add\n      tag_19\n      swap1\n      tag_20\n      jump\t// in\n    tag_19:\n      mload(0x40)\n      dup1\n      swap2\n      sub\n      swap1\n      revert\n    tag_18:\n        /* \"contracts/SimpleContract.sol\":291:331  function buy() public isAllowed {... */\n      jump\t// out\n        /* \"#utility.yul\":7:97   */\n    tag_22:\n        /* \"#utility.yul\":41:48   */\n      0x00\n        /* \"#utility.yul\":84:89   */\n      dup2\n        /* \"#utility.yul\":77:90   */\n      iszero\n        /* \"#utility.yul\":70:91   */\n      iszero\n        /* \"#utility.yul\":59:91   */\n      swap1\n      pop\n        /* \"#utility.yul\":7:97   */\n      swap2\n      swap1\n      pop\n      jump\t// out\n        /* \"#utility.yul\":103:212   */\n    tag_23:\n        /* \"#utility.yul\":184:205   */\n      tag_35\n        /* \"#utility.yul\":199:204   */\n      dup2\n        /* \"#utility.yul\":184:205   */\n      tag_22\n      jump\t// in\n    tag_35:\n        /* \"#utility.yul\":179:182   */\n      dup3\n        /* \"#utility.yul\":172:206   */\n      mstore\n        /* \"#utility.yul\":103:212   */\n      pop\n      pop\n      jump\t// out\n        /* \"#utility.yul\":218:428   */\n    tag_9:\n        /* \"#utility.yul\":305:309   */\n      0x00\n        /* \"#utility.yul\":343:345   */\n      0x20\n        /* \"#utility.yul\":332:341   */\n      dup3\n        /* \"#utility.yul\":328:346   */\n      add\n        /* \"#utility.yul\":320:346   */\n      swap1\n      pop\n        /* \"#utility.yul\":356:421   */\n      tag_37\n        /* \"#utility.yul\":418:419   */\n      0x00\n        /* \"#utility.yul\":407:416   */\n      dup4\n        /* \"#utility.yul\":403:420   */\n      add\n        /* \"#utility.yul\":394:400   */\n      dup5\n        /* \"#utility.yul\":356:421   */\n      tag_23\n      jump\t// in\n    tag_37:\n        /* \"#utility.yul\":218:428   */\n      swap3\n      swap2\n      pop\n      pop\n      jump\t// out\n        /* \"#utility.yul\":515:632   */\n    tag_25:\n        /* \"#utility.yul\":624:625   */\n      0x00\n        /* \"#utility.yul\":621:622   */\n      dup1\n        /* \"#utility.yul\":614:626   */\n      revert\n        /* \"#utility.yul\":761:877   */\n    tag_27:\n        /* \"#utility.yul\":831:852   */\n      tag_42\n        /* \"#utility.yul\":846:851   */\n      dup2\n        /* \"#utility.yul\":831:852   */\n      tag_22\n      jump\t// in\n    tag_42:\n        /* \"#utility.yul\":824:829   */\n      dup2\n        /* \"#utility.yul\":821:853   */\n      eq\n        /* \"#utility.yul\":811:871   */\n      tag_43\n      jumpi\n        /* \"#utility.yul\":867:868   */\n      0x00\n        /* \"#utility.yul\":864:865   */\n      dup1\n        /* \"#utility.yul\":857:869   */\n      revert\n        /* \"#utility.yul\":811:871   */\n    tag_43:\n        /* \"#utility.yul\":761:877   */\n      pop\n      jump\t// out\n        /* \"#utility.yul\":883:1016   */\n    tag_28:\n        /* \"#utility.yul\":926:931   */\n      0x00\n        /* \"#utility.yul\":964:970   */\n      dup2\n        /* \"#utility.yul\":951:971   */\n      calldataload\n        /* \"#utility.yul\":942:971   */\n      swap1\n      pop\n        /* \"#utility.yul\":980:1010   */\n      tag_45\n        /* \"#utility.yul\":1004:1009   */\n      dup2\n        /* \"#utility.yul\":980:1010   */\n      tag_27\n      jump\t// in\n    tag_45:\n        /* \"#utility.yul\":883:1016   */\n      swap3\n      swap2\n      pop\n      pop\n      jump\t// out\n        /* \"#utility.yul\":1022:1345   */\n    tag_12:\n        /* \"#utility.yul\":1078:1084   */\n      0x00\n        /* \"#utility.yul\":1127:1129   */\n      0x20\n        /* \"#utility.yul\":1115:1124   */\n      dup3\n        /* \"#utility.yul\":1106:1113   */\n      dup5\n        /* \"#utility.yul\":1102:1125   */\n      sub\n        /* \"#utility.yul\":1098:1130   */\n      slt\n        /* \"#utility.yul\":1095:1214   */\n      iszero\n      tag_47\n      jumpi\n        /* \"#utility.yul\":1133:1212   */\n      tag_48\n      tag_25\n      jump\t// in\n    tag_48:\n        /* \"#utility.yul\":1095:1214   */\n    tag_47:\n        /* \"#utility.yul\":1253:1254   */\n      0x00\n        /* \"#utility.yul\":1278:1328   */\n      tag_49\n        /* \"#utility.yul\":1320:1327   */\n      dup5\n        /* \"#utility.yul\":1311:1317   */\n      dup3\n        /* \"#utility.yul\":1300:1309   */\n      dup6\n        /* \"#utility.yul\":1296:1318   */\n      add\n        /* \"#utility.yul\":1278:1328   */\n      tag_28\n      jump\t// in\n    tag_49:\n        /* \"#utility.yul\":1268:1328   */\n      swap2\n      pop\n        /* \"#utility.yul\":1224:1338   */\n      pop\n        /* \"#utility.yul\":1022:1345   */\n      swap3\n      swap2\n      pop\n      pop\n      jump\t// out\n        /* \"#utility.yul\":1351:1520   */\n    tag_29:\n        /* \"#utility.yul\":1435:1446   */\n      0x00\n        /* \"#utility.yul\":1469:1475   */\n      dup3\n        /* \"#utility.yul\":1464:1467   */\n      dup3\n        /* \"#utility.yul\":1457:1476   */\n      mstore\n        /* \"#utility.yul\":1509:1513   */\n      0x20\n        /* \"#utility.yul\":1504:1507   */\n      dup3\n        /* \"#utility.yul\":1500:1514   */\n      add\n        /* \"#utility.yul\":1485:1514   */\n      swap1\n      pop\n        /* \"#utility.yul\":1351:1520   */\n      swap3\n      swap2\n      pop\n      pop\n      jump\t// out\n        /* \"#utility.yul\":1526:1690   */\n    tag_30:\n        /* \"#utility.yul\":1666:1682   */\n      0x6973206e6f7420616c6c6f776564000000000000000000000000000000000000\n        /* \"#utility.yul\":1662:1663   */\n      0x00\n        /* \"#utility.yul\":1654:1660   */\n      dup3\n        /* \"#utility.yul\":1650:1664   */\n      add\n        /* \"#utility.yul\":1643:1683   */\n      mstore\n        /* \"#utility.yul\":1526:1690   */\n      pop\n      jump\t// out\n        /* \"#utility.yul\":1696:2062   */\n    tag_31:\n        /* \"#utility.yul\":1838:1841   */\n      0x00\n        /* \"#utility.yul\":1859:1926   */\n      tag_53\n        /* \"#utility.yul\":1923:1925   */\n      0x0e\n        /* \"#utility.yul\":1918:1921   */\n      dup4\n        /* \"#utility.yul\":1859:1926   */\n      tag_29\n      jump\t// in\n    tag_53:\n        /* \"#utility.yul\":1852:1926   */\n      swap2\n      pop\n        /* \"#utility.yul\":1935:2028   */\n      tag_54\n        /* \"#utility.yul\":2024:2027   */\n      dup3\n        /* \"#utility.yul\":1935:2028   */\n      tag_30\n      jump\t// in\n    tag_54:\n        /* \"#utility.yul\":2053:2055   */\n      0x20\n        /* \"#utility.yul\":2048:2051   */\n      dup3\n        /* \"#utility.yul\":2044:2056   */\n      add\n        /* \"#utility.yul\":2037:2056   */\n      swap1\n      pop\n        /* \"#utility.yul\":1696:2062   */\n      swap2\n      swap1\n      pop\n      jump\t// out\n        /* \"#utility.yul\":2068:2487   */\n    tag_20:\n        /* \"#utility.yul\":2234:2238   */\n      0x00\n        /* \"#utility.yul\":2272:2274   */\n      0x20\n        /* \"#utility.yul\":2261:2270   */\n      dup3\n        /* \"#utility.yul\":2257:2275   */\n      add\n        /* \"#utility.yul\":2249:2275   */\n      swap1\n      pop\n        /* \"#utility.yul\":2321:2330   */\n      dup2\n        /* \"#utility.yul\":2315:2319   */\n      dup2\n        /* \"#utility.yul\":2311:2331   */\n      sub\n        /* \"#utility.yul\":2307:2308   */\n      0x00\n        /* \"#utility.yul\":2296:2305   */\n      dup4\n        /* \"#utility.yul\":2292:2309   */\n      add\n        /* \"#utility.yul\":2285:2332   */\n      mstore\n        /* \"#utility.yul\":2349:2480   */\n      tag_56\n        /* \"#utility.yul\":2475:2479   */\n      dup2\n        /* \"#utility.yul\":2349:2480   */\n      tag_31\n      jump\t// in\n    tag_56:\n        /* \"#utility.yul\":2341:2480   */\n      swap1\n      pop\n        /* \"#utility.yul\":2068:2487   */\n      swap2\n      swap1\n      pop\n      jump\t// out\n\n    auxdata: 0xa26469706673582212207d8df83270ee861daf5148a1d28bade195c909c7529853083c9744a8953bc3a664736f6c63430008120033\n}\n",
				"bytecode": {
					"linkReferences": {},
					"object": "608060405234801561001057600080fd5b5061024d806100206000396000f3fe608060405234801561001057600080fd5b50600436106100415760003560e01c806319e1fca4146100465780632babac2214610064578063a6f2ae3a14610080575b600080fd5b61004e61008a565b60405161005b9190610121565b60405180910390f35b61007e6004803603810190610079919061016d565b61009b565b005b6100886100b7565b005b60008054906101000a900460ff1681565b806000806101000a81548160ff02191690831515021790555050565b60008054906101000a900460ff16610104576040517f08c379a00000000000000000000000000000000000000000000000000000000081526004016100fb906101f7565b60405180910390fd5b565b60008115159050919050565b61011b81610106565b82525050565b60006020820190506101366000830184610112565b92915050565b600080fd5b61014a81610106565b811461015557600080fd5b50565b60008135905061016781610141565b92915050565b6000602082840312156101835761018261013c565b5b600061019184828501610158565b91505092915050565b600082825260208201905092915050565b7f6973206e6f7420616c6c6f776564000000000000000000000000000000000000600082015250565b60006101e1600e8361019a565b91506101ec826101ab565b602082019050919050565b60006020820190508181036000830152610210816101d4565b905091905056fea26469706673582212207d8df83270ee861daf5148a1d28bade195c909c7529853083c9744a8953bc3a664736f6c63430008120033",
					"opcodes": "PUSH1 0x80 PUSH1 0x40 MSTORE CALLVALUE DUP1 ISZERO PUSH2 0x10 JUMPI PUSH1 0x0 DUP1 REVERT JUMPDEST POP PUSH2 0x24D DUP1 PUSH2 0x20 PUSH1 0x0 CODECOPY PUSH1 0x0 RETURN INVALID PUSH1 0x80 PUSH1 0x40 MSTORE CALLVALUE DUP1 ISZERO PUSH2 0x10 JUMPI PUSH1 0x0 DUP1 REVERT JUMPDEST POP PUSH1 0x4 CALLDATASIZE LT PUSH2 0x41 JUMPI PUSH1 0x0 CALLDATALOAD PUSH1 0xE0 SHR DUP1 PUSH4 0x19E1FCA4 EQ PUSH2 0x46 JUMPI DUP1 PUSH4 0x2BABAC22 EQ PUSH2 0x64 JUMPI DUP1 PUSH4 0xA6F2AE3A EQ PUSH2 0x80 JUMPI JUMPDEST PUSH1 0x0 DUP1 REVERT JUMPDEST PUSH2 0x4E PUSH2 0x8A JUMP JUMPDEST PUSH1 0x40 MLOAD PUSH2 0x5B SWAP2 SWAP1 PUSH2 0x121 JUMP JUMPDEST PUSH1 0x40 MLOAD DUP1 SWAP2 SUB SWAP1 RETURN JUMPDEST PUSH2 0x7E PUSH1 0x4 DUP1 CALLDATASIZE SUB DUP2 ADD SWAP1 PUSH2 0x79 SWAP2 SWAP1 PUSH2 0x16D JUMP JUMPDEST PUSH2 0x9B JUMP JUMPDEST STOP JUMPDEST PUSH2 0x88 PUSH2 0xB7 JUMP JUMPDEST STOP JUMPDEST PUSH1 0x0 DUP1 SLOAD SWAP1 PUSH2 0x100 EXP SWAP1 DIV PUSH1 0xFF AND DUP2 JUMP JUMPDEST DUP1 PUSH1 0x0 DUP1 PUSH2 0x100 EXP DUP2 SLOAD DUP2 PUSH1 0xFF MUL NOT AND SWAP1 DUP4 ISZERO ISZERO MUL OR SWAP1 SSTORE POP POP JUMP JUMPDEST PUSH1 0x0 DUP1 SLOAD SWAP1 PUSH2 0x100 EXP SWAP1 DIV PUSH1 0xFF AND PUSH2 0x104 JUMPI PUSH1 0x40 MLOAD PUSH32 0x8C379A000000000000000000000000000000000000000000000000000000000 DUP2 MSTORE PUSH1 0x4 ADD PUSH2 0xFB SWAP1 PUSH2 0x1F7 JUMP JUMPDEST PUSH1 0x40 MLOAD DUP1 SWAP2 SUB SWAP1 REVERT JUMPDEST JUMP JUMPDEST PUSH1 0x0 DUP2 ISZERO ISZERO SWAP1 POP SWAP2 SWAP1 POP JUMP JUMPDEST PUSH2 0x11B DUP2 PUSH2 0x106 JUMP JUMPDEST DUP3 MSTORE POP POP JUMP JUMPDEST PUSH1 0x0 PUSH1 0x20 DUP3 ADD SWAP1 POP PUSH2 0x136 PUSH1 0x0 DUP4 ADD DUP5 PUSH2 0x112 JUMP JUMPDEST SWAP3 SWAP2 POP POP JUMP JUMPDEST PUSH1 0x0 DUP1 REVERT JUMPDEST PUSH2 0x14A DUP2 PUSH2 0x106 JUMP JUMPDEST DUP2 EQ PUSH2 0x155 JUMPI PUSH1 0x0 DUP1 REVERT JUMPDEST POP JUMP JUMPDEST PUSH1 0x0 DUP2 CALLDATALOAD SWAP1 POP PUSH2 0x167 DUP2 PUSH2 0x141 JUMP JUMPDEST SWAP3 SWAP2 POP POP JUMP JUMPDEST PUSH1 0x0 PUSH1 0x20 DUP3 DUP5 SUB SLT ISZERO PUSH2 0x183 JUMPI PUSH2 0x182 PUSH2 0x13C JUMP JUMPDEST JUMPDEST PUSH1 0x0 PUSH2 0x191 DUP5 DUP3 DUP6 ADD PUSH2 0x158 JUMP JUMPDEST SWAP2 POP POP SWAP3 SWAP2 POP POP JUMP JUMPDEST PUSH1 0x0 DUP3 DUP3 MSTORE PUSH1 0x20 DUP3 ADD SWAP1 POP SWAP3 SWAP2 POP POP JUMP JUMPDEST PUSH32 0x6973206E6F7420616C6C6F776564000000000000000000000000000000000000 PUSH1 0x0 DUP3 ADD MSTORE POP JUMP JUMPDEST PUSH1 0x0 PUSH2 0x1E1 PUSH1 0xE DUP4 PUSH2 0x19A JUMP JUMPDEST SWAP2 POP PUSH2 0x1EC DUP3 PUSH2 0x1AB JUMP JUMPDEST PUSH1 0x20 DUP3 ADD SWAP1 POP SWAP2 SWAP1 POP JUMP JUMPDEST PUSH1 0x0 PUSH1 0x20 DUP3 ADD SWAP1 POP DUP2 DUP2 SUB PUSH1 0x0 DUP4 ADD MSTORE PUSH2 0x210 DUP2 PUSH2 0x1D4 JUMP JUMPDEST SWAP1 POP SWAP2 SWAP1 POP JUMP INVALID LOG2 PUSH5 0x6970667358 0x22 SLT KECCAK256 PUSH30 0x8DF83270EE861DAF5148A1D28BADE195C909C7529853083C9744A8953BC3 0xA6 PUSH5 0x736F6C6343 STOP ADDMOD SLT STOP CALLER "
				},
				"gasEstimates": {
					"creation": {
						"codeDepositCost": "117800",
						"executionCost": "165",
						"totalCost": "117965"
					},
					"external": {
						"allowed()": "2446",
						"buy()": "2605",
						"setAllowed(bool)": "24679"
					}
				},
				"methodIdentifiers": {
					"allowed()": "19e1fca4",
					"buy()": "a6f2ae3a",
					"setAllowed(bool)": "2babac22"
				}
			},
			"storageLayout": {
				"storage": [
					{
						"astId": 3,
						"contract": "contracts/SimpleContract.sol:SimpleContract",
						"label": "allowed",
						"offset": 0,
						"slot": "0",
						"type": "t_bool"
					}
				],
				"types": {
					"t_bool": {
						"encoding": "inplace",
						"label": "bool",
						"numberOfBytes": "1"
					}
				}
			},
			"userdoc": {
				"kind": "user",
				"methods": {},
				"version": 1
			}
		}
	}
}