{
	"contracts/SimpleContract.sol": {
		"SimpleContract": {
			"abi": [
				{
					"inputs": [],
					"stateMutability": "nonpayable",
					"type": "constructor"
				},
				{
					"anonymous": false,
					"inputs": [
						{
							"indexed": true,
							"internalType": "address",
							"name": "owner",
							"type": "address"
						},
						{
							"indexed": false,
							"internalType": "uint256",
							"name": "creationTime",
							"type": "uint256"
						}
					],
					"name": "ContractCreated",
					"type": "event"
				},
				{
					"inputs": [],
					"name": "WhoAmI",
					"outputs": [
						{
							"internalType": "string",
							"name": "",
							"type": "string"
						}
					],
					"stateMutability": "pure",
					"type": "function"
				},
				{
					"inputs": [
						{
							"internalType": "address",
							"name": "",
							"type": "address"
						}
					],
					"name": "accountValues",
					"outputs": [
						{
							"internalType": "string",
							"name": "name",
							"type": "string"
						},
						{
							"internalType": "string",
							"name": "surname",
							"type": "string"
						},
						{
							"internalType": "uint256",
							"name": "balance",
							"type": "uint256"
						}
					],
					"stateMutability": "view",
					"type": "function"
				},
				{
					"inputs": [
						{
							"components": [
								{
									"internalType": "string",
									"name": "name",
									"type": "string"
								},
								{
									"internalType": "string",
									"name": "surname",
									"type": "string"
								},
								{
									"internalType": "uint256",
									"name": "balance",
									"type": "uint256"
								}
							],
							"internalType": "struct SimpleContract.Account",
							"name": "admin",
							"type": "tuple"
						}
					],
					"name": "addAdmin",
					"outputs": [],
					"stateMutability": "nonpayable",
					"type": "function"
				},
				{
					"inputs": [
						{
							"internalType": "uint256",
							"name": "",
							"type": "uint256"
						}
					],
					"name": "admins",
					"outputs": [
						{
							"internalType": "string",
							"name": "name",
							"type": "string"
						},
						{
							"internalType": "string",
							"name": "surname",
							"type": "string"
						},
						{
							"internalType": "uint256",
							"name": "balance",
							"type": "uint256"
						}
					],
					"stateMutability": "view",
					"type": "function"
				},
				{
					"inputs": [
						{
							"internalType": "address",
							"name": "",
							"type": "address"
						},
						{
							"internalType": "address",
							"name": "",
							"type": "address"
						}
					],
					"name": "allowance",
					"outputs": [
						{
							"internalType": "bool",
							"name": "",
							"type": "bool"
						}
					],
					"stateMutability": "view",
					"type": "function"
				},
				{
					"inputs": [],
					"name": "allowed",
					"outputs": [
						{
							"internalType": "bool",
							"name": "",
							"type": "bool"
						}
					],
					"stateMutability": "view",
					"type": "function"
				},
				{
					"inputs": [
						{
							"components": [
								{
									"internalType": "string",
									"name": "name",
									"type": "string"
								},
								{
									"internalType": "string",
									"name": "surname",
									"type": "string"
								},
								{
									"internalType": "uint256",
									"name": "balance",
									"type": "uint256"
								}
							],
							"internalType": "struct SimpleContract.Account",
							"name": "_account",
							"type": "tuple"
						}
					],
					"name": "assignAddressValues",
					"outputs": [],
					"stateMutability": "nonpayable",
					"type": "function"
				},
				{
					"inputs": [
						{
							"internalType": "address",
							"name": "_address",
							"type": "address"
						}
					],
					"name": "assignAllowence",
					"outputs": [],
					"stateMutability": "nonpayable",
					"type": "function"
				},
				{
					"inputs": [
						{
							"internalType": "string",
							"name": "_name",
							"type": "string"
						},
						{
							"internalType": "string",
							"name": "_surname",
							"type": "string"
						},
						{
							"internalType": "uint256",
							"name": "_balance",
							"type": "uint256"
						}
					],
					"name": "assignValue",
					"outputs": [],
					"stateMutability": "nonpayable",
					"type": "function"
				},
				{
					"inputs": [
						{
							"components": [
								{
									"internalType": "string",
									"name": "name",
									"type": "string"
								},
								{
									"internalType": "string",
									"name": "surname",
									"type": "string"
								},
								{
									"internalType": "uint256",
									"name": "balance",
									"type": "uint256"
								}
							],
							"internalType": "struct SimpleContract.Account",
							"name": "_account",
							"type": "tuple"
						}
					],
					"name": "assignValueStruct",
					"outputs": [],
					"stateMutability": "nonpayable",
					"type": "function"
				},
				{
					"inputs": [],
					"name": "buy",
					"outputs": [],
					"stateMutability": "nonpayable",
					"type": "function"
				},
				{
					"inputs": [],
					"name": "count",
					"outputs": [
						{
							"internalType": "uint256",
							"name": "",
							"type": "uint256"
						}
					],
					"stateMutability": "view",
					"type": "function"
				},
				{
					"inputs": [
						{
							"internalType": "uint256",
							"name": "",
							"type": "uint256"
						}
					],
					"name": "errorMessages",
					"outputs": [
						{
							"internalType": "string",
							"name": "",
							"type": "string"
						}
					],
					"stateMutability": "view",
					"type": "function"
				},
				{
					"inputs": [],
					"name": "getAccount",
					"outputs": [
						{
							"components": [
								{
									"internalType": "string",
									"name": "name",
									"type": "string"
								},
								{
									"internalType": "string",
									"name": "surname",
									"type": "string"
								},
								{
									"internalType": "uint256",
									"name": "balance",
									"type": "uint256"
								}
							],
							"internalType": "struct SimpleContract.Account",
							"name": "",
							"type": "tuple"
						}
					],
					"stateMutability": "view",
					"type": "function"
				},
				{
					"inputs": [],
					"name": "getAllAdmins",
					"outputs": [
						{
							"components": [
								{
									"internalType": "string",
									"name": "name",
									"type": "string"
								},
								{
									"internalType": "string",
									"name": "surname",
									"type": "string"
								},
								{
									"internalType": "uint256",
									"name": "balance",
									"type": "uint256"
								}
							],
							"internalType": "struct SimpleContract.Account[]",
							"name": "",
							"type": "tuple[]"
						}
					],
					"stateMutability": "view",
					"type": "function"
				},
				{
					"inputs": [],
					"name": "getFullName",
					"outputs": [
						{
							"internalType": "string",
							"name": "",
							"type": "string"
						}
					],
					"stateMutability": "pure",
					"type": "function"
				},
				{
					"inputs": [],
					"name": "getSizeOfErrorMessages",
					"outputs": [
						{
							"internalType": "uint256",
							"name": "",
							"type": "uint256"
						}
					],
					"stateMutability": "view",
					"type": "function"
				},
				{
					"inputs": [],
					"name": "iAmReady",
					"outputs": [
						{
							"internalType": "string",
							"name": "",
							"type": "string"
						}
					],
					"stateMutability": "pure",
					"type": "function"
				},
				{
					"inputs": [
						{
							"internalType": "uint256",
							"name": "_increment",
							"type": "uint256"
						}
					],
					"name": "increment",
					"outputs": [],
					"stateMutability": "nonpayable",
					"type": "function"
				},
				{
					"inputs": [],
					"name": "oneIncrement",
					"outputs": [],
					"stateMutability": "nonpayable",
					"type": "function"
				},
				{
					"inputs": [],
					"name": "owner",
					"outputs": [
						{
							"internalType": "address",
							"name": "",
							"type": "address"
						}
					],
					"stateMutability": "view",
					"type": "function"
				},
				{
					"inputs": [
						{
							"internalType": "bool",
							"name": "_owner",
							"type": "bool"
						}
					],
					"name": "setAllowed",
					"outputs": [],
					"stateMutability": "nonpayable",
					"type": "function"
				},
				{
					"inputs": [],
					"name": "signedCount",
					"outputs": [
						{
							"internalType": "int256",
							"name": "",
							"type": "int256"
						}
					],
					"stateMutability": "view",
					"type": "function"
				},
				{
					"inputs": [
						{
							"internalType": "int256",
							"name": "_increment",
							"type": "int256"
						}
					],
					"name": "signedIncrement",
					"outputs": [],
					"stateMutability": "nonpayable",
					"type": "function"
				}
			],
			"devdoc": {
				"kind": "dev",
				"methods": {},
				"version": 1
			},
			"evm": {
				"assembly": "    /* \"contracts/SimpleContract.sol\":578:5059  contract SimpleContract is IAction, Whois, VeliUysal{... */\n  mstore(0x40, 0x80)\n    /* \"contracts/SimpleContract.sol\":2302:2640  constructor(){... */\n  callvalue\n  dup1\n  iszero\n  tag_1\n  jumpi\n  0x00\n  dup1\n  revert\ntag_1:\n  pop\n    /* \"contracts/SimpleContract.sol\":2331:2341  msg.sender */\n  caller\n    /* \"contracts/SimpleContract.sol\":2325:2330  owner */\n  0x06\n  0x00\n    /* \"contracts/SimpleContract.sol\":2325:2341  owner=msg.sender */\n  0x0100\n  exp\n  dup2\n  sload\n  dup2\n  0xffffffffffffffffffffffffffffffffffffffff\n  mul\n  not\n  and\n  swap1\n  dup4\n  0xffffffffffffffffffffffffffffffffffffffff\n  and\n  mul\n  or\n  swap1\n  sstore\n  pop\n    /* \"contracts/SimpleContract.sol\":2351:2386  errorMessages[0] = \"is not allowed\" */\n  mload(0x40)\n  dup1\n  0x40\n  add\n  0x40\n  mstore\n  dup1\n  0x0e\n  dup2\n  mstore\n  0x20\n  add\n  0x6973206e6f7420616c6c6f776564000000000000000000000000000000000000\n  dup2\n  mstore\n  pop\n    /* \"contracts/SimpleContract.sol\":2351:2364  errorMessages */\n  0x04\n    /* \"contracts/SimpleContract.sol\":2365:2366  0 */\n  0x00\n    /* \"contracts/SimpleContract.sol\":2351:2367  errorMessages[0] */\n  0x02\n  dup2\n  lt\n  tag_4\n  jumpi\n  tag_5\n  tag_6\n  jump\t// in\ntag_5:\ntag_4:\n  add\n    /* \"contracts/SimpleContract.sol\":2351:2386  errorMessages[0] = \"is not allowed\" */\n  swap1\n  dup2\n  tag_8\n  swap2\n  swap1\n  tag_9\n  jump\t// in\ntag_8:\n  pop\n    /* \"contracts/SimpleContract.sol\":2396:2427  errorMessages[1] = \"only owner\" */\n  mload(0x40)\n  dup1\n  0x40\n  add\n  0x40\n  mstore\n  dup1\n  0x0a\n  dup2\n  mstore\n  0x20\n  add\n  0x6f6e6c79206f776e657200000000000000000000000000000000000000000000\n  dup2\n  mstore\n  pop\n    /* \"contracts/SimpleContract.sol\":2396:2409  errorMessages */\n  0x04\n    /* \"contracts/SimpleContract.sol\":2410:2411  1 */\n  0x01\n    /* \"contracts/SimpleContract.sol\":2396:2412  errorMessages[1] */\n  0x02\n  dup2\n  lt\n  tag_10\n  jumpi\n  tag_11\n  tag_6\n  jump\t// in\ntag_11:\ntag_10:\n  add\n    /* \"contracts/SimpleContract.sol\":2396:2427  errorMessages[1] = \"only owner\" */\n  swap1\n  dup2\n  tag_13\n  swap2\n  swap1\n  tag_9\n  jump\t// in\ntag_13:\n  pop\n    /* \"contracts/SimpleContract.sol\":2609:2614  owner */\n  0x06\n  0x00\n  swap1\n  sload\n  swap1\n  0x0100\n  exp\n  swap1\n  div\n  0xffffffffffffffffffffffffffffffffffffffff\n  and\n    /* \"contracts/SimpleContract.sol\":2593:2632  ContractCreated(owner, block.timestamp) */\n  0xffffffffffffffffffffffffffffffffffffffff\n  and\n  0x1dc05c1d6a563dddb6c22082af72b54ec2f0207ceb55db5d13cdabc208f303a9\n    /* \"contracts/SimpleContract.sol\":2616:2631  block.timestamp */\n  timestamp\n    /* \"contracts/SimpleContract.sol\":2593:2632  ContractCreated(owner, block.timestamp) */\n  mload(0x40)\n  tag_14\n  swap2\n  swap1\n  tag_15\n  jump\t// in\ntag_14:\n  mload(0x40)\n  dup1\n  swap2\n  sub\n  swap1\n  log2\n    /* \"contracts/SimpleContract.sol\":578:5059  contract SimpleContract is IAction, Whois, VeliUysal{... */\n  jump(tag_16)\n    /* \"#utility.yul\":7:187   */\ntag_6:\n    /* \"#utility.yul\":55:132   */\n  0x4e487b7100000000000000000000000000000000000000000000000000000000\n    /* \"#utility.yul\":52:53   */\n  0x00\n    /* \"#utility.yul\":45:133   */\n  mstore\n    /* \"#utility.yul\":152:156   */\n  0x32\n    /* \"#utility.yul\":149:150   */\n  0x04\n    /* \"#utility.yul\":142:157   */\n  mstore\n    /* \"#utility.yul\":176:180   */\n  0x24\n    /* \"#utility.yul\":173:174   */\n  0x00\n    /* \"#utility.yul\":166:181   */\n  revert\n    /* \"#utility.yul\":193:292   */\ntag_17:\n    /* \"#utility.yul\":245:251   */\n  0x00\n    /* \"#utility.yul\":279:284   */\n  dup2\n    /* \"#utility.yul\":273:285   */\n  mload\n    /* \"#utility.yul\":263:285   */\n  swap1\n  pop\n    /* \"#utility.yul\":193:292   */\n  swap2\n  swap1\n  pop\n  jump\t// out\n    /* \"#utility.yul\":298:478   */\ntag_18:\n    /* \"#utility.yul\":346:423   */\n  0x4e487b7100000000000000000000000000000000000000000000000000000000\n    /* \"#utility.yul\":343:344   */\n  0x00\n    /* \"#utility.yul\":336:424   */\n  mstore\n    /* \"#utility.yul\":443:447   */\n  0x41\n    /* \"#utility.yul\":440:441   */\n  0x04\n    /* \"#utility.yul\":433:448   */\n  mstore\n    /* \"#utility.yul\":467:471   */\n  0x24\n    /* \"#utility.yul\":464:465   */\n  0x00\n    /* \"#utility.yul\":457:472   */\n  revert\n    /* \"#utility.yul\":484:664   */\ntag_19:\n    /* \"#utility.yul\":532:609   */\n  0x4e487b7100000000000000000000000000000000000000000000000000000000\n    /* \"#utility.yul\":529:530   */\n  0x00\n    /* \"#utility.yul\":522:610   */\n  mstore\n    /* \"#utility.yul\":629:633   */\n  0x22\n    /* \"#utility.yul\":626:627   */\n  0x04\n    /* \"#utility.yul\":619:634   */\n  mstore\n    /* \"#utility.yul\":653:657   */\n  0x24\n    /* \"#utility.yul\":650:651   */\n  0x00\n    /* \"#utility.yul\":643:658   */\n  revert\n    /* \"#utility.yul\":670:990   */\ntag_20:\n    /* \"#utility.yul\":714:720   */\n  0x00\n    /* \"#utility.yul\":751:752   */\n  0x02\n    /* \"#utility.yul\":745:749   */\n  dup3\n    /* \"#utility.yul\":741:753   */\n  div\n    /* \"#utility.yul\":731:753   */\n  swap1\n  pop\n    /* \"#utility.yul\":798:799   */\n  0x01\n    /* \"#utility.yul\":792:796   */\n  dup3\n    /* \"#utility.yul\":788:800   */\n  and\n    /* \"#utility.yul\":819:837   */\n  dup1\n    /* \"#utility.yul\":809:890   */\n  tag_44\n  jumpi\n    /* \"#utility.yul\":875:879   */\n  0x7f\n    /* \"#utility.yul\":867:873   */\n  dup3\n    /* \"#utility.yul\":863:880   */\n  and\n    /* \"#utility.yul\":853:880   */\n  swap2\n  pop\n    /* \"#utility.yul\":809:890   */\ntag_44:\n    /* \"#utility.yul\":937:939   */\n  0x20\n    /* \"#utility.yul\":929:935   */\n  dup3\n    /* \"#utility.yul\":926:940   */\n  lt\n    /* \"#utility.yul\":906:924   */\n  dup2\n    /* \"#utility.yul\":903:941   */\n  sub\n    /* \"#utility.yul\":900:984   */\n  tag_45\n  jumpi\n    /* \"#utility.yul\":956:974   */\n  tag_46\n  tag_19\n  jump\t// in\ntag_46:\n    /* \"#utility.yul\":900:984   */\ntag_45:\n    /* \"#utility.yul\":721:990   */\n  pop\n    /* \"#utility.yul\":670:990   */\n  swap2\n  swap1\n  pop\n  jump\t// out\n    /* \"#utility.yul\":996:1137   */\ntag_21:\n    /* \"#utility.yul\":1045:1049   */\n  0x00\n    /* \"#utility.yul\":1068:1071   */\n  dup2\n    /* \"#utility.yul\":1060:1071   */\n  swap1\n  pop\n    /* \"#utility.yul\":1091:1094   */\n  dup2\n    /* \"#utility.yul\":1088:1089   */\n  0x00\n    /* \"#utility.yul\":1081:1095   */\n  mstore\n    /* \"#utility.yul\":1125:1129   */\n  0x20\n    /* \"#utility.yul\":1122:1123   */\n  0x00\n    /* \"#utility.yul\":1112:1130   */\n  keccak256\n    /* \"#utility.yul\":1104:1130   */\n  swap1\n  pop\n    /* \"#utility.yul\":996:1137   */\n  swap2\n  swap1\n  pop\n  jump\t// out\n    /* \"#utility.yul\":1143:1236   */\ntag_22:\n    /* \"#utility.yul\":1180:1186   */\n  0x00\n    /* \"#utility.yul\":1227:1229   */\n  0x20\n    /* \"#utility.yul\":1222:1224   */\n  0x1f\n    /* \"#utility.yul\":1215:1220   */\n  dup4\n    /* \"#utility.yul\":1211:1225   */\n  add\n    /* \"#utility.yul\":1207:1230   */\n  div\n    /* \"#utility.yul\":1197:1230   */\n  swap1\n  pop\n    /* \"#utility.yul\":1143:1236   */\n  swap2\n  swap1\n  pop\n  jump\t// out\n    /* \"#utility.yul\":1242:1349   */\ntag_23:\n    /* \"#utility.yul\":1286:1294   */\n  0x00\n    /* \"#utility.yul\":1336:1341   */\n  dup3\n    /* \"#utility.yul\":1330:1334   */\n  dup3\n    /* \"#utility.yul\":1326:1342   */\n  shl\n    /* \"#utility.yul\":1305:1342   */\n  swap1\n  pop\n    /* \"#utility.yul\":1242:1349   */\n  swap3\n  swap2\n  pop\n  pop\n  jump\t// out\n    /* \"#utility.yul\":1355:1748   */\ntag_24:\n    /* \"#utility.yul\":1424:1430   */\n  0x00\n    /* \"#utility.yul\":1474:1475   */\n  0x08\n    /* \"#utility.yul\":1462:1472   */\n  dup4\n    /* \"#utility.yul\":1458:1476   */\n  mul\n    /* \"#utility.yul\":1497:1594   */\n  tag_51\n    /* \"#utility.yul\":1527:1593   */\n  0xffffffffffffffffffffffffffffffffffffffffffffffffffffffffffffffff\n    /* \"#utility.yul\":1516:1525   */\n  dup3\n    /* \"#utility.yul\":1497:1594   */\n  tag_23\n  jump\t// in\ntag_51:\n    /* \"#utility.yul\":1615:1654   */\n  tag_52\n    /* \"#utility.yul\":1645:1653   */\n  dup7\n    /* \"#utility.yul\":1634:1643   */\n  dup4\n    /* \"#utility.yul\":1615:1654   */\n  tag_23\n  jump\t// in\ntag_52:\n    /* \"#utility.yul\":1603:1654   */\n  swap6\n  pop\n    /* \"#utility.yul\":1687:1691   */\n  dup1\n    /* \"#utility.yul\":1683:1692   */\n  not\n    /* \"#utility.yul\":1676:1681   */\n  dup5\n    /* \"#utility.yul\":1672:1693   */\n  and\n    /* \"#utility.yul\":1663:1693   */\n  swap4\n  pop\n    /* \"#utility.yul\":1736:1740   */\n  dup1\n    /* \"#utility.yul\":1726:1734   */\n  dup7\n    /* \"#utility.yul\":1722:1741   */\n  and\n    /* \"#utility.yul\":1715:1720   */\n  dup5\n    /* \"#utility.yul\":1712:1742   */\n  or\n    /* \"#utility.yul\":1702:1742   */\n  swap3\n  pop\n    /* \"#utility.yul\":1431:1748   */\n  pop\n  pop\n    /* \"#utility.yul\":1355:1748   */\n  swap4\n  swap3\n  pop\n  pop\n  pop\n  jump\t// out\n    /* \"#utility.yul\":1754:1831   */\ntag_25:\n    /* \"#utility.yul\":1791:1798   */\n  0x00\n    /* \"#utility.yul\":1820:1825   */\n  dup2\n    /* \"#utility.yul\":1809:1825   */\n  swap1\n  pop\n    /* \"#utility.yul\":1754:1831   */\n  swap2\n  swap1\n  pop\n  jump\t// out\n    /* \"#utility.yul\":1837:1897   */\ntag_26:\n    /* \"#utility.yul\":1865:1868   */\n  0x00\n    /* \"#utility.yul\":1886:1891   */\n  dup2\n    /* \"#utility.yul\":1879:1891   */\n  swap1\n  pop\n    /* \"#utility.yul\":1837:1897   */\n  swap2\n  swap1\n  pop\n  jump\t// out\n    /* \"#utility.yul\":1903:2045   */\ntag_27:\n    /* \"#utility.yul\":1953:1962   */\n  0x00\n    /* \"#utility.yul\":1986:2039   */\n  tag_56\n    /* \"#utility.yul\":2004:2038   */\n  tag_57\n    /* \"#utility.yul\":2013:2037   */\n  tag_58\n    /* \"#utility.yul\":2031:2036   */\n  dup5\n    /* \"#utility.yul\":2013:2037   */\n  tag_25\n  jump\t// in\ntag_58:\n    /* \"#utility.yul\":2004:2038   */\n  tag_26\n  jump\t// in\ntag_57:\n    /* \"#utility.yul\":1986:2039   */\n  tag_25\n  jump\t// in\ntag_56:\n    /* \"#utility.yul\":1973:2039   */\n  swap1\n  pop\n    /* \"#utility.yul\":1903:2045   */\n  swap2\n  swap1\n  pop\n  jump\t// out\n    /* \"#utility.yul\":2051:2126   */\ntag_28:\n    /* \"#utility.yul\":2094:2097   */\n  0x00\n    /* \"#utility.yul\":2115:2120   */\n  dup2\n    /* \"#utility.yul\":2108:2120   */\n  swap1\n  pop\n    /* \"#utility.yul\":2051:2126   */\n  swap2\n  swap1\n  pop\n  jump\t// out\n    /* \"#utility.yul\":2132:2401   */\ntag_29:\n    /* \"#utility.yul\":2242:2281   */\n  tag_61\n    /* \"#utility.yul\":2273:2280   */\n  dup4\n    /* \"#utility.yul\":2242:2281   */\n  tag_27\n  jump\t// in\ntag_61:\n    /* \"#utility.yul\":2303:2394   */\n  tag_62\n    /* \"#utility.yul\":2352:2393   */\n  tag_63\n    /* \"#utility.yul\":2376:2392   */\n  dup3\n    /* \"#utility.yul\":2352:2393   */\n  tag_28\n  jump\t// in\ntag_63:\n    /* \"#utility.yul\":2344:2350   */\n  dup5\n    /* \"#utility.yul\":2337:2341   */\n  dup5\n    /* \"#utility.yul\":2331:2342   */\n  sload\n    /* \"#utility.yul\":2303:2394   */\n  tag_24\n  jump\t// in\ntag_62:\n    /* \"#utility.yul\":2297:2301   */\n  dup3\n    /* \"#utility.yul\":2290:2395   */\n  sstore\n    /* \"#utility.yul\":2208:2401   */\n  pop\n    /* \"#utility.yul\":2132:2401   */\n  pop\n  pop\n  pop\n  jump\t// out\n    /* \"#utility.yul\":2407:2480   */\ntag_30:\n    /* \"#utility.yul\":2452:2455   */\n  0x00\n    /* \"#utility.yul\":2407:2480   */\n  swap1\n  jump\t// out\n    /* \"#utility.yul\":2486:2675   */\ntag_31:\n    /* \"#utility.yul\":2563:2595   */\n  tag_66\n  tag_30\n  jump\t// in\ntag_66:\n    /* \"#utility.yul\":2604:2669   */\n  tag_67\n    /* \"#utility.yul\":2662:2668   */\n  dup2\n    /* \"#utility.yul\":2654:2660   */\n  dup5\n    /* \"#utility.yul\":2648:2652   */\n  dup5\n    /* \"#utility.yul\":2604:2669   */\n  tag_29\n  jump\t// in\ntag_67:\n    /* \"#utility.yul\":2539:2675   */\n  pop\n    /* \"#utility.yul\":2486:2675   */\n  pop\n  pop\n  jump\t// out\n    /* \"#utility.yul\":2681:2867   */\ntag_32:\n    /* \"#utility.yul\":2741:2861   */\ntag_69:\n    /* \"#utility.yul\":2758:2761   */\n  dup2\n    /* \"#utility.yul\":2751:2756   */\n  dup2\n    /* \"#utility.yul\":2748:2762   */\n  lt\n    /* \"#utility.yul\":2741:2861   */\n  iszero\n  tag_71\n  jumpi\n    /* \"#utility.yul\":2812:2851   */\n  tag_72\n    /* \"#utility.yul\":2849:2850   */\n  0x00\n    /* \"#utility.yul\":2842:2847   */\n  dup3\n    /* \"#utility.yul\":2812:2851   */\n  tag_31\n  jump\t// in\ntag_72:\n    /* \"#utility.yul\":2785:2786   */\n  0x01\n    /* \"#utility.yul\":2778:2783   */\n  dup2\n    /* \"#utility.yul\":2774:2787   */\n  add\n    /* \"#utility.yul\":2765:2787   */\n  swap1\n  pop\n    /* \"#utility.yul\":2741:2861   */\n  jump(tag_69)\ntag_71:\n    /* \"#utility.yul\":2681:2867   */\n  pop\n  pop\n  jump\t// out\n    /* \"#utility.yul\":2873:3416   */\ntag_33:\n    /* \"#utility.yul\":2974:2976   */\n  0x1f\n    /* \"#utility.yul\":2969:2972   */\n  dup3\n    /* \"#utility.yul\":2966:2977   */\n  gt\n    /* \"#utility.yul\":2963:3409   */\n  iszero\n  tag_74\n  jumpi\n    /* \"#utility.yul\":3008:3046   */\n  tag_75\n    /* \"#utility.yul\":3040:3045   */\n  dup2\n    /* \"#utility.yul\":3008:3046   */\n  tag_21\n  jump\t// in\ntag_75:\n    /* \"#utility.yul\":3092:3121   */\n  tag_76\n    /* \"#utility.yul\":3110:3120   */\n  dup5\n    /* \"#utility.yul\":3092:3121   */\n  tag_22\n  jump\t// in\ntag_76:\n    /* \"#utility.yul\":3082:3090   */\n  dup2\n    /* \"#utility.yul\":3078:3122   */\n  add\n    /* \"#utility.yul\":3275:3277   */\n  0x20\n    /* \"#utility.yul\":3263:3273   */\n  dup6\n    /* \"#utility.yul\":3260:3278   */\n  lt\n    /* \"#utility.yul\":3257:3306   */\n  iszero\n  tag_77\n  jumpi\n    /* \"#utility.yul\":3296:3304   */\n  dup2\n    /* \"#utility.yul\":3281:3304   */\n  swap1\n  pop\n    /* \"#utility.yul\":3257:3306   */\ntag_77:\n    /* \"#utility.yul\":3319:3399   */\n  tag_78\n    /* \"#utility.yul\":3375:3397   */\n  tag_79\n    /* \"#utility.yul\":3393:3396   */\n  dup6\n    /* \"#utility.yul\":3375:3397   */\n  tag_22\n  jump\t// in\ntag_79:\n    /* \"#utility.yul\":3365:3373   */\n  dup4\n    /* \"#utility.yul\":3361:3398   */\n  add\n    /* \"#utility.yul\":3348:3359   */\n  dup3\n    /* \"#utility.yul\":3319:3399   */\n  tag_32\n  jump\t// in\ntag_78:\n    /* \"#utility.yul\":2978:3409   */\n  pop\n  pop\n    /* \"#utility.yul\":2963:3409   */\ntag_74:\n    /* \"#utility.yul\":2873:3416   */\n  pop\n  pop\n  pop\n  jump\t// out\n    /* \"#utility.yul\":3422:3539   */\ntag_34:\n    /* \"#utility.yul\":3476:3484   */\n  0x00\n    /* \"#utility.yul\":3526:3531   */\n  dup3\n    /* \"#utility.yul\":3520:3524   */\n  dup3\n    /* \"#utility.yul\":3516:3532   */\n  shr\n    /* \"#utility.yul\":3495:3532   */\n  swap1\n  pop\n    /* \"#utility.yul\":3422:3539   */\n  swap3\n  swap2\n  pop\n  pop\n  jump\t// out\n    /* \"#utility.yul\":3545:3714   */\ntag_35:\n    /* \"#utility.yul\":3589:3595   */\n  0x00\n    /* \"#utility.yul\":3622:3673   */\n  tag_82\n    /* \"#utility.yul\":3670:3671   */\n  0x00\n    /* \"#utility.yul\":3666:3672   */\n  not\n    /* \"#utility.yul\":3658:3663   */\n  dup5\n    /* \"#utility.yul\":3655:3656   */\n  0x08\n    /* \"#utility.yul\":3651:3664   */\n  mul\n    /* \"#utility.yul\":3622:3673   */\n  tag_34\n  jump\t// in\ntag_82:\n    /* \"#utility.yul\":3618:3674   */\n  not\n    /* \"#utility.yul\":3703:3707   */\n  dup1\n    /* \"#utility.yul\":3697:3701   */\n  dup4\n    /* \"#utility.yul\":3693:3708   */\n  and\n    /* \"#utility.yul\":3683:3708   */\n  swap2\n  pop\n    /* \"#utility.yul\":3596:3714   */\n  pop\n    /* \"#utility.yul\":3545:3714   */\n  swap3\n  swap2\n  pop\n  pop\n  jump\t// out\n    /* \"#utility.yul\":3719:4014   */\ntag_36:\n    /* \"#utility.yul\":3795:3799   */\n  0x00\n    /* \"#utility.yul\":3941:3970   */\n  tag_84\n    /* \"#utility.yul\":3966:3969   */\n  dup4\n    /* \"#utility.yul\":3960:3964   */\n  dup4\n    /* \"#utility.yul\":3941:3970   */\n  tag_35\n  jump\t// in\ntag_84:\n    /* \"#utility.yul\":3933:3970   */\n  swap2\n  pop\n    /* \"#utility.yul\":4003:4006   */\n  dup3\n    /* \"#utility.yul\":4000:4001   */\n  0x02\n    /* \"#utility.yul\":3996:4007   */\n  mul\n    /* \"#utility.yul\":3990:3994   */\n  dup3\n    /* \"#utility.yul\":3987:4008   */\n  or\n    /* \"#utility.yul\":3979:4008   */\n  swap1\n  pop\n    /* \"#utility.yul\":3719:4014   */\n  swap3\n  swap2\n  pop\n  pop\n  jump\t// out\n    /* \"#utility.yul\":4019:5414   */\ntag_9:\n    /* \"#utility.yul\":4136:4173   */\n  tag_86\n    /* \"#utility.yul\":4169:4172   */\n  dup3\n    /* \"#utility.yul\":4136:4173   */\n  tag_17\n  jump\t// in\ntag_86:\n    /* \"#utility.yul\":4238:4256   */\n  0xffffffffffffffff\n    /* \"#utility.yul\":4230:4236   */\n  dup2\n    /* \"#utility.yul\":4227:4257   */\n  gt\n    /* \"#utility.yul\":4224:4280   */\n  iszero\n  tag_87\n  jumpi\n    /* \"#utility.yul\":4260:4278   */\n  tag_88\n  tag_18\n  jump\t// in\ntag_88:\n    /* \"#utility.yul\":4224:4280   */\ntag_87:\n    /* \"#utility.yul\":4304:4342   */\n  tag_89\n    /* \"#utility.yul\":4336:4340   */\n  dup3\n    /* \"#utility.yul\":4330:4341   */\n  sload\n    /* \"#utility.yul\":4304:4342   */\n  tag_20\n  jump\t// in\ntag_89:\n    /* \"#utility.yul\":4389:4456   */\n  tag_90\n    /* \"#utility.yul\":4449:4455   */\n  dup3\n    /* \"#utility.yul\":4441:4447   */\n  dup3\n    /* \"#utility.yul\":4435:4439   */\n  dup6\n    /* \"#utility.yul\":4389:4456   */\n  tag_33\n  jump\t// in\ntag_90:\n    /* \"#utility.yul\":4483:4484   */\n  0x00\n    /* \"#utility.yul\":4507:4511   */\n  0x20\n    /* \"#utility.yul\":4494:4511   */\n  swap1\n  pop\n    /* \"#utility.yul\":4539:4541   */\n  0x1f\n    /* \"#utility.yul\":4531:4537   */\n  dup4\n    /* \"#utility.yul\":4528:4542   */\n  gt\n    /* \"#utility.yul\":4556:4557   */\n  0x01\n    /* \"#utility.yul\":4551:5169   */\n  dup2\n  eq\n  tag_92\n  jumpi\n    /* \"#utility.yul\":5213:5214   */\n  0x00\n    /* \"#utility.yul\":5230:5236   */\n  dup5\n    /* \"#utility.yul\":5227:5304   */\n  iszero\n  tag_93\n  jumpi\n    /* \"#utility.yul\":5279:5288   */\n  dup3\n    /* \"#utility.yul\":5274:5277   */\n  dup8\n    /* \"#utility.yul\":5270:5289   */\n  add\n    /* \"#utility.yul\":5264:5290   */\n  mload\n    /* \"#utility.yul\":5255:5290   */\n  swap1\n  pop\n    /* \"#utility.yul\":5227:5304   */\ntag_93:\n    /* \"#utility.yul\":5330:5397   */\n  tag_94\n    /* \"#utility.yul\":5390:5396   */\n  dup6\n    /* \"#utility.yul\":5383:5388   */\n  dup3\n    /* \"#utility.yul\":5330:5397   */\n  tag_36\n  jump\t// in\ntag_94:\n    /* \"#utility.yul\":5324:5328   */\n  dup7\n    /* \"#utility.yul\":5317:5398   */\n  sstore\n    /* \"#utility.yul\":5186:5408   */\n  pop\n    /* \"#utility.yul\":4521:5408   */\n  jump(tag_91)\n    /* \"#utility.yul\":4551:5169   */\ntag_92:\n    /* \"#utility.yul\":4603:4607   */\n  0x1f\n    /* \"#utility.yul\":4599:4608   */\n  not\n    /* \"#utility.yul\":4591:4597   */\n  dup5\n    /* \"#utility.yul\":4587:4609   */\n  and\n    /* \"#utility.yul\":4637:4674   */\n  tag_95\n    /* \"#utility.yul\":4669:4673   */\n  dup7\n    /* \"#utility.yul\":4637:4674   */\n  tag_21\n  jump\t// in\ntag_95:\n    /* \"#utility.yul\":4696:4697   */\n  0x00\n    /* \"#utility.yul\":4710:4918   */\ntag_96:\n    /* \"#utility.yul\":4724:4731   */\n  dup3\n    /* \"#utility.yul\":4721:4722   */\n  dup2\n    /* \"#utility.yul\":4718:4732   */\n  lt\n    /* \"#utility.yul\":4710:4918   */\n  iszero\n  tag_98\n  jumpi\n    /* \"#utility.yul\":4803:4812   */\n  dup5\n    /* \"#utility.yul\":4798:4801   */\n  dup10\n    /* \"#utility.yul\":4794:4813   */\n  add\n    /* \"#utility.yul\":4788:4814   */\n  mload\n    /* \"#utility.yul\":4780:4786   */\n  dup3\n    /* \"#utility.yul\":4773:4815   */\n  sstore\n    /* \"#utility.yul\":4854:4855   */\n  0x01\n    /* \"#utility.yul\":4846:4852   */\n  dup3\n    /* \"#utility.yul\":4842:4856   */\n  add\n    /* \"#utility.yul\":4832:4856   */\n  swap2\n  pop\n    /* \"#utility.yul\":4901:4903   */\n  0x20\n    /* \"#utility.yul\":4890:4899   */\n  dup6\n    /* \"#utility.yul\":4886:4904   */\n  add\n    /* \"#utility.yul\":4873:4904   */\n  swap5\n  pop\n    /* \"#utility.yul\":4747:4751   */\n  0x20\n    /* \"#utility.yul\":4744:4745   */\n  dup2\n    /* \"#utility.yul\":4740:4752   */\n  add\n    /* \"#utility.yul\":4735:4752   */\n  swap1\n  pop\n    /* \"#utility.yul\":4710:4918   */\n  jump(tag_96)\ntag_98:\n    /* \"#utility.yul\":4946:4952   */\n  dup7\n    /* \"#utility.yul\":4937:4944   */\n  dup4\n    /* \"#utility.yul\":4934:4953   */\n  lt\n    /* \"#utility.yul\":4931:5110   */\n  iszero\n  tag_99\n  jumpi\n    /* \"#utility.yul\":5004:5013   */\n  dup5\n    /* \"#utility.yul\":4999:5002   */\n  dup10\n    /* \"#utility.yul\":4995:5014   */\n  add\n    /* \"#utility.yul\":4989:5015   */\n  mload\n    /* \"#utility.yul\":5047:5095   */\n  tag_100\n    /* \"#utility.yul\":5089:5093   */\n  0x1f\n    /* \"#utility.yul\":5081:5087   */\n  dup10\n    /* \"#utility.yul\":5077:5094   */\n  and\n    /* \"#utility.yul\":5066:5075   */\n  dup3\n    /* \"#utility.yul\":5047:5095   */\n  tag_35\n  jump\t// in\ntag_100:\n    /* \"#utility.yul\":5039:5045   */\n  dup4\n    /* \"#utility.yul\":5032:5096   */\n  sstore\n    /* \"#utility.yul\":4954:5110   */\n  pop\n    /* \"#utility.yul\":4931:5110   */\ntag_99:\n    /* \"#utility.yul\":5156:5157   */\n  0x01\n    /* \"#utility.yul\":5152:5153   */\n  0x02\n    /* \"#utility.yul\":5144:5150   */\n  dup9\n    /* \"#utility.yul\":5140:5154   */\n  mul\n    /* \"#utility.yul\":5136:5158   */\n  add\n    /* \"#utility.yul\":5130:5134   */\n  dup9\n    /* \"#utility.yul\":5123:5159   */\n  sstore\n    /* \"#utility.yul\":4558:5169   */\n  pop\n  pop\n  pop\n    /* \"#utility.yul\":4521:5408   */\ntag_91:\n  pop\n    /* \"#utility.yul\":4111:5414   */\n  pop\n  pop\n  pop\n    /* \"#utility.yul\":4019:5414   */\n  pop\n  pop\n  jump\t// out\n    /* \"#utility.yul\":5420:5538   */\ntag_37:\n    /* \"#utility.yul\":5507:5531   */\n  tag_102\n    /* \"#utility.yul\":5525:5530   */\n  dup2\n    /* \"#utility.yul\":5507:5531   */\n  tag_25\n  jump\t// in\ntag_102:\n    /* \"#utility.yul\":5502:5505   */\n  dup3\n    /* \"#utility.yul\":5495:5532   */\n  mstore\n    /* \"#utility.yul\":5420:5538   */\n  pop\n  pop\n  jump\t// out\n    /* \"#utility.yul\":5544:5766   */\ntag_15:\n    /* \"#utility.yul\":5637:5641   */\n  0x00\n    /* \"#utility.yul\":5675:5677   */\n  0x20\n    /* \"#utility.yul\":5664:5673   */\n  dup3\n    /* \"#utility.yul\":5660:5678   */\n  add\n    /* \"#utility.yul\":5652:5678   */\n  swap1\n  pop\n    /* \"#utility.yul\":5688:5759   */\n  tag_104\n    /* \"#utility.yul\":5756:5757   */\n  0x00\n    /* \"#utility.yul\":5745:5754   */\n  dup4\n    /* \"#utility.yul\":5741:5758   */\n  add\n    /* \"#utility.yul\":5732:5738   */\n  dup5\n    /* \"#utility.yul\":5688:5759   */\n  tag_37\n  jump\t// in\ntag_104:\n    /* \"#utility.yul\":5544:5766   */\n  swap3\n  swap2\n  pop\n  pop\n  jump\t// out\n    /* \"contracts/SimpleContract.sol\":578:5059  contract SimpleContract is IAction, Whois, VeliUysal{... */\ntag_16:\n  dataSize(sub_0)\n  dup1\n  dataOffset(sub_0)\n  0x00\n  codecopy\n  0x00\n  return\nstop\n\nsub_0: assembly {\n        /* \"contracts/SimpleContract.sol\":578:5059  contract SimpleContract is IAction, Whois, VeliUysal{... */\n      mstore(0x40, 0x80)\n      callvalue\n      dup1\n      iszero\n      tag_1\n      jumpi\n      0x00\n      dup1\n      revert\n    tag_1:\n      pop\n      jumpi(tag_2, lt(calldatasize, 0x04))\n      shr(0xe0, calldataload(0x00))\n      dup1\n      0x865cebe7\n      gt\n      tag_27\n      jumpi\n      dup1\n      0xbe7cb506\n      gt\n      tag_28\n      jumpi\n      dup1\n      0xbe7cb506\n      eq\n      tag_21\n      jumpi\n      dup1\n      0xc539ab78\n      eq\n      tag_22\n      jumpi\n      dup1\n      0xdb613e81\n      eq\n      tag_23\n      jumpi\n      dup1\n      0xdd62ed3e\n      eq\n      tag_24\n      jumpi\n      dup1\n      0xe9523c97\n      eq\n      tag_25\n      jumpi\n      dup1\n      0xffac3b1d\n      eq\n      tag_26\n      jumpi\n      jump(tag_2)\n    tag_28:\n      dup1\n      0x865cebe7\n      eq\n      tag_15\n      jumpi\n      dup1\n      0x8c160186\n      eq\n      tag_16\n      jumpi\n      dup1\n      0x8da5cb5b\n      eq\n      tag_17\n      jumpi\n      dup1\n      0x9bead1f8\n      eq\n      tag_18\n      jumpi\n      dup1\n      0xa6f2ae3a\n      eq\n      tag_19\n      jumpi\n      dup1\n      0xaa82f350\n      eq\n      tag_20\n      jumpi\n      jump(tag_2)\n    tag_27:\n      dup1\n      0x5f3d8f4a\n      gt\n      tag_29\n      jumpi\n      dup1\n      0x5f3d8f4a\n      eq\n      tag_9\n      jumpi\n      dup1\n      0x5faaf352\n      eq\n      tag_10\n      jumpi\n      dup1\n      0x702051f0\n      eq\n      tag_11\n      jumpi\n      dup1\n      0x7b061d35\n      eq\n      tag_12\n      jumpi\n      dup1\n      0x7c85cfc2\n      eq\n      tag_13\n      jumpi\n      dup1\n      0x7cf5dab0\n      eq\n      tag_14\n      jumpi\n      jump(tag_2)\n    tag_29:\n      dup1\n      0x06661abd\n      eq\n      tag_3\n      jumpi\n      dup1\n      0x14bfd6d0\n      eq\n      tag_4\n      jumpi\n      dup1\n      0x19e1fca4\n      eq\n      tag_5\n      jumpi\n      dup1\n      0x2babac22\n      eq\n      tag_6\n      jumpi\n      dup1\n      0x48dfcbf0\n      eq\n      tag_7\n      jumpi\n      dup1\n      0x4fab2bc9\n      eq\n      tag_8\n      jumpi\n    tag_2:\n      0x00\n      dup1\n      revert\n        /* \"contracts/SimpleContract.sol\":711:728  uint public count */\n    tag_3:\n      tag_30\n      tag_31\n      jump\t// in\n    tag_30:\n      mload(0x40)\n      tag_32\n      swap2\n      swap1\n      tag_33\n      jump\t// in\n    tag_32:\n      mload(0x40)\n      dup1\n      swap2\n      sub\n      swap1\n      return\n        /* \"contracts/SimpleContract.sol\":2206:2229  Account[] public admins */\n    tag_4:\n      tag_34\n      0x04\n      dup1\n      calldatasize\n      sub\n      dup2\n      add\n      swap1\n      tag_35\n      swap2\n      swap1\n      tag_36\n      jump\t// in\n    tag_35:\n      tag_37\n      jump\t// in\n    tag_34:\n      mload(0x40)\n      tag_38\n      swap4\n      swap3\n      swap2\n      swap1\n      tag_39\n      jump\t// in\n    tag_38:\n      mload(0x40)\n      dup1\n      swap2\n      sub\n      swap1\n      return\n        /* \"contracts/SimpleContract.sol\":686:705  bool public allowed */\n    tag_5:\n      tag_40\n      tag_41\n      jump\t// in\n    tag_40:\n      mload(0x40)\n      tag_42\n      swap2\n      swap1\n      tag_43\n      jump\t// in\n    tag_42:\n      mload(0x40)\n      dup1\n      swap2\n      sub\n      swap1\n      return\n        /* \"contracts/SimpleContract.sol\":2646:2719  function setAllowed(bool _owner) public {... */\n    tag_6:\n      tag_44\n      0x04\n      dup1\n      calldatasize\n      sub\n      dup2\n      add\n      swap1\n      tag_45\n      swap2\n      swap1\n      tag_46\n      jump\t// in\n    tag_45:\n      tag_47\n      jump\t// in\n    tag_44:\n      stop\n        /* \"contracts/SimpleContract.sol\":4957:5051  function WhoAmI() public  override pure returns(string memory){... */\n    tag_7:\n      tag_48\n      tag_49\n      jump\t// in\n    tag_48:\n      mload(0x40)\n      tag_50\n      swap2\n      swap1\n      tag_51\n      jump\t// in\n    tag_50:\n      mload(0x40)\n      dup1\n      swap2\n      sub\n      swap1\n      return\n        /* \"contracts/SimpleContract.sol\":2076:2124  mapping(address => Account) public accountValues */\n    tag_8:\n      tag_52\n      0x04\n      dup1\n      calldatasize\n      sub\n      dup2\n      add\n      swap1\n      tag_53\n      swap2\n      swap1\n      tag_54\n      jump\t// in\n    tag_53:\n      tag_55\n      jump\t// in\n    tag_52:\n      mload(0x40)\n      tag_56\n      swap4\n      swap3\n      swap2\n      swap1\n      tag_39\n      jump\t// in\n    tag_56:\n      mload(0x40)\n      dup1\n      swap2\n      sub\n      swap1\n      return\n        /* \"contracts/SimpleContract.sol\":734:756  int public signedCount */\n    tag_9:\n      tag_57\n      tag_58\n      jump\t// in\n    tag_57:\n      mload(0x40)\n      tag_59\n      swap2\n      swap1\n      tag_60\n      jump\t// in\n    tag_59:\n      mload(0x40)\n      dup1\n      swap2\n      sub\n      swap1\n      return\n        /* \"contracts/SimpleContract.sol\":4243:4404  function addAdmin(Account memory admin) public {... */\n    tag_10:\n      tag_61\n      0x04\n      dup1\n      calldatasize\n      sub\n      dup2\n      add\n      swap1\n      tag_62\n      swap2\n      swap1\n      tag_63\n      jump\t// in\n    tag_62:\n      tag_64\n      jump\t// in\n    tag_61:\n      stop\n        /* \"contracts/SimpleContract.sol\":3445:3549  function getSizeOfErrorMessages() public view returns(uint){... */\n    tag_11:\n      tag_65\n      tag_66\n      jump\t// in\n    tag_65:\n      mload(0x40)\n      tag_67\n      swap2\n      swap1\n      tag_33\n      jump\t// in\n    tag_67:\n      mload(0x40)\n      dup1\n      swap2\n      sub\n      swap1\n      return\n        /* \"contracts/SimpleContract.sol\":3839:3979  function assignValueStruct(Account memory _account) public {... */\n    tag_12:\n      tag_68\n      0x04\n      dup1\n      calldatasize\n      sub\n      dup2\n      add\n      swap1\n      tag_69\n      swap2\n      swap1\n      tag_63\n      jump\t// in\n    tag_69:\n      tag_70\n      jump\t// in\n    tag_68:\n      stop\n        /* \"contracts/SimpleContract.sol\":4857:4951  function iAmReady() external pure returns(string memory){... */\n    tag_13:\n      tag_71\n      tag_72\n      jump\t// in\n    tag_71:\n      mload(0x40)\n      tag_73\n      swap2\n      swap1\n      tag_51\n      jump\t// in\n    tag_73:\n      mload(0x40)\n      dup1\n      swap2\n      sub\n      swap1\n      return\n        /* \"contracts/SimpleContract.sol\":3042:3178  function increment(uint _increment) isAllowed public{... */\n    tag_14:\n      tag_74\n      0x04\n      dup1\n      calldatasize\n      sub\n      dup2\n      add\n      swap1\n      tag_75\n      swap2\n      swap1\n      tag_36\n      jump\t// in\n    tag_75:\n      tag_76\n      jump\t// in\n    tag_74:\n      stop\n        /* \"contracts/SimpleContract.sol\":3293:3440  function assignAllowence(address _address) public OnlyOwner{ ... */\n    tag_15:\n      tag_77\n      0x04\n      dup1\n      calldatasize\n      sub\n      dup2\n      add\n      swap1\n      tag_78\n      swap2\n      swap1\n      tag_54\n      jump\t// in\n    tag_78:\n      tag_79\n      jump\t// in\n    tag_77:\n      stop\n        /* \"contracts/SimpleContract.sol\":437:530  function getFullName() public pure returns(string memory){... */\n    tag_16:\n      tag_80\n      tag_81\n      jump\t// in\n    tag_80:\n      mload(0x40)\n      tag_82\n      swap2\n      swap1\n      tag_51\n      jump\t// in\n    tag_82:\n      mload(0x40)\n      dup1\n      swap2\n      sub\n      swap1\n      return\n        /* \"contracts/SimpleContract.sol\":1184:1204  address public owner */\n    tag_17:\n      tag_83\n      tag_84\n      jump\t// in\n    tag_83:\n      mload(0x40)\n      tag_85\n      swap2\n      swap1\n      tag_86\n      jump\t// in\n    tag_85:\n      mload(0x40)\n      dup1\n      swap2\n      sub\n      swap1\n      return\n        /* \"contracts/SimpleContract.sol\":3633:3833  function assignValue(string memory _name, string memory _surname, uint256 _balance) public {... */\n    tag_18:\n      tag_87\n      0x04\n      dup1\n      calldatasize\n      sub\n      dup2\n      add\n      swap1\n      tag_88\n      swap2\n      swap1\n      tag_89\n      jump\t// in\n    tag_88:\n      tag_90\n      jump\t// in\n    tag_87:\n      stop\n        /* \"contracts/SimpleContract.sol\":2934:2975  function buy() isAllowed public  {... */\n    tag_19:\n      tag_91\n      tag_92\n      jump\t// in\n    tag_91:\n      stop\n        /* \"contracts/SimpleContract.sol\":4124:4237  function assignAddressValues(Account memory _account) public{... */\n    tag_20:\n      tag_93\n      0x04\n      dup1\n      calldatasize\n      sub\n      dup2\n      add\n      swap1\n      tag_94\n      swap2\n      swap1\n      tag_63\n      jump\t// in\n    tag_94:\n      tag_95\n      jump\t// in\n    tag_93:\n      stop\n        /* \"contracts/SimpleContract.sol\":3184:3287  function signedIncrement(int _increment) public {... */\n    tag_21:\n      tag_96\n      0x04\n      dup1\n      calldatasize\n      sub\n      dup2\n      add\n      swap1\n      tag_97\n      swap2\n      swap1\n      tag_98\n      jump\t// in\n    tag_97:\n      tag_99\n      jump\t// in\n    tag_96:\n      stop\n        /* \"contracts/SimpleContract.sol\":1075:1105  string[2] public errorMessages */\n    tag_22:\n      tag_100\n      0x04\n      dup1\n      calldatasize\n      sub\n      dup2\n      add\n      swap1\n      tag_101\n      swap2\n      swap1\n      tag_36\n      jump\t// in\n    tag_101:\n      tag_102\n      jump\t// in\n    tag_100:\n      mload(0x40)\n      tag_103\n      swap2\n      swap1\n      tag_51\n      jump\t// in\n    tag_103:\n      mload(0x40)\n      dup1\n      swap2\n      sub\n      swap1\n      return\n        /* \"contracts/SimpleContract.sol\":3985:4118  function getAccount() public view returns (Account memory){... */\n    tag_23:\n      tag_104\n      tag_105\n      jump\t// in\n    tag_104:\n      mload(0x40)\n      tag_106\n      swap2\n      swap1\n      tag_107\n      jump\t// in\n    tag_106:\n      mload(0x40)\n      dup1\n      swap2\n      sub\n      swap1\n      return\n        /* \"contracts/SimpleContract.sol\":966:1028  mapping(address => mapping(address => bool) ) public allowance */\n    tag_24:\n      tag_108\n      0x04\n      dup1\n      calldatasize\n      sub\n      dup2\n      add\n      swap1\n      tag_109\n      swap2\n      swap1\n      tag_110\n      jump\t// in\n    tag_109:\n      tag_111\n      jump\t// in\n    tag_108:\n      mload(0x40)\n      tag_112\n      swap2\n      swap1\n      tag_43\n      jump\t// in\n    tag_112:\n      mload(0x40)\n      dup1\n      swap2\n      sub\n      swap1\n      return\n        /* \"contracts/SimpleContract.sol\":4410:4851  function getAllAdmins() public view returns(Account[] memory){... */\n    tag_25:\n      tag_113\n      tag_114\n      jump\t// in\n    tag_113:\n      mload(0x40)\n      tag_115\n      swap2\n      swap1\n      tag_116\n      jump\t// in\n    tag_115:\n      mload(0x40)\n      dup1\n      swap2\n      sub\n      swap1\n      return\n        /* \"contracts/SimpleContract.sol\":2981:3036  function oneIncrement() public {... */\n    tag_26:\n      tag_117\n      tag_118\n      jump\t// in\n    tag_117:\n      stop\n        /* \"contracts/SimpleContract.sol\":711:728  uint public count */\n    tag_31:\n      sload(0x01)\n      dup2\n      jump\t// out\n        /* \"contracts/SimpleContract.sol\":2206:2229  Account[] public admins */\n    tag_37:\n      0x0b\n      dup2\n      dup2\n      sload\n      dup2\n      lt\n      tag_119\n      jumpi\n      0x00\n      dup1\n      revert\n    tag_119:\n      swap1\n      0x00\n      mstore\n      keccak256(0x00, 0x20)\n      swap1\n      0x03\n      mul\n      add\n      0x00\n      swap2\n      pop\n      swap1\n      pop\n      dup1\n      0x00\n      add\n      dup1\n      sload\n      tag_121\n      swap1\n      tag_122\n      jump\t// in\n    tag_121:\n      dup1\n      0x1f\n      add\n      0x20\n      dup1\n      swap2\n      div\n      mul\n      0x20\n      add\n      mload(0x40)\n      swap1\n      dup2\n      add\n      0x40\n      mstore\n      dup1\n      swap3\n      swap2\n      swap1\n      dup2\n      dup2\n      mstore\n      0x20\n      add\n      dup3\n      dup1\n      sload\n      tag_123\n      swap1\n      tag_122\n      jump\t// in\n    tag_123:\n      dup1\n      iszero\n      tag_124\n      jumpi\n      dup1\n      0x1f\n      lt\n      tag_125\n      jumpi\n      0x0100\n      dup1\n      dup4\n      sload\n      div\n      mul\n      dup4\n      mstore\n      swap2\n      0x20\n      add\n      swap2\n      jump(tag_124)\n    tag_125:\n      dup3\n      add\n      swap2\n      swap1\n      0x00\n      mstore\n      keccak256(0x00, 0x20)\n      swap1\n    tag_126:\n      dup2\n      sload\n      dup2\n      mstore\n      swap1\n      0x01\n      add\n      swap1\n      0x20\n      add\n      dup1\n      dup4\n      gt\n      tag_126\n      jumpi\n      dup3\n      swap1\n      sub\n      0x1f\n      and\n      dup3\n      add\n      swap2\n    tag_124:\n      pop\n      pop\n      pop\n      pop\n      pop\n      swap1\n      dup1\n      0x01\n      add\n      dup1\n      sload\n      tag_127\n      swap1\n      tag_122\n      jump\t// in\n    tag_127:\n      dup1\n      0x1f\n      add\n      0x20\n      dup1\n      swap2\n      div\n      mul\n      0x20\n      add\n      mload(0x40)\n      swap1\n      dup2\n      add\n      0x40\n      mstore\n      dup1\n      swap3\n      swap2\n      swap1\n      dup2\n      dup2\n      mstore\n      0x20\n      add\n      dup3\n      dup1\n      sload\n      tag_128\n      swap1\n      tag_122\n      jump\t// in\n    tag_128:\n      dup1\n      iszero\n      tag_129\n      jumpi\n      dup1\n      0x1f\n      lt\n      tag_130\n      jumpi\n      0x0100\n      dup1\n      dup4\n      sload\n      div\n      mul\n      dup4\n      mstore\n      swap2\n      0x20\n      add\n      swap2\n      jump(tag_129)\n    tag_130:\n      dup3\n      add\n      swap2\n      swap1\n      0x00\n      mstore\n      keccak256(0x00, 0x20)\n      swap1\n    tag_131:\n      dup2\n      sload\n      dup2\n      mstore\n      swap1\n      0x01\n      add\n      swap1\n      0x20\n      add\n      dup1\n      dup4\n      gt\n      tag_131\n      jumpi\n      dup3\n      swap1\n      sub\n      0x1f\n      and\n      dup3\n      add\n      swap2\n    tag_129:\n      pop\n      pop\n      pop\n      pop\n      pop\n      swap1\n      dup1\n      0x02\n      add\n      sload\n      swap1\n      pop\n      dup4\n      jump\t// out\n        /* \"contracts/SimpleContract.sol\":686:705  bool public allowed */\n    tag_41:\n      0x00\n      dup1\n      sload\n      swap1\n      0x0100\n      exp\n      swap1\n      div\n      0xff\n      and\n      dup2\n      jump\t// out\n        /* \"contracts/SimpleContract.sol\":2646:2719  function setAllowed(bool _owner) public {... */\n    tag_47:\n        /* \"contracts/SimpleContract.sol\":2706:2712  _owner */\n      dup1\n        /* \"contracts/SimpleContract.sol\":2696:2703  allowed */\n      0x00\n      dup1\n        /* \"contracts/SimpleContract.sol\":2696:2712  allowed = _owner */\n      0x0100\n      exp\n      dup2\n      sload\n      dup2\n      0xff\n      mul\n      not\n      and\n      swap1\n      dup4\n      iszero\n      iszero\n      mul\n      or\n      swap1\n      sstore\n      pop\n        /* \"contracts/SimpleContract.sol\":2646:2719  function setAllowed(bool _owner) public {... */\n      pop\n      jump\t// out\n        /* \"contracts/SimpleContract.sol\":4957:5051  function WhoAmI() public  override pure returns(string memory){... */\n    tag_49:\n        /* \"contracts/SimpleContract.sol\":5005:5018  string memory */\n      0x60\n        /* \"contracts/SimpleContract.sol\":5029:5044  return \"0xVeli\" */\n      mload(0x40)\n      dup1\n      0x40\n      add\n      0x40\n      mstore\n      dup1\n      0x06\n      dup2\n      mstore\n      0x20\n      add\n      0x307856656c690000000000000000000000000000000000000000000000000000\n      dup2\n      mstore\n      pop\n      swap1\n      pop\n        /* \"contracts/SimpleContract.sol\":4957:5051  function WhoAmI() public  override pure returns(string memory){... */\n      swap1\n      jump\t// out\n        /* \"contracts/SimpleContract.sol\":2076:2124  mapping(address => Account) public accountValues */\n    tag_55:\n      mstore(0x20, 0x0a)\n      dup1\n      0x00\n      mstore\n      keccak256(0x00, 0x40)\n      0x00\n      swap2\n      pop\n      swap1\n      pop\n      dup1\n      0x00\n      add\n      dup1\n      sload\n      tag_134\n      swap1\n      tag_122\n      jump\t// in\n    tag_134:\n      dup1\n      0x1f\n      add\n      0x20\n      dup1\n      swap2\n      div\n      mul\n      0x20\n      add\n      mload(0x40)\n      swap1\n      dup2\n      add\n      0x40\n      mstore\n      dup1\n      swap3\n      swap2\n      swap1\n      dup2\n      dup2\n      mstore\n      0x20\n      add\n      dup3\n      dup1\n      sload\n      tag_135\n      swap1\n      tag_122\n      jump\t// in\n    tag_135:\n      dup1\n      iszero\n      tag_136\n      jumpi\n      dup1\n      0x1f\n      lt\n      tag_137\n      jumpi\n      0x0100\n      dup1\n      dup4\n      sload\n      div\n      mul\n      dup4\n      mstore\n      swap2\n      0x20\n      add\n      swap2\n      jump(tag_136)\n    tag_137:\n      dup3\n      add\n      swap2\n      swap1\n      0x00\n      mstore\n      keccak256(0x00, 0x20)\n      swap1\n    tag_138:\n      dup2\n      sload\n      dup2\n      mstore\n      swap1\n      0x01\n      add\n      swap1\n      0x20\n      add\n      dup1\n      dup4\n      gt\n      tag_138\n      jumpi\n      dup3\n      swap1\n      sub\n      0x1f\n      and\n      dup3\n      add\n      swap2\n    tag_136:\n      pop\n      pop\n      pop\n      pop\n      pop\n      swap1\n      dup1\n      0x01\n      add\n      dup1\n      sload\n      tag_139\n      swap1\n      tag_122\n      jump\t// in\n    tag_139:\n      dup1\n      0x1f\n      add\n      0x20\n      dup1\n      swap2\n      div\n      mul\n      0x20\n      add\n      mload(0x40)\n      swap1\n      dup2\n      add\n      0x40\n      mstore\n      dup1\n      swap3\n      swap2\n      swap1\n      dup2\n      dup2\n      mstore\n      0x20\n      add\n      dup3\n      dup1\n      sload\n      tag_140\n      swap1\n      tag_122\n      jump\t// in\n    tag_140:\n      dup1\n      iszero\n      tag_141\n      jumpi\n      dup1\n      0x1f\n      lt\n      tag_142\n      jumpi\n      0x0100\n      dup1\n      dup4\n      sload\n      div\n      mul\n      dup4\n      mstore\n      swap2\n      0x20\n      add\n      swap2\n      jump(tag_141)\n    tag_142:\n      dup3\n      add\n      swap2\n      swap1\n      0x00\n      mstore\n      keccak256(0x00, 0x20)\n      swap1\n    tag_143:\n      dup2\n      sload\n      dup2\n      mstore\n      swap1\n      0x01\n      add\n      swap1\n      0x20\n      add\n      dup1\n      dup4\n      gt\n      tag_143\n      jumpi\n      dup3\n      swap1\n      sub\n      0x1f\n      and\n      dup3\n      add\n      swap2\n    tag_141:\n      pop\n      pop\n      pop\n      pop\n      pop\n      swap1\n      dup1\n      0x02\n      add\n      sload\n      swap1\n      pop\n      dup4\n      jump\t// out\n        /* \"contracts/SimpleContract.sol\":734:756  int public signedCount */\n    tag_58:\n      sload(0x02)\n      dup2\n      jump\t// out\n        /* \"contracts/SimpleContract.sol\":4243:4404  function addAdmin(Account memory admin) public {... */\n    tag_64:\n        /* \"contracts/SimpleContract.sol\":4314:4316  10 */\n      0x0a\n        /* \"contracts/SimpleContract.sol\":4308:4313  index */\n      sload(0x0c)\n        /* \"contracts/SimpleContract.sol\":4308:4316  index<10 */\n      lt\n        /* \"contracts/SimpleContract.sol\":4300:4332  require(index<10, \"has no slot\") */\n      tag_145\n      jumpi\n      mload(0x40)\n      0x08c379a000000000000000000000000000000000000000000000000000000000\n      dup2\n      mstore\n      0x04\n      add\n      tag_146\n      swap1\n      tag_147\n      jump\t// in\n    tag_146:\n      mload(0x40)\n      dup1\n      swap2\n      sub\n      swap1\n      revert\n    tag_145:\n        /* \"contracts/SimpleContract.sol\":4377:4383  admins */\n      0x0b\n        /* \"contracts/SimpleContract.sol\":4389:4394  admin */\n      dup2\n        /* \"contracts/SimpleContract.sol\":4377:4395  admins.push(admin) */\n      swap1\n      dup1\n      0x01\n      dup2\n      sload\n      add\n      dup1\n      dup3\n      sstore\n      dup1\n      swap2\n      pop\n      pop\n      0x01\n      swap1\n      sub\n      swap1\n      0x00\n      mstore\n      keccak256(0x00, 0x20)\n      swap1\n      0x03\n      mul\n      add\n      0x00\n      swap1\n      swap2\n      swap1\n      swap2\n      swap1\n      swap2\n      pop\n      0x00\n      dup3\n      add\n      mload\n      dup2\n      0x00\n      add\n      swap1\n      dup2\n      tag_149\n      swap2\n      swap1\n      tag_150\n      jump\t// in\n    tag_149:\n      pop\n      0x20\n      dup3\n      add\n      mload\n      dup2\n      0x01\n      add\n      swap1\n      dup2\n      tag_151\n      swap2\n      swap1\n      tag_150\n      jump\t// in\n    tag_151:\n      pop\n      0x40\n      dup3\n      add\n      mload\n      dup2\n      0x02\n      add\n      sstore\n      pop\n      pop\n        /* \"contracts/SimpleContract.sol\":4243:4404  function addAdmin(Account memory admin) public {... */\n      pop\n      jump\t// out\n        /* \"contracts/SimpleContract.sol\":3445:3549  function getSizeOfErrorMessages() public view returns(uint){... */\n    tag_66:\n        /* \"contracts/SimpleContract.sol\":3499:3503  uint */\n      0x00\n        /* \"contracts/SimpleContract.sol\":3522:3542  errorMessages.length */\n      0x02\n        /* \"contracts/SimpleContract.sol\":3515:3542  return errorMessages.length */\n      swap1\n      pop\n        /* \"contracts/SimpleContract.sol\":3445:3549  function getSizeOfErrorMessages() public view returns(uint){... */\n      swap1\n      jump\t// out\n        /* \"contracts/SimpleContract.sol\":3839:3979  function assignValueStruct(Account memory _account) public {... */\n    tag_70:\n        /* \"contracts/SimpleContract.sol\":3918:3926  _account */\n      dup1\n        /* \"contracts/SimpleContract.sol\":3908:3915  account */\n      0x07\n        /* \"contracts/SimpleContract.sol\":3908:3926  account = _account */\n      0x00\n      dup3\n      add\n      mload\n      dup2\n      0x00\n      add\n      swap1\n      dup2\n      tag_154\n      swap2\n      swap1\n      tag_150\n      jump\t// in\n    tag_154:\n      pop\n      0x20\n      dup3\n      add\n      mload\n      dup2\n      0x01\n      add\n      swap1\n      dup2\n      tag_155\n      swap2\n      swap1\n      tag_150\n      jump\t// in\n    tag_155:\n      pop\n      0x40\n      dup3\n      add\n      mload\n      dup2\n      0x02\n      add\n      sstore\n      swap1\n      pop\n      pop\n        /* \"contracts/SimpleContract.sol\":3839:3979  function assignValueStruct(Account memory _account) public {... */\n      pop\n      jump\t// out\n        /* \"contracts/SimpleContract.sol\":4857:4951  function iAmReady() external pure returns(string memory){... */\n    tag_72:\n        /* \"contracts/SimpleContract.sol\":4899:4912  string memory */\n      0x60\n        /* \"contracts/SimpleContract.sol\":4923:4943  return \"I am ready!\" */\n      mload(0x40)\n      dup1\n      0x40\n      add\n      0x40\n      mstore\n      dup1\n      0x0b\n      dup2\n      mstore\n      0x20\n      add\n      0x4920616d20726561647921000000000000000000000000000000000000000000\n      dup2\n      mstore\n      pop\n      swap1\n      pop\n        /* \"contracts/SimpleContract.sol\":4857:4951  function iAmReady() external pure returns(string memory){... */\n      swap1\n      jump\t// out\n        /* \"contracts/SimpleContract.sol\":3042:3178  function increment(uint _increment) isAllowed public{... */\n    tag_76:\n        /* \"contracts/SimpleContract.sol\":2763:2772  allowance */\n      0x03\n        /* \"contracts/SimpleContract.sol\":2763:2779  allowance[owner] */\n      0x00\n        /* \"contracts/SimpleContract.sol\":2773:2778  owner */\n      0x06\n      0x00\n      swap1\n      sload\n      swap1\n      0x0100\n      exp\n      swap1\n      div\n      0xffffffffffffffffffffffffffffffffffffffff\n      and\n        /* \"contracts/SimpleContract.sol\":2763:2779  allowance[owner] */\n      0xffffffffffffffffffffffffffffffffffffffff\n      and\n      0xffffffffffffffffffffffffffffffffffffffff\n      and\n      dup2\n      mstore\n      0x20\n      add\n      swap1\n      dup2\n      mstore\n      0x20\n      add\n      0x00\n      keccak256\n        /* \"contracts/SimpleContract.sol\":2763:2791  allowance[owner][msg.sender] */\n      0x00\n        /* \"contracts/SimpleContract.sol\":2780:2790  msg.sender */\n      caller\n        /* \"contracts/SimpleContract.sol\":2763:2791  allowance[owner][msg.sender] */\n      0xffffffffffffffffffffffffffffffffffffffff\n      and\n      0xffffffffffffffffffffffffffffffffffffffff\n      and\n      dup2\n      mstore\n      0x20\n      add\n      swap1\n      dup2\n      mstore\n      0x20\n      add\n      0x00\n      keccak256\n      0x00\n      swap1\n      sload\n      swap1\n      0x0100\n      exp\n      swap1\n      div\n      0xff\n      and\n        /* \"contracts/SimpleContract.sol\":2792:2805  errorMessages */\n      0x04\n        /* \"contracts/SimpleContract.sol\":2806:2807  0 */\n      0x00\n        /* \"contracts/SimpleContract.sol\":2792:2808  errorMessages[0] */\n      0x02\n      dup2\n      lt\n      tag_158\n      jumpi\n      tag_159\n      tag_160\n      jump\t// in\n    tag_159:\n    tag_158:\n      add\n        /* \"contracts/SimpleContract.sol\":2755:2809  require(allowance[owner][msg.sender],errorMessages[0]) */\n      swap1\n      tag_162\n      jumpi\n      mload(0x40)\n      0x08c379a000000000000000000000000000000000000000000000000000000000\n      dup2\n      mstore\n      0x04\n      add\n      tag_163\n      swap2\n      swap1\n      tag_164\n      jump\t// in\n    tag_163:\n      mload(0x40)\n      dup1\n      swap2\n      sub\n      swap1\n      revert\n    tag_162:\n      pop\n        /* \"contracts/SimpleContract.sol\":3120:3130  _increment */\n      dup1\n        /* \"contracts/SimpleContract.sol\":3112:3117  count */\n      sload(0x01)\n        /* \"contracts/SimpleContract.sol\":3112:3130  count + _increment */\n      tag_166\n      swap2\n      swap1\n      tag_167\n      jump\t// in\n    tag_166:\n        /* \"contracts/SimpleContract.sol\":3104:3109  count */\n      0x01\n        /* \"contracts/SimpleContract.sol\":3104:3130  count = count + _increment */\n      dup2\n      swap1\n      sstore\n      pop\n        /* \"contracts/SimpleContract.sol\":3042:3178  function increment(uint _increment) isAllowed public{... */\n      pop\n      jump\t// out\n        /* \"contracts/SimpleContract.sol\":3293:3440  function assignAllowence(address _address) public OnlyOwner{ ... */\n    tag_79:\n        /* \"contracts/SimpleContract.sol\":2880:2890  msg.sender */\n      caller\n        /* \"contracts/SimpleContract.sol\":2871:2890  owner == msg.sender */\n      0xffffffffffffffffffffffffffffffffffffffff\n      and\n        /* \"contracts/SimpleContract.sol\":2871:2876  owner */\n      0x06\n      0x00\n      swap1\n      sload\n      swap1\n      0x0100\n      exp\n      swap1\n      div\n      0xffffffffffffffffffffffffffffffffffffffff\n      and\n        /* \"contracts/SimpleContract.sol\":2871:2890  owner == msg.sender */\n      0xffffffffffffffffffffffffffffffffffffffff\n      and\n      eq\n        /* \"contracts/SimpleContract.sol\":2892:2905  errorMessages */\n      0x04\n        /* \"contracts/SimpleContract.sol\":2906:2907  1 */\n      0x01\n        /* \"contracts/SimpleContract.sol\":2892:2908  errorMessages[1] */\n      0x02\n      dup2\n      lt\n      tag_169\n      jumpi\n      tag_170\n      tag_160\n      jump\t// in\n    tag_170:\n    tag_169:\n      add\n        /* \"contracts/SimpleContract.sol\":2863:2910  require(owner == msg.sender, errorMessages[1] ) */\n      swap1\n      tag_172\n      jumpi\n      mload(0x40)\n      0x08c379a000000000000000000000000000000000000000000000000000000000\n      dup2\n      mstore\n      0x04\n      add\n      tag_173\n      swap2\n      swap1\n      tag_164\n      jump\t// in\n    tag_173:\n      mload(0x40)\n      dup1\n      swap2\n      sub\n      swap1\n      revert\n    tag_172:\n      pop\n        /* \"contracts/SimpleContract.sol\":3392:3396  true */\n      0x01\n        /* \"contracts/SimpleContract.sol\":3363:3372  allowance */\n      0x03\n        /* \"contracts/SimpleContract.sol\":3363:3379  allowance[owner] */\n      0x00\n        /* \"contracts/SimpleContract.sol\":3373:3378  owner */\n      0x06\n      0x00\n      swap1\n      sload\n      swap1\n      0x0100\n      exp\n      swap1\n      div\n      0xffffffffffffffffffffffffffffffffffffffff\n      and\n        /* \"contracts/SimpleContract.sol\":3363:3379  allowance[owner] */\n      0xffffffffffffffffffffffffffffffffffffffff\n      and\n      0xffffffffffffffffffffffffffffffffffffffff\n      and\n      dup2\n      mstore\n      0x20\n      add\n      swap1\n      dup2\n      mstore\n      0x20\n      add\n      0x00\n      keccak256\n        /* \"contracts/SimpleContract.sol\":3363:3389  allowance[owner][_address] */\n      0x00\n        /* \"contracts/SimpleContract.sol\":3380:3388  _address */\n      dup4\n        /* \"contracts/SimpleContract.sol\":3363:3389  allowance[owner][_address] */\n      0xffffffffffffffffffffffffffffffffffffffff\n      and\n      0xffffffffffffffffffffffffffffffffffffffff\n      and\n      dup2\n      mstore\n      0x20\n      add\n      swap1\n      dup2\n      mstore\n      0x20\n      add\n      0x00\n      keccak256\n      0x00\n        /* \"contracts/SimpleContract.sol\":3363:3396  allowance[owner][_address] = true */\n      0x0100\n      exp\n      dup2\n      sload\n      dup2\n      0xff\n      mul\n      not\n      and\n      swap1\n      dup4\n      iszero\n      iszero\n      mul\n      or\n      swap1\n      sstore\n      pop\n        /* \"contracts/SimpleContract.sol\":3293:3440  function assignAllowence(address _address) public OnlyOwner{ ... */\n      pop\n      jump\t// out\n        /* \"contracts/SimpleContract.sol\":437:530  function getFullName() public pure returns(string memory){... */\n    tag_81:\n        /* \"contracts/SimpleContract.sol\":480:493  string memory */\n      0x60\n        /* \"contracts/SimpleContract.sol\":504:523  return \"Veli Uysal\" */\n      mload(0x40)\n      dup1\n      0x40\n      add\n      0x40\n      mstore\n      dup1\n      0x0a\n      dup2\n      mstore\n      0x20\n      add\n      0x56656c6920557973616c00000000000000000000000000000000000000000000\n      dup2\n      mstore\n      pop\n      swap1\n      pop\n        /* \"contracts/SimpleContract.sol\":437:530  function getFullName() public pure returns(string memory){... */\n      swap1\n      jump\t// out\n        /* \"contracts/SimpleContract.sol\":1184:1204  address public owner */\n    tag_84:\n      0x06\n      0x00\n      swap1\n      sload\n      swap1\n      0x0100\n      exp\n      swap1\n      div\n      0xffffffffffffffffffffffffffffffffffffffff\n      and\n      dup2\n      jump\t// out\n        /* \"contracts/SimpleContract.sol\":3633:3833  function assignValue(string memory _name, string memory _surname, uint256 _balance) public {... */\n    tag_90:\n        /* \"contracts/SimpleContract.sol\":3749:3754  _name */\n      dup3\n        /* \"contracts/SimpleContract.sol\":3734:3741  account */\n      0x07\n        /* \"contracts/SimpleContract.sol\":3734:3746  account.name */\n      0x00\n      add\n        /* \"contracts/SimpleContract.sol\":3734:3754  account.name = _name */\n      swap1\n      dup2\n      tag_177\n      swap2\n      swap1\n      tag_150\n      jump\t// in\n    tag_177:\n      pop\n        /* \"contracts/SimpleContract.sol\":3782:3790  _surname */\n      dup2\n        /* \"contracts/SimpleContract.sol\":3764:3771  account */\n      0x07\n        /* \"contracts/SimpleContract.sol\":3764:3779  account.surname */\n      0x01\n      add\n        /* \"contracts/SimpleContract.sol\":3764:3790  account.surname = _surname */\n      swap1\n      dup2\n      tag_178\n      swap2\n      swap1\n      tag_150\n      jump\t// in\n    tag_178:\n      pop\n        /* \"contracts/SimpleContract.sol\":3818:3826  _balance */\n      dup1\n        /* \"contracts/SimpleContract.sol\":3800:3807  account */\n      0x07\n        /* \"contracts/SimpleContract.sol\":3800:3815  account.balance */\n      0x02\n      add\n        /* \"contracts/SimpleContract.sol\":3800:3826  account.balance = _balance */\n      dup2\n      swap1\n      sstore\n      pop\n        /* \"contracts/SimpleContract.sol\":3633:3833  function assignValue(string memory _name, string memory _surname, uint256 _balance) public {... */\n      pop\n      pop\n      pop\n      jump\t// out\n        /* \"contracts/SimpleContract.sol\":2934:2975  function buy() isAllowed public  {... */\n    tag_92:\n        /* \"contracts/SimpleContract.sol\":2763:2772  allowance */\n      0x03\n        /* \"contracts/SimpleContract.sol\":2763:2779  allowance[owner] */\n      0x00\n        /* \"contracts/SimpleContract.sol\":2773:2778  owner */\n      0x06\n      0x00\n      swap1\n      sload\n      swap1\n      0x0100\n      exp\n      swap1\n      div\n      0xffffffffffffffffffffffffffffffffffffffff\n      and\n        /* \"contracts/SimpleContract.sol\":2763:2779  allowance[owner] */\n      0xffffffffffffffffffffffffffffffffffffffff\n      and\n      0xffffffffffffffffffffffffffffffffffffffff\n      and\n      dup2\n      mstore\n      0x20\n      add\n      swap1\n      dup2\n      mstore\n      0x20\n      add\n      0x00\n      keccak256\n        /* \"contracts/SimpleContract.sol\":2763:2791  allowance[owner][msg.sender] */\n      0x00\n        /* \"contracts/SimpleContract.sol\":2780:2790  msg.sender */\n      caller\n        /* \"contracts/SimpleContract.sol\":2763:2791  allowance[owner][msg.sender] */\n      0xffffffffffffffffffffffffffffffffffffffff\n      and\n      0xffffffffffffffffffffffffffffffffffffffff\n      and\n      dup2\n      mstore\n      0x20\n      add\n      swap1\n      dup2\n      mstore\n      0x20\n      add\n      0x00\n      keccak256\n      0x00\n      swap1\n      sload\n      swap1\n      0x0100\n      exp\n      swap1\n      div\n      0xff\n      and\n        /* \"contracts/SimpleContract.sol\":2792:2805  errorMessages */\n      0x04\n        /* \"contracts/SimpleContract.sol\":2806:2807  0 */\n      0x00\n        /* \"contracts/SimpleContract.sol\":2792:2808  errorMessages[0] */\n      0x02\n      dup2\n      lt\n      tag_180\n      jumpi\n      tag_181\n      tag_160\n      jump\t// in\n    tag_181:\n    tag_180:\n      add\n        /* \"contracts/SimpleContract.sol\":2755:2809  require(allowance[owner][msg.sender],errorMessages[0]) */\n      swap1\n      tag_183\n      jumpi\n      mload(0x40)\n      0x08c379a000000000000000000000000000000000000000000000000000000000\n      dup2\n      mstore\n      0x04\n      add\n      tag_184\n      swap2\n      swap1\n      tag_164\n      jump\t// in\n    tag_184:\n      mload(0x40)\n      dup1\n      swap2\n      sub\n      swap1\n      revert\n    tag_183:\n      pop\n        /* \"contracts/SimpleContract.sol\":2934:2975  function buy() isAllowed public  {... */\n      jump\t// out\n        /* \"contracts/SimpleContract.sol\":4124:4237  function assignAddressValues(Account memory _account) public{... */\n    tag_95:\n        /* \"contracts/SimpleContract.sol\":4222:4230  _account */\n      dup1\n        /* \"contracts/SimpleContract.sol\":4194:4207  accountValues */\n      0x0a\n        /* \"contracts/SimpleContract.sol\":4194:4219  accountValues[msg.sender] */\n      0x00\n        /* \"contracts/SimpleContract.sol\":4208:4218  msg.sender */\n      caller\n        /* \"contracts/SimpleContract.sol\":4194:4219  accountValues[msg.sender] */\n      0xffffffffffffffffffffffffffffffffffffffff\n      and\n      0xffffffffffffffffffffffffffffffffffffffff\n      and\n      dup2\n      mstore\n      0x20\n      add\n      swap1\n      dup2\n      mstore\n      0x20\n      add\n      0x00\n      keccak256\n        /* \"contracts/SimpleContract.sol\":4194:4230  accountValues[msg.sender] = _account */\n      0x00\n      dup3\n      add\n      mload\n      dup2\n      0x00\n      add\n      swap1\n      dup2\n      tag_187\n      swap2\n      swap1\n      tag_150\n      jump\t// in\n    tag_187:\n      pop\n      0x20\n      dup3\n      add\n      mload\n      dup2\n      0x01\n      add\n      swap1\n      dup2\n      tag_188\n      swap2\n      swap1\n      tag_150\n      jump\t// in\n    tag_188:\n      pop\n      0x40\n      dup3\n      add\n      mload\n      dup2\n      0x02\n      add\n      sstore\n      swap1\n      pop\n      pop\n        /* \"contracts/SimpleContract.sol\":4124:4237  function assignAddressValues(Account memory _account) public{... */\n      pop\n      jump\t// out\n        /* \"contracts/SimpleContract.sol\":3184:3287  function signedIncrement(int _increment) public {... */\n    tag_99:\n        /* \"contracts/SimpleContract.sol\":3270:3280  _increment */\n      dup1\n        /* \"contracts/SimpleContract.sol\":3256:3267  signedCount */\n      sload(0x02)\n        /* \"contracts/SimpleContract.sol\":3256:3280  signedCount + _increment */\n      tag_190\n      swap2\n      swap1\n      tag_191\n      jump\t// in\n    tag_190:\n        /* \"contracts/SimpleContract.sol\":3242:3253  signedCount */\n      0x02\n        /* \"contracts/SimpleContract.sol\":3242:3280  signedCount = signedCount + _increment */\n      dup2\n      swap1\n      sstore\n      pop\n        /* \"contracts/SimpleContract.sol\":3184:3287  function signedIncrement(int _increment) public {... */\n      pop\n      jump\t// out\n        /* \"contracts/SimpleContract.sol\":1075:1105  string[2] public errorMessages */\n    tag_102:\n      0x04\n      dup2\n      0x02\n      dup2\n      lt\n      tag_192\n      jumpi\n      0x00\n      dup1\n      revert\n    tag_192:\n      add\n      0x00\n      swap2\n      pop\n      swap1\n      pop\n      dup1\n      sload\n      tag_194\n      swap1\n      tag_122\n      jump\t// in\n    tag_194:\n      dup1\n      0x1f\n      add\n      0x20\n      dup1\n      swap2\n      div\n      mul\n      0x20\n      add\n      mload(0x40)\n      swap1\n      dup2\n      add\n      0x40\n      mstore\n      dup1\n      swap3\n      swap2\n      swap1\n      dup2\n      dup2\n      mstore\n      0x20\n      add\n      dup3\n      dup1\n      sload\n      tag_195\n      swap1\n      tag_122\n      jump\t// in\n    tag_195:\n      dup1\n      iszero\n      tag_196\n      jumpi\n      dup1\n      0x1f\n      lt\n      tag_197\n      jumpi\n      0x0100\n      dup1\n      dup4\n      sload\n      div\n      mul\n      dup4\n      mstore\n      swap2\n      0x20\n      add\n      swap2\n      jump(tag_196)\n    tag_197:\n      dup3\n      add\n      swap2\n      swap1\n      0x00\n      mstore\n      keccak256(0x00, 0x20)\n      swap1\n    tag_198:\n      dup2\n      sload\n      dup2\n      mstore\n      swap1\n      0x01\n      add\n      swap1\n      0x20\n      add\n      dup1\n      dup4\n      gt\n      tag_198\n      jumpi\n      dup3\n      swap1\n      sub\n      0x1f\n      and\n      dup3\n      add\n      swap2\n    tag_196:\n      pop\n      pop\n      pop\n      pop\n      pop\n      dup2\n      jump\t// out\n        /* \"contracts/SimpleContract.sol\":3985:4118  function getAccount() public view returns (Account memory){... */\n    tag_105:\n        /* \"contracts/SimpleContract.sol\":4028:4042  Account memory */\n      tag_199\n      tag_200\n      jump\t// in\n    tag_199:\n        /* \"contracts/SimpleContract.sol\":4053:4076  Account memory _account */\n      0x00\n        /* \"contracts/SimpleContract.sol\":4079:4086  account */\n      0x07\n        /* \"contracts/SimpleContract.sol\":4053:4086  Account memory _account = account */\n      mload(0x40)\n      dup1\n      0x60\n      add\n      0x40\n      mstore\n      swap1\n      dup2\n      0x00\n      dup3\n      add\n      dup1\n      sload\n      tag_202\n      swap1\n      tag_122\n      jump\t// in\n    tag_202:\n      dup1\n      0x1f\n      add\n      0x20\n      dup1\n      swap2\n      div\n      mul\n      0x20\n      add\n      mload(0x40)\n      swap1\n      dup2\n      add\n      0x40\n      mstore\n      dup1\n      swap3\n      swap2\n      swap1\n      dup2\n      dup2\n      mstore\n      0x20\n      add\n      dup3\n      dup1\n      sload\n      tag_203\n      swap1\n      tag_122\n      jump\t// in\n    tag_203:\n      dup1\n      iszero\n      tag_204\n      jumpi\n      dup1\n      0x1f\n      lt\n      tag_205\n      jumpi\n      0x0100\n      dup1\n      dup4\n      sload\n      div\n      mul\n      dup4\n      mstore\n      swap2\n      0x20\n      add\n      swap2\n      jump(tag_204)\n    tag_205:\n      dup3\n      add\n      swap2\n      swap1\n      0x00\n      mstore\n      keccak256(0x00, 0x20)\n      swap1\n    tag_206:\n      dup2\n      sload\n      dup2\n      mstore\n      swap1\n      0x01\n      add\n      swap1\n      0x20\n      add\n      dup1\n      dup4\n      gt\n      tag_206\n      jumpi\n      dup3\n      swap1\n      sub\n      0x1f\n      and\n      dup3\n      add\n      swap2\n    tag_204:\n      pop\n      pop\n      pop\n      pop\n      pop\n      dup2\n      mstore\n      0x20\n      add\n      0x01\n      dup3\n      add\n      dup1\n      sload\n      tag_207\n      swap1\n      tag_122\n      jump\t// in\n    tag_207:\n      dup1\n      0x1f\n      add\n      0x20\n      dup1\n      swap2\n      div\n      mul\n      0x20\n      add\n      mload(0x40)\n      swap1\n      dup2\n      add\n      0x40\n      mstore\n      dup1\n      swap3\n      swap2\n      swap1\n      dup2\n      dup2\n      mstore\n      0x20\n      add\n      dup3\n      dup1\n      sload\n      tag_208\n      swap1\n      tag_122\n      jump\t// in\n    tag_208:\n      dup1\n      iszero\n      tag_209\n      jumpi\n      dup1\n      0x1f\n      lt\n      tag_210\n      jumpi\n      0x0100\n      dup1\n      dup4\n      sload\n      div\n      mul\n      dup4\n      mstore\n      swap2\n      0x20\n      add\n      swap2\n      jump(tag_209)\n    tag_210:\n      dup3\n      add\n      swap2\n      swap1\n      0x00\n      mstore\n      keccak256(0x00, 0x20)\n      swap1\n    tag_211:\n      dup2\n      sload\n      dup2\n      mstore\n      swap1\n      0x01\n      add\n      swap1\n      0x20\n      add\n      dup1\n      dup4\n      gt\n      tag_211\n      jumpi\n      dup3\n      swap1\n      sub\n      0x1f\n      and\n      dup3\n      add\n      swap2\n    tag_209:\n      pop\n      pop\n      pop\n      pop\n      pop\n      dup2\n      mstore\n      0x20\n      add\n      0x02\n      dup3\n      add\n      sload\n      dup2\n      mstore\n      pop\n      pop\n      swap1\n      pop\n        /* \"contracts/SimpleContract.sol\":4103:4111  _account */\n      dup1\n        /* \"contracts/SimpleContract.sol\":4096:4111  return _account */\n      swap2\n      pop\n      pop\n        /* \"contracts/SimpleContract.sol\":3985:4118  function getAccount() public view returns (Account memory){... */\n      swap1\n      jump\t// out\n        /* \"contracts/SimpleContract.sol\":966:1028  mapping(address => mapping(address => bool) ) public allowance */\n    tag_111:\n      mstore(0x20, 0x03)\n      dup2\n      0x00\n      mstore\n      mstore(0x20, keccak256(0x00, 0x40))\n      dup1\n      0x00\n      mstore\n      keccak256(0x00, 0x40)\n      0x00\n      swap2\n      pop\n      swap2\n      pop\n      swap1\n      sload\n      swap1\n      0x0100\n      exp\n      swap1\n      div\n      0xff\n      and\n      dup2\n      jump\t// out\n        /* \"contracts/SimpleContract.sol\":4410:4851  function getAllAdmins() public view returns(Account[] memory){... */\n    tag_114:\n        /* \"contracts/SimpleContract.sol\":4454:4470  Account[] memory */\n      0x60\n        /* \"contracts/SimpleContract.sol\":4838:4844  admins */\n      0x0b\n        /* \"contracts/SimpleContract.sol\":4831:4844  return admins */\n      dup1\n      sload\n      dup1\n      0x20\n      mul\n      0x20\n      add\n      mload(0x40)\n      swap1\n      dup2\n      add\n      0x40\n      mstore\n      dup1\n      swap3\n      swap2\n      swap1\n      dup2\n      dup2\n      mstore\n      0x20\n      add\n      0x00\n      swap1\n    tag_213:\n      dup3\n      dup3\n      lt\n      iszero\n      tag_214\n      jumpi\n      dup4\n      dup3\n      swap1\n      0x00\n      mstore\n      keccak256(0x00, 0x20)\n      swap1\n      0x03\n      mul\n      add\n      mload(0x40)\n      dup1\n      0x60\n      add\n      0x40\n      mstore\n      swap1\n      dup2\n      0x00\n      dup3\n      add\n      dup1\n      sload\n      tag_216\n      swap1\n      tag_122\n      jump\t// in\n    tag_216:\n      dup1\n      0x1f\n      add\n      0x20\n      dup1\n      swap2\n      div\n      mul\n      0x20\n      add\n      mload(0x40)\n      swap1\n      dup2\n      add\n      0x40\n      mstore\n      dup1\n      swap3\n      swap2\n      swap1\n      dup2\n      dup2\n      mstore\n      0x20\n      add\n      dup3\n      dup1\n      sload\n      tag_217\n      swap1\n      tag_122\n      jump\t// in\n    tag_217:\n      dup1\n      iszero\n      tag_218\n      jumpi\n      dup1\n      0x1f\n      lt\n      tag_219\n      jumpi\n      0x0100\n      dup1\n      dup4\n      sload\n      div\n      mul\n      dup4\n      mstore\n      swap2\n      0x20\n      add\n      swap2\n      jump(tag_218)\n    tag_219:\n      dup3\n      add\n      swap2\n      swap1\n      0x00\n      mstore\n      keccak256(0x00, 0x20)\n      swap1\n    tag_220:\n      dup2\n      sload\n      dup2\n      mstore\n      swap1\n      0x01\n      add\n      swap1\n      0x20\n      add\n      dup1\n      dup4\n      gt\n      tag_220\n      jumpi\n      dup3\n      swap1\n      sub\n      0x1f\n      and\n      dup3\n      add\n      swap2\n    tag_218:\n      pop\n      pop\n      pop\n      pop\n      pop\n      dup2\n      mstore\n      0x20\n      add\n      0x01\n      dup3\n      add\n      dup1\n      sload\n      tag_221\n      swap1\n      tag_122\n      jump\t// in\n    tag_221:\n      dup1\n      0x1f\n      add\n      0x20\n      dup1\n      swap2\n      div\n      mul\n      0x20\n      add\n      mload(0x40)\n      swap1\n      dup2\n      add\n      0x40\n      mstore\n      dup1\n      swap3\n      swap2\n      swap1\n      dup2\n      dup2\n      mstore\n      0x20\n      add\n      dup3\n      dup1\n      sload\n      tag_222\n      swap1\n      tag_122\n      jump\t// in\n    tag_222:\n      dup1\n      iszero\n      tag_223\n      jumpi\n      dup1\n      0x1f\n      lt\n      tag_224\n      jumpi\n      0x0100\n      dup1\n      dup4\n      sload\n      div\n      mul\n      dup4\n      mstore\n      swap2\n      0x20\n      add\n      swap2\n      jump(tag_223)\n    tag_224:\n      dup3\n      add\n      swap2\n      swap1\n      0x00\n      mstore\n      keccak256(0x00, 0x20)\n      swap1\n    tag_225:\n      dup2\n      sload\n      dup2\n      mstore\n      swap1\n      0x01\n      add\n      swap1\n      0x20\n      add\n      dup1\n      dup4\n      gt\n      tag_225\n      jumpi\n      dup3\n      swap1\n      sub\n      0x1f\n      and\n      dup3\n      add\n      swap2\n    tag_223:\n      pop\n      pop\n      pop\n      pop\n      pop\n      dup2\n      mstore\n      0x20\n      add\n      0x02\n      dup3\n      add\n      sload\n      dup2\n      mstore\n      pop\n      pop\n      dup2\n      mstore\n      0x20\n      add\n      swap1\n      0x01\n      add\n      swap1\n      jump(tag_213)\n    tag_214:\n      pop\n      pop\n      pop\n      pop\n      swap1\n      pop\n        /* \"contracts/SimpleContract.sol\":4410:4851  function getAllAdmins() public view returns(Account[] memory){... */\n      swap1\n      jump\t// out\n        /* \"contracts/SimpleContract.sol\":2981:3036  function oneIncrement() public {... */\n    tag_118:\n        /* \"contracts/SimpleContract.sol\":3024:3029  count */\n      0x01\n      0x00\n        /* \"contracts/SimpleContract.sol\":3022:3029  ++count */\n      dup2\n      sload\n      tag_227\n      swap1\n      tag_228\n      jump\t// in\n    tag_227:\n      swap2\n      swap1\n      pop\n      dup2\n      swap1\n      sstore\n      pop\n        /* \"contracts/SimpleContract.sol\":2981:3036  function oneIncrement() public {... */\n      jump\t// out\n    tag_200:\n      mload(0x40)\n      dup1\n      0x60\n      add\n      0x40\n      mstore\n      dup1\n      0x60\n      dup2\n      mstore\n      0x20\n      add\n      0x60\n      dup2\n      mstore\n      0x20\n      add\n      0x00\n      dup2\n      mstore\n      pop\n      swap1\n      jump\t// out\n        /* \"#utility.yul\":7:84   */\n    tag_229:\n        /* \"#utility.yul\":44:51   */\n      0x00\n        /* \"#utility.yul\":73:78   */\n      dup2\n        /* \"#utility.yul\":62:78   */\n      swap1\n      pop\n        /* \"#utility.yul\":7:84   */\n      swap2\n      swap1\n      pop\n      jump\t// out\n        /* \"#utility.yul\":90:208   */\n    tag_230:\n        /* \"#utility.yul\":177:201   */\n      tag_300\n        /* \"#utility.yul\":195:200   */\n      dup2\n        /* \"#utility.yul\":177:201   */\n      tag_229\n      jump\t// in\n    tag_300:\n        /* \"#utility.yul\":172:175   */\n      dup3\n        /* \"#utility.yul\":165:202   */\n      mstore\n        /* \"#utility.yul\":90:208   */\n      pop\n      pop\n      jump\t// out\n        /* \"#utility.yul\":214:436   */\n    tag_33:\n        /* \"#utility.yul\":307:311   */\n      0x00\n        /* \"#utility.yul\":345:347   */\n      0x20\n        /* \"#utility.yul\":334:343   */\n      dup3\n        /* \"#utility.yul\":330:348   */\n      add\n        /* \"#utility.yul\":322:348   */\n      swap1\n      pop\n        /* \"#utility.yul\":358:429   */\n      tag_302\n        /* \"#utility.yul\":426:427   */\n      0x00\n        /* \"#utility.yul\":415:424   */\n      dup4\n        /* \"#utility.yul\":411:428   */\n      add\n        /* \"#utility.yul\":402:408   */\n      dup5\n        /* \"#utility.yul\":358:429   */\n      tag_230\n      jump\t// in\n    tag_302:\n        /* \"#utility.yul\":214:436   */\n      swap3\n      swap2\n      pop\n      pop\n      jump\t// out\n        /* \"#utility.yul\":442:517   */\n    tag_231:\n        /* \"#utility.yul\":475:481   */\n      0x00\n        /* \"#utility.yul\":508:510   */\n      0x40\n        /* \"#utility.yul\":502:511   */\n      mload\n        /* \"#utility.yul\":492:511   */\n      swap1\n      pop\n        /* \"#utility.yul\":442:517   */\n      swap1\n      jump\t// out\n        /* \"#utility.yul\":523:640   */\n    tag_232:\n        /* \"#utility.yul\":632:633   */\n      0x00\n        /* \"#utility.yul\":629:630   */\n      dup1\n        /* \"#utility.yul\":622:634   */\n      revert\n        /* \"#utility.yul\":646:763   */\n    tag_233:\n        /* \"#utility.yul\":755:756   */\n      0x00\n        /* \"#utility.yul\":752:753   */\n      dup1\n        /* \"#utility.yul\":745:757   */\n      revert\n        /* \"#utility.yul\":769:891   */\n    tag_234:\n        /* \"#utility.yul\":842:866   */\n      tag_307\n        /* \"#utility.yul\":860:865   */\n      dup2\n        /* \"#utility.yul\":842:866   */\n      tag_229\n      jump\t// in\n    tag_307:\n        /* \"#utility.yul\":835:840   */\n      dup2\n        /* \"#utility.yul\":832:867   */\n      eq\n        /* \"#utility.yul\":822:885   */\n      tag_308\n      jumpi\n        /* \"#utility.yul\":881:882   */\n      0x00\n        /* \"#utility.yul\":878:879   */\n      dup1\n        /* \"#utility.yul\":871:883   */\n      revert\n        /* \"#utility.yul\":822:885   */\n    tag_308:\n        /* \"#utility.yul\":769:891   */\n      pop\n      jump\t// out\n        /* \"#utility.yul\":897:1036   */\n    tag_235:\n        /* \"#utility.yul\":943:948   */\n      0x00\n        /* \"#utility.yul\":981:987   */\n      dup2\n        /* \"#utility.yul\":968:988   */\n      calldataload\n        /* \"#utility.yul\":959:988   */\n      swap1\n      pop\n        /* \"#utility.yul\":997:1030   */\n      tag_310\n        /* \"#utility.yul\":1024:1029   */\n      dup2\n        /* \"#utility.yul\":997:1030   */\n      tag_234\n      jump\t// in\n    tag_310:\n        /* \"#utility.yul\":897:1036   */\n      swap3\n      swap2\n      pop\n      pop\n      jump\t// out\n        /* \"#utility.yul\":1042:1371   */\n    tag_36:\n        /* \"#utility.yul\":1101:1107   */\n      0x00\n        /* \"#utility.yul\":1150:1152   */\n      0x20\n        /* \"#utility.yul\":1138:1147   */\n      dup3\n        /* \"#utility.yul\":1129:1136   */\n      dup5\n        /* \"#utility.yul\":1125:1148   */\n      sub\n        /* \"#utility.yul\":1121:1153   */\n      slt\n        /* \"#utility.yul\":1118:1237   */\n      iszero\n      tag_312\n      jumpi\n        /* \"#utility.yul\":1156:1235   */\n      tag_313\n      tag_232\n      jump\t// in\n    tag_313:\n        /* \"#utility.yul\":1118:1237   */\n    tag_312:\n        /* \"#utility.yul\":1276:1277   */\n      0x00\n        /* \"#utility.yul\":1301:1354   */\n      tag_314\n        /* \"#utility.yul\":1346:1353   */\n      dup5\n        /* \"#utility.yul\":1337:1343   */\n      dup3\n        /* \"#utility.yul\":1326:1335   */\n      dup6\n        /* \"#utility.yul\":1322:1344   */\n      add\n        /* \"#utility.yul\":1301:1354   */\n      tag_235\n      jump\t// in\n    tag_314:\n        /* \"#utility.yul\":1291:1354   */\n      swap2\n      pop\n        /* \"#utility.yul\":1247:1364   */\n      pop\n        /* \"#utility.yul\":1042:1371   */\n      swap3\n      swap2\n      pop\n      pop\n      jump\t// out\n        /* \"#utility.yul\":1377:1476   */\n    tag_236:\n        /* \"#utility.yul\":1429:1435   */\n      0x00\n        /* \"#utility.yul\":1463:1468   */\n      dup2\n        /* \"#utility.yul\":1457:1469   */\n      mload\n        /* \"#utility.yul\":1447:1469   */\n      swap1\n      pop\n        /* \"#utility.yul\":1377:1476   */\n      swap2\n      swap1\n      pop\n      jump\t// out\n        /* \"#utility.yul\":1482:1651   */\n    tag_237:\n        /* \"#utility.yul\":1566:1577   */\n      0x00\n        /* \"#utility.yul\":1600:1606   */\n      dup3\n        /* \"#utility.yul\":1595:1598   */\n      dup3\n        /* \"#utility.yul\":1588:1607   */\n      mstore\n        /* \"#utility.yul\":1640:1644   */\n      0x20\n        /* \"#utility.yul\":1635:1638   */\n      dup3\n        /* \"#utility.yul\":1631:1645   */\n      add\n        /* \"#utility.yul\":1616:1645   */\n      swap1\n      pop\n        /* \"#utility.yul\":1482:1651   */\n      swap3\n      swap2\n      pop\n      pop\n      jump\t// out\n        /* \"#utility.yul\":1657:1903   */\n    tag_238:\n        /* \"#utility.yul\":1738:1739   */\n      0x00\n        /* \"#utility.yul\":1748:1861   */\n    tag_318:\n        /* \"#utility.yul\":1762:1768   */\n      dup4\n        /* \"#utility.yul\":1759:1760   */\n      dup2\n        /* \"#utility.yul\":1756:1769   */\n      lt\n        /* \"#utility.yul\":1748:1861   */\n      iszero\n      tag_320\n      jumpi\n        /* \"#utility.yul\":1847:1848   */\n      dup1\n        /* \"#utility.yul\":1842:1845   */\n      dup3\n        /* \"#utility.yul\":1838:1849   */\n      add\n        /* \"#utility.yul\":1832:1850   */\n      mload\n        /* \"#utility.yul\":1828:1829   */\n      dup2\n        /* \"#utility.yul\":1823:1826   */\n      dup5\n        /* \"#utility.yul\":1819:1830   */\n      add\n        /* \"#utility.yul\":1812:1851   */\n      mstore\n        /* \"#utility.yul\":1784:1786   */\n      0x20\n        /* \"#utility.yul\":1781:1782   */\n      dup2\n        /* \"#utility.yul\":1777:1787   */\n      add\n        /* \"#utility.yul\":1772:1787   */\n      swap1\n      pop\n        /* \"#utility.yul\":1748:1861   */\n      jump(tag_318)\n    tag_320:\n        /* \"#utility.yul\":1895:1896   */\n      0x00\n        /* \"#utility.yul\":1886:1892   */\n      dup5\n        /* \"#utility.yul\":1881:1884   */\n      dup5\n        /* \"#utility.yul\":1877:1893   */\n      add\n        /* \"#utility.yul\":1870:1897   */\n      mstore\n        /* \"#utility.yul\":1719:1903   */\n      pop\n        /* \"#utility.yul\":1657:1903   */\n      pop\n      pop\n      pop\n      jump\t// out\n        /* \"#utility.yul\":1909:2011   */\n    tag_239:\n        /* \"#utility.yul\":1950:1956   */\n      0x00\n        /* \"#utility.yul\":2001:2003   */\n      0x1f\n        /* \"#utility.yul\":1997:2004   */\n      not\n        /* \"#utility.yul\":1992:1994   */\n      0x1f\n        /* \"#utility.yul\":1985:1990   */\n      dup4\n        /* \"#utility.yul\":1981:1995   */\n      add\n        /* \"#utility.yul\":1977:2005   */\n      and\n        /* \"#utility.yul\":1967:2005   */\n      swap1\n      pop\n        /* \"#utility.yul\":1909:2011   */\n      swap2\n      swap1\n      pop\n      jump\t// out\n        /* \"#utility.yul\":2017:2394   */\n    tag_240:\n        /* \"#utility.yul\":2105:2108   */\n      0x00\n        /* \"#utility.yul\":2133:2172   */\n      tag_323\n        /* \"#utility.yul\":2166:2171   */\n      dup3\n        /* \"#utility.yul\":2133:2172   */\n      tag_236\n      jump\t// in\n    tag_323:\n        /* \"#utility.yul\":2188:2259   */\n      tag_324\n        /* \"#utility.yul\":2252:2258   */\n      dup2\n        /* \"#utility.yul\":2247:2250   */\n      dup6\n        /* \"#utility.yul\":2188:2259   */\n      tag_237\n      jump\t// in\n    tag_324:\n        /* \"#utility.yul\":2181:2259   */\n      swap4\n      pop\n        /* \"#utility.yul\":2268:2333   */\n      tag_325\n        /* \"#utility.yul\":2326:2332   */\n      dup2\n        /* \"#utility.yul\":2321:2324   */\n      dup6\n        /* \"#utility.yul\":2314:2318   */\n      0x20\n        /* \"#utility.yul\":2307:2312   */\n      dup7\n        /* \"#utility.yul\":2303:2319   */\n      add\n        /* \"#utility.yul\":2268:2333   */\n      tag_238\n      jump\t// in\n    tag_325:\n        /* \"#utility.yul\":2358:2387   */\n      tag_326\n        /* \"#utility.yul\":2380:2386   */\n      dup2\n        /* \"#utility.yul\":2358:2387   */\n      tag_239\n      jump\t// in\n    tag_326:\n        /* \"#utility.yul\":2353:2356   */\n      dup5\n        /* \"#utility.yul\":2349:2388   */\n      add\n        /* \"#utility.yul\":2342:2388   */\n      swap2\n      pop\n        /* \"#utility.yul\":2109:2394   */\n      pop\n        /* \"#utility.yul\":2017:2394   */\n      swap3\n      swap2\n      pop\n      pop\n      jump\t// out\n        /* \"#utility.yul\":2400:3024   */\n    tag_39:\n        /* \"#utility.yul\":2589:2593   */\n      0x00\n        /* \"#utility.yul\":2627:2629   */\n      0x60\n        /* \"#utility.yul\":2616:2625   */\n      dup3\n        /* \"#utility.yul\":2612:2630   */\n      add\n        /* \"#utility.yul\":2604:2630   */\n      swap1\n      pop\n        /* \"#utility.yul\":2676:2685   */\n      dup2\n        /* \"#utility.yul\":2670:2674   */\n      dup2\n        /* \"#utility.yul\":2666:2686   */\n      sub\n        /* \"#utility.yul\":2662:2663   */\n      0x00\n        /* \"#utility.yul\":2651:2660   */\n      dup4\n        /* \"#utility.yul\":2647:2664   */\n      add\n        /* \"#utility.yul\":2640:2687   */\n      mstore\n        /* \"#utility.yul\":2704:2782   */\n      tag_328\n        /* \"#utility.yul\":2777:2781   */\n      dup2\n        /* \"#utility.yul\":2768:2774   */\n      dup7\n        /* \"#utility.yul\":2704:2782   */\n      tag_240\n      jump\t// in\n    tag_328:\n        /* \"#utility.yul\":2696:2782   */\n      swap1\n      pop\n        /* \"#utility.yul\":2829:2838   */\n      dup2\n        /* \"#utility.yul\":2823:2827   */\n      dup2\n        /* \"#utility.yul\":2819:2839   */\n      sub\n        /* \"#utility.yul\":2814:2816   */\n      0x20\n        /* \"#utility.yul\":2803:2812   */\n      dup4\n        /* \"#utility.yul\":2799:2817   */\n      add\n        /* \"#utility.yul\":2792:2840   */\n      mstore\n        /* \"#utility.yul\":2857:2935   */\n      tag_329\n        /* \"#utility.yul\":2930:2934   */\n      dup2\n        /* \"#utility.yul\":2921:2927   */\n      dup6\n        /* \"#utility.yul\":2857:2935   */\n      tag_240\n      jump\t// in\n    tag_329:\n        /* \"#utility.yul\":2849:2935   */\n      swap1\n      pop\n        /* \"#utility.yul\":2945:3017   */\n      tag_330\n        /* \"#utility.yul\":3013:3015   */\n      0x40\n        /* \"#utility.yul\":3002:3011   */\n      dup4\n        /* \"#utility.yul\":2998:3016   */\n      add\n        /* \"#utility.yul\":2989:2995   */\n      dup5\n        /* \"#utility.yul\":2945:3017   */\n      tag_230\n      jump\t// in\n    tag_330:\n        /* \"#utility.yul\":2400:3024   */\n      swap5\n      swap4\n      pop\n      pop\n      pop\n      pop\n      jump\t// out\n        /* \"#utility.yul\":3030:3120   */\n    tag_241:\n        /* \"#utility.yul\":3064:3071   */\n      0x00\n        /* \"#utility.yul\":3107:3112   */\n      dup2\n        /* \"#utility.yul\":3100:3113   */\n      iszero\n        /* \"#utility.yul\":3093:3114   */\n      iszero\n        /* \"#utility.yul\":3082:3114   */\n      swap1\n      pop\n        /* \"#utility.yul\":3030:3120   */\n      swap2\n      swap1\n      pop\n      jump\t// out\n        /* \"#utility.yul\":3126:3235   */\n    tag_242:\n        /* \"#utility.yul\":3207:3228   */\n      tag_333\n        /* \"#utility.yul\":3222:3227   */\n      dup2\n        /* \"#utility.yul\":3207:3228   */\n      tag_241\n      jump\t// in\n    tag_333:\n        /* \"#utility.yul\":3202:3205   */\n      dup3\n        /* \"#utility.yul\":3195:3229   */\n      mstore\n        /* \"#utility.yul\":3126:3235   */\n      pop\n      pop\n      jump\t// out\n        /* \"#utility.yul\":3241:3451   */\n    tag_43:\n        /* \"#utility.yul\":3328:3332   */\n      0x00\n        /* \"#utility.yul\":3366:3368   */\n      0x20\n        /* \"#utility.yul\":3355:3364   */\n      dup3\n        /* \"#utility.yul\":3351:3369   */\n      add\n        /* \"#utility.yul\":3343:3369   */\n      swap1\n      pop\n        /* \"#utility.yul\":3379:3444   */\n      tag_335\n        /* \"#utility.yul\":3441:3442   */\n      0x00\n        /* \"#utility.yul\":3430:3439   */\n      dup4\n        /* \"#utility.yul\":3426:3443   */\n      add\n        /* \"#utility.yul\":3417:3423   */\n      dup5\n        /* \"#utility.yul\":3379:3444   */\n      tag_242\n      jump\t// in\n    tag_335:\n        /* \"#utility.yul\":3241:3451   */\n      swap3\n      swap2\n      pop\n      pop\n      jump\t// out\n        /* \"#utility.yul\":3457:3573   */\n    tag_243:\n        /* \"#utility.yul\":3527:3548   */\n      tag_337\n        /* \"#utility.yul\":3542:3547   */\n      dup2\n        /* \"#utility.yul\":3527:3548   */\n      tag_241\n      jump\t// in\n    tag_337:\n        /* \"#utility.yul\":3520:3525   */\n      dup2\n        /* \"#utility.yul\":3517:3549   */\n      eq\n        /* \"#utility.yul\":3507:3567   */\n      tag_338\n      jumpi\n        /* \"#utility.yul\":3563:3564   */\n      0x00\n        /* \"#utility.yul\":3560:3561   */\n      dup1\n        /* \"#utility.yul\":3553:3565   */\n      revert\n        /* \"#utility.yul\":3507:3567   */\n    tag_338:\n        /* \"#utility.yul\":3457:3573   */\n      pop\n      jump\t// out\n        /* \"#utility.yul\":3579:3712   */\n    tag_244:\n        /* \"#utility.yul\":3622:3627   */\n      0x00\n        /* \"#utility.yul\":3660:3666   */\n      dup2\n        /* \"#utility.yul\":3647:3667   */\n      calldataload\n        /* \"#utility.yul\":3638:3667   */\n      swap1\n      pop\n        /* \"#utility.yul\":3676:3706   */\n      tag_340\n        /* \"#utility.yul\":3700:3705   */\n      dup2\n        /* \"#utility.yul\":3676:3706   */\n      tag_243\n      jump\t// in\n    tag_340:\n        /* \"#utility.yul\":3579:3712   */\n      swap3\n      swap2\n      pop\n      pop\n      jump\t// out\n        /* \"#utility.yul\":3718:4041   */\n    tag_46:\n        /* \"#utility.yul\":3774:3780   */\n      0x00\n        /* \"#utility.yul\":3823:3825   */\n      0x20\n        /* \"#utility.yul\":3811:3820   */\n      dup3\n        /* \"#utility.yul\":3802:3809   */\n      dup5\n        /* \"#utility.yul\":3798:3821   */\n      sub\n        /* \"#utility.yul\":3794:3826   */\n      slt\n        /* \"#utility.yul\":3791:3910   */\n      iszero\n      tag_342\n      jumpi\n        /* \"#utility.yul\":3829:3908   */\n      tag_343\n      tag_232\n      jump\t// in\n    tag_343:\n        /* \"#utility.yul\":3791:3910   */\n    tag_342:\n        /* \"#utility.yul\":3949:3950   */\n      0x00\n        /* \"#utility.yul\":3974:4024   */\n      tag_344\n        /* \"#utility.yul\":4016:4023   */\n      dup5\n        /* \"#utility.yul\":4007:4013   */\n      dup3\n        /* \"#utility.yul\":3996:4005   */\n      dup6\n        /* \"#utility.yul\":3992:4014   */\n      add\n        /* \"#utility.yul\":3974:4024   */\n      tag_244\n      jump\t// in\n    tag_344:\n        /* \"#utility.yul\":3964:4024   */\n      swap2\n      pop\n        /* \"#utility.yul\":3920:4034   */\n      pop\n        /* \"#utility.yul\":3718:4041   */\n      swap3\n      swap2\n      pop\n      pop\n      jump\t// out\n        /* \"#utility.yul\":4047:4360   */\n    tag_51:\n        /* \"#utility.yul\":4160:4164   */\n      0x00\n        /* \"#utility.yul\":4198:4200   */\n      0x20\n        /* \"#utility.yul\":4187:4196   */\n      dup3\n        /* \"#utility.yul\":4183:4201   */\n      add\n        /* \"#utility.yul\":4175:4201   */\n      swap1\n      pop\n        /* \"#utility.yul\":4247:4256   */\n      dup2\n        /* \"#utility.yul\":4241:4245   */\n      dup2\n        /* \"#utility.yul\":4237:4257   */\n      sub\n        /* \"#utility.yul\":4233:4234   */\n      0x00\n        /* \"#utility.yul\":4222:4231   */\n      dup4\n        /* \"#utility.yul\":4218:4235   */\n      add\n        /* \"#utility.yul\":4211:4258   */\n      mstore\n        /* \"#utility.yul\":4275:4353   */\n      tag_346\n        /* \"#utility.yul\":4348:4352   */\n      dup2\n        /* \"#utility.yul\":4339:4345   */\n      dup5\n        /* \"#utility.yul\":4275:4353   */\n      tag_240\n      jump\t// in\n    tag_346:\n        /* \"#utility.yul\":4267:4353   */\n      swap1\n      pop\n        /* \"#utility.yul\":4047:4360   */\n      swap3\n      swap2\n      pop\n      pop\n      jump\t// out\n        /* \"#utility.yul\":4366:4492   */\n    tag_245:\n        /* \"#utility.yul\":4403:4410   */\n      0x00\n        /* \"#utility.yul\":4443:4485   */\n      0xffffffffffffffffffffffffffffffffffffffff\n        /* \"#utility.yul\":4436:4441   */\n      dup3\n        /* \"#utility.yul\":4432:4486   */\n      and\n        /* \"#utility.yul\":4421:4486   */\n      swap1\n      pop\n        /* \"#utility.yul\":4366:4492   */\n      swap2\n      swap1\n      pop\n      jump\t// out\n        /* \"#utility.yul\":4498:4594   */\n    tag_246:\n        /* \"#utility.yul\":4535:4542   */\n      0x00\n        /* \"#utility.yul\":4564:4588   */\n      tag_349\n        /* \"#utility.yul\":4582:4587   */\n      dup3\n        /* \"#utility.yul\":4564:4588   */\n      tag_245\n      jump\t// in\n    tag_349:\n        /* \"#utility.yul\":4553:4588   */\n      swap1\n      pop\n        /* \"#utility.yul\":4498:4594   */\n      swap2\n      swap1\n      pop\n      jump\t// out\n        /* \"#utility.yul\":4600:4722   */\n    tag_247:\n        /* \"#utility.yul\":4673:4697   */\n      tag_351\n        /* \"#utility.yul\":4691:4696   */\n      dup2\n        /* \"#utility.yul\":4673:4697   */\n      tag_246\n      jump\t// in\n    tag_351:\n        /* \"#utility.yul\":4666:4671   */\n      dup2\n        /* \"#utility.yul\":4663:4698   */\n      eq\n        /* \"#utility.yul\":4653:4716   */\n      tag_352\n      jumpi\n        /* \"#utility.yul\":4712:4713   */\n      0x00\n        /* \"#utility.yul\":4709:4710   */\n      dup1\n        /* \"#utility.yul\":4702:4714   */\n      revert\n        /* \"#utility.yul\":4653:4716   */\n    tag_352:\n        /* \"#utility.yul\":4600:4722   */\n      pop\n      jump\t// out\n        /* \"#utility.yul\":4728:4867   */\n    tag_248:\n        /* \"#utility.yul\":4774:4779   */\n      0x00\n        /* \"#utility.yul\":4812:4818   */\n      dup2\n        /* \"#utility.yul\":4799:4819   */\n      calldataload\n        /* \"#utility.yul\":4790:4819   */\n      swap1\n      pop\n        /* \"#utility.yul\":4828:4861   */\n      tag_354\n        /* \"#utility.yul\":4855:4860   */\n      dup2\n        /* \"#utility.yul\":4828:4861   */\n      tag_247\n      jump\t// in\n    tag_354:\n        /* \"#utility.yul\":4728:4867   */\n      swap3\n      swap2\n      pop\n      pop\n      jump\t// out\n        /* \"#utility.yul\":4873:5202   */\n    tag_54:\n        /* \"#utility.yul\":4932:4938   */\n      0x00\n        /* \"#utility.yul\":4981:4983   */\n      0x20\n        /* \"#utility.yul\":4969:4978   */\n      dup3\n        /* \"#utility.yul\":4960:4967   */\n      dup5\n        /* \"#utility.yul\":4956:4979   */\n      sub\n        /* \"#utility.yul\":4952:4984   */\n      slt\n        /* \"#utility.yul\":4949:5068   */\n      iszero\n      tag_356\n      jumpi\n        /* \"#utility.yul\":4987:5066   */\n      tag_357\n      tag_232\n      jump\t// in\n    tag_357:\n        /* \"#utility.yul\":4949:5068   */\n    tag_356:\n        /* \"#utility.yul\":5107:5108   */\n      0x00\n        /* \"#utility.yul\":5132:5185   */\n      tag_358\n        /* \"#utility.yul\":5177:5184   */\n      dup5\n        /* \"#utility.yul\":5168:5174   */\n      dup3\n        /* \"#utility.yul\":5157:5166   */\n      dup6\n        /* \"#utility.yul\":5153:5175   */\n      add\n        /* \"#utility.yul\":5132:5185   */\n      tag_248\n      jump\t// in\n    tag_358:\n        /* \"#utility.yul\":5122:5185   */\n      swap2\n      pop\n        /* \"#utility.yul\":5078:5195   */\n      pop\n        /* \"#utility.yul\":4873:5202   */\n      swap3\n      swap2\n      pop\n      pop\n      jump\t// out\n        /* \"#utility.yul\":5208:5284   */\n    tag_249:\n        /* \"#utility.yul\":5244:5251   */\n      0x00\n        /* \"#utility.yul\":5273:5278   */\n      dup2\n        /* \"#utility.yul\":5262:5278   */\n      swap1\n      pop\n        /* \"#utility.yul\":5208:5284   */\n      swap2\n      swap1\n      pop\n      jump\t// out\n        /* \"#utility.yul\":5290:5405   */\n    tag_250:\n        /* \"#utility.yul\":5375:5398   */\n      tag_361\n        /* \"#utility.yul\":5392:5397   */\n      dup2\n        /* \"#utility.yul\":5375:5398   */\n      tag_249\n      jump\t// in\n    tag_361:\n        /* \"#utility.yul\":5370:5373   */\n      dup3\n        /* \"#utility.yul\":5363:5399   */\n      mstore\n        /* \"#utility.yul\":5290:5405   */\n      pop\n      pop\n      jump\t// out\n        /* \"#utility.yul\":5411:5629   */\n    tag_60:\n        /* \"#utility.yul\":5502:5506   */\n      0x00\n        /* \"#utility.yul\":5540:5542   */\n      0x20\n        /* \"#utility.yul\":5529:5538   */\n      dup3\n        /* \"#utility.yul\":5525:5543   */\n      add\n        /* \"#utility.yul\":5517:5543   */\n      swap1\n      pop\n        /* \"#utility.yul\":5553:5622   */\n      tag_363\n        /* \"#utility.yul\":5619:5620   */\n      0x00\n        /* \"#utility.yul\":5608:5617   */\n      dup4\n        /* \"#utility.yul\":5604:5621   */\n      add\n        /* \"#utility.yul\":5595:5601   */\n      dup5\n        /* \"#utility.yul\":5553:5622   */\n      tag_250\n      jump\t// in\n    tag_363:\n        /* \"#utility.yul\":5411:5629   */\n      swap3\n      swap2\n      pop\n      pop\n      jump\t// out\n        /* \"#utility.yul\":5635:5752   */\n    tag_251:\n        /* \"#utility.yul\":5744:5745   */\n      0x00\n        /* \"#utility.yul\":5741:5742   */\n      dup1\n        /* \"#utility.yul\":5734:5746   */\n      revert\n        /* \"#utility.yul\":5758:5938   */\n    tag_252:\n        /* \"#utility.yul\":5806:5883   */\n      0x4e487b7100000000000000000000000000000000000000000000000000000000\n        /* \"#utility.yul\":5803:5804   */\n      0x00\n        /* \"#utility.yul\":5796:5884   */\n      mstore\n        /* \"#utility.yul\":5903:5907   */\n      0x41\n        /* \"#utility.yul\":5900:5901   */\n      0x04\n        /* \"#utility.yul\":5893:5908   */\n      mstore\n        /* \"#utility.yul\":5927:5931   */\n      0x24\n        /* \"#utility.yul\":5924:5925   */\n      0x00\n        /* \"#utility.yul\":5917:5932   */\n      revert\n        /* \"#utility.yul\":5944:6225   */\n    tag_253:\n        /* \"#utility.yul\":6027:6054   */\n      tag_367\n        /* \"#utility.yul\":6049:6053   */\n      dup3\n        /* \"#utility.yul\":6027:6054   */\n      tag_239\n      jump\t// in\n    tag_367:\n        /* \"#utility.yul\":6019:6025   */\n      dup2\n        /* \"#utility.yul\":6015:6055   */\n      add\n        /* \"#utility.yul\":6157:6163   */\n      dup2\n        /* \"#utility.yul\":6145:6155   */\n      dup2\n        /* \"#utility.yul\":6142:6164   */\n      lt\n        /* \"#utility.yul\":6121:6139   */\n      0xffffffffffffffff\n        /* \"#utility.yul\":6109:6119   */\n      dup3\n        /* \"#utility.yul\":6106:6140   */\n      gt\n        /* \"#utility.yul\":6103:6165   */\n      or\n        /* \"#utility.yul\":6100:6188   */\n      iszero\n      tag_368\n      jumpi\n        /* \"#utility.yul\":6168:6186   */\n      tag_369\n      tag_252\n      jump\t// in\n    tag_369:\n        /* \"#utility.yul\":6100:6188   */\n    tag_368:\n        /* \"#utility.yul\":6208:6218   */\n      dup1\n        /* \"#utility.yul\":6204:6206   */\n      0x40\n        /* \"#utility.yul\":6197:6219   */\n      mstore\n        /* \"#utility.yul\":5987:6225   */\n      pop\n        /* \"#utility.yul\":5944:6225   */\n      pop\n      pop\n      jump\t// out\n        /* \"#utility.yul\":6231:6360   */\n    tag_254:\n        /* \"#utility.yul\":6265:6271   */\n      0x00\n        /* \"#utility.yul\":6292:6312   */\n      tag_371\n      tag_231\n      jump\t// in\n    tag_371:\n        /* \"#utility.yul\":6282:6312   */\n      swap1\n      pop\n        /* \"#utility.yul\":6321:6354   */\n      tag_372\n        /* \"#utility.yul\":6349:6353   */\n      dup3\n        /* \"#utility.yul\":6341:6347   */\n      dup3\n        /* \"#utility.yul\":6321:6354   */\n      tag_253\n      jump\t// in\n    tag_372:\n        /* \"#utility.yul\":6231:6360   */\n      swap2\n      swap1\n      pop\n      jump\t// out\n        /* \"#utility.yul\":6366:6483   */\n    tag_255:\n        /* \"#utility.yul\":6475:6476   */\n      0x00\n        /* \"#utility.yul\":6472:6473   */\n      dup1\n        /* \"#utility.yul\":6465:6477   */\n      revert\n        /* \"#utility.yul\":6489:6606   */\n    tag_256:\n        /* \"#utility.yul\":6598:6599   */\n      0x00\n        /* \"#utility.yul\":6595:6596   */\n      dup1\n        /* \"#utility.yul\":6588:6600   */\n      revert\n        /* \"#utility.yul\":6612:6729   */\n    tag_257:\n        /* \"#utility.yul\":6721:6722   */\n      0x00\n        /* \"#utility.yul\":6718:6719   */\n      dup1\n        /* \"#utility.yul\":6711:6723   */\n      revert\n        /* \"#utility.yul\":6735:7043   */\n    tag_258:\n        /* \"#utility.yul\":6797:6801   */\n      0x00\n        /* \"#utility.yul\":6887:6905   */\n      0xffffffffffffffff\n        /* \"#utility.yul\":6879:6885   */\n      dup3\n        /* \"#utility.yul\":6876:6906   */\n      gt\n        /* \"#utility.yul\":6873:6929   */\n      iszero\n      tag_377\n      jumpi\n        /* \"#utility.yul\":6909:6927   */\n      tag_378\n      tag_252\n      jump\t// in\n    tag_378:\n        /* \"#utility.yul\":6873:6929   */\n    tag_377:\n        /* \"#utility.yul\":6947:6976   */\n      tag_379\n        /* \"#utility.yul\":6969:6975   */\n      dup3\n        /* \"#utility.yul\":6947:6976   */\n      tag_239\n      jump\t// in\n    tag_379:\n        /* \"#utility.yul\":6939:6976   */\n      swap1\n      pop\n        /* \"#utility.yul\":7031:7035   */\n      0x20\n        /* \"#utility.yul\":7025:7029   */\n      dup2\n        /* \"#utility.yul\":7021:7036   */\n      add\n        /* \"#utility.yul\":7013:7036   */\n      swap1\n      pop\n        /* \"#utility.yul\":6735:7043   */\n      swap2\n      swap1\n      pop\n      jump\t// out\n        /* \"#utility.yul\":7049:7195   */\n    tag_259:\n        /* \"#utility.yul\":7146:7152   */\n      dup3\n        /* \"#utility.yul\":7141:7144   */\n      dup2\n        /* \"#utility.yul\":7136:7139   */\n      dup4\n        /* \"#utility.yul\":7123:7153   */\n      calldatacopy\n        /* \"#utility.yul\":7187:7188   */\n      0x00\n        /* \"#utility.yul\":7178:7184   */\n      dup4\n        /* \"#utility.yul\":7173:7176   */\n      dup4\n        /* \"#utility.yul\":7169:7185   */\n      add\n        /* \"#utility.yul\":7162:7189   */\n      mstore\n        /* \"#utility.yul\":7049:7195   */\n      pop\n      pop\n      pop\n      jump\t// out\n        /* \"#utility.yul\":7201:7626   */\n    tag_260:\n        /* \"#utility.yul\":7279:7284   */\n      0x00\n        /* \"#utility.yul\":7304:7370   */\n      tag_382\n        /* \"#utility.yul\":7320:7369   */\n      tag_383\n        /* \"#utility.yul\":7362:7368   */\n      dup5\n        /* \"#utility.yul\":7320:7369   */\n      tag_258\n      jump\t// in\n    tag_383:\n        /* \"#utility.yul\":7304:7370   */\n      tag_254\n      jump\t// in\n    tag_382:\n        /* \"#utility.yul\":7295:7370   */\n      swap1\n      pop\n        /* \"#utility.yul\":7393:7399   */\n      dup3\n        /* \"#utility.yul\":7386:7391   */\n      dup2\n        /* \"#utility.yul\":7379:7400   */\n      mstore\n        /* \"#utility.yul\":7431:7435   */\n      0x20\n        /* \"#utility.yul\":7424:7429   */\n      dup2\n        /* \"#utility.yul\":7420:7436   */\n      add\n        /* \"#utility.yul\":7469:7472   */\n      dup5\n        /* \"#utility.yul\":7460:7466   */\n      dup5\n        /* \"#utility.yul\":7455:7458   */\n      dup5\n        /* \"#utility.yul\":7451:7467   */\n      add\n        /* \"#utility.yul\":7448:7473   */\n      gt\n        /* \"#utility.yul\":7445:7557   */\n      iszero\n      tag_384\n      jumpi\n        /* \"#utility.yul\":7476:7555   */\n      tag_385\n      tag_257\n      jump\t// in\n    tag_385:\n        /* \"#utility.yul\":7445:7557   */\n    tag_384:\n        /* \"#utility.yul\":7566:7620   */\n      tag_386\n        /* \"#utility.yul\":7613:7619   */\n      dup5\n        /* \"#utility.yul\":7608:7611   */\n      dup3\n        /* \"#utility.yul\":7603:7606   */\n      dup6\n        /* \"#utility.yul\":7566:7620   */\n      tag_259\n      jump\t// in\n    tag_386:\n        /* \"#utility.yul\":7285:7626   */\n      pop\n        /* \"#utility.yul\":7201:7626   */\n      swap4\n      swap3\n      pop\n      pop\n      pop\n      jump\t// out\n        /* \"#utility.yul\":7646:7986   */\n    tag_261:\n        /* \"#utility.yul\":7702:7707   */\n      0x00\n        /* \"#utility.yul\":7751:7754   */\n      dup3\n        /* \"#utility.yul\":7744:7748   */\n      0x1f\n        /* \"#utility.yul\":7736:7742   */\n      dup4\n        /* \"#utility.yul\":7732:7749   */\n      add\n        /* \"#utility.yul\":7728:7755   */\n      slt\n        /* \"#utility.yul\":7718:7840   */\n      tag_388\n      jumpi\n        /* \"#utility.yul\":7759:7838   */\n      tag_389\n      tag_256\n      jump\t// in\n    tag_389:\n        /* \"#utility.yul\":7718:7840   */\n    tag_388:\n        /* \"#utility.yul\":7876:7882   */\n      dup2\n        /* \"#utility.yul\":7863:7883   */\n      calldataload\n        /* \"#utility.yul\":7901:7980   */\n      tag_390\n        /* \"#utility.yul\":7976:7979   */\n      dup5\n        /* \"#utility.yul\":7968:7974   */\n      dup3\n        /* \"#utility.yul\":7961:7965   */\n      0x20\n        /* \"#utility.yul\":7953:7959   */\n      dup7\n        /* \"#utility.yul\":7949:7966   */\n      add\n        /* \"#utility.yul\":7901:7980   */\n      tag_260\n      jump\t// in\n    tag_390:\n        /* \"#utility.yul\":7892:7980   */\n      swap2\n      pop\n        /* \"#utility.yul\":7708:7986   */\n      pop\n        /* \"#utility.yul\":7646:7986   */\n      swap3\n      swap2\n      pop\n      pop\n      jump\t// out\n        /* \"#utility.yul\":8029:9108   */\n    tag_262:\n        /* \"#utility.yul\":8101:8106   */\n      0x00\n        /* \"#utility.yul\":8145:8149   */\n      0x60\n        /* \"#utility.yul\":8133:8142   */\n      dup3\n        /* \"#utility.yul\":8128:8131   */\n      dup5\n        /* \"#utility.yul\":8124:8143   */\n      sub\n        /* \"#utility.yul\":8120:8150   */\n      slt\n        /* \"#utility.yul\":8117:8234   */\n      iszero\n      tag_392\n      jumpi\n        /* \"#utility.yul\":8153:8232   */\n      tag_393\n      tag_251\n      jump\t// in\n    tag_393:\n        /* \"#utility.yul\":8117:8234   */\n    tag_392:\n        /* \"#utility.yul\":8252:8273   */\n      tag_394\n        /* \"#utility.yul\":8268:8272   */\n      0x60\n        /* \"#utility.yul\":8252:8273   */\n      tag_254\n      jump\t// in\n    tag_394:\n        /* \"#utility.yul\":8243:8273   */\n      swap1\n      pop\n        /* \"#utility.yul\":8360:8361   */\n      0x00\n        /* \"#utility.yul\":8349:8358   */\n      dup3\n        /* \"#utility.yul\":8345:8362   */\n      add\n        /* \"#utility.yul\":8332:8363   */\n      calldataload\n        /* \"#utility.yul\":8390:8408   */\n      0xffffffffffffffff\n        /* \"#utility.yul\":8382:8388   */\n      dup2\n        /* \"#utility.yul\":8379:8409   */\n      gt\n        /* \"#utility.yul\":8376:8493   */\n      iszero\n      tag_395\n      jumpi\n        /* \"#utility.yul\":8412:8491   */\n      tag_396\n      tag_255\n      jump\t// in\n    tag_396:\n        /* \"#utility.yul\":8376:8493   */\n    tag_395:\n        /* \"#utility.yul\":8532:8591   */\n      tag_397\n        /* \"#utility.yul\":8587:8590   */\n      dup5\n        /* \"#utility.yul\":8578:8584   */\n      dup3\n        /* \"#utility.yul\":8567:8576   */\n      dup6\n        /* \"#utility.yul\":8563:8585   */\n      add\n        /* \"#utility.yul\":8532:8591   */\n      tag_261\n      jump\t// in\n    tag_397:\n        /* \"#utility.yul\":8525:8529   */\n      0x00\n        /* \"#utility.yul\":8518:8523   */\n      dup4\n        /* \"#utility.yul\":8514:8530   */\n      add\n        /* \"#utility.yul\":8507:8592   */\n      mstore\n        /* \"#utility.yul\":8283:8603   */\n      pop\n        /* \"#utility.yul\":8693:8695   */\n      0x20\n        /* \"#utility.yul\":8682:8691   */\n      dup3\n        /* \"#utility.yul\":8678:8696   */\n      add\n        /* \"#utility.yul\":8665:8697   */\n      calldataload\n        /* \"#utility.yul\":8724:8742   */\n      0xffffffffffffffff\n        /* \"#utility.yul\":8716:8722   */\n      dup2\n        /* \"#utility.yul\":8713:8743   */\n      gt\n        /* \"#utility.yul\":8710:8827   */\n      iszero\n      tag_398\n      jumpi\n        /* \"#utility.yul\":8746:8825   */\n      tag_399\n      tag_255\n      jump\t// in\n    tag_399:\n        /* \"#utility.yul\":8710:8827   */\n    tag_398:\n        /* \"#utility.yul\":8866:8925   */\n      tag_400\n        /* \"#utility.yul\":8921:8924   */\n      dup5\n        /* \"#utility.yul\":8912:8918   */\n      dup3\n        /* \"#utility.yul\":8901:8910   */\n      dup6\n        /* \"#utility.yul\":8897:8919   */\n      add\n        /* \"#utility.yul\":8866:8925   */\n      tag_261\n      jump\t// in\n    tag_400:\n        /* \"#utility.yul\":8859:8863   */\n      0x20\n        /* \"#utility.yul\":8852:8857   */\n      dup4\n        /* \"#utility.yul\":8848:8864   */\n      add\n        /* \"#utility.yul\":8841:8926   */\n      mstore\n        /* \"#utility.yul\":8613:8937   */\n      pop\n        /* \"#utility.yul\":8999:9001   */\n      0x40\n        /* \"#utility.yul\":9040:9089   */\n      tag_401\n        /* \"#utility.yul\":9085:9088   */\n      dup5\n        /* \"#utility.yul\":9076:9082   */\n      dup3\n        /* \"#utility.yul\":9065:9074   */\n      dup6\n        /* \"#utility.yul\":9061:9083   */\n      add\n        /* \"#utility.yul\":9040:9089   */\n      tag_235\n      jump\t// in\n    tag_401:\n        /* \"#utility.yul\":9033:9037   */\n      0x40\n        /* \"#utility.yul\":9026:9031   */\n      dup4\n        /* \"#utility.yul\":9022:9038   */\n      add\n        /* \"#utility.yul\":9015:9090   */\n      mstore\n        /* \"#utility.yul\":8947:9101   */\n      pop\n        /* \"#utility.yul\":8029:9108   */\n      swap3\n      swap2\n      pop\n      pop\n      jump\t// out\n        /* \"#utility.yul\":9114:9649   */\n    tag_63:\n        /* \"#utility.yul\":9196:9202   */\n      0x00\n        /* \"#utility.yul\":9245:9247   */\n      0x20\n        /* \"#utility.yul\":9233:9242   */\n      dup3\n        /* \"#utility.yul\":9224:9231   */\n      dup5\n        /* \"#utility.yul\":9220:9243   */\n      sub\n        /* \"#utility.yul\":9216:9248   */\n      slt\n        /* \"#utility.yul\":9213:9332   */\n      iszero\n      tag_403\n      jumpi\n        /* \"#utility.yul\":9251:9330   */\n      tag_404\n      tag_232\n      jump\t// in\n    tag_404:\n        /* \"#utility.yul\":9213:9332   */\n    tag_403:\n        /* \"#utility.yul\":9399:9400   */\n      0x00\n        /* \"#utility.yul\":9388:9397   */\n      dup3\n        /* \"#utility.yul\":9384:9401   */\n      add\n        /* \"#utility.yul\":9371:9402   */\n      calldataload\n        /* \"#utility.yul\":9429:9447   */\n      0xffffffffffffffff\n        /* \"#utility.yul\":9421:9427   */\n      dup2\n        /* \"#utility.yul\":9418:9448   */\n      gt\n        /* \"#utility.yul\":9415:9532   */\n      iszero\n      tag_405\n      jumpi\n        /* \"#utility.yul\":9451:9530   */\n      tag_406\n      tag_233\n      jump\t// in\n    tag_406:\n        /* \"#utility.yul\":9415:9532   */\n    tag_405:\n        /* \"#utility.yul\":9556:9632   */\n      tag_407\n        /* \"#utility.yul\":9624:9631   */\n      dup5\n        /* \"#utility.yul\":9615:9621   */\n      dup3\n        /* \"#utility.yul\":9604:9613   */\n      dup6\n        /* \"#utility.yul\":9600:9622   */\n      add\n        /* \"#utility.yul\":9556:9632   */\n      tag_262\n      jump\t// in\n    tag_407:\n        /* \"#utility.yul\":9546:9632   */\n      swap2\n      pop\n        /* \"#utility.yul\":9342:9642   */\n      pop\n        /* \"#utility.yul\":9114:9649   */\n      swap3\n      swap2\n      pop\n      pop\n      jump\t// out\n        /* \"#utility.yul\":9655:9773   */\n    tag_263:\n        /* \"#utility.yul\":9742:9766   */\n      tag_409\n        /* \"#utility.yul\":9760:9765   */\n      dup2\n        /* \"#utility.yul\":9742:9766   */\n      tag_246\n      jump\t// in\n    tag_409:\n        /* \"#utility.yul\":9737:9740   */\n      dup3\n        /* \"#utility.yul\":9730:9767   */\n      mstore\n        /* \"#utility.yul\":9655:9773   */\n      pop\n      pop\n      jump\t// out\n        /* \"#utility.yul\":9779:10001   */\n    tag_86:\n        /* \"#utility.yul\":9872:9876   */\n      0x00\n        /* \"#utility.yul\":9910:9912   */\n      0x20\n        /* \"#utility.yul\":9899:9908   */\n      dup3\n        /* \"#utility.yul\":9895:9913   */\n      add\n        /* \"#utility.yul\":9887:9913   */\n      swap1\n      pop\n        /* \"#utility.yul\":9923:9994   */\n      tag_411\n        /* \"#utility.yul\":9991:9992   */\n      0x00\n        /* \"#utility.yul\":9980:9989   */\n      dup4\n        /* \"#utility.yul\":9976:9993   */\n      add\n        /* \"#utility.yul\":9967:9973   */\n      dup5\n        /* \"#utility.yul\":9923:9994   */\n      tag_263\n      jump\t// in\n    tag_411:\n        /* \"#utility.yul\":9779:10001   */\n      swap3\n      swap2\n      pop\n      pop\n      jump\t// out\n        /* \"#utility.yul\":10007:10986   */\n    tag_89:\n        /* \"#utility.yul\":10104:10110   */\n      0x00\n        /* \"#utility.yul\":10112:10118   */\n      dup1\n        /* \"#utility.yul\":10120:10126   */\n      0x00\n        /* \"#utility.yul\":10169:10171   */\n      0x60\n        /* \"#utility.yul\":10157:10166   */\n      dup5\n        /* \"#utility.yul\":10148:10155   */\n      dup7\n        /* \"#utility.yul\":10144:10167   */\n      sub\n        /* \"#utility.yul\":10140:10172   */\n      slt\n        /* \"#utility.yul\":10137:10256   */\n      iszero\n      tag_413\n      jumpi\n        /* \"#utility.yul\":10175:10254   */\n      tag_414\n      tag_232\n      jump\t// in\n    tag_414:\n        /* \"#utility.yul\":10137:10256   */\n    tag_413:\n        /* \"#utility.yul\":10323:10324   */\n      0x00\n        /* \"#utility.yul\":10312:10321   */\n      dup5\n        /* \"#utility.yul\":10308:10325   */\n      add\n        /* \"#utility.yul\":10295:10326   */\n      calldataload\n        /* \"#utility.yul\":10353:10371   */\n      0xffffffffffffffff\n        /* \"#utility.yul\":10345:10351   */\n      dup2\n        /* \"#utility.yul\":10342:10372   */\n      gt\n        /* \"#utility.yul\":10339:10456   */\n      iszero\n      tag_415\n      jumpi\n        /* \"#utility.yul\":10375:10454   */\n      tag_416\n      tag_233\n      jump\t// in\n    tag_416:\n        /* \"#utility.yul\":10339:10456   */\n    tag_415:\n        /* \"#utility.yul\":10480:10543   */\n      tag_417\n        /* \"#utility.yul\":10535:10542   */\n      dup7\n        /* \"#utility.yul\":10526:10532   */\n      dup3\n        /* \"#utility.yul\":10515:10524   */\n      dup8\n        /* \"#utility.yul\":10511:10533   */\n      add\n        /* \"#utility.yul\":10480:10543   */\n      tag_261\n      jump\t// in\n    tag_417:\n        /* \"#utility.yul\":10470:10543   */\n      swap4\n      pop\n        /* \"#utility.yul\":10266:10553   */\n      pop\n        /* \"#utility.yul\":10620:10622   */\n      0x20\n        /* \"#utility.yul\":10609:10618   */\n      dup5\n        /* \"#utility.yul\":10605:10623   */\n      add\n        /* \"#utility.yul\":10592:10624   */\n      calldataload\n        /* \"#utility.yul\":10651:10669   */\n      0xffffffffffffffff\n        /* \"#utility.yul\":10643:10649   */\n      dup2\n        /* \"#utility.yul\":10640:10670   */\n      gt\n        /* \"#utility.yul\":10637:10754   */\n      iszero\n      tag_418\n      jumpi\n        /* \"#utility.yul\":10673:10752   */\n      tag_419\n      tag_233\n      jump\t// in\n    tag_419:\n        /* \"#utility.yul\":10637:10754   */\n    tag_418:\n        /* \"#utility.yul\":10778:10841   */\n      tag_420\n        /* \"#utility.yul\":10833:10840   */\n      dup7\n        /* \"#utility.yul\":10824:10830   */\n      dup3\n        /* \"#utility.yul\":10813:10822   */\n      dup8\n        /* \"#utility.yul\":10809:10831   */\n      add\n        /* \"#utility.yul\":10778:10841   */\n      tag_261\n      jump\t// in\n    tag_420:\n        /* \"#utility.yul\":10768:10841   */\n      swap3\n      pop\n        /* \"#utility.yul\":10563:10851   */\n      pop\n        /* \"#utility.yul\":10890:10892   */\n      0x40\n        /* \"#utility.yul\":10916:10969   */\n      tag_421\n        /* \"#utility.yul\":10961:10968   */\n      dup7\n        /* \"#utility.yul\":10952:10958   */\n      dup3\n        /* \"#utility.yul\":10941:10950   */\n      dup8\n        /* \"#utility.yul\":10937:10959   */\n      add\n        /* \"#utility.yul\":10916:10969   */\n      tag_235\n      jump\t// in\n    tag_421:\n        /* \"#utility.yul\":10906:10969   */\n      swap2\n      pop\n        /* \"#utility.yul\":10861:10979   */\n      pop\n        /* \"#utility.yul\":10007:10986   */\n      swap3\n      pop\n      swap3\n      pop\n      swap3\n      jump\t// out\n        /* \"#utility.yul\":10992:11112   */\n    tag_264:\n        /* \"#utility.yul\":11064:11087   */\n      tag_423\n        /* \"#utility.yul\":11081:11086   */\n      dup2\n        /* \"#utility.yul\":11064:11087   */\n      tag_249\n      jump\t// in\n    tag_423:\n        /* \"#utility.yul\":11057:11062   */\n      dup2\n        /* \"#utility.yul\":11054:11088   */\n      eq\n        /* \"#utility.yul\":11044:11106   */\n      tag_424\n      jumpi\n        /* \"#utility.yul\":11102:11103   */\n      0x00\n        /* \"#utility.yul\":11099:11100   */\n      dup1\n        /* \"#utility.yul\":11092:11104   */\n      revert\n        /* \"#utility.yul\":11044:11106   */\n    tag_424:\n        /* \"#utility.yul\":10992:11112   */\n      pop\n      jump\t// out\n        /* \"#utility.yul\":11118:11255   */\n    tag_265:\n        /* \"#utility.yul\":11163:11168   */\n      0x00\n        /* \"#utility.yul\":11201:11207   */\n      dup2\n        /* \"#utility.yul\":11188:11208   */\n      calldataload\n        /* \"#utility.yul\":11179:11208   */\n      swap1\n      pop\n        /* \"#utility.yul\":11217:11249   */\n      tag_426\n        /* \"#utility.yul\":11243:11248   */\n      dup2\n        /* \"#utility.yul\":11217:11249   */\n      tag_264\n      jump\t// in\n    tag_426:\n        /* \"#utility.yul\":11118:11255   */\n      swap3\n      swap2\n      pop\n      pop\n      jump\t// out\n        /* \"#utility.yul\":11261:11588   */\n    tag_98:\n        /* \"#utility.yul\":11319:11325   */\n      0x00\n        /* \"#utility.yul\":11368:11370   */\n      0x20\n        /* \"#utility.yul\":11356:11365   */\n      dup3\n        /* \"#utility.yul\":11347:11354   */\n      dup5\n        /* \"#utility.yul\":11343:11366   */\n      sub\n        /* \"#utility.yul\":11339:11371   */\n      slt\n        /* \"#utility.yul\":11336:11455   */\n      iszero\n      tag_428\n      jumpi\n        /* \"#utility.yul\":11374:11453   */\n      tag_429\n      tag_232\n      jump\t// in\n    tag_429:\n        /* \"#utility.yul\":11336:11455   */\n    tag_428:\n        /* \"#utility.yul\":11494:11495   */\n      0x00\n        /* \"#utility.yul\":11519:11571   */\n      tag_430\n        /* \"#utility.yul\":11563:11570   */\n      dup5\n        /* \"#utility.yul\":11554:11560   */\n      dup3\n        /* \"#utility.yul\":11543:11552   */\n      dup6\n        /* \"#utility.yul\":11539:11561   */\n      add\n        /* \"#utility.yul\":11519:11571   */\n      tag_265\n      jump\t// in\n    tag_430:\n        /* \"#utility.yul\":11509:11571   */\n      swap2\n      pop\n        /* \"#utility.yul\":11465:11581   */\n      pop\n        /* \"#utility.yul\":11261:11588   */\n      swap3\n      swap2\n      pop\n      pop\n      jump\t// out\n        /* \"#utility.yul\":11594:11753   */\n    tag_266:\n        /* \"#utility.yul\":11668:11679   */\n      0x00\n        /* \"#utility.yul\":11702:11708   */\n      dup3\n        /* \"#utility.yul\":11697:11700   */\n      dup3\n        /* \"#utility.yul\":11690:11709   */\n      mstore\n        /* \"#utility.yul\":11742:11746   */\n      0x20\n        /* \"#utility.yul\":11737:11740   */\n      dup3\n        /* \"#utility.yul\":11733:11747   */\n      add\n        /* \"#utility.yul\":11718:11747   */\n      swap1\n      pop\n        /* \"#utility.yul\":11594:11753   */\n      swap3\n      swap2\n      pop\n      pop\n      jump\t// out\n        /* \"#utility.yul\":11759:12116   */\n    tag_267:\n        /* \"#utility.yul\":11837:11840   */\n      0x00\n        /* \"#utility.yul\":11865:11904   */\n      tag_433\n        /* \"#utility.yul\":11898:11903   */\n      dup3\n        /* \"#utility.yul\":11865:11904   */\n      tag_236\n      jump\t// in\n    tag_433:\n        /* \"#utility.yul\":11920:11981   */\n      tag_434\n        /* \"#utility.yul\":11974:11980   */\n      dup2\n        /* \"#utility.yul\":11969:11972   */\n      dup6\n        /* \"#utility.yul\":11920:11981   */\n      tag_266\n      jump\t// in\n    tag_434:\n        /* \"#utility.yul\":11913:11981   */\n      swap4\n      pop\n        /* \"#utility.yul\":11990:12055   */\n      tag_435\n        /* \"#utility.yul\":12048:12054   */\n      dup2\n        /* \"#utility.yul\":12043:12046   */\n      dup6\n        /* \"#utility.yul\":12036:12040   */\n      0x20\n        /* \"#utility.yul\":12029:12034   */\n      dup7\n        /* \"#utility.yul\":12025:12041   */\n      add\n        /* \"#utility.yul\":11990:12055   */\n      tag_238\n      jump\t// in\n    tag_435:\n        /* \"#utility.yul\":12080:12109   */\n      tag_436\n        /* \"#utility.yul\":12102:12108   */\n      dup2\n        /* \"#utility.yul\":12080:12109   */\n      tag_239\n      jump\t// in\n    tag_436:\n        /* \"#utility.yul\":12075:12078   */\n      dup5\n        /* \"#utility.yul\":12071:12110   */\n      add\n        /* \"#utility.yul\":12064:12110   */\n      swap2\n      pop\n        /* \"#utility.yul\":11841:12116   */\n      pop\n        /* \"#utility.yul\":11759:12116   */\n      swap3\n      swap2\n      pop\n      pop\n      jump\t// out\n        /* \"#utility.yul\":12122:12230   */\n    tag_268:\n        /* \"#utility.yul\":12199:12223   */\n      tag_438\n        /* \"#utility.yul\":12217:12222   */\n      dup2\n        /* \"#utility.yul\":12199:12223   */\n      tag_229\n      jump\t// in\n    tag_438:\n        /* \"#utility.yul\":12194:12197   */\n      dup3\n        /* \"#utility.yul\":12187:12224   */\n      mstore\n        /* \"#utility.yul\":12122:12230   */\n      pop\n      pop\n      jump\t// out\n        /* \"#utility.yul\":12306:13159   */\n    tag_269:\n        /* \"#utility.yul\":12421:12424   */\n      0x00\n        /* \"#utility.yul\":12457:12461   */\n      0x60\n        /* \"#utility.yul\":12452:12455   */\n      dup4\n        /* \"#utility.yul\":12448:12462   */\n      add\n        /* \"#utility.yul\":12544:12548   */\n      0x00\n        /* \"#utility.yul\":12537:12542   */\n      dup4\n        /* \"#utility.yul\":12533:12549   */\n      add\n        /* \"#utility.yul\":12527:12550   */\n      mload\n        /* \"#utility.yul\":12597:12600   */\n      dup5\n        /* \"#utility.yul\":12591:12595   */\n      dup3\n        /* \"#utility.yul\":12587:12601   */\n      sub\n        /* \"#utility.yul\":12580:12584   */\n      0x00\n        /* \"#utility.yul\":12575:12578   */\n      dup7\n        /* \"#utility.yul\":12571:12585   */\n      add\n        /* \"#utility.yul\":12564:12602   */\n      mstore\n        /* \"#utility.yul\":12623:12696   */\n      tag_440\n        /* \"#utility.yul\":12691:12695   */\n      dup3\n        /* \"#utility.yul\":12677:12689   */\n      dup3\n        /* \"#utility.yul\":12623:12696   */\n      tag_267\n      jump\t// in\n    tag_440:\n        /* \"#utility.yul\":12615:12696   */\n      swap2\n      pop\n        /* \"#utility.yul\":12472:12707   */\n      pop\n        /* \"#utility.yul\":12792:12796   */\n      0x20\n        /* \"#utility.yul\":12785:12790   */\n      dup4\n        /* \"#utility.yul\":12781:12797   */\n      add\n        /* \"#utility.yul\":12775:12798   */\n      mload\n        /* \"#utility.yul\":12845:12848   */\n      dup5\n        /* \"#utility.yul\":12839:12843   */\n      dup3\n        /* \"#utility.yul\":12835:12849   */\n      sub\n        /* \"#utility.yul\":12828:12832   */\n      0x20\n        /* \"#utility.yul\":12823:12826   */\n      dup7\n        /* \"#utility.yul\":12819:12833   */\n      add\n        /* \"#utility.yul\":12812:12850   */\n      mstore\n        /* \"#utility.yul\":12871:12944   */\n      tag_441\n        /* \"#utility.yul\":12939:12943   */\n      dup3\n        /* \"#utility.yul\":12925:12937   */\n      dup3\n        /* \"#utility.yul\":12871:12944   */\n      tag_267\n      jump\t// in\n    tag_441:\n        /* \"#utility.yul\":12863:12944   */\n      swap2\n      pop\n        /* \"#utility.yul\":12717:12955   */\n      pop\n        /* \"#utility.yul\":13040:13044   */\n      0x40\n        /* \"#utility.yul\":13033:13038   */\n      dup4\n        /* \"#utility.yul\":13029:13045   */\n      add\n        /* \"#utility.yul\":13023:13046   */\n      mload\n        /* \"#utility.yul\":13059:13122   */\n      tag_442\n        /* \"#utility.yul\":13116:13120   */\n      0x40\n        /* \"#utility.yul\":13111:13114   */\n      dup7\n        /* \"#utility.yul\":13107:13121   */\n      add\n        /* \"#utility.yul\":13093:13105   */\n      dup3\n        /* \"#utility.yul\":13059:13122   */\n      tag_268\n      jump\t// in\n    tag_442:\n        /* \"#utility.yul\":12965:13132   */\n      pop\n        /* \"#utility.yul\":13149:13153   */\n      dup1\n        /* \"#utility.yul\":13142:13153   */\n      swap2\n      pop\n        /* \"#utility.yul\":12426:13159   */\n      pop\n        /* \"#utility.yul\":12306:13159   */\n      swap3\n      swap2\n      pop\n      pop\n      jump\t// out\n        /* \"#utility.yul\":13165:13530   */\n    tag_107:\n        /* \"#utility.yul\":13304:13308   */\n      0x00\n        /* \"#utility.yul\":13342:13344   */\n      0x20\n        /* \"#utility.yul\":13331:13340   */\n      dup3\n        /* \"#utility.yul\":13327:13345   */\n      add\n        /* \"#utility.yul\":13319:13345   */\n      swap1\n      pop\n        /* \"#utility.yul\":13391:13400   */\n      dup2\n        /* \"#utility.yul\":13385:13389   */\n      dup2\n        /* \"#utility.yul\":13381:13401   */\n      sub\n        /* \"#utility.yul\":13377:13378   */\n      0x00\n        /* \"#utility.yul\":13366:13375   */\n      dup4\n        /* \"#utility.yul\":13362:13379   */\n      add\n        /* \"#utility.yul\":13355:13402   */\n      mstore\n        /* \"#utility.yul\":13419:13523   */\n      tag_444\n        /* \"#utility.yul\":13518:13522   */\n      dup2\n        /* \"#utility.yul\":13509:13515   */\n      dup5\n        /* \"#utility.yul\":13419:13523   */\n      tag_269\n      jump\t// in\n    tag_444:\n        /* \"#utility.yul\":13411:13523   */\n      swap1\n      pop\n        /* \"#utility.yul\":13165:13530   */\n      swap3\n      swap2\n      pop\n      pop\n      jump\t// out\n        /* \"#utility.yul\":13536:14010   */\n    tag_110:\n        /* \"#utility.yul\":13604:13610   */\n      0x00\n        /* \"#utility.yul\":13612:13618   */\n      dup1\n        /* \"#utility.yul\":13661:13663   */\n      0x40\n        /* \"#utility.yul\":13649:13658   */\n      dup4\n        /* \"#utility.yul\":13640:13647   */\n      dup6\n        /* \"#utility.yul\":13636:13659   */\n      sub\n        /* \"#utility.yul\":13632:13664   */\n      slt\n        /* \"#utility.yul\":13629:13748   */\n      iszero\n      tag_446\n      jumpi\n        /* \"#utility.yul\":13667:13746   */\n      tag_447\n      tag_232\n      jump\t// in\n    tag_447:\n        /* \"#utility.yul\":13629:13748   */\n    tag_446:\n        /* \"#utility.yul\":13787:13788   */\n      0x00\n        /* \"#utility.yul\":13812:13865   */\n      tag_448\n        /* \"#utility.yul\":13857:13864   */\n      dup6\n        /* \"#utility.yul\":13848:13854   */\n      dup3\n        /* \"#utility.yul\":13837:13846   */\n      dup7\n        /* \"#utility.yul\":13833:13855   */\n      add\n        /* \"#utility.yul\":13812:13865   */\n      tag_248\n      jump\t// in\n    tag_448:\n        /* \"#utility.yul\":13802:13865   */\n      swap3\n      pop\n        /* \"#utility.yul\":13758:13875   */\n      pop\n        /* \"#utility.yul\":13914:13916   */\n      0x20\n        /* \"#utility.yul\":13940:13993   */\n      tag_449\n        /* \"#utility.yul\":13985:13992   */\n      dup6\n        /* \"#utility.yul\":13976:13982   */\n      dup3\n        /* \"#utility.yul\":13965:13974   */\n      dup7\n        /* \"#utility.yul\":13961:13983   */\n      add\n        /* \"#utility.yul\":13940:13993   */\n      tag_248\n      jump\t// in\n    tag_449:\n        /* \"#utility.yul\":13930:13993   */\n      swap2\n      pop\n        /* \"#utility.yul\":13885:14003   */\n      pop\n        /* \"#utility.yul\":13536:14010   */\n      swap3\n      pop\n      swap3\n      swap1\n      pop\n      jump\t// out\n        /* \"#utility.yul\":14016:14153   */\n    tag_270:\n        /* \"#utility.yul\":14106:14112   */\n      0x00\n        /* \"#utility.yul\":14140:14145   */\n      dup2\n        /* \"#utility.yul\":14134:14146   */\n      mload\n        /* \"#utility.yul\":14124:14146   */\n      swap1\n      pop\n        /* \"#utility.yul\":14016:14153   */\n      swap2\n      swap1\n      pop\n      jump\t// out\n        /* \"#utility.yul\":14159:14366   */\n    tag_271:\n        /* \"#utility.yul\":14281:14292   */\n      0x00\n        /* \"#utility.yul\":14315:14321   */\n      dup3\n        /* \"#utility.yul\":14310:14313   */\n      dup3\n        /* \"#utility.yul\":14303:14322   */\n      mstore\n        /* \"#utility.yul\":14355:14359   */\n      0x20\n        /* \"#utility.yul\":14350:14353   */\n      dup3\n        /* \"#utility.yul\":14346:14360   */\n      add\n        /* \"#utility.yul\":14331:14360   */\n      swap1\n      pop\n        /* \"#utility.yul\":14159:14366   */\n      swap3\n      swap2\n      pop\n      pop\n      jump\t// out\n        /* \"#utility.yul\":14372:14527   */\n    tag_272:\n        /* \"#utility.yul\":14462:14466   */\n      0x00\n        /* \"#utility.yul\":14485:14488   */\n      dup2\n        /* \"#utility.yul\":14477:14488   */\n      swap1\n      pop\n        /* \"#utility.yul\":14515:14519   */\n      0x20\n        /* \"#utility.yul\":14510:14513   */\n      dup3\n        /* \"#utility.yul\":14506:14520   */\n      add\n        /* \"#utility.yul\":14498:14520   */\n      swap1\n      pop\n        /* \"#utility.yul\":14372:14527   */\n      swap2\n      swap1\n      pop\n      jump\t// out\n        /* \"#utility.yul\":14603:15446   */\n    tag_273:\n        /* \"#utility.yul\":14708:14711   */\n      0x00\n        /* \"#utility.yul\":14744:14748   */\n      0x60\n        /* \"#utility.yul\":14739:14742   */\n      dup4\n        /* \"#utility.yul\":14735:14749   */\n      add\n        /* \"#utility.yul\":14831:14835   */\n      0x00\n        /* \"#utility.yul\":14824:14829   */\n      dup4\n        /* \"#utility.yul\":14820:14836   */\n      add\n        /* \"#utility.yul\":14814:14837   */\n      mload\n        /* \"#utility.yul\":14884:14887   */\n      dup5\n        /* \"#utility.yul\":14878:14882   */\n      dup3\n        /* \"#utility.yul\":14874:14888   */\n      sub\n        /* \"#utility.yul\":14867:14871   */\n      0x00\n        /* \"#utility.yul\":14862:14865   */\n      dup7\n        /* \"#utility.yul\":14858:14872   */\n      add\n        /* \"#utility.yul\":14851:14889   */\n      mstore\n        /* \"#utility.yul\":14910:14983   */\n      tag_454\n        /* \"#utility.yul\":14978:14982   */\n      dup3\n        /* \"#utility.yul\":14964:14976   */\n      dup3\n        /* \"#utility.yul\":14910:14983   */\n      tag_267\n      jump\t// in\n    tag_454:\n        /* \"#utility.yul\":14902:14983   */\n      swap2\n      pop\n        /* \"#utility.yul\":14759:14994   */\n      pop\n        /* \"#utility.yul\":15079:15083   */\n      0x20\n        /* \"#utility.yul\":15072:15077   */\n      dup4\n        /* \"#utility.yul\":15068:15084   */\n      add\n        /* \"#utility.yul\":15062:15085   */\n      mload\n        /* \"#utility.yul\":15132:15135   */\n      dup5\n        /* \"#utility.yul\":15126:15130   */\n      dup3\n        /* \"#utility.yul\":15122:15136   */\n      sub\n        /* \"#utility.yul\":15115:15119   */\n      0x20\n        /* \"#utility.yul\":15110:15113   */\n      dup7\n        /* \"#utility.yul\":15106:15120   */\n      add\n        /* \"#utility.yul\":15099:15137   */\n      mstore\n        /* \"#utility.yul\":15158:15231   */\n      tag_455\n        /* \"#utility.yul\":15226:15230   */\n      dup3\n        /* \"#utility.yul\":15212:15224   */\n      dup3\n        /* \"#utility.yul\":15158:15231   */\n      tag_267\n      jump\t// in\n    tag_455:\n        /* \"#utility.yul\":15150:15231   */\n      swap2\n      pop\n        /* \"#utility.yul\":15004:15242   */\n      pop\n        /* \"#utility.yul\":15327:15331   */\n      0x40\n        /* \"#utility.yul\":15320:15325   */\n      dup4\n        /* \"#utility.yul\":15316:15332   */\n      add\n        /* \"#utility.yul\":15310:15333   */\n      mload\n        /* \"#utility.yul\":15346:15409   */\n      tag_456\n        /* \"#utility.yul\":15403:15407   */\n      0x40\n        /* \"#utility.yul\":15398:15401   */\n      dup7\n        /* \"#utility.yul\":15394:15408   */\n      add\n        /* \"#utility.yul\":15380:15392   */\n      dup3\n        /* \"#utility.yul\":15346:15409   */\n      tag_268\n      jump\t// in\n    tag_456:\n        /* \"#utility.yul\":15252:15419   */\n      pop\n        /* \"#utility.yul\":15436:15440   */\n      dup1\n        /* \"#utility.yul\":15429:15440   */\n      swap2\n      pop\n        /* \"#utility.yul\":14713:15446   */\n      pop\n        /* \"#utility.yul\":14603:15446   */\n      swap3\n      swap2\n      pop\n      pop\n      jump\t// out\n        /* \"#utility.yul\":15452:15700   */\n    tag_274:\n        /* \"#utility.yul\":15567:15577   */\n      0x00\n        /* \"#utility.yul\":15602:15694   */\n      tag_458\n        /* \"#utility.yul\":15690:15693   */\n      dup4\n        /* \"#utility.yul\":15682:15688   */\n      dup4\n        /* \"#utility.yul\":15602:15694   */\n      tag_273\n      jump\t// in\n    tag_458:\n        /* \"#utility.yul\":15588:15694   */\n      swap1\n      pop\n        /* \"#utility.yul\":15452:15700   */\n      swap3\n      swap2\n      pop\n      pop\n      jump\t// out\n        /* \"#utility.yul\":15706:15842   */\n    tag_275:\n        /* \"#utility.yul\":15799:15803   */\n      0x00\n        /* \"#utility.yul\":15831:15835   */\n      0x20\n        /* \"#utility.yul\":15826:15829   */\n      dup3\n        /* \"#utility.yul\":15822:15836   */\n      add\n        /* \"#utility.yul\":15814:15836   */\n      swap1\n      pop\n        /* \"#utility.yul\":15706:15842   */\n      swap2\n      swap1\n      pop\n      jump\t// out\n        /* \"#utility.yul\":15922:17017   */\n    tag_276:\n        /* \"#utility.yul\":16087:16090   */\n      0x00\n        /* \"#utility.yul\":16116:16193   */\n      tag_461\n        /* \"#utility.yul\":16187:16192   */\n      dup3\n        /* \"#utility.yul\":16116:16193   */\n      tag_270\n      jump\t// in\n    tag_461:\n        /* \"#utility.yul\":16209:16318   */\n      tag_462\n        /* \"#utility.yul\":16311:16317   */\n      dup2\n        /* \"#utility.yul\":16306:16309   */\n      dup6\n        /* \"#utility.yul\":16209:16318   */\n      tag_271\n      jump\t// in\n    tag_462:\n        /* \"#utility.yul\":16202:16318   */\n      swap4\n      pop\n        /* \"#utility.yul\":16344:16347   */\n      dup4\n        /* \"#utility.yul\":16389:16393   */\n      0x20\n        /* \"#utility.yul\":16381:16387   */\n      dup3\n        /* \"#utility.yul\":16377:16394   */\n      mul\n        /* \"#utility.yul\":16372:16375   */\n      dup6\n        /* \"#utility.yul\":16368:16395   */\n      add\n        /* \"#utility.yul\":16419:16498   */\n      tag_463\n        /* \"#utility.yul\":16492:16497   */\n      dup6\n        /* \"#utility.yul\":16419:16498   */\n      tag_272\n      jump\t// in\n    tag_463:\n        /* \"#utility.yul\":16521:16528   */\n      dup1\n        /* \"#utility.yul\":16552:16553   */\n      0x00\n        /* \"#utility.yul\":16537:16972   */\n    tag_464:\n        /* \"#utility.yul\":16562:16568   */\n      dup6\n        /* \"#utility.yul\":16559:16560   */\n      dup2\n        /* \"#utility.yul\":16556:16569   */\n      lt\n        /* \"#utility.yul\":16537:16972   */\n      iszero\n      tag_466\n      jumpi\n        /* \"#utility.yul\":16633:16642   */\n      dup5\n        /* \"#utility.yul\":16627:16631   */\n      dup5\n        /* \"#utility.yul\":16623:16643   */\n      sub\n        /* \"#utility.yul\":16618:16621   */\n      dup10\n        /* \"#utility.yul\":16611:16644   */\n      mstore\n        /* \"#utility.yul\":16684:16690   */\n      dup2\n        /* \"#utility.yul\":16678:16691   */\n      mload\n        /* \"#utility.yul\":16712:16822   */\n      tag_467\n        /* \"#utility.yul\":16817:16821   */\n      dup6\n        /* \"#utility.yul\":16802:16815   */\n      dup3\n        /* \"#utility.yul\":16712:16822   */\n      tag_274\n      jump\t// in\n    tag_467:\n        /* \"#utility.yul\":16704:16822   */\n      swap5\n      pop\n        /* \"#utility.yul\":16845:16928   */\n      tag_468\n        /* \"#utility.yul\":16921:16927   */\n      dup4\n        /* \"#utility.yul\":16845:16928   */\n      tag_275\n      jump\t// in\n    tag_468:\n        /* \"#utility.yul\":16835:16928   */\n      swap3\n      pop\n        /* \"#utility.yul\":16957:16961   */\n      0x20\n        /* \"#utility.yul\":16952:16955   */\n      dup11\n        /* \"#utility.yul\":16948:16962   */\n      add\n        /* \"#utility.yul\":16941:16962   */\n      swap10\n      pop\n        /* \"#utility.yul\":16597:16972   */\n      pop\n        /* \"#utility.yul\":16584:16585   */\n      0x01\n        /* \"#utility.yul\":16581:16582   */\n      dup2\n        /* \"#utility.yul\":16577:16586   */\n      add\n        /* \"#utility.yul\":16572:16586   */\n      swap1\n      pop\n        /* \"#utility.yul\":16537:16972   */\n      jump(tag_464)\n    tag_466:\n        /* \"#utility.yul\":16541:16555   */\n      pop\n        /* \"#utility.yul\":16988:16992   */\n      dup3\n        /* \"#utility.yul\":16981:16992   */\n      swap8\n      pop\n        /* \"#utility.yul\":17008:17011   */\n      dup8\n        /* \"#utility.yul\":17001:17011   */\n      swap6\n      pop\n        /* \"#utility.yul\":16092:17017   */\n      pop\n      pop\n      pop\n      pop\n      pop\n        /* \"#utility.yul\":15922:17017   */\n      swap3\n      swap2\n      pop\n      pop\n      jump\t// out\n        /* \"#utility.yul\":17023:17488   */\n    tag_116:\n        /* \"#utility.yul\":17212:17216   */\n      0x00\n        /* \"#utility.yul\":17250:17252   */\n      0x20\n        /* \"#utility.yul\":17239:17248   */\n      dup3\n        /* \"#utility.yul\":17235:17253   */\n      add\n        /* \"#utility.yul\":17227:17253   */\n      swap1\n      pop\n        /* \"#utility.yul\":17299:17308   */\n      dup2\n        /* \"#utility.yul\":17293:17297   */\n      dup2\n        /* \"#utility.yul\":17289:17309   */\n      sub\n        /* \"#utility.yul\":17285:17286   */\n      0x00\n        /* \"#utility.yul\":17274:17283   */\n      dup4\n        /* \"#utility.yul\":17270:17287   */\n      add\n        /* \"#utility.yul\":17263:17310   */\n      mstore\n        /* \"#utility.yul\":17327:17481   */\n      tag_470\n        /* \"#utility.yul\":17476:17480   */\n      dup2\n        /* \"#utility.yul\":17467:17473   */\n      dup5\n        /* \"#utility.yul\":17327:17481   */\n      tag_276\n      jump\t// in\n    tag_470:\n        /* \"#utility.yul\":17319:17481   */\n      swap1\n      pop\n        /* \"#utility.yul\":17023:17488   */\n      swap3\n      swap2\n      pop\n      pop\n      jump\t// out\n        /* \"#utility.yul\":17494:17674   */\n    tag_277:\n        /* \"#utility.yul\":17542:17619   */\n      0x4e487b7100000000000000000000000000000000000000000000000000000000\n        /* \"#utility.yul\":17539:17540   */\n      0x00\n        /* \"#utility.yul\":17532:17620   */\n      mstore\n        /* \"#utility.yul\":17639:17643   */\n      0x22\n        /* \"#utility.yul\":17636:17637   */\n      0x04\n        /* \"#utility.yul\":17629:17644   */\n      mstore\n        /* \"#utility.yul\":17663:17667   */\n      0x24\n        /* \"#utility.yul\":17660:17661   */\n      0x00\n        /* \"#utility.yul\":17653:17668   */\n      revert\n        /* \"#utility.yul\":17680:18000   */\n    tag_122:\n        /* \"#utility.yul\":17724:17730   */\n      0x00\n        /* \"#utility.yul\":17761:17762   */\n      0x02\n        /* \"#utility.yul\":17755:17759   */\n      dup3\n        /* \"#utility.yul\":17751:17763   */\n      div\n        /* \"#utility.yul\":17741:17763   */\n      swap1\n      pop\n        /* \"#utility.yul\":17808:17809   */\n      0x01\n        /* \"#utility.yul\":17802:17806   */\n      dup3\n        /* \"#utility.yul\":17798:17810   */\n      and\n        /* \"#utility.yul\":17829:17847   */\n      dup1\n        /* \"#utility.yul\":17819:17900   */\n      tag_473\n      jumpi\n        /* \"#utility.yul\":17885:17889   */\n      0x7f\n        /* \"#utility.yul\":17877:17883   */\n      dup3\n        /* \"#utility.yul\":17873:17890   */\n      and\n        /* \"#utility.yul\":17863:17890   */\n      swap2\n      pop\n        /* \"#utility.yul\":17819:17900   */\n    tag_473:\n        /* \"#utility.yul\":17947:17949   */\n      0x20\n        /* \"#utility.yul\":17939:17945   */\n      dup3\n        /* \"#utility.yul\":17936:17950   */\n      lt\n        /* \"#utility.yul\":17916:17934   */\n      dup2\n        /* \"#utility.yul\":17913:17951   */\n      sub\n        /* \"#utility.yul\":17910:17994   */\n      tag_474\n      jumpi\n        /* \"#utility.yul\":17966:17984   */\n      tag_475\n      tag_277\n      jump\t// in\n    tag_475:\n        /* \"#utility.yul\":17910:17994   */\n    tag_474:\n        /* \"#utility.yul\":17731:18000   */\n      pop\n        /* \"#utility.yul\":17680:18000   */\n      swap2\n      swap1\n      pop\n      jump\t// out\n        /* \"#utility.yul\":18006:18167   */\n    tag_278:\n        /* \"#utility.yul\":18146:18159   */\n      0x686173206e6f20736c6f74000000000000000000000000000000000000000000\n        /* \"#utility.yul\":18142:18143   */\n      0x00\n        /* \"#utility.yul\":18134:18140   */\n      dup3\n        /* \"#utility.yul\":18130:18144   */\n      add\n        /* \"#utility.yul\":18123:18160   */\n      mstore\n        /* \"#utility.yul\":18006:18167   */\n      pop\n      jump\t// out\n        /* \"#utility.yul\":18173:18539   */\n    tag_279:\n        /* \"#utility.yul\":18315:18318   */\n      0x00\n        /* \"#utility.yul\":18336:18403   */\n      tag_478\n        /* \"#utility.yul\":18400:18402   */\n      0x0b\n        /* \"#utility.yul\":18395:18398   */\n      dup4\n        /* \"#utility.yul\":18336:18403   */\n      tag_237\n      jump\t// in\n    tag_478:\n        /* \"#utility.yul\":18329:18403   */\n      swap2\n      pop\n        /* \"#utility.yul\":18412:18505   */\n      tag_479\n        /* \"#utility.yul\":18501:18504   */\n      dup3\n        /* \"#utility.yul\":18412:18505   */\n      tag_278\n      jump\t// in\n    tag_479:\n        /* \"#utility.yul\":18530:18532   */\n      0x20\n        /* \"#utility.yul\":18525:18528   */\n      dup3\n        /* \"#utility.yul\":18521:18533   */\n      add\n        /* \"#utility.yul\":18514:18533   */\n      swap1\n      pop\n        /* \"#utility.yul\":18173:18539   */\n      swap2\n      swap1\n      pop\n      jump\t// out\n        /* \"#utility.yul\":18545:18964   */\n    tag_147:\n        /* \"#utility.yul\":18711:18715   */\n      0x00\n        /* \"#utility.yul\":18749:18751   */\n      0x20\n        /* \"#utility.yul\":18738:18747   */\n      dup3\n        /* \"#utility.yul\":18734:18752   */\n      add\n        /* \"#utility.yul\":18726:18752   */\n      swap1\n      pop\n        /* \"#utility.yul\":18798:18807   */\n      dup2\n        /* \"#utility.yul\":18792:18796   */\n      dup2\n        /* \"#utility.yul\":18788:18808   */\n      sub\n        /* \"#utility.yul\":18784:18785   */\n      0x00\n        /* \"#utility.yul\":18773:18782   */\n      dup4\n        /* \"#utility.yul\":18769:18786   */\n      add\n        /* \"#utility.yul\":18762:18809   */\n      mstore\n        /* \"#utility.yul\":18826:18957   */\n      tag_481\n        /* \"#utility.yul\":18952:18956   */\n      dup2\n        /* \"#utility.yul\":18826:18957   */\n      tag_279\n      jump\t// in\n    tag_481:\n        /* \"#utility.yul\":18818:18957   */\n      swap1\n      pop\n        /* \"#utility.yul\":18545:18964   */\n      swap2\n      swap1\n      pop\n      jump\t// out\n        /* \"#utility.yul\":18970:19111   */\n    tag_280:\n        /* \"#utility.yul\":19019:19023   */\n      0x00\n        /* \"#utility.yul\":19042:19045   */\n      dup2\n        /* \"#utility.yul\":19034:19045   */\n      swap1\n      pop\n        /* \"#utility.yul\":19065:19068   */\n      dup2\n        /* \"#utility.yul\":19062:19063   */\n      0x00\n        /* \"#utility.yul\":19055:19069   */\n      mstore\n        /* \"#utility.yul\":19099:19103   */\n      0x20\n        /* \"#utility.yul\":19096:19097   */\n      0x00\n        /* \"#utility.yul\":19086:19104   */\n      keccak256\n        /* \"#utility.yul\":19078:19104   */\n      swap1\n      pop\n        /* \"#utility.yul\":18970:19111   */\n      swap2\n      swap1\n      pop\n      jump\t// out\n        /* \"#utility.yul\":19117:19210   */\n    tag_281:\n        /* \"#utility.yul\":19154:19160   */\n      0x00\n        /* \"#utility.yul\":19201:19203   */\n      0x20\n        /* \"#utility.yul\":19196:19198   */\n      0x1f\n        /* \"#utility.yul\":19189:19194   */\n      dup4\n        /* \"#utility.yul\":19185:19199   */\n      add\n        /* \"#utility.yul\":19181:19204   */\n      div\n        /* \"#utility.yul\":19171:19204   */\n      swap1\n      pop\n        /* \"#utility.yul\":19117:19210   */\n      swap2\n      swap1\n      pop\n      jump\t// out\n        /* \"#utility.yul\":19216:19323   */\n    tag_282:\n        /* \"#utility.yul\":19260:19268   */\n      0x00\n        /* \"#utility.yul\":19310:19315   */\n      dup3\n        /* \"#utility.yul\":19304:19308   */\n      dup3\n        /* \"#utility.yul\":19300:19316   */\n      shl\n        /* \"#utility.yul\":19279:19316   */\n      swap1\n      pop\n        /* \"#utility.yul\":19216:19323   */\n      swap3\n      swap2\n      pop\n      pop\n      jump\t// out\n        /* \"#utility.yul\":19329:19722   */\n    tag_283:\n        /* \"#utility.yul\":19398:19404   */\n      0x00\n        /* \"#utility.yul\":19448:19449   */\n      0x08\n        /* \"#utility.yul\":19436:19446   */\n      dup4\n        /* \"#utility.yul\":19432:19450   */\n      mul\n        /* \"#utility.yul\":19471:19568   */\n      tag_486\n        /* \"#utility.yul\":19501:19567   */\n      0xffffffffffffffffffffffffffffffffffffffffffffffffffffffffffffffff\n        /* \"#utility.yul\":19490:19499   */\n      dup3\n        /* \"#utility.yul\":19471:19568   */\n      tag_282\n      jump\t// in\n    tag_486:\n        /* \"#utility.yul\":19589:19628   */\n      tag_487\n        /* \"#utility.yul\":19619:19627   */\n      dup7\n        /* \"#utility.yul\":19608:19617   */\n      dup4\n        /* \"#utility.yul\":19589:19628   */\n      tag_282\n      jump\t// in\n    tag_487:\n        /* \"#utility.yul\":19577:19628   */\n      swap6\n      pop\n        /* \"#utility.yul\":19661:19665   */\n      dup1\n        /* \"#utility.yul\":19657:19666   */\n      not\n        /* \"#utility.yul\":19650:19655   */\n      dup5\n        /* \"#utility.yul\":19646:19667   */\n      and\n        /* \"#utility.yul\":19637:19667   */\n      swap4\n      pop\n        /* \"#utility.yul\":19710:19714   */\n      dup1\n        /* \"#utility.yul\":19700:19708   */\n      dup7\n        /* \"#utility.yul\":19696:19715   */\n      and\n        /* \"#utility.yul\":19689:19694   */\n      dup5\n        /* \"#utility.yul\":19686:19716   */\n      or\n        /* \"#utility.yul\":19676:19716   */\n      swap3\n      pop\n        /* \"#utility.yul\":19405:19722   */\n      pop\n      pop\n        /* \"#utility.yul\":19329:19722   */\n      swap4\n      swap3\n      pop\n      pop\n      pop\n      jump\t// out\n        /* \"#utility.yul\":19728:19788   */\n    tag_284:\n        /* \"#utility.yul\":19756:19759   */\n      0x00\n        /* \"#utility.yul\":19777:19782   */\n      dup2\n        /* \"#utility.yul\":19770:19782   */\n      swap1\n      pop\n        /* \"#utility.yul\":19728:19788   */\n      swap2\n      swap1\n      pop\n      jump\t// out\n        /* \"#utility.yul\":19794:19936   */\n    tag_285:\n        /* \"#utility.yul\":19844:19853   */\n      0x00\n        /* \"#utility.yul\":19877:19930   */\n      tag_490\n        /* \"#utility.yul\":19895:19929   */\n      tag_491\n        /* \"#utility.yul\":19904:19928   */\n      tag_492\n        /* \"#utility.yul\":19922:19927   */\n      dup5\n        /* \"#utility.yul\":19904:19928   */\n      tag_229\n      jump\t// in\n    tag_492:\n        /* \"#utility.yul\":19895:19929   */\n      tag_284\n      jump\t// in\n    tag_491:\n        /* \"#utility.yul\":19877:19930   */\n      tag_229\n      jump\t// in\n    tag_490:\n        /* \"#utility.yul\":19864:19930   */\n      swap1\n      pop\n        /* \"#utility.yul\":19794:19936   */\n      swap2\n      swap1\n      pop\n      jump\t// out\n        /* \"#utility.yul\":19942:20017   */\n    tag_286:\n        /* \"#utility.yul\":19985:19988   */\n      0x00\n        /* \"#utility.yul\":20006:20011   */\n      dup2\n        /* \"#utility.yul\":19999:20011   */\n      swap1\n      pop\n        /* \"#utility.yul\":19942:20017   */\n      swap2\n      swap1\n      pop\n      jump\t// out\n        /* \"#utility.yul\":20023:20292   */\n    tag_287:\n        /* \"#utility.yul\":20133:20172   */\n      tag_495\n        /* \"#utility.yul\":20164:20171   */\n      dup4\n        /* \"#utility.yul\":20133:20172   */\n      tag_285\n      jump\t// in\n    tag_495:\n        /* \"#utility.yul\":20194:20285   */\n      tag_496\n        /* \"#utility.yul\":20243:20284   */\n      tag_497\n        /* \"#utility.yul\":20267:20283   */\n      dup3\n        /* \"#utility.yul\":20243:20284   */\n      tag_286\n      jump\t// in\n    tag_497:\n        /* \"#utility.yul\":20235:20241   */\n      dup5\n        /* \"#utility.yul\":20228:20232   */\n      dup5\n        /* \"#utility.yul\":20222:20233   */\n      sload\n        /* \"#utility.yul\":20194:20285   */\n      tag_283\n      jump\t// in\n    tag_496:\n        /* \"#utility.yul\":20188:20192   */\n      dup3\n        /* \"#utility.yul\":20181:20286   */\n      sstore\n        /* \"#utility.yul\":20099:20292   */\n      pop\n        /* \"#utility.yul\":20023:20292   */\n      pop\n      pop\n      pop\n      jump\t// out\n        /* \"#utility.yul\":20298:20371   */\n    tag_288:\n        /* \"#utility.yul\":20343:20346   */\n      0x00\n        /* \"#utility.yul\":20298:20371   */\n      swap1\n      jump\t// out\n        /* \"#utility.yul\":20377:20566   */\n    tag_289:\n        /* \"#utility.yul\":20454:20486   */\n      tag_500\n      tag_288\n      jump\t// in\n    tag_500:\n        /* \"#utility.yul\":20495:20560   */\n      tag_501\n        /* \"#utility.yul\":20553:20559   */\n      dup2\n        /* \"#utility.yul\":20545:20551   */\n      dup5\n        /* \"#utility.yul\":20539:20543   */\n      dup5\n        /* \"#utility.yul\":20495:20560   */\n      tag_287\n      jump\t// in\n    tag_501:\n        /* \"#utility.yul\":20430:20566   */\n      pop\n        /* \"#utility.yul\":20377:20566   */\n      pop\n      pop\n      jump\t// out\n        /* \"#utility.yul\":20572:20758   */\n    tag_290:\n        /* \"#utility.yul\":20632:20752   */\n    tag_503:\n        /* \"#utility.yul\":20649:20652   */\n      dup2\n        /* \"#utility.yul\":20642:20647   */\n      dup2\n        /* \"#utility.yul\":20639:20653   */\n      lt\n        /* \"#utility.yul\":20632:20752   */\n      iszero\n      tag_505\n      jumpi\n        /* \"#utility.yul\":20703:20742   */\n      tag_506\n        /* \"#utility.yul\":20740:20741   */\n      0x00\n        /* \"#utility.yul\":20733:20738   */\n      dup3\n        /* \"#utility.yul\":20703:20742   */\n      tag_289\n      jump\t// in\n    tag_506:\n        /* \"#utility.yul\":20676:20677   */\n      0x01\n        /* \"#utility.yul\":20669:20674   */\n      dup2\n        /* \"#utility.yul\":20665:20678   */\n      add\n        /* \"#utility.yul\":20656:20678   */\n      swap1\n      pop\n        /* \"#utility.yul\":20632:20752   */\n      jump(tag_503)\n    tag_505:\n        /* \"#utility.yul\":20572:20758   */\n      pop\n      pop\n      jump\t// out\n        /* \"#utility.yul\":20764:21307   */\n    tag_291:\n        /* \"#utility.yul\":20865:20867   */\n      0x1f\n        /* \"#utility.yul\":20860:20863   */\n      dup3\n        /* \"#utility.yul\":20857:20868   */\n      gt\n        /* \"#utility.yul\":20854:21300   */\n      iszero\n      tag_508\n      jumpi\n        /* \"#utility.yul\":20899:20937   */\n      tag_509\n        /* \"#utility.yul\":20931:20936   */\n      dup2\n        /* \"#utility.yul\":20899:20937   */\n      tag_280\n      jump\t// in\n    tag_509:\n        /* \"#utility.yul\":20983:21012   */\n      tag_510\n        /* \"#utility.yul\":21001:21011   */\n      dup5\n        /* \"#utility.yul\":20983:21012   */\n      tag_281\n      jump\t// in\n    tag_510:\n        /* \"#utility.yul\":20973:20981   */\n      dup2\n        /* \"#utility.yul\":20969:21013   */\n      add\n        /* \"#utility.yul\":21166:21168   */\n      0x20\n        /* \"#utility.yul\":21154:21164   */\n      dup6\n        /* \"#utility.yul\":21151:21169   */\n      lt\n        /* \"#utility.yul\":21148:21197   */\n      iszero\n      tag_511\n      jumpi\n        /* \"#utility.yul\":21187:21195   */\n      dup2\n        /* \"#utility.yul\":21172:21195   */\n      swap1\n      pop\n        /* \"#utility.yul\":21148:21197   */\n    tag_511:\n        /* \"#utility.yul\":21210:21290   */\n      tag_512\n        /* \"#utility.yul\":21266:21288   */\n      tag_513\n        /* \"#utility.yul\":21284:21287   */\n      dup6\n        /* \"#utility.yul\":21266:21288   */\n      tag_281\n      jump\t// in\n    tag_513:\n        /* \"#utility.yul\":21256:21264   */\n      dup4\n        /* \"#utility.yul\":21252:21289   */\n      add\n        /* \"#utility.yul\":21239:21250   */\n      dup3\n        /* \"#utility.yul\":21210:21290   */\n      tag_290\n      jump\t// in\n    tag_512:\n        /* \"#utility.yul\":20869:21300   */\n      pop\n      pop\n        /* \"#utility.yul\":20854:21300   */\n    tag_508:\n        /* \"#utility.yul\":20764:21307   */\n      pop\n      pop\n      pop\n      jump\t// out\n        /* \"#utility.yul\":21313:21430   */\n    tag_292:\n        /* \"#utility.yul\":21367:21375   */\n      0x00\n        /* \"#utility.yul\":21417:21422   */\n      dup3\n        /* \"#utility.yul\":21411:21415   */\n      dup3\n        /* \"#utility.yul\":21407:21423   */\n      shr\n        /* \"#utility.yul\":21386:21423   */\n      swap1\n      pop\n        /* \"#utility.yul\":21313:21430   */\n      swap3\n      swap2\n      pop\n      pop\n      jump\t// out\n        /* \"#utility.yul\":21436:21605   */\n    tag_293:\n        /* \"#utility.yul\":21480:21486   */\n      0x00\n        /* \"#utility.yul\":21513:21564   */\n      tag_516\n        /* \"#utility.yul\":21561:21562   */\n      0x00\n        /* \"#utility.yul\":21557:21563   */\n      not\n        /* \"#utility.yul\":21549:21554   */\n      dup5\n        /* \"#utility.yul\":21546:21547   */\n      0x08\n        /* \"#utility.yul\":21542:21555   */\n      mul\n        /* \"#utility.yul\":21513:21564   */\n      tag_292\n      jump\t// in\n    tag_516:\n        /* \"#utility.yul\":21509:21565   */\n      not\n        /* \"#utility.yul\":21594:21598   */\n      dup1\n        /* \"#utility.yul\":21588:21592   */\n      dup4\n        /* \"#utility.yul\":21584:21599   */\n      and\n        /* \"#utility.yul\":21574:21599   */\n      swap2\n      pop\n        /* \"#utility.yul\":21487:21605   */\n      pop\n        /* \"#utility.yul\":21436:21605   */\n      swap3\n      swap2\n      pop\n      pop\n      jump\t// out\n        /* \"#utility.yul\":21610:21905   */\n    tag_294:\n        /* \"#utility.yul\":21686:21690   */\n      0x00\n        /* \"#utility.yul\":21832:21861   */\n      tag_518\n        /* \"#utility.yul\":21857:21860   */\n      dup4\n        /* \"#utility.yul\":21851:21855   */\n      dup4\n        /* \"#utility.yul\":21832:21861   */\n      tag_293\n      jump\t// in\n    tag_518:\n        /* \"#utility.yul\":21824:21861   */\n      swap2\n      pop\n        /* \"#utility.yul\":21894:21897   */\n      dup3\n        /* \"#utility.yul\":21891:21892   */\n      0x02\n        /* \"#utility.yul\":21887:21898   */\n      mul\n        /* \"#utility.yul\":21881:21885   */\n      dup3\n        /* \"#utility.yul\":21878:21899   */\n      or\n        /* \"#utility.yul\":21870:21899   */\n      swap1\n      pop\n        /* \"#utility.yul\":21610:21905   */\n      swap3\n      swap2\n      pop\n      pop\n      jump\t// out\n        /* \"#utility.yul\":21910:23305   */\n    tag_150:\n        /* \"#utility.yul\":22027:22064   */\n      tag_520\n        /* \"#utility.yul\":22060:22063   */\n      dup3\n        /* \"#utility.yul\":22027:22064   */\n      tag_236\n      jump\t// in\n    tag_520:\n        /* \"#utility.yul\":22129:22147   */\n      0xffffffffffffffff\n        /* \"#utility.yul\":22121:22127   */\n      dup2\n        /* \"#utility.yul\":22118:22148   */\n      gt\n        /* \"#utility.yul\":22115:22171   */\n      iszero\n      tag_521\n      jumpi\n        /* \"#utility.yul\":22151:22169   */\n      tag_522\n      tag_252\n      jump\t// in\n    tag_522:\n        /* \"#utility.yul\":22115:22171   */\n    tag_521:\n        /* \"#utility.yul\":22195:22233   */\n      tag_523\n        /* \"#utility.yul\":22227:22231   */\n      dup3\n        /* \"#utility.yul\":22221:22232   */\n      sload\n        /* \"#utility.yul\":22195:22233   */\n      tag_122\n      jump\t// in\n    tag_523:\n        /* \"#utility.yul\":22280:22347   */\n      tag_524\n        /* \"#utility.yul\":22340:22346   */\n      dup3\n        /* \"#utility.yul\":22332:22338   */\n      dup3\n        /* \"#utility.yul\":22326:22330   */\n      dup6\n        /* \"#utility.yul\":22280:22347   */\n      tag_291\n      jump\t// in\n    tag_524:\n        /* \"#utility.yul\":22374:22375   */\n      0x00\n        /* \"#utility.yul\":22398:22402   */\n      0x20\n        /* \"#utility.yul\":22385:22402   */\n      swap1\n      pop\n        /* \"#utility.yul\":22430:22432   */\n      0x1f\n        /* \"#utility.yul\":22422:22428   */\n      dup4\n        /* \"#utility.yul\":22419:22433   */\n      gt\n        /* \"#utility.yul\":22447:22448   */\n      0x01\n        /* \"#utility.yul\":22442:23060   */\n      dup2\n      eq\n      tag_526\n      jumpi\n        /* \"#utility.yul\":23104:23105   */\n      0x00\n        /* \"#utility.yul\":23121:23127   */\n      dup5\n        /* \"#utility.yul\":23118:23195   */\n      iszero\n      tag_527\n      jumpi\n        /* \"#utility.yul\":23170:23179   */\n      dup3\n        /* \"#utility.yul\":23165:23168   */\n      dup8\n        /* \"#utility.yul\":23161:23180   */\n      add\n        /* \"#utility.yul\":23155:23181   */\n      mload\n        /* \"#utility.yul\":23146:23181   */\n      swap1\n      pop\n        /* \"#utility.yul\":23118:23195   */\n    tag_527:\n        /* \"#utility.yul\":23221:23288   */\n      tag_528\n        /* \"#utility.yul\":23281:23287   */\n      dup6\n        /* \"#utility.yul\":23274:23279   */\n      dup3\n        /* \"#utility.yul\":23221:23288   */\n      tag_294\n      jump\t// in\n    tag_528:\n        /* \"#utility.yul\":23215:23219   */\n      dup7\n        /* \"#utility.yul\":23208:23289   */\n      sstore\n        /* \"#utility.yul\":23077:23299   */\n      pop\n        /* \"#utility.yul\":22412:23299   */\n      jump(tag_525)\n        /* \"#utility.yul\":22442:23060   */\n    tag_526:\n        /* \"#utility.yul\":22494:22498   */\n      0x1f\n        /* \"#utility.yul\":22490:22499   */\n      not\n        /* \"#utility.yul\":22482:22488   */\n      dup5\n        /* \"#utility.yul\":22478:22500   */\n      and\n        /* \"#utility.yul\":22528:22565   */\n      tag_529\n        /* \"#utility.yul\":22560:22564   */\n      dup7\n        /* \"#utility.yul\":22528:22565   */\n      tag_280\n      jump\t// in\n    tag_529:\n        /* \"#utility.yul\":22587:22588   */\n      0x00\n        /* \"#utility.yul\":22601:22809   */\n    tag_530:\n        /* \"#utility.yul\":22615:22622   */\n      dup3\n        /* \"#utility.yul\":22612:22613   */\n      dup2\n        /* \"#utility.yul\":22609:22623   */\n      lt\n        /* \"#utility.yul\":22601:22809   */\n      iszero\n      tag_532\n      jumpi\n        /* \"#utility.yul\":22694:22703   */\n      dup5\n        /* \"#utility.yul\":22689:22692   */\n      dup10\n        /* \"#utility.yul\":22685:22704   */\n      add\n        /* \"#utility.yul\":22679:22705   */\n      mload\n        /* \"#utility.yul\":22671:22677   */\n      dup3\n        /* \"#utility.yul\":22664:22706   */\n      sstore\n        /* \"#utility.yul\":22745:22746   */\n      0x01\n        /* \"#utility.yul\":22737:22743   */\n      dup3\n        /* \"#utility.yul\":22733:22747   */\n      add\n        /* \"#utility.yul\":22723:22747   */\n      swap2\n      pop\n        /* \"#utility.yul\":22792:22794   */\n      0x20\n        /* \"#utility.yul\":22781:22790   */\n      dup6\n        /* \"#utility.yul\":22777:22795   */\n      add\n        /* \"#utility.yul\":22764:22795   */\n      swap5\n      pop\n        /* \"#utility.yul\":22638:22642   */\n      0x20\n        /* \"#utility.yul\":22635:22636   */\n      dup2\n        /* \"#utility.yul\":22631:22643   */\n      add\n        /* \"#utility.yul\":22626:22643   */\n      swap1\n      pop\n        /* \"#utility.yul\":22601:22809   */\n      jump(tag_530)\n    tag_532:\n        /* \"#utility.yul\":22837:22843   */\n      dup7\n        /* \"#utility.yul\":22828:22835   */\n      dup4\n        /* \"#utility.yul\":22825:22844   */\n      lt\n        /* \"#utility.yul\":22822:23001   */\n      iszero\n      tag_533\n      jumpi\n        /* \"#utility.yul\":22895:22904   */\n      dup5\n        /* \"#utility.yul\":22890:22893   */\n      dup10\n        /* \"#utility.yul\":22886:22905   */\n      add\n        /* \"#utility.yul\":22880:22906   */\n      mload\n        /* \"#utility.yul\":22938:22986   */\n      tag_534\n        /* \"#utility.yul\":22980:22984   */\n      0x1f\n        /* \"#utility.yul\":22972:22978   */\n      dup10\n        /* \"#utility.yul\":22968:22985   */\n      and\n        /* \"#utility.yul\":22957:22966   */\n      dup3\n        /* \"#utility.yul\":22938:22986   */\n      tag_293\n      jump\t// in\n    tag_534:\n        /* \"#utility.yul\":22930:22936   */\n      dup4\n        /* \"#utility.yul\":22923:22987   */\n      sstore\n        /* \"#utility.yul\":22845:23001   */\n      pop\n        /* \"#utility.yul\":22822:23001   */\n    tag_533:\n        /* \"#utility.yul\":23047:23048   */\n      0x01\n        /* \"#utility.yul\":23043:23044   */\n      0x02\n        /* \"#utility.yul\":23035:23041   */\n      dup9\n        /* \"#utility.yul\":23031:23045   */\n      mul\n        /* \"#utility.yul\":23027:23049   */\n      add\n        /* \"#utility.yul\":23021:23025   */\n      dup9\n        /* \"#utility.yul\":23014:23050   */\n      sstore\n        /* \"#utility.yul\":22449:23060   */\n      pop\n      pop\n      pop\n        /* \"#utility.yul\":22412:23299   */\n    tag_525:\n      pop\n        /* \"#utility.yul\":22002:23305   */\n      pop\n      pop\n      pop\n        /* \"#utility.yul\":21910:23305   */\n      pop\n      pop\n      jump\t// out\n        /* \"#utility.yul\":23311:23491   */\n    tag_160:\n        /* \"#utility.yul\":23359:23436   */\n      0x4e487b7100000000000000000000000000000000000000000000000000000000\n        /* \"#utility.yul\":23356:23357   */\n      0x00\n        /* \"#utility.yul\":23349:23437   */\n      mstore\n        /* \"#utility.yul\":23456:23460   */\n      0x32\n        /* \"#utility.yul\":23453:23454   */\n      0x04\n        /* \"#utility.yul\":23446:23461   */\n      mstore\n        /* \"#utility.yul\":23480:23484   */\n      0x24\n        /* \"#utility.yul\":23477:23478   */\n      0x00\n        /* \"#utility.yul\":23470:23485   */\n      revert\n        /* \"#utility.yul\":23521:24352   */\n    tag_295:\n        /* \"#utility.yul\":23606:23609   */\n      0x00\n        /* \"#utility.yul\":23643:23648   */\n      dup2\n        /* \"#utility.yul\":23637:23649   */\n      sload\n        /* \"#utility.yul\":23672:23708   */\n      tag_537\n        /* \"#utility.yul\":23698:23707   */\n      dup2\n        /* \"#utility.yul\":23672:23708   */\n      tag_122\n      jump\t// in\n    tag_537:\n        /* \"#utility.yul\":23724:23795   */\n      tag_538\n        /* \"#utility.yul\":23788:23794   */\n      dup2\n        /* \"#utility.yul\":23783:23786   */\n      dup7\n        /* \"#utility.yul\":23724:23795   */\n      tag_237\n      jump\t// in\n    tag_538:\n        /* \"#utility.yul\":23717:23795   */\n      swap5\n      pop\n        /* \"#utility.yul\":23826:23827   */\n      0x01\n        /* \"#utility.yul\":23815:23824   */\n      dup3\n        /* \"#utility.yul\":23811:23828   */\n      and\n        /* \"#utility.yul\":23842:23843   */\n      0x00\n        /* \"#utility.yul\":23837:24001   */\n      dup2\n      eq\n      tag_540\n      jumpi\n        /* \"#utility.yul\":24015:24016   */\n      0x01\n        /* \"#utility.yul\":24010:24346   */\n      dup2\n      eq\n      tag_541\n      jumpi\n        /* \"#utility.yul\":23804:24346   */\n      jump(tag_539)\n        /* \"#utility.yul\":23837:24001   */\n    tag_540:\n        /* \"#utility.yul\":23921:23925   */\n      0xff\n        /* \"#utility.yul\":23917:23926   */\n      not\n        /* \"#utility.yul\":23906:23915   */\n      dup4\n        /* \"#utility.yul\":23902:23927   */\n      and\n        /* \"#utility.yul\":23897:23900   */\n      dup7\n        /* \"#utility.yul\":23890:23928   */\n      mstore\n        /* \"#utility.yul\":23981:23987   */\n      dup2\n        /* \"#utility.yul\":23974:23988   */\n      iszero\n        /* \"#utility.yul\":23967:23989   */\n      iszero\n        /* \"#utility.yul\":23961:23965   */\n      0x20\n        /* \"#utility.yul\":23957:23990   */\n      mul\n        /* \"#utility.yul\":23952:23955   */\n      dup7\n        /* \"#utility.yul\":23948:23991   */\n      add\n        /* \"#utility.yul\":23941:23991   */\n      swap4\n      pop\n        /* \"#utility.yul\":23837:24001   */\n      jump(tag_539)\n        /* \"#utility.yul\":24010:24346   */\n    tag_541:\n        /* \"#utility.yul\":24077:24115   */\n      tag_542\n        /* \"#utility.yul\":24109:24114   */\n      dup6\n        /* \"#utility.yul\":24077:24115   */\n      tag_280\n      jump\t// in\n    tag_542:\n        /* \"#utility.yul\":24137:24138   */\n      0x00\n        /* \"#utility.yul\":24151:24305   */\n    tag_543:\n        /* \"#utility.yul\":24165:24171   */\n      dup4\n        /* \"#utility.yul\":24162:24163   */\n      dup2\n        /* \"#utility.yul\":24159:24172   */\n      lt\n        /* \"#utility.yul\":24151:24305   */\n      iszero\n      tag_545\n      jumpi\n        /* \"#utility.yul\":24239:24246   */\n      dup2\n        /* \"#utility.yul\":24233:24247   */\n      sload\n        /* \"#utility.yul\":24229:24230   */\n      dup2\n        /* \"#utility.yul\":24224:24227   */\n      dup10\n        /* \"#utility.yul\":24220:24231   */\n      add\n        /* \"#utility.yul\":24213:24248   */\n      mstore\n        /* \"#utility.yul\":24289:24290   */\n      0x01\n        /* \"#utility.yul\":24280:24287   */\n      dup3\n        /* \"#utility.yul\":24276:24291   */\n      add\n        /* \"#utility.yul\":24265:24291   */\n      swap2\n      pop\n        /* \"#utility.yul\":24187:24191   */\n      0x20\n        /* \"#utility.yul\":24184:24185   */\n      dup2\n        /* \"#utility.yul\":24180:24192   */\n      add\n        /* \"#utility.yul\":24175:24192   */\n      swap1\n      pop\n        /* \"#utility.yul\":24151:24305   */\n      jump(tag_543)\n    tag_545:\n        /* \"#utility.yul\":24334:24335   */\n      dup1\n        /* \"#utility.yul\":24329:24332   */\n      dup9\n        /* \"#utility.yul\":24325:24336   */\n      add\n        /* \"#utility.yul\":24318:24336   */\n      swap6\n      pop\n        /* \"#utility.yul\":24017:24346   */\n      pop\n      pop\n        /* \"#utility.yul\":23804:24346   */\n    tag_539:\n      pop\n        /* \"#utility.yul\":23610:24352   */\n      pop\n      pop\n        /* \"#utility.yul\":23521:24352   */\n      swap3\n      swap2\n      pop\n      pop\n      jump\t// out\n        /* \"#utility.yul\":24358:24665   */\n    tag_164:\n        /* \"#utility.yul\":24468:24472   */\n      0x00\n        /* \"#utility.yul\":24506:24508   */\n      0x20\n        /* \"#utility.yul\":24495:24504   */\n      dup3\n        /* \"#utility.yul\":24491:24509   */\n      add\n        /* \"#utility.yul\":24483:24509   */\n      swap1\n      pop\n        /* \"#utility.yul\":24555:24564   */\n      dup2\n        /* \"#utility.yul\":24549:24553   */\n      dup2\n        /* \"#utility.yul\":24545:24565   */\n      sub\n        /* \"#utility.yul\":24541:24542   */\n      0x00\n        /* \"#utility.yul\":24530:24539   */\n      dup4\n        /* \"#utility.yul\":24526:24543   */\n      add\n        /* \"#utility.yul\":24519:24566   */\n      mstore\n        /* \"#utility.yul\":24583:24658   */\n      tag_547\n        /* \"#utility.yul\":24653:24657   */\n      dup2\n        /* \"#utility.yul\":24644:24650   */\n      dup5\n        /* \"#utility.yul\":24583:24658   */\n      tag_295\n      jump\t// in\n    tag_547:\n        /* \"#utility.yul\":24575:24658   */\n      swap1\n      pop\n        /* \"#utility.yul\":24358:24665   */\n      swap3\n      swap2\n      pop\n      pop\n      jump\t// out\n        /* \"#utility.yul\":24671:24851   */\n    tag_296:\n        /* \"#utility.yul\":24719:24796   */\n      0x4e487b7100000000000000000000000000000000000000000000000000000000\n        /* \"#utility.yul\":24716:24717   */\n      0x00\n        /* \"#utility.yul\":24709:24797   */\n      mstore\n        /* \"#utility.yul\":24816:24820   */\n      0x11\n        /* \"#utility.yul\":24813:24814   */\n      0x04\n        /* \"#utility.yul\":24806:24821   */\n      mstore\n        /* \"#utility.yul\":24840:24844   */\n      0x24\n        /* \"#utility.yul\":24837:24838   */\n      0x00\n        /* \"#utility.yul\":24830:24845   */\n      revert\n        /* \"#utility.yul\":24857:25048   */\n    tag_167:\n        /* \"#utility.yul\":24897:24900   */\n      0x00\n        /* \"#utility.yul\":24916:24936   */\n      tag_550\n        /* \"#utility.yul\":24934:24935   */\n      dup3\n        /* \"#utility.yul\":24916:24936   */\n      tag_229\n      jump\t// in\n    tag_550:\n        /* \"#utility.yul\":24911:24936   */\n      swap2\n      pop\n        /* \"#utility.yul\":24950:24970   */\n      tag_551\n        /* \"#utility.yul\":24968:24969   */\n      dup4\n        /* \"#utility.yul\":24950:24970   */\n      tag_229\n      jump\t// in\n    tag_551:\n        /* \"#utility.yul\":24945:24970   */\n      swap3\n      pop\n        /* \"#utility.yul\":24993:24994   */\n      dup3\n        /* \"#utility.yul\":24990:24991   */\n      dup3\n        /* \"#utility.yul\":24986:24995   */\n      add\n        /* \"#utility.yul\":24979:24995   */\n      swap1\n      pop\n        /* \"#utility.yul\":25014:25017   */\n      dup1\n        /* \"#utility.yul\":25011:25012   */\n      dup3\n        /* \"#utility.yul\":25008:25018   */\n      gt\n        /* \"#utility.yul\":25005:25041   */\n      iszero\n      tag_552\n      jumpi\n        /* \"#utility.yul\":25021:25039   */\n      tag_553\n      tag_296\n      jump\t// in\n    tag_553:\n        /* \"#utility.yul\":25005:25041   */\n    tag_552:\n        /* \"#utility.yul\":24857:25048   */\n      swap3\n      swap2\n      pop\n      pop\n      jump\t// out\n        /* \"#utility.yul\":25054:25429   */\n    tag_191:\n        /* \"#utility.yul\":25093:25096   */\n      0x00\n        /* \"#utility.yul\":25112:25131   */\n      tag_555\n        /* \"#utility.yul\":25129:25130   */\n      dup3\n        /* \"#utility.yul\":25112:25131   */\n      tag_249\n      jump\t// in\n    tag_555:\n        /* \"#utility.yul\":25107:25131   */\n      swap2\n      pop\n        /* \"#utility.yul\":25145:25164   */\n      tag_556\n        /* \"#utility.yul\":25162:25163   */\n      dup4\n        /* \"#utility.yul\":25145:25164   */\n      tag_249\n      jump\t// in\n    tag_556:\n        /* \"#utility.yul\":25140:25164   */\n      swap3\n      pop\n        /* \"#utility.yul\":25187:25188   */\n      dup3\n        /* \"#utility.yul\":25184:25185   */\n      dup3\n        /* \"#utility.yul\":25180:25189   */\n      add\n        /* \"#utility.yul\":25173:25189   */\n      swap1\n      pop\n        /* \"#utility.yul\":25385:25386   */\n      dup3\n        /* \"#utility.yul\":25380:25383   */\n      dup2\n        /* \"#utility.yul\":25376:25387   */\n      slt\n        /* \"#utility.yul\":25369:25388   */\n      iszero\n        /* \"#utility.yul\":25365:25366   */\n      0x00\n        /* \"#utility.yul\":25362:25363   */\n      dup4\n        /* \"#utility.yul\":25358:25367   */\n      slt\n        /* \"#utility.yul\":25354:25389   */\n      and\n        /* \"#utility.yul\":25337:25338   */\n      dup4\n        /* \"#utility.yul\":25332:25335   */\n      dup3\n        /* \"#utility.yul\":25328:25339   */\n      slt\n        /* \"#utility.yul\":25323:25324   */\n      0x00\n        /* \"#utility.yul\":25320:25321   */\n      dup5\n        /* \"#utility.yul\":25316:25325   */\n      slt\n        /* \"#utility.yul\":25309:25326   */\n      iszero\n        /* \"#utility.yul\":25305:25340   */\n      and\n        /* \"#utility.yul\":25289:25399   */\n      or\n        /* \"#utility.yul\":25286:25422   */\n      iszero\n      tag_557\n      jumpi\n        /* \"#utility.yul\":25402:25420   */\n      tag_558\n      tag_296\n      jump\t// in\n    tag_558:\n        /* \"#utility.yul\":25286:25422   */\n    tag_557:\n        /* \"#utility.yul\":25054:25429   */\n      swap3\n      swap2\n      pop\n      pop\n      jump\t// out\n        /* \"#utility.yul\":25435:25668   */\n    tag_228:\n        /* \"#utility.yul\":25474:25477   */\n      0x00\n        /* \"#utility.yul\":25497:25521   */\n      tag_560\n        /* \"#utility.yul\":25515:25520   */\n      dup3\n        /* \"#utility.yul\":25497:25521   */\n      tag_229\n      jump\t// in\n    tag_560:\n        /* \"#utility.yul\":25488:25521   */\n      swap2\n      pop\n        /* \"#utility.yul\":25543:25609   */\n      0xffffffffffffffffffffffffffffffffffffffffffffffffffffffffffffffff\n        /* \"#utility.yul\":25536:25541   */\n      dup3\n        /* \"#utility.yul\":25533:25610   */\n      sub\n        /* \"#utility.yul\":25530:25633   */\n      tag_561\n      jumpi\n        /* \"#utility.yul\":25613:25631   */\n      tag_562\n      tag_296\n      jump\t// in\n    tag_562:\n        /* \"#utility.yul\":25530:25633   */\n    tag_561:\n        /* \"#utility.yul\":25660:25661   */\n      0x01\n        /* \"#utility.yul\":25653:25658   */\n      dup3\n        /* \"#utility.yul\":25649:25662   */\n      add\n        /* \"#utility.yul\":25642:25662   */\n      swap1\n      pop\n        /* \"#utility.yul\":25435:25668   */\n      swap2\n      swap1\n      pop\n      jump\t// out\n\n    auxdata: 0xa2646970667358221220aca6fc0df827b50efc1eb2bf11d6ae10eb42b8e238a0a70b7001ad30f6d4d30f64736f6c63430008120033\n}\n",
				"bytecode": {
					"linkReferences": {},
					"object": "60806040523480156200001157600080fd5b5033600660006101000a81548173ffffffffffffffffffffffffffffffffffffffff021916908373ffffffffffffffffffffffffffffffffffffffff1602179055506040518060400160405280600e81526020017f6973206e6f7420616c6c6f7765640000000000000000000000000000000000008152506004600060028110620000a157620000a062000187565b5b019081620000b0919062000430565b506040518060400160405280600a81526020017f6f6e6c79206f776e6572000000000000000000000000000000000000000000008152506004600160028110620000ff57620000fe62000187565b5b0190816200010e919062000430565b50600660009054906101000a900473ffffffffffffffffffffffffffffffffffffffff1673ffffffffffffffffffffffffffffffffffffffff167f1dc05c1d6a563dddb6c22082af72b54ec2f0207ceb55db5d13cdabc208f303a94260405162000179919062000528565b60405180910390a262000545565b7f4e487b7100000000000000000000000000000000000000000000000000000000600052603260045260246000fd5b600081519050919050565b7f4e487b7100000000000000000000000000000000000000000000000000000000600052604160045260246000fd5b7f4e487b7100000000000000000000000000000000000000000000000000000000600052602260045260246000fd5b600060028204905060018216806200023857607f821691505b6020821081036200024e576200024d620001f0565b5b50919050565b60008190508160005260206000209050919050565b60006020601f8301049050919050565b600082821b905092915050565b600060088302620002b87fffffffffffffffffffffffffffffffffffffffffffffffffffffffffffffffff8262000279565b620002c4868362000279565b95508019841693508086168417925050509392505050565b6000819050919050565b6000819050919050565b6000620003116200030b6200030584620002dc565b620002e6565b620002dc565b9050919050565b6000819050919050565b6200032d83620002f0565b620003456200033c8262000318565b84845462000286565b825550505050565b600090565b6200035c6200034d565b6200036981848462000322565b505050565b5b8181101562000391576200038560008262000352565b6001810190506200036f565b5050565b601f821115620003e057620003aa8162000254565b620003b58462000269565b81016020851015620003c5578190505b620003dd620003d48562000269565b8301826200036e565b50505b505050565b600082821c905092915050565b60006200040560001984600802620003e5565b1980831691505092915050565b6000620004208383620003f2565b9150826002028217905092915050565b6200043b82620001b6565b67ffffffffffffffff811115620004575762000456620001c1565b5b6200046382546200021f565b6200047082828562000395565b600060209050601f831160018114620004a8576000841562000493578287015190505b6200049f858262000412565b8655506200050f565b601f198416620004b88662000254565b60005b82811015620004e257848901518255600182019150602085019450602081019050620004bb565b86831015620005025784890151620004fe601f891682620003f2565b8355505b6001600288020188555050505b505050505050565b6200052281620002dc565b82525050565b60006020820190506200053f600083018462000517565b92915050565b611eaa80620005556000396000f3fe608060405234801561001057600080fd5b50600436106101585760003560e01c8063865cebe7116100c3578063be7cb5061161007c578063be7cb5061461037f578063c539ab781461039b578063db613e81146103cb578063dd62ed3e146103e9578063e9523c9714610419578063ffac3b1d1461043757610158565b8063865cebe7146102e55780638c160186146103015780638da5cb5b1461031f5780639bead1f81461033d578063a6f2ae3a14610359578063aa82f3501461036357610158565b80635f3d8f4a116101155780635f3d8f4a146102375780635faaf35214610255578063702051f0146102715780637b061d351461028f5780637c85cfc2146102ab5780637cf5dab0146102c957610158565b806306661abd1461015d57806314bfd6d01461017b57806319e1fca4146101ad5780632babac22146101cb57806348dfcbf0146101e75780634fab2bc914610205575b600080fd5b610165610441565b604051610172919061111a565b60405180910390f35b61019560048036038101906101909190611175565b610447565b6040516101a493929190611232565b60405180910390f35b6101b5610591565b6040516101c29190611292565b60405180910390f35b6101e560048036038101906101e091906112d9565b6105a2565b005b6101ef6105be565b6040516101fc9190611306565b60405180910390f35b61021f600480360381019061021a9190611386565b6105fb565b60405161022e93929190611232565b60405180910390f35b61023f610735565b60405161024c91906113cc565b60405180910390f35b61026f600480360381019061026a91906115c2565b61073b565b005b6102796107e7565b604051610286919061111a565b60405180910390f35b6102a960048036038101906102a491906115c2565b6107f0565b005b6102b361082f565b6040516102c09190611306565b60405180910390f35b6102e360048036038101906102de9190611175565b61086c565b005b6102ff60048036038101906102fa9190611386565b610987565b005b610309610aea565b6040516103169190611306565b60405180910390f35b610327610b27565b604051610334919061161a565b60405180910390f35b61035760048036038101906103529190611635565b610b4d565b005b610361610b82565b005b61037d600480360381019061037891906115c2565b610c88565b005b610399600480360381019061039491906116ec565b610d04565b005b6103b560048036038101906103b09190611175565b610d1b565b6040516103c29190611306565b60405180910390f35b6103d3610dbe565b6040516103e091906117c9565b60405180910390f35b61040360048036038101906103fe91906117eb565b610f0c565b6040516104109190611292565b60405180910390f35b610421610f3b565b60405161042e9190611944565b60405180910390f35b61043f6110c8565b005b60015481565b600b818154811061045757600080fd5b906000526020600020906003020160009150905080600001805461047a90611995565b80601f01602080910402602001604051908101604052809291908181526020018280546104a690611995565b80156104f35780601f106104c8576101008083540402835291602001916104f3565b820191906000526020600020905b8154815290600101906020018083116104d657829003601f168201915b50505050509080600101805461050890611995565b80601f016020809104026020016040519081016040528092919081815260200182805461053490611995565b80156105815780601f1061055657610100808354040283529160200191610581565b820191906000526020600020905b81548152906001019060200180831161056457829003601f168201915b5050505050908060020154905083565b60008054906101000a900460ff1681565b806000806101000a81548160ff02191690831515021790555050565b60606040518060400160405280600681526020017f307856656c690000000000000000000000000000000000000000000000000000815250905090565b600a60205280600052604060002060009150905080600001805461061e90611995565b80601f016020809104026020016040519081016040528092919081815260200182805461064a90611995565b80156106975780601f1061066c57610100808354040283529160200191610697565b820191906000526020600020905b81548152906001019060200180831161067a57829003601f168201915b5050505050908060010180546106ac90611995565b80601f01602080910402602001604051908101604052809291908181526020018280546106d890611995565b80156107255780601f106106fa57610100808354040283529160200191610725565b820191906000526020600020905b81548152906001019060200180831161070857829003601f168201915b5050505050908060020154905083565b60025481565b600a600c5410610780576040517f08c379a000000000000000000000000000000000000000000000000000000000815260040161077790611a12565b60405180910390fd5b600b81908060018154018082558091505060019003906000526020600020906003020160009091909190915060008201518160000190816107c19190611bde565b5060208201518160010190816107d79190611bde565b5060408201518160020155505050565b60006002905090565b80600760008201518160000190816108089190611bde565b50602082015181600101908161081e9190611bde565b506040820151816002015590505050565b60606040518060400160405280600b81526020017f4920616d20726561647921000000000000000000000000000000000000000000815250905090565b60036000600660009054906101000a900473ffffffffffffffffffffffffffffffffffffffff1673ffffffffffffffffffffffffffffffffffffffff1673ffffffffffffffffffffffffffffffffffffffff16815260200190815260200160002060003373ffffffffffffffffffffffffffffffffffffffff1673ffffffffffffffffffffffffffffffffffffffff16815260200190815260200160002060009054906101000a900460ff16600460006002811061092d5761092c611cb0565b5b019061096f576040517f08c379a00000000000000000000000000000000000000000000000000000000081526004016109669190611d63565b60405180910390fd5b508060015461097e9190611db4565b60018190555050565b3373ffffffffffffffffffffffffffffffffffffffff16600660009054906101000a900473ffffffffffffffffffffffffffffffffffffffff1673ffffffffffffffffffffffffffffffffffffffff161460046001600281106109ed576109ec611cb0565b5b0190610a2f576040517f08c379a0000000000000000000000000000000000000000000000000000000008152600401610a269190611d63565b60405180910390fd5b50600160036000600660009054906101000a900473ffffffffffffffffffffffffffffffffffffffff1673ffffffffffffffffffffffffffffffffffffffff1673ffffffffffffffffffffffffffffffffffffffff16815260200190815260200160002060008373ffffffffffffffffffffffffffffffffffffffff1673ffffffffffffffffffffffffffffffffffffffff16815260200190815260200160002060006101000a81548160ff02191690831515021790555050565b60606040518060400160405280600a81526020017f56656c6920557973616c00000000000000000000000000000000000000000000815250905090565b600660009054906101000a900473ffffffffffffffffffffffffffffffffffffffff1681565b8260076000019081610b5f9190611bde565b508160076001019081610b729190611bde565b5080600760020181905550505050565b60036000600660009054906101000a900473ffffffffffffffffffffffffffffffffffffffff1673ffffffffffffffffffffffffffffffffffffffff1673ffffffffffffffffffffffffffffffffffffffff16815260200190815260200160002060003373ffffffffffffffffffffffffffffffffffffffff1673ffffffffffffffffffffffffffffffffffffffff16815260200190815260200160002060009054906101000a900460ff166004600060028110610c4357610c42611cb0565b5b0190610c85576040517f08c379a0000000000000000000000000000000000000000000000000000000008152600401610c7c9190611d63565b60405180910390fd5b50565b80600a60003373ffffffffffffffffffffffffffffffffffffffff1673ffffffffffffffffffffffffffffffffffffffff1681526020019081526020016000206000820151816000019081610cdd9190611bde565b506020820151816001019081610cf39190611bde565b506040820151816002015590505050565b80600254610d129190611de8565b60028190555050565b60048160028110610d2b57600080fd5b016000915090508054610d3d90611995565b80601f0160208091040260200160405190810160405280929190818152602001828054610d6990611995565b8015610db65780601f10610d8b57610100808354040283529160200191610db6565b820191906000526020600020905b815481529060010190602001808311610d9957829003601f168201915b505050505081565b610dc66110e0565b60006007604051806060016040529081600082018054610de590611995565b80601f0160208091040260200160405190810160405280929190818152602001828054610e1190611995565b8015610e5e5780601f10610e3357610100808354040283529160200191610e5e565b820191906000526020600020905b815481529060010190602001808311610e4157829003601f168201915b50505050508152602001600182018054610e7790611995565b80601f0160208091040260200160405190810160405280929190818152602001828054610ea390611995565b8015610ef05780601f10610ec557610100808354040283529160200191610ef0565b820191906000526020600020905b815481529060010190602001808311610ed357829003601f168201915b5050505050815260200160028201548152505090508091505090565b60036020528160005260406000206020528060005260406000206000915091509054906101000a900460ff1681565b6060600b805480602002602001604051908101604052809291908181526020016000905b828210156110bf5783829060005260206000209060030201604051806060016040529081600082018054610f9290611995565b80601f0160208091040260200160405190810160405280929190818152602001828054610fbe90611995565b801561100b5780601f10610fe05761010080835404028352916020019161100b565b820191906000526020600020905b815481529060010190602001808311610fee57829003601f168201915b5050505050815260200160018201805461102490611995565b80601f016020809104026020016040519081016040528092919081815260200182805461105090611995565b801561109d5780601f106110725761010080835404028352916020019161109d565b820191906000526020600020905b81548152906001019060200180831161108057829003601f168201915b5050505050815260200160028201548152505081526020019060010190610f5f565b50505050905090565b6001600081546110d790611e2c565b91905081905550565b60405180606001604052806060815260200160608152602001600081525090565b6000819050919050565b61111481611101565b82525050565b600060208201905061112f600083018461110b565b92915050565b6000604051905090565b600080fd5b600080fd5b61115281611101565b811461115d57600080fd5b50565b60008135905061116f81611149565b92915050565b60006020828403121561118b5761118a61113f565b5b600061119984828501611160565b91505092915050565b600081519050919050565b600082825260208201905092915050565b60005b838110156111dc5780820151818401526020810190506111c1565b60008484015250505050565b6000601f19601f8301169050919050565b6000611204826111a2565b61120e81856111ad565b935061121e8185602086016111be565b611227816111e8565b840191505092915050565b6000606082019050818103600083015261124c81866111f9565b9050818103602083015261126081856111f9565b905061126f604083018461110b565b949350505050565b60008115159050919050565b61128c81611277565b82525050565b60006020820190506112a76000830184611283565b92915050565b6112b681611277565b81146112c157600080fd5b50565b6000813590506112d3816112ad565b92915050565b6000602082840312156112ef576112ee61113f565b5b60006112fd848285016112c4565b91505092915050565b6000602082019050818103600083015261132081846111f9565b905092915050565b600073ffffffffffffffffffffffffffffffffffffffff82169050919050565b600061135382611328565b9050919050565b61136381611348565b811461136e57600080fd5b50565b6000813590506113808161135a565b92915050565b60006020828403121561139c5761139b61113f565b5b60006113aa84828501611371565b91505092915050565b6000819050919050565b6113c6816113b3565b82525050565b60006020820190506113e160008301846113bd565b92915050565b600080fd5b7f4e487b7100000000000000000000000000000000000000000000000000000000600052604160045260246000fd5b611424826111e8565b810181811067ffffffffffffffff82111715611443576114426113ec565b5b80604052505050565b6000611456611135565b9050611462828261141b565b919050565b600080fd5b600080fd5b600080fd5b600067ffffffffffffffff821115611491576114906113ec565b5b61149a826111e8565b9050602081019050919050565b82818337600083830152505050565b60006114c96114c484611476565b61144c565b9050828152602081018484840111156114e5576114e4611471565b5b6114f08482856114a7565b509392505050565b600082601f83011261150d5761150c61146c565b5b813561151d8482602086016114b6565b91505092915050565b60006060828403121561153c5761153b6113e7565b5b611546606061144c565b9050600082013567ffffffffffffffff81111561156657611565611467565b5b611572848285016114f8565b600083015250602082013567ffffffffffffffff81111561159657611595611467565b5b6115a2848285016114f8565b60208301525060406115b684828501611160565b60408301525092915050565b6000602082840312156115d8576115d761113f565b5b600082013567ffffffffffffffff8111156115f6576115f5611144565b5b61160284828501611526565b91505092915050565b61161481611348565b82525050565b600060208201905061162f600083018461160b565b92915050565b60008060006060848603121561164e5761164d61113f565b5b600084013567ffffffffffffffff81111561166c5761166b611144565b5b611678868287016114f8565b935050602084013567ffffffffffffffff81111561169957611698611144565b5b6116a5868287016114f8565b92505060406116b686828701611160565b9150509250925092565b6116c9816113b3565b81146116d457600080fd5b50565b6000813590506116e6816116c0565b92915050565b6000602082840312156117025761170161113f565b5b6000611710848285016116d7565b91505092915050565b600082825260208201905092915050565b6000611735826111a2565b61173f8185611719565b935061174f8185602086016111be565b611758816111e8565b840191505092915050565b61176c81611101565b82525050565b6000606083016000830151848203600086015261178f828261172a565b915050602083015184820360208601526117a9828261172a565b91505060408301516117be6040860182611763565b508091505092915050565b600060208201905081810360008301526117e38184611772565b905092915050565b600080604083850312156118025761180161113f565b5b600061181085828601611371565b925050602061182185828601611371565b9150509250929050565b600081519050919050565b600082825260208201905092915050565b6000819050602082019050919050565b60006060830160008301518482036000860152611874828261172a565b9150506020830151848203602086015261188e828261172a565b91505060408301516118a36040860182611763565b508091505092915050565b60006118ba8383611857565b905092915050565b6000602082019050919050565b60006118da8261182b565b6118e48185611836565b9350836020820285016118f685611847565b8060005b85811015611932578484038952815161191385826118ae565b945061191e836118c2565b925060208a019950506001810190506118fa565b50829750879550505050505092915050565b6000602082019050818103600083015261195e81846118cf565b905092915050565b7f4e487b7100000000000000000000000000000000000000000000000000000000600052602260045260246000fd5b600060028204905060018216806119ad57607f821691505b6020821081036119c0576119bf611966565b5b50919050565b7f686173206e6f20736c6f74000000000000000000000000000000000000000000600082015250565b60006119fc600b836111ad565b9150611a07826119c6565b602082019050919050565b60006020820190508181036000830152611a2b816119ef565b9050919050565b60008190508160005260206000209050919050565b60006020601f8301049050919050565b600082821b905092915050565b600060088302611a947fffffffffffffffffffffffffffffffffffffffffffffffffffffffffffffffff82611a57565b611a9e8683611a57565b95508019841693508086168417925050509392505050565b6000819050919050565b6000611adb611ad6611ad184611101565b611ab6565b611101565b9050919050565b6000819050919050565b611af583611ac0565b611b09611b0182611ae2565b848454611a64565b825550505050565b600090565b611b1e611b11565b611b29818484611aec565b505050565b5b81811015611b4d57611b42600082611b16565b600181019050611b2f565b5050565b601f821115611b9257611b6381611a32565b611b6c84611a47565b81016020851015611b7b578190505b611b8f611b8785611a47565b830182611b2e565b50505b505050565b600082821c905092915050565b6000611bb560001984600802611b97565b1980831691505092915050565b6000611bce8383611ba4565b9150826002028217905092915050565b611be7826111a2565b67ffffffffffffffff811115611c0057611bff6113ec565b5b611c0a8254611995565b611c15828285611b51565b600060209050601f831160018114611c485760008415611c36578287015190505b611c408582611bc2565b865550611ca8565b601f198416611c5686611a32565b60005b82811015611c7e57848901518255600182019150602085019450602081019050611c59565b86831015611c9b5784890151611c97601f891682611ba4565b8355505b6001600288020188555050505b505050505050565b7f4e487b7100000000000000000000000000000000000000000000000000000000600052603260045260246000fd5b60008154611cec81611995565b611cf681866111ad565b94506001821660008114611d115760018114611d2757611d5a565b60ff198316865281151560200286019350611d5a565b611d3085611a32565b60005b83811015611d5257815481890152600182019150602081019050611d33565b808801955050505b50505092915050565b60006020820190508181036000830152611d7d8184611cdf565b905092915050565b7f4e487b7100000000000000000000000000000000000000000000000000000000600052601160045260246000fd5b6000611dbf82611101565b9150611dca83611101565b9250828201905080821115611de257611de1611d85565b5b92915050565b6000611df3826113b3565b9150611dfe836113b3565b925082820190508281121560008312168382126000841215161715611e2657611e25611d85565b5b92915050565b6000611e3782611101565b91507fffffffffffffffffffffffffffffffffffffffffffffffffffffffffffffffff8203611e6957611e68611d85565b5b60018201905091905056fea2646970667358221220aca6fc0df827b50efc1eb2bf11d6ae10eb42b8e238a0a70b7001ad30f6d4d30f64736f6c63430008120033",
					"opcodes": "PUSH1 0x80 PUSH1 0x40 MSTORE CALLVALUE DUP1 ISZERO PUSH3 0x11 JUMPI PUSH1 0x0 DUP1 REVERT JUMPDEST POP CALLER PUSH1 0x6 PUSH1 0x0 PUSH2 0x100 EXP DUP2 SLOAD DUP2 PUSH20 0xFFFFFFFFFFFFFFFFFFFFFFFFFFFFFFFFFFFFFFFF MUL NOT AND SWAP1 DUP4 PUSH20 0xFFFFFFFFFFFFFFFFFFFFFFFFFFFFFFFFFFFFFFFF AND MUL OR SWAP1 SSTORE POP PUSH1 0x40 MLOAD DUP1 PUSH1 0x40 ADD PUSH1 0x40 MSTORE DUP1 PUSH1 0xE DUP2 MSTORE PUSH1 0x20 ADD PUSH32 0x6973206E6F7420616C6C6F776564000000000000000000000000000000000000 DUP2 MSTORE POP PUSH1 0x4 PUSH1 0x0 PUSH1 0x2 DUP2 LT PUSH3 0xA1 JUMPI PUSH3 0xA0 PUSH3 0x187 JUMP JUMPDEST JUMPDEST ADD SWAP1 DUP2 PUSH3 0xB0 SWAP2 SWAP1 PUSH3 0x430 JUMP JUMPDEST POP PUSH1 0x40 MLOAD DUP1 PUSH1 0x40 ADD PUSH1 0x40 MSTORE DUP1 PUSH1 0xA DUP2 MSTORE PUSH1 0x20 ADD PUSH32 0x6F6E6C79206F776E657200000000000000000000000000000000000000000000 DUP2 MSTORE POP PUSH1 0x4 PUSH1 0x1 PUSH1 0x2 DUP2 LT PUSH3 0xFF JUMPI PUSH3 0xFE PUSH3 0x187 JUMP JUMPDEST JUMPDEST ADD SWAP1 DUP2 PUSH3 0x10E SWAP2 SWAP1 PUSH3 0x430 JUMP JUMPDEST POP PUSH1 0x6 PUSH1 0x0 SWAP1 SLOAD SWAP1 PUSH2 0x100 EXP SWAP1 DIV PUSH20 0xFFFFFFFFFFFFFFFFFFFFFFFFFFFFFFFFFFFFFFFF AND PUSH20 0xFFFFFFFFFFFFFFFFFFFFFFFFFFFFFFFFFFFFFFFF AND PUSH32 0x1DC05C1D6A563DDDB6C22082AF72B54EC2F0207CEB55DB5D13CDABC208F303A9 TIMESTAMP PUSH1 0x40 MLOAD PUSH3 0x179 SWAP2 SWAP1 PUSH3 0x528 JUMP JUMPDEST PUSH1 0x40 MLOAD DUP1 SWAP2 SUB SWAP1 LOG2 PUSH3 0x545 JUMP JUMPDEST PUSH32 0x4E487B7100000000000000000000000000000000000000000000000000000000 PUSH1 0x0 MSTORE PUSH1 0x32 PUSH1 0x4 MSTORE PUSH1 0x24 PUSH1 0x0 REVERT JUMPDEST PUSH1 0x0 DUP2 MLOAD SWAP1 POP SWAP2 SWAP1 POP JUMP JUMPDEST PUSH32 0x4E487B7100000000000000000000000000000000000000000000000000000000 PUSH1 0x0 MSTORE PUSH1 0x41 PUSH1 0x4 MSTORE PUSH1 0x24 PUSH1 0x0 REVERT JUMPDEST PUSH32 0x4E487B7100000000000000000000000000000000000000000000000000000000 PUSH1 0x0 MSTORE PUSH1 0x22 PUSH1 0x4 MSTORE PUSH1 0x24 PUSH1 0x0 REVERT JUMPDEST PUSH1 0x0 PUSH1 0x2 DUP3 DIV SWAP1 POP PUSH1 0x1 DUP3 AND DUP1 PUSH3 0x238 JUMPI PUSH1 0x7F DUP3 AND SWAP2 POP JUMPDEST PUSH1 0x20 DUP3 LT DUP2 SUB PUSH3 0x24E JUMPI PUSH3 0x24D PUSH3 0x1F0 JUMP JUMPDEST JUMPDEST POP SWAP2 SWAP1 POP JUMP JUMPDEST PUSH1 0x0 DUP2 SWAP1 POP DUP2 PUSH1 0x0 MSTORE PUSH1 0x20 PUSH1 0x0 KECCAK256 SWAP1 POP SWAP2 SWAP1 POP JUMP JUMPDEST PUSH1 0x0 PUSH1 0x20 PUSH1 0x1F DUP4 ADD DIV SWAP1 POP SWAP2 SWAP1 POP JUMP JUMPDEST PUSH1 0x0 DUP3 DUP3 SHL SWAP1 POP SWAP3 SWAP2 POP POP JUMP JUMPDEST PUSH1 0x0 PUSH1 0x8 DUP4 MUL PUSH3 0x2B8 PUSH32 0xFFFFFFFFFFFFFFFFFFFFFFFFFFFFFFFFFFFFFFFFFFFFFFFFFFFFFFFFFFFFFFFF DUP3 PUSH3 0x279 JUMP JUMPDEST PUSH3 0x2C4 DUP7 DUP4 PUSH3 0x279 JUMP JUMPDEST SWAP6 POP DUP1 NOT DUP5 AND SWAP4 POP DUP1 DUP7 AND DUP5 OR SWAP3 POP POP POP SWAP4 SWAP3 POP POP POP JUMP JUMPDEST PUSH1 0x0 DUP2 SWAP1 POP SWAP2 SWAP1 POP JUMP JUMPDEST PUSH1 0x0 DUP2 SWAP1 POP SWAP2 SWAP1 POP JUMP JUMPDEST PUSH1 0x0 PUSH3 0x311 PUSH3 0x30B PUSH3 0x305 DUP5 PUSH3 0x2DC JUMP JUMPDEST PUSH3 0x2E6 JUMP JUMPDEST PUSH3 0x2DC JUMP JUMPDEST SWAP1 POP SWAP2 SWAP1 POP JUMP JUMPDEST PUSH1 0x0 DUP2 SWAP1 POP SWAP2 SWAP1 POP JUMP JUMPDEST PUSH3 0x32D DUP4 PUSH3 0x2F0 JUMP JUMPDEST PUSH3 0x345 PUSH3 0x33C DUP3 PUSH3 0x318 JUMP JUMPDEST DUP5 DUP5 SLOAD PUSH3 0x286 JUMP JUMPDEST DUP3 SSTORE POP POP POP POP JUMP JUMPDEST PUSH1 0x0 SWAP1 JUMP JUMPDEST PUSH3 0x35C PUSH3 0x34D JUMP JUMPDEST PUSH3 0x369 DUP2 DUP5 DUP5 PUSH3 0x322 JUMP JUMPDEST POP POP POP JUMP JUMPDEST JUMPDEST DUP2 DUP2 LT ISZERO PUSH3 0x391 JUMPI PUSH3 0x385 PUSH1 0x0 DUP3 PUSH3 0x352 JUMP JUMPDEST PUSH1 0x1 DUP2 ADD SWAP1 POP PUSH3 0x36F JUMP JUMPDEST POP POP JUMP JUMPDEST PUSH1 0x1F DUP3 GT ISZERO PUSH3 0x3E0 JUMPI PUSH3 0x3AA DUP2 PUSH3 0x254 JUMP JUMPDEST PUSH3 0x3B5 DUP5 PUSH3 0x269 JUMP JUMPDEST DUP2 ADD PUSH1 0x20 DUP6 LT ISZERO PUSH3 0x3C5 JUMPI DUP2 SWAP1 POP JUMPDEST PUSH3 0x3DD PUSH3 0x3D4 DUP6 PUSH3 0x269 JUMP JUMPDEST DUP4 ADD DUP3 PUSH3 0x36E JUMP JUMPDEST POP POP JUMPDEST POP POP POP JUMP JUMPDEST PUSH1 0x0 DUP3 DUP3 SHR SWAP1 POP SWAP3 SWAP2 POP POP JUMP JUMPDEST PUSH1 0x0 PUSH3 0x405 PUSH1 0x0 NOT DUP5 PUSH1 0x8 MUL PUSH3 0x3E5 JUMP JUMPDEST NOT DUP1 DUP4 AND SWAP2 POP POP SWAP3 SWAP2 POP POP JUMP JUMPDEST PUSH1 0x0 PUSH3 0x420 DUP4 DUP4 PUSH3 0x3F2 JUMP JUMPDEST SWAP2 POP DUP3 PUSH1 0x2 MUL DUP3 OR SWAP1 POP SWAP3 SWAP2 POP POP JUMP JUMPDEST PUSH3 0x43B DUP3 PUSH3 0x1B6 JUMP JUMPDEST PUSH8 0xFFFFFFFFFFFFFFFF DUP2 GT ISZERO PUSH3 0x457 JUMPI PUSH3 0x456 PUSH3 0x1C1 JUMP JUMPDEST JUMPDEST PUSH3 0x463 DUP3 SLOAD PUSH3 0x21F JUMP JUMPDEST PUSH3 0x470 DUP3 DUP3 DUP6 PUSH3 0x395 JUMP JUMPDEST PUSH1 0x0 PUSH1 0x20 SWAP1 POP PUSH1 0x1F DUP4 GT PUSH1 0x1 DUP2 EQ PUSH3 0x4A8 JUMPI PUSH1 0x0 DUP5 ISZERO PUSH3 0x493 JUMPI DUP3 DUP8 ADD MLOAD SWAP1 POP JUMPDEST PUSH3 0x49F DUP6 DUP3 PUSH3 0x412 JUMP JUMPDEST DUP7 SSTORE POP PUSH3 0x50F JUMP JUMPDEST PUSH1 0x1F NOT DUP5 AND PUSH3 0x4B8 DUP7 PUSH3 0x254 JUMP JUMPDEST PUSH1 0x0 JUMPDEST DUP3 DUP2 LT ISZERO PUSH3 0x4E2 JUMPI DUP5 DUP10 ADD MLOAD DUP3 SSTORE PUSH1 0x1 DUP3 ADD SWAP2 POP PUSH1 0x20 DUP6 ADD SWAP5 POP PUSH1 0x20 DUP2 ADD SWAP1 POP PUSH3 0x4BB JUMP JUMPDEST DUP7 DUP4 LT ISZERO PUSH3 0x502 JUMPI DUP5 DUP10 ADD MLOAD PUSH3 0x4FE PUSH1 0x1F DUP10 AND DUP3 PUSH3 0x3F2 JUMP JUMPDEST DUP4 SSTORE POP JUMPDEST PUSH1 0x1 PUSH1 0x2 DUP9 MUL ADD DUP9 SSTORE POP POP POP JUMPDEST POP POP POP POP POP POP JUMP JUMPDEST PUSH3 0x522 DUP2 PUSH3 0x2DC JUMP JUMPDEST DUP3 MSTORE POP POP JUMP JUMPDEST PUSH1 0x0 PUSH1 0x20 DUP3 ADD SWAP1 POP PUSH3 0x53F PUSH1 0x0 DUP4 ADD DUP5 PUSH3 0x517 JUMP JUMPDEST SWAP3 SWAP2 POP POP JUMP JUMPDEST PUSH2 0x1EAA DUP1 PUSH3 0x555 PUSH1 0x0 CODECOPY PUSH1 0x0 RETURN INVALID PUSH1 0x80 PUSH1 0x40 MSTORE CALLVALUE DUP1 ISZERO PUSH2 0x10 JUMPI PUSH1 0x0 DUP1 REVERT JUMPDEST POP PUSH1 0x4 CALLDATASIZE LT PUSH2 0x158 JUMPI PUSH1 0x0 CALLDATALOAD PUSH1 0xE0 SHR DUP1 PUSH4 0x865CEBE7 GT PUSH2 0xC3 JUMPI DUP1 PUSH4 0xBE7CB506 GT PUSH2 0x7C JUMPI DUP1 PUSH4 0xBE7CB506 EQ PUSH2 0x37F JUMPI DUP1 PUSH4 0xC539AB78 EQ PUSH2 0x39B JUMPI DUP1 PUSH4 0xDB613E81 EQ PUSH2 0x3CB JUMPI DUP1 PUSH4 0xDD62ED3E EQ PUSH2 0x3E9 JUMPI DUP1 PUSH4 0xE9523C97 EQ PUSH2 0x419 JUMPI DUP1 PUSH4 0xFFAC3B1D EQ PUSH2 0x437 JUMPI PUSH2 0x158 JUMP JUMPDEST DUP1 PUSH4 0x865CEBE7 EQ PUSH2 0x2E5 JUMPI DUP1 PUSH4 0x8C160186 EQ PUSH2 0x301 JUMPI DUP1 PUSH4 0x8DA5CB5B EQ PUSH2 0x31F JUMPI DUP1 PUSH4 0x9BEAD1F8 EQ PUSH2 0x33D JUMPI DUP1 PUSH4 0xA6F2AE3A EQ PUSH2 0x359 JUMPI DUP1 PUSH4 0xAA82F350 EQ PUSH2 0x363 JUMPI PUSH2 0x158 JUMP JUMPDEST DUP1 PUSH4 0x5F3D8F4A GT PUSH2 0x115 JUMPI DUP1 PUSH4 0x5F3D8F4A EQ PUSH2 0x237 JUMPI DUP1 PUSH4 0x5FAAF352 EQ PUSH2 0x255 JUMPI DUP1 PUSH4 0x702051F0 EQ PUSH2 0x271 JUMPI DUP1 PUSH4 0x7B061D35 EQ PUSH2 0x28F JUMPI DUP1 PUSH4 0x7C85CFC2 EQ PUSH2 0x2AB JUMPI DUP1 PUSH4 0x7CF5DAB0 EQ PUSH2 0x2C9 JUMPI PUSH2 0x158 JUMP JUMPDEST DUP1 PUSH4 0x6661ABD EQ PUSH2 0x15D JUMPI DUP1 PUSH4 0x14BFD6D0 EQ PUSH2 0x17B JUMPI DUP1 PUSH4 0x19E1FCA4 EQ PUSH2 0x1AD JUMPI DUP1 PUSH4 0x2BABAC22 EQ PUSH2 0x1CB JUMPI DUP1 PUSH4 0x48DFCBF0 EQ PUSH2 0x1E7 JUMPI DUP1 PUSH4 0x4FAB2BC9 EQ PUSH2 0x205 JUMPI JUMPDEST PUSH1 0x0 DUP1 REVERT JUMPDEST PUSH2 0x165 PUSH2 0x441 JUMP JUMPDEST PUSH1 0x40 MLOAD PUSH2 0x172 SWAP2 SWAP1 PUSH2 0x111A JUMP JUMPDEST PUSH1 0x40 MLOAD DUP1 SWAP2 SUB SWAP1 RETURN JUMPDEST PUSH2 0x195 PUSH1 0x4 DUP1 CALLDATASIZE SUB DUP2 ADD SWAP1 PUSH2 0x190 SWAP2 SWAP1 PUSH2 0x1175 JUMP JUMPDEST PUSH2 0x447 JUMP JUMPDEST PUSH1 0x40 MLOAD PUSH2 0x1A4 SWAP4 SWAP3 SWAP2 SWAP1 PUSH2 0x1232 JUMP JUMPDEST PUSH1 0x40 MLOAD DUP1 SWAP2 SUB SWAP1 RETURN JUMPDEST PUSH2 0x1B5 PUSH2 0x591 JUMP JUMPDEST PUSH1 0x40 MLOAD PUSH2 0x1C2 SWAP2 SWAP1 PUSH2 0x1292 JUMP JUMPDEST PUSH1 0x40 MLOAD DUP1 SWAP2 SUB SWAP1 RETURN JUMPDEST PUSH2 0x1E5 PUSH1 0x4 DUP1 CALLDATASIZE SUB DUP2 ADD SWAP1 PUSH2 0x1E0 SWAP2 SWAP1 PUSH2 0x12D9 JUMP JUMPDEST PUSH2 0x5A2 JUMP JUMPDEST STOP JUMPDEST PUSH2 0x1EF PUSH2 0x5BE JUMP JUMPDEST PUSH1 0x40 MLOAD PUSH2 0x1FC SWAP2 SWAP1 PUSH2 0x1306 JUMP JUMPDEST PUSH1 0x40 MLOAD DUP1 SWAP2 SUB SWAP1 RETURN JUMPDEST PUSH2 0x21F PUSH1 0x4 DUP1 CALLDATASIZE SUB DUP2 ADD SWAP1 PUSH2 0x21A SWAP2 SWAP1 PUSH2 0x1386 JUMP JUMPDEST PUSH2 0x5FB JUMP JUMPDEST PUSH1 0x40 MLOAD PUSH2 0x22E SWAP4 SWAP3 SWAP2 SWAP1 PUSH2 0x1232 JUMP JUMPDEST PUSH1 0x40 MLOAD DUP1 SWAP2 SUB SWAP1 RETURN JUMPDEST PUSH2 0x23F PUSH2 0x735 JUMP JUMPDEST PUSH1 0x40 MLOAD PUSH2 0x24C SWAP2 SWAP1 PUSH2 0x13CC JUMP JUMPDEST PUSH1 0x40 MLOAD DUP1 SWAP2 SUB SWAP1 RETURN JUMPDEST PUSH2 0x26F PUSH1 0x4 DUP1 CALLDATASIZE SUB DUP2 ADD SWAP1 PUSH2 0x26A SWAP2 SWAP1 PUSH2 0x15C2 JUMP JUMPDEST PUSH2 0x73B JUMP JUMPDEST STOP JUMPDEST PUSH2 0x279 PUSH2 0x7E7 JUMP JUMPDEST PUSH1 0x40 MLOAD PUSH2 0x286 SWAP2 SWAP1 PUSH2 0x111A JUMP JUMPDEST PUSH1 0x40 MLOAD DUP1 SWAP2 SUB SWAP1 RETURN JUMPDEST PUSH2 0x2A9 PUSH1 0x4 DUP1 CALLDATASIZE SUB DUP2 ADD SWAP1 PUSH2 0x2A4 SWAP2 SWAP1 PUSH2 0x15C2 JUMP JUMPDEST PUSH2 0x7F0 JUMP JUMPDEST STOP JUMPDEST PUSH2 0x2B3 PUSH2 0x82F JUMP JUMPDEST PUSH1 0x40 MLOAD PUSH2 0x2C0 SWAP2 SWAP1 PUSH2 0x1306 JUMP JUMPDEST PUSH1 0x40 MLOAD DUP1 SWAP2 SUB SWAP1 RETURN JUMPDEST PUSH2 0x2E3 PUSH1 0x4 DUP1 CALLDATASIZE SUB DUP2 ADD SWAP1 PUSH2 0x2DE SWAP2 SWAP1 PUSH2 0x1175 JUMP JUMPDEST PUSH2 0x86C JUMP JUMPDEST STOP JUMPDEST PUSH2 0x2FF PUSH1 0x4 DUP1 CALLDATASIZE SUB DUP2 ADD SWAP1 PUSH2 0x2FA SWAP2 SWAP1 PUSH2 0x1386 JUMP JUMPDEST PUSH2 0x987 JUMP JUMPDEST STOP JUMPDEST PUSH2 0x309 PUSH2 0xAEA JUMP JUMPDEST PUSH1 0x40 MLOAD PUSH2 0x316 SWAP2 SWAP1 PUSH2 0x1306 JUMP JUMPDEST PUSH1 0x40 MLOAD DUP1 SWAP2 SUB SWAP1 RETURN JUMPDEST PUSH2 0x327 PUSH2 0xB27 JUMP JUMPDEST PUSH1 0x40 MLOAD PUSH2 0x334 SWAP2 SWAP1 PUSH2 0x161A JUMP JUMPDEST PUSH1 0x40 MLOAD DUP1 SWAP2 SUB SWAP1 RETURN JUMPDEST PUSH2 0x357 PUSH1 0x4 DUP1 CALLDATASIZE SUB DUP2 ADD SWAP1 PUSH2 0x352 SWAP2 SWAP1 PUSH2 0x1635 JUMP JUMPDEST PUSH2 0xB4D JUMP JUMPDEST STOP JUMPDEST PUSH2 0x361 PUSH2 0xB82 JUMP JUMPDEST STOP JUMPDEST PUSH2 0x37D PUSH1 0x4 DUP1 CALLDATASIZE SUB DUP2 ADD SWAP1 PUSH2 0x378 SWAP2 SWAP1 PUSH2 0x15C2 JUMP JUMPDEST PUSH2 0xC88 JUMP JUMPDEST STOP JUMPDEST PUSH2 0x399 PUSH1 0x4 DUP1 CALLDATASIZE SUB DUP2 ADD SWAP1 PUSH2 0x394 SWAP2 SWAP1 PUSH2 0x16EC JUMP JUMPDEST PUSH2 0xD04 JUMP JUMPDEST STOP JUMPDEST PUSH2 0x3B5 PUSH1 0x4 DUP1 CALLDATASIZE SUB DUP2 ADD SWAP1 PUSH2 0x3B0 SWAP2 SWAP1 PUSH2 0x1175 JUMP JUMPDEST PUSH2 0xD1B JUMP JUMPDEST PUSH1 0x40 MLOAD PUSH2 0x3C2 SWAP2 SWAP1 PUSH2 0x1306 JUMP JUMPDEST PUSH1 0x40 MLOAD DUP1 SWAP2 SUB SWAP1 RETURN JUMPDEST PUSH2 0x3D3 PUSH2 0xDBE JUMP JUMPDEST PUSH1 0x40 MLOAD PUSH2 0x3E0 SWAP2 SWAP1 PUSH2 0x17C9 JUMP JUMPDEST PUSH1 0x40 MLOAD DUP1 SWAP2 SUB SWAP1 RETURN JUMPDEST PUSH2 0x403 PUSH1 0x4 DUP1 CALLDATASIZE SUB DUP2 ADD SWAP1 PUSH2 0x3FE SWAP2 SWAP1 PUSH2 0x17EB JUMP JUMPDEST PUSH2 0xF0C JUMP JUMPDEST PUSH1 0x40 MLOAD PUSH2 0x410 SWAP2 SWAP1 PUSH2 0x1292 JUMP JUMPDEST PUSH1 0x40 MLOAD DUP1 SWAP2 SUB SWAP1 RETURN JUMPDEST PUSH2 0x421 PUSH2 0xF3B JUMP JUMPDEST PUSH1 0x40 MLOAD PUSH2 0x42E SWAP2 SWAP1 PUSH2 0x1944 JUMP JUMPDEST PUSH1 0x40 MLOAD DUP1 SWAP2 SUB SWAP1 RETURN JUMPDEST PUSH2 0x43F PUSH2 0x10C8 JUMP JUMPDEST STOP JUMPDEST PUSH1 0x1 SLOAD DUP2 JUMP JUMPDEST PUSH1 0xB DUP2 DUP2 SLOAD DUP2 LT PUSH2 0x457 JUMPI PUSH1 0x0 DUP1 REVERT JUMPDEST SWAP1 PUSH1 0x0 MSTORE PUSH1 0x20 PUSH1 0x0 KECCAK256 SWAP1 PUSH1 0x3 MUL ADD PUSH1 0x0 SWAP2 POP SWAP1 POP DUP1 PUSH1 0x0 ADD DUP1 SLOAD PUSH2 0x47A SWAP1 PUSH2 0x1995 JUMP JUMPDEST DUP1 PUSH1 0x1F ADD PUSH1 0x20 DUP1 SWAP2 DIV MUL PUSH1 0x20 ADD PUSH1 0x40 MLOAD SWAP1 DUP2 ADD PUSH1 0x40 MSTORE DUP1 SWAP3 SWAP2 SWAP1 DUP2 DUP2 MSTORE PUSH1 0x20 ADD DUP3 DUP1 SLOAD PUSH2 0x4A6 SWAP1 PUSH2 0x1995 JUMP JUMPDEST DUP1 ISZERO PUSH2 0x4F3 JUMPI DUP1 PUSH1 0x1F LT PUSH2 0x4C8 JUMPI PUSH2 0x100 DUP1 DUP4 SLOAD DIV MUL DUP4 MSTORE SWAP2 PUSH1 0x20 ADD SWAP2 PUSH2 0x4F3 JUMP JUMPDEST DUP3 ADD SWAP2 SWAP1 PUSH1 0x0 MSTORE PUSH1 0x20 PUSH1 0x0 KECCAK256 SWAP1 JUMPDEST DUP2 SLOAD DUP2 MSTORE SWAP1 PUSH1 0x1 ADD SWAP1 PUSH1 0x20 ADD DUP1 DUP4 GT PUSH2 0x4D6 JUMPI DUP3 SWAP1 SUB PUSH1 0x1F AND DUP3 ADD SWAP2 JUMPDEST POP POP POP POP POP SWAP1 DUP1 PUSH1 0x1 ADD DUP1 SLOAD PUSH2 0x508 SWAP1 PUSH2 0x1995 JUMP JUMPDEST DUP1 PUSH1 0x1F ADD PUSH1 0x20 DUP1 SWAP2 DIV MUL PUSH1 0x20 ADD PUSH1 0x40 MLOAD SWAP1 DUP2 ADD PUSH1 0x40 MSTORE DUP1 SWAP3 SWAP2 SWAP1 DUP2 DUP2 MSTORE PUSH1 0x20 ADD DUP3 DUP1 SLOAD PUSH2 0x534 SWAP1 PUSH2 0x1995 JUMP JUMPDEST DUP1 ISZERO PUSH2 0x581 JUMPI DUP1 PUSH1 0x1F LT PUSH2 0x556 JUMPI PUSH2 0x100 DUP1 DUP4 SLOAD DIV MUL DUP4 MSTORE SWAP2 PUSH1 0x20 ADD SWAP2 PUSH2 0x581 JUMP JUMPDEST DUP3 ADD SWAP2 SWAP1 PUSH1 0x0 MSTORE PUSH1 0x20 PUSH1 0x0 KECCAK256 SWAP1 JUMPDEST DUP2 SLOAD DUP2 MSTORE SWAP1 PUSH1 0x1 ADD SWAP1 PUSH1 0x20 ADD DUP1 DUP4 GT PUSH2 0x564 JUMPI DUP3 SWAP1 SUB PUSH1 0x1F AND DUP3 ADD SWAP2 JUMPDEST POP POP POP POP POP SWAP1 DUP1 PUSH1 0x2 ADD SLOAD SWAP1 POP DUP4 JUMP JUMPDEST PUSH1 0x0 DUP1 SLOAD SWAP1 PUSH2 0x100 EXP SWAP1 DIV PUSH1 0xFF AND DUP2 JUMP JUMPDEST DUP1 PUSH1 0x0 DUP1 PUSH2 0x100 EXP DUP2 SLOAD DUP2 PUSH1 0xFF MUL NOT AND SWAP1 DUP4 ISZERO ISZERO MUL OR SWAP1 SSTORE POP POP JUMP JUMPDEST PUSH1 0x60 PUSH1 0x40 MLOAD DUP1 PUSH1 0x40 ADD PUSH1 0x40 MSTORE DUP1 PUSH1 0x6 DUP2 MSTORE PUSH1 0x20 ADD PUSH32 0x307856656C690000000000000000000000000000000000000000000000000000 DUP2 MSTORE POP SWAP1 POP SWAP1 JUMP JUMPDEST PUSH1 0xA PUSH1 0x20 MSTORE DUP1 PUSH1 0x0 MSTORE PUSH1 0x40 PUSH1 0x0 KECCAK256 PUSH1 0x0 SWAP2 POP SWAP1 POP DUP1 PUSH1 0x0 ADD DUP1 SLOAD PUSH2 0x61E SWAP1 PUSH2 0x1995 JUMP JUMPDEST DUP1 PUSH1 0x1F ADD PUSH1 0x20 DUP1 SWAP2 DIV MUL PUSH1 0x20 ADD PUSH1 0x40 MLOAD SWAP1 DUP2 ADD PUSH1 0x40 MSTORE DUP1 SWAP3 SWAP2 SWAP1 DUP2 DUP2 MSTORE PUSH1 0x20 ADD DUP3 DUP1 SLOAD PUSH2 0x64A SWAP1 PUSH2 0x1995 JUMP JUMPDEST DUP1 ISZERO PUSH2 0x697 JUMPI DUP1 PUSH1 0x1F LT PUSH2 0x66C JUMPI PUSH2 0x100 DUP1 DUP4 SLOAD DIV MUL DUP4 MSTORE SWAP2 PUSH1 0x20 ADD SWAP2 PUSH2 0x697 JUMP JUMPDEST DUP3 ADD SWAP2 SWAP1 PUSH1 0x0 MSTORE PUSH1 0x20 PUSH1 0x0 KECCAK256 SWAP1 JUMPDEST DUP2 SLOAD DUP2 MSTORE SWAP1 PUSH1 0x1 ADD SWAP1 PUSH1 0x20 ADD DUP1 DUP4 GT PUSH2 0x67A JUMPI DUP3 SWAP1 SUB PUSH1 0x1F AND DUP3 ADD SWAP2 JUMPDEST POP POP POP POP POP SWAP1 DUP1 PUSH1 0x1 ADD DUP1 SLOAD PUSH2 0x6AC SWAP1 PUSH2 0x1995 JUMP JUMPDEST DUP1 PUSH1 0x1F ADD PUSH1 0x20 DUP1 SWAP2 DIV MUL PUSH1 0x20 ADD PUSH1 0x40 MLOAD SWAP1 DUP2 ADD PUSH1 0x40 MSTORE DUP1 SWAP3 SWAP2 SWAP1 DUP2 DUP2 MSTORE PUSH1 0x20 ADD DUP3 DUP1 SLOAD PUSH2 0x6D8 SWAP1 PUSH2 0x1995 JUMP JUMPDEST DUP1 ISZERO PUSH2 0x725 JUMPI DUP1 PUSH1 0x1F LT PUSH2 0x6FA JUMPI PUSH2 0x100 DUP1 DUP4 SLOAD DIV MUL DUP4 MSTORE SWAP2 PUSH1 0x20 ADD SWAP2 PUSH2 0x725 JUMP JUMPDEST DUP3 ADD SWAP2 SWAP1 PUSH1 0x0 MSTORE PUSH1 0x20 PUSH1 0x0 KECCAK256 SWAP1 JUMPDEST DUP2 SLOAD DUP2 MSTORE SWAP1 PUSH1 0x1 ADD SWAP1 PUSH1 0x20 ADD DUP1 DUP4 GT PUSH2 0x708 JUMPI DUP3 SWAP1 SUB PUSH1 0x1F AND DUP3 ADD SWAP2 JUMPDEST POP POP POP POP POP SWAP1 DUP1 PUSH1 0x2 ADD SLOAD SWAP1 POP DUP4 JUMP JUMPDEST PUSH1 0x2 SLOAD DUP2 JUMP JUMPDEST PUSH1 0xA PUSH1 0xC SLOAD LT PUSH2 0x780 JUMPI PUSH1 0x40 MLOAD PUSH32 0x8C379A000000000000000000000000000000000000000000000000000000000 DUP2 MSTORE PUSH1 0x4 ADD PUSH2 0x777 SWAP1 PUSH2 0x1A12 JUMP JUMPDEST PUSH1 0x40 MLOAD DUP1 SWAP2 SUB SWAP1 REVERT JUMPDEST PUSH1 0xB DUP2 SWAP1 DUP1 PUSH1 0x1 DUP2 SLOAD ADD DUP1 DUP3 SSTORE DUP1 SWAP2 POP POP PUSH1 0x1 SWAP1 SUB SWAP1 PUSH1 0x0 MSTORE PUSH1 0x20 PUSH1 0x0 KECCAK256 SWAP1 PUSH1 0x3 MUL ADD PUSH1 0x0 SWAP1 SWAP2 SWAP1 SWAP2 SWAP1 SWAP2 POP PUSH1 0x0 DUP3 ADD MLOAD DUP2 PUSH1 0x0 ADD SWAP1 DUP2 PUSH2 0x7C1 SWAP2 SWAP1 PUSH2 0x1BDE JUMP JUMPDEST POP PUSH1 0x20 DUP3 ADD MLOAD DUP2 PUSH1 0x1 ADD SWAP1 DUP2 PUSH2 0x7D7 SWAP2 SWAP1 PUSH2 0x1BDE JUMP JUMPDEST POP PUSH1 0x40 DUP3 ADD MLOAD DUP2 PUSH1 0x2 ADD SSTORE POP POP POP JUMP JUMPDEST PUSH1 0x0 PUSH1 0x2 SWAP1 POP SWAP1 JUMP JUMPDEST DUP1 PUSH1 0x7 PUSH1 0x0 DUP3 ADD MLOAD DUP2 PUSH1 0x0 ADD SWAP1 DUP2 PUSH2 0x808 SWAP2 SWAP1 PUSH2 0x1BDE JUMP JUMPDEST POP PUSH1 0x20 DUP3 ADD MLOAD DUP2 PUSH1 0x1 ADD SWAP1 DUP2 PUSH2 0x81E SWAP2 SWAP1 PUSH2 0x1BDE JUMP JUMPDEST POP PUSH1 0x40 DUP3 ADD MLOAD DUP2 PUSH1 0x2 ADD SSTORE SWAP1 POP POP POP JUMP JUMPDEST PUSH1 0x60 PUSH1 0x40 MLOAD DUP1 PUSH1 0x40 ADD PUSH1 0x40 MSTORE DUP1 PUSH1 0xB DUP2 MSTORE PUSH1 0x20 ADD PUSH32 0x4920616D20726561647921000000000000000000000000000000000000000000 DUP2 MSTORE POP SWAP1 POP SWAP1 JUMP JUMPDEST PUSH1 0x3 PUSH1 0x0 PUSH1 0x6 PUSH1 0x0 SWAP1 SLOAD SWAP1 PUSH2 0x100 EXP SWAP1 DIV PUSH20 0xFFFFFFFFFFFFFFFFFFFFFFFFFFFFFFFFFFFFFFFF AND PUSH20 0xFFFFFFFFFFFFFFFFFFFFFFFFFFFFFFFFFFFFFFFF AND PUSH20 0xFFFFFFFFFFFFFFFFFFFFFFFFFFFFFFFFFFFFFFFF AND DUP2 MSTORE PUSH1 0x20 ADD SWAP1 DUP2 MSTORE PUSH1 0x20 ADD PUSH1 0x0 KECCAK256 PUSH1 0x0 CALLER PUSH20 0xFFFFFFFFFFFFFFFFFFFFFFFFFFFFFFFFFFFFFFFF AND PUSH20 0xFFFFFFFFFFFFFFFFFFFFFFFFFFFFFFFFFFFFFFFF AND DUP2 MSTORE PUSH1 0x20 ADD SWAP1 DUP2 MSTORE PUSH1 0x20 ADD PUSH1 0x0 KECCAK256 PUSH1 0x0 SWAP1 SLOAD SWAP1 PUSH2 0x100 EXP SWAP1 DIV PUSH1 0xFF AND PUSH1 0x4 PUSH1 0x0 PUSH1 0x2 DUP2 LT PUSH2 0x92D JUMPI PUSH2 0x92C PUSH2 0x1CB0 JUMP JUMPDEST JUMPDEST ADD SWAP1 PUSH2 0x96F JUMPI PUSH1 0x40 MLOAD PUSH32 0x8C379A000000000000000000000000000000000000000000000000000000000 DUP2 MSTORE PUSH1 0x4 ADD PUSH2 0x966 SWAP2 SWAP1 PUSH2 0x1D63 JUMP JUMPDEST PUSH1 0x40 MLOAD DUP1 SWAP2 SUB SWAP1 REVERT JUMPDEST POP DUP1 PUSH1 0x1 SLOAD PUSH2 0x97E SWAP2 SWAP1 PUSH2 0x1DB4 JUMP JUMPDEST PUSH1 0x1 DUP2 SWAP1 SSTORE POP POP JUMP JUMPDEST CALLER PUSH20 0xFFFFFFFFFFFFFFFFFFFFFFFFFFFFFFFFFFFFFFFF AND PUSH1 0x6 PUSH1 0x0 SWAP1 SLOAD SWAP1 PUSH2 0x100 EXP SWAP1 DIV PUSH20 0xFFFFFFFFFFFFFFFFFFFFFFFFFFFFFFFFFFFFFFFF AND PUSH20 0xFFFFFFFFFFFFFFFFFFFFFFFFFFFFFFFFFFFFFFFF AND EQ PUSH1 0x4 PUSH1 0x1 PUSH1 0x2 DUP2 LT PUSH2 0x9ED JUMPI PUSH2 0x9EC PUSH2 0x1CB0 JUMP JUMPDEST JUMPDEST ADD SWAP1 PUSH2 0xA2F JUMPI PUSH1 0x40 MLOAD PUSH32 0x8C379A000000000000000000000000000000000000000000000000000000000 DUP2 MSTORE PUSH1 0x4 ADD PUSH2 0xA26 SWAP2 SWAP1 PUSH2 0x1D63 JUMP JUMPDEST PUSH1 0x40 MLOAD DUP1 SWAP2 SUB SWAP1 REVERT JUMPDEST POP PUSH1 0x1 PUSH1 0x3 PUSH1 0x0 PUSH1 0x6 PUSH1 0x0 SWAP1 SLOAD SWAP1 PUSH2 0x100 EXP SWAP1 DIV PUSH20 0xFFFFFFFFFFFFFFFFFFFFFFFFFFFFFFFFFFFFFFFF AND PUSH20 0xFFFFFFFFFFFFFFFFFFFFFFFFFFFFFFFFFFFFFFFF AND PUSH20 0xFFFFFFFFFFFFFFFFFFFFFFFFFFFFFFFFFFFFFFFF AND DUP2 MSTORE PUSH1 0x20 ADD SWAP1 DUP2 MSTORE PUSH1 0x20 ADD PUSH1 0x0 KECCAK256 PUSH1 0x0 DUP4 PUSH20 0xFFFFFFFFFFFFFFFFFFFFFFFFFFFFFFFFFFFFFFFF AND PUSH20 0xFFFFFFFFFFFFFFFFFFFFFFFFFFFFFFFFFFFFFFFF AND DUP2 MSTORE PUSH1 0x20 ADD SWAP1 DUP2 MSTORE PUSH1 0x20 ADD PUSH1 0x0 KECCAK256 PUSH1 0x0 PUSH2 0x100 EXP DUP2 SLOAD DUP2 PUSH1 0xFF MUL NOT AND SWAP1 DUP4 ISZERO ISZERO MUL OR SWAP1 SSTORE POP POP JUMP JUMPDEST PUSH1 0x60 PUSH1 0x40 MLOAD DUP1 PUSH1 0x40 ADD PUSH1 0x40 MSTORE DUP1 PUSH1 0xA DUP2 MSTORE PUSH1 0x20 ADD PUSH32 0x56656C6920557973616C00000000000000000000000000000000000000000000 DUP2 MSTORE POP SWAP1 POP SWAP1 JUMP JUMPDEST PUSH1 0x6 PUSH1 0x0 SWAP1 SLOAD SWAP1 PUSH2 0x100 EXP SWAP1 DIV PUSH20 0xFFFFFFFFFFFFFFFFFFFFFFFFFFFFFFFFFFFFFFFF AND DUP2 JUMP JUMPDEST DUP3 PUSH1 0x7 PUSH1 0x0 ADD SWAP1 DUP2 PUSH2 0xB5F SWAP2 SWAP1 PUSH2 0x1BDE JUMP JUMPDEST POP DUP2 PUSH1 0x7 PUSH1 0x1 ADD SWAP1 DUP2 PUSH2 0xB72 SWAP2 SWAP1 PUSH2 0x1BDE JUMP JUMPDEST POP DUP1 PUSH1 0x7 PUSH1 0x2 ADD DUP2 SWAP1 SSTORE POP POP POP POP JUMP JUMPDEST PUSH1 0x3 PUSH1 0x0 PUSH1 0x6 PUSH1 0x0 SWAP1 SLOAD SWAP1 PUSH2 0x100 EXP SWAP1 DIV PUSH20 0xFFFFFFFFFFFFFFFFFFFFFFFFFFFFFFFFFFFFFFFF AND PUSH20 0xFFFFFFFFFFFFFFFFFFFFFFFFFFFFFFFFFFFFFFFF AND PUSH20 0xFFFFFFFFFFFFFFFFFFFFFFFFFFFFFFFFFFFFFFFF AND DUP2 MSTORE PUSH1 0x20 ADD SWAP1 DUP2 MSTORE PUSH1 0x20 ADD PUSH1 0x0 KECCAK256 PUSH1 0x0 CALLER PUSH20 0xFFFFFFFFFFFFFFFFFFFFFFFFFFFFFFFFFFFFFFFF AND PUSH20 0xFFFFFFFFFFFFFFFFFFFFFFFFFFFFFFFFFFFFFFFF AND DUP2 MSTORE PUSH1 0x20 ADD SWAP1 DUP2 MSTORE PUSH1 0x20 ADD PUSH1 0x0 KECCAK256 PUSH1 0x0 SWAP1 SLOAD SWAP1 PUSH2 0x100 EXP SWAP1 DIV PUSH1 0xFF AND PUSH1 0x4 PUSH1 0x0 PUSH1 0x2 DUP2 LT PUSH2 0xC43 JUMPI PUSH2 0xC42 PUSH2 0x1CB0 JUMP JUMPDEST JUMPDEST ADD SWAP1 PUSH2 0xC85 JUMPI PUSH1 0x40 MLOAD PUSH32 0x8C379A000000000000000000000000000000000000000000000000000000000 DUP2 MSTORE PUSH1 0x4 ADD PUSH2 0xC7C SWAP2 SWAP1 PUSH2 0x1D63 JUMP JUMPDEST PUSH1 0x40 MLOAD DUP1 SWAP2 SUB SWAP1 REVERT JUMPDEST POP JUMP JUMPDEST DUP1 PUSH1 0xA PUSH1 0x0 CALLER PUSH20 0xFFFFFFFFFFFFFFFFFFFFFFFFFFFFFFFFFFFFFFFF AND PUSH20 0xFFFFFFFFFFFFFFFFFFFFFFFFFFFFFFFFFFFFFFFF AND DUP2 MSTORE PUSH1 0x20 ADD SWAP1 DUP2 MSTORE PUSH1 0x20 ADD PUSH1 0x0 KECCAK256 PUSH1 0x0 DUP3 ADD MLOAD DUP2 PUSH1 0x0 ADD SWAP1 DUP2 PUSH2 0xCDD SWAP2 SWAP1 PUSH2 0x1BDE JUMP JUMPDEST POP PUSH1 0x20 DUP3 ADD MLOAD DUP2 PUSH1 0x1 ADD SWAP1 DUP2 PUSH2 0xCF3 SWAP2 SWAP1 PUSH2 0x1BDE JUMP JUMPDEST POP PUSH1 0x40 DUP3 ADD MLOAD DUP2 PUSH1 0x2 ADD SSTORE SWAP1 POP POP POP JUMP JUMPDEST DUP1 PUSH1 0x2 SLOAD PUSH2 0xD12 SWAP2 SWAP1 PUSH2 0x1DE8 JUMP JUMPDEST PUSH1 0x2 DUP2 SWAP1 SSTORE POP POP JUMP JUMPDEST PUSH1 0x4 DUP2 PUSH1 0x2 DUP2 LT PUSH2 0xD2B JUMPI PUSH1 0x0 DUP1 REVERT JUMPDEST ADD PUSH1 0x0 SWAP2 POP SWAP1 POP DUP1 SLOAD PUSH2 0xD3D SWAP1 PUSH2 0x1995 JUMP JUMPDEST DUP1 PUSH1 0x1F ADD PUSH1 0x20 DUP1 SWAP2 DIV MUL PUSH1 0x20 ADD PUSH1 0x40 MLOAD SWAP1 DUP2 ADD PUSH1 0x40 MSTORE DUP1 SWAP3 SWAP2 SWAP1 DUP2 DUP2 MSTORE PUSH1 0x20 ADD DUP3 DUP1 SLOAD PUSH2 0xD69 SWAP1 PUSH2 0x1995 JUMP JUMPDEST DUP1 ISZERO PUSH2 0xDB6 JUMPI DUP1 PUSH1 0x1F LT PUSH2 0xD8B JUMPI PUSH2 0x100 DUP1 DUP4 SLOAD DIV MUL DUP4 MSTORE SWAP2 PUSH1 0x20 ADD SWAP2 PUSH2 0xDB6 JUMP JUMPDEST DUP3 ADD SWAP2 SWAP1 PUSH1 0x0 MSTORE PUSH1 0x20 PUSH1 0x0 KECCAK256 SWAP1 JUMPDEST DUP2 SLOAD DUP2 MSTORE SWAP1 PUSH1 0x1 ADD SWAP1 PUSH1 0x20 ADD DUP1 DUP4 GT PUSH2 0xD99 JUMPI DUP3 SWAP1 SUB PUSH1 0x1F AND DUP3 ADD SWAP2 JUMPDEST POP POP POP POP POP DUP2 JUMP JUMPDEST PUSH2 0xDC6 PUSH2 0x10E0 JUMP JUMPDEST PUSH1 0x0 PUSH1 0x7 PUSH1 0x40 MLOAD DUP1 PUSH1 0x60 ADD PUSH1 0x40 MSTORE SWAP1 DUP2 PUSH1 0x0 DUP3 ADD DUP1 SLOAD PUSH2 0xDE5 SWAP1 PUSH2 0x1995 JUMP JUMPDEST DUP1 PUSH1 0x1F ADD PUSH1 0x20 DUP1 SWAP2 DIV MUL PUSH1 0x20 ADD PUSH1 0x40 MLOAD SWAP1 DUP2 ADD PUSH1 0x40 MSTORE DUP1 SWAP3 SWAP2 SWAP1 DUP2 DUP2 MSTORE PUSH1 0x20 ADD DUP3 DUP1 SLOAD PUSH2 0xE11 SWAP1 PUSH2 0x1995 JUMP JUMPDEST DUP1 ISZERO PUSH2 0xE5E JUMPI DUP1 PUSH1 0x1F LT PUSH2 0xE33 JUMPI PUSH2 0x100 DUP1 DUP4 SLOAD DIV MUL DUP4 MSTORE SWAP2 PUSH1 0x20 ADD SWAP2 PUSH2 0xE5E JUMP JUMPDEST DUP3 ADD SWAP2 SWAP1 PUSH1 0x0 MSTORE PUSH1 0x20 PUSH1 0x0 KECCAK256 SWAP1 JUMPDEST DUP2 SLOAD DUP2 MSTORE SWAP1 PUSH1 0x1 ADD SWAP1 PUSH1 0x20 ADD DUP1 DUP4 GT PUSH2 0xE41 JUMPI DUP3 SWAP1 SUB PUSH1 0x1F AND DUP3 ADD SWAP2 JUMPDEST POP POP POP POP POP DUP2 MSTORE PUSH1 0x20 ADD PUSH1 0x1 DUP3 ADD DUP1 SLOAD PUSH2 0xE77 SWAP1 PUSH2 0x1995 JUMP JUMPDEST DUP1 PUSH1 0x1F ADD PUSH1 0x20 DUP1 SWAP2 DIV MUL PUSH1 0x20 ADD PUSH1 0x40 MLOAD SWAP1 DUP2 ADD PUSH1 0x40 MSTORE DUP1 SWAP3 SWAP2 SWAP1 DUP2 DUP2 MSTORE PUSH1 0x20 ADD DUP3 DUP1 SLOAD PUSH2 0xEA3 SWAP1 PUSH2 0x1995 JUMP JUMPDEST DUP1 ISZERO PUSH2 0xEF0 JUMPI DUP1 PUSH1 0x1F LT PUSH2 0xEC5 JUMPI PUSH2 0x100 DUP1 DUP4 SLOAD DIV MUL DUP4 MSTORE SWAP2 PUSH1 0x20 ADD SWAP2 PUSH2 0xEF0 JUMP JUMPDEST DUP3 ADD SWAP2 SWAP1 PUSH1 0x0 MSTORE PUSH1 0x20 PUSH1 0x0 KECCAK256 SWAP1 JUMPDEST DUP2 SLOAD DUP2 MSTORE SWAP1 PUSH1 0x1 ADD SWAP1 PUSH1 0x20 ADD DUP1 DUP4 GT PUSH2 0xED3 JUMPI DUP3 SWAP1 SUB PUSH1 0x1F AND DUP3 ADD SWAP2 JUMPDEST POP POP POP POP POP DUP2 MSTORE PUSH1 0x20 ADD PUSH1 0x2 DUP3 ADD SLOAD DUP2 MSTORE POP POP SWAP1 POP DUP1 SWAP2 POP POP SWAP1 JUMP JUMPDEST PUSH1 0x3 PUSH1 0x20 MSTORE DUP2 PUSH1 0x0 MSTORE PUSH1 0x40 PUSH1 0x0 KECCAK256 PUSH1 0x20 MSTORE DUP1 PUSH1 0x0 MSTORE PUSH1 0x40 PUSH1 0x0 KECCAK256 PUSH1 0x0 SWAP2 POP SWAP2 POP SWAP1 SLOAD SWAP1 PUSH2 0x100 EXP SWAP1 DIV PUSH1 0xFF AND DUP2 JUMP JUMPDEST PUSH1 0x60 PUSH1 0xB DUP1 SLOAD DUP1 PUSH1 0x20 MUL PUSH1 0x20 ADD PUSH1 0x40 MLOAD SWAP1 DUP2 ADD PUSH1 0x40 MSTORE DUP1 SWAP3 SWAP2 SWAP1 DUP2 DUP2 MSTORE PUSH1 0x20 ADD PUSH1 0x0 SWAP1 JUMPDEST DUP3 DUP3 LT ISZERO PUSH2 0x10BF JUMPI DUP4 DUP3 SWAP1 PUSH1 0x0 MSTORE PUSH1 0x20 PUSH1 0x0 KECCAK256 SWAP1 PUSH1 0x3 MUL ADD PUSH1 0x40 MLOAD DUP1 PUSH1 0x60 ADD PUSH1 0x40 MSTORE SWAP1 DUP2 PUSH1 0x0 DUP3 ADD DUP1 SLOAD PUSH2 0xF92 SWAP1 PUSH2 0x1995 JUMP JUMPDEST DUP1 PUSH1 0x1F ADD PUSH1 0x20 DUP1 SWAP2 DIV MUL PUSH1 0x20 ADD PUSH1 0x40 MLOAD SWAP1 DUP2 ADD PUSH1 0x40 MSTORE DUP1 SWAP3 SWAP2 SWAP1 DUP2 DUP2 MSTORE PUSH1 0x20 ADD DUP3 DUP1 SLOAD PUSH2 0xFBE SWAP1 PUSH2 0x1995 JUMP JUMPDEST DUP1 ISZERO PUSH2 0x100B JUMPI DUP1 PUSH1 0x1F LT PUSH2 0xFE0 JUMPI PUSH2 0x100 DUP1 DUP4 SLOAD DIV MUL DUP4 MSTORE SWAP2 PUSH1 0x20 ADD SWAP2 PUSH2 0x100B JUMP JUMPDEST DUP3 ADD SWAP2 SWAP1 PUSH1 0x0 MSTORE PUSH1 0x20 PUSH1 0x0 KECCAK256 SWAP1 JUMPDEST DUP2 SLOAD DUP2 MSTORE SWAP1 PUSH1 0x1 ADD SWAP1 PUSH1 0x20 ADD DUP1 DUP4 GT PUSH2 0xFEE JUMPI DUP3 SWAP1 SUB PUSH1 0x1F AND DUP3 ADD SWAP2 JUMPDEST POP POP POP POP POP DUP2 MSTORE PUSH1 0x20 ADD PUSH1 0x1 DUP3 ADD DUP1 SLOAD PUSH2 0x1024 SWAP1 PUSH2 0x1995 JUMP JUMPDEST DUP1 PUSH1 0x1F ADD PUSH1 0x20 DUP1 SWAP2 DIV MUL PUSH1 0x20 ADD PUSH1 0x40 MLOAD SWAP1 DUP2 ADD PUSH1 0x40 MSTORE DUP1 SWAP3 SWAP2 SWAP1 DUP2 DUP2 MSTORE PUSH1 0x20 ADD DUP3 DUP1 SLOAD PUSH2 0x1050 SWAP1 PUSH2 0x1995 JUMP JUMPDEST DUP1 ISZERO PUSH2 0x109D JUMPI DUP1 PUSH1 0x1F LT PUSH2 0x1072 JUMPI PUSH2 0x100 DUP1 DUP4 SLOAD DIV MUL DUP4 MSTORE SWAP2 PUSH1 0x20 ADD SWAP2 PUSH2 0x109D JUMP JUMPDEST DUP3 ADD SWAP2 SWAP1 PUSH1 0x0 MSTORE PUSH1 0x20 PUSH1 0x0 KECCAK256 SWAP1 JUMPDEST DUP2 SLOAD DUP2 MSTORE SWAP1 PUSH1 0x1 ADD SWAP1 PUSH1 0x20 ADD DUP1 DUP4 GT PUSH2 0x1080 JUMPI DUP3 SWAP1 SUB PUSH1 0x1F AND DUP3 ADD SWAP2 JUMPDEST POP POP POP POP POP DUP2 MSTORE PUSH1 0x20 ADD PUSH1 0x2 DUP3 ADD SLOAD DUP2 MSTORE POP POP DUP2 MSTORE PUSH1 0x20 ADD SWAP1 PUSH1 0x1 ADD SWAP1 PUSH2 0xF5F JUMP JUMPDEST POP POP POP POP SWAP1 POP SWAP1 JUMP JUMPDEST PUSH1 0x1 PUSH1 0x0 DUP2 SLOAD PUSH2 0x10D7 SWAP1 PUSH2 0x1E2C JUMP JUMPDEST SWAP2 SWAP1 POP DUP2 SWAP1 SSTORE POP JUMP JUMPDEST PUSH1 0x40 MLOAD DUP1 PUSH1 0x60 ADD PUSH1 0x40 MSTORE DUP1 PUSH1 0x60 DUP2 MSTORE PUSH1 0x20 ADD PUSH1 0x60 DUP2 MSTORE PUSH1 0x20 ADD PUSH1 0x0 DUP2 MSTORE POP SWAP1 JUMP JUMPDEST PUSH1 0x0 DUP2 SWAP1 POP SWAP2 SWAP1 POP JUMP JUMPDEST PUSH2 0x1114 DUP2 PUSH2 0x1101 JUMP JUMPDEST DUP3 MSTORE POP POP JUMP JUMPDEST PUSH1 0x0 PUSH1 0x20 DUP3 ADD SWAP1 POP PUSH2 0x112F PUSH1 0x0 DUP4 ADD DUP5 PUSH2 0x110B JUMP JUMPDEST SWAP3 SWAP2 POP POP JUMP JUMPDEST PUSH1 0x0 PUSH1 0x40 MLOAD SWAP1 POP SWAP1 JUMP JUMPDEST PUSH1 0x0 DUP1 REVERT JUMPDEST PUSH1 0x0 DUP1 REVERT JUMPDEST PUSH2 0x1152 DUP2 PUSH2 0x1101 JUMP JUMPDEST DUP2 EQ PUSH2 0x115D JUMPI PUSH1 0x0 DUP1 REVERT JUMPDEST POP JUMP JUMPDEST PUSH1 0x0 DUP2 CALLDATALOAD SWAP1 POP PUSH2 0x116F DUP2 PUSH2 0x1149 JUMP JUMPDEST SWAP3 SWAP2 POP POP JUMP JUMPDEST PUSH1 0x0 PUSH1 0x20 DUP3 DUP5 SUB SLT ISZERO PUSH2 0x118B JUMPI PUSH2 0x118A PUSH2 0x113F JUMP JUMPDEST JUMPDEST PUSH1 0x0 PUSH2 0x1199 DUP5 DUP3 DUP6 ADD PUSH2 0x1160 JUMP JUMPDEST SWAP2 POP POP SWAP3 SWAP2 POP POP JUMP JUMPDEST PUSH1 0x0 DUP2 MLOAD SWAP1 POP SWAP2 SWAP1 POP JUMP JUMPDEST PUSH1 0x0 DUP3 DUP3 MSTORE PUSH1 0x20 DUP3 ADD SWAP1 POP SWAP3 SWAP2 POP POP JUMP JUMPDEST PUSH1 0x0 JUMPDEST DUP4 DUP2 LT ISZERO PUSH2 0x11DC JUMPI DUP1 DUP3 ADD MLOAD DUP2 DUP5 ADD MSTORE PUSH1 0x20 DUP2 ADD SWAP1 POP PUSH2 0x11C1 JUMP JUMPDEST PUSH1 0x0 DUP5 DUP5 ADD MSTORE POP POP POP POP JUMP JUMPDEST PUSH1 0x0 PUSH1 0x1F NOT PUSH1 0x1F DUP4 ADD AND SWAP1 POP SWAP2 SWAP1 POP JUMP JUMPDEST PUSH1 0x0 PUSH2 0x1204 DUP3 PUSH2 0x11A2 JUMP JUMPDEST PUSH2 0x120E DUP2 DUP6 PUSH2 0x11AD JUMP JUMPDEST SWAP4 POP PUSH2 0x121E DUP2 DUP6 PUSH1 0x20 DUP7 ADD PUSH2 0x11BE JUMP JUMPDEST PUSH2 0x1227 DUP2 PUSH2 0x11E8 JUMP JUMPDEST DUP5 ADD SWAP2 POP POP SWAP3 SWAP2 POP POP JUMP JUMPDEST PUSH1 0x0 PUSH1 0x60 DUP3 ADD SWAP1 POP DUP2 DUP2 SUB PUSH1 0x0 DUP4 ADD MSTORE PUSH2 0x124C DUP2 DUP7 PUSH2 0x11F9 JUMP JUMPDEST SWAP1 POP DUP2 DUP2 SUB PUSH1 0x20 DUP4 ADD MSTORE PUSH2 0x1260 DUP2 DUP6 PUSH2 0x11F9 JUMP JUMPDEST SWAP1 POP PUSH2 0x126F PUSH1 0x40 DUP4 ADD DUP5 PUSH2 0x110B JUMP JUMPDEST SWAP5 SWAP4 POP POP POP POP JUMP JUMPDEST PUSH1 0x0 DUP2 ISZERO ISZERO SWAP1 POP SWAP2 SWAP1 POP JUMP JUMPDEST PUSH2 0x128C DUP2 PUSH2 0x1277 JUMP JUMPDEST DUP3 MSTORE POP POP JUMP JUMPDEST PUSH1 0x0 PUSH1 0x20 DUP3 ADD SWAP1 POP PUSH2 0x12A7 PUSH1 0x0 DUP4 ADD DUP5 PUSH2 0x1283 JUMP JUMPDEST SWAP3 SWAP2 POP POP JUMP JUMPDEST PUSH2 0x12B6 DUP2 PUSH2 0x1277 JUMP JUMPDEST DUP2 EQ PUSH2 0x12C1 JUMPI PUSH1 0x0 DUP1 REVERT JUMPDEST POP JUMP JUMPDEST PUSH1 0x0 DUP2 CALLDATALOAD SWAP1 POP PUSH2 0x12D3 DUP2 PUSH2 0x12AD JUMP JUMPDEST SWAP3 SWAP2 POP POP JUMP JUMPDEST PUSH1 0x0 PUSH1 0x20 DUP3 DUP5 SUB SLT ISZERO PUSH2 0x12EF JUMPI PUSH2 0x12EE PUSH2 0x113F JUMP JUMPDEST JUMPDEST PUSH1 0x0 PUSH2 0x12FD DUP5 DUP3 DUP6 ADD PUSH2 0x12C4 JUMP JUMPDEST SWAP2 POP POP SWAP3 SWAP2 POP POP JUMP JUMPDEST PUSH1 0x0 PUSH1 0x20 DUP3 ADD SWAP1 POP DUP2 DUP2 SUB PUSH1 0x0 DUP4 ADD MSTORE PUSH2 0x1320 DUP2 DUP5 PUSH2 0x11F9 JUMP JUMPDEST SWAP1 POP SWAP3 SWAP2 POP POP JUMP JUMPDEST PUSH1 0x0 PUSH20 0xFFFFFFFFFFFFFFFFFFFFFFFFFFFFFFFFFFFFFFFF DUP3 AND SWAP1 POP SWAP2 SWAP1 POP JUMP JUMPDEST PUSH1 0x0 PUSH2 0x1353 DUP3 PUSH2 0x1328 JUMP JUMPDEST SWAP1 POP SWAP2 SWAP1 POP JUMP JUMPDEST PUSH2 0x1363 DUP2 PUSH2 0x1348 JUMP JUMPDEST DUP2 EQ PUSH2 0x136E JUMPI PUSH1 0x0 DUP1 REVERT JUMPDEST POP JUMP JUMPDEST PUSH1 0x0 DUP2 CALLDATALOAD SWAP1 POP PUSH2 0x1380 DUP2 PUSH2 0x135A JUMP JUMPDEST SWAP3 SWAP2 POP POP JUMP JUMPDEST PUSH1 0x0 PUSH1 0x20 DUP3 DUP5 SUB SLT ISZERO PUSH2 0x139C JUMPI PUSH2 0x139B PUSH2 0x113F JUMP JUMPDEST JUMPDEST PUSH1 0x0 PUSH2 0x13AA DUP5 DUP3 DUP6 ADD PUSH2 0x1371 JUMP JUMPDEST SWAP2 POP POP SWAP3 SWAP2 POP POP JUMP JUMPDEST PUSH1 0x0 DUP2 SWAP1 POP SWAP2 SWAP1 POP JUMP JUMPDEST PUSH2 0x13C6 DUP2 PUSH2 0x13B3 JUMP JUMPDEST DUP3 MSTORE POP POP JUMP JUMPDEST PUSH1 0x0 PUSH1 0x20 DUP3 ADD SWAP1 POP PUSH2 0x13E1 PUSH1 0x0 DUP4 ADD DUP5 PUSH2 0x13BD JUMP JUMPDEST SWAP3 SWAP2 POP POP JUMP JUMPDEST PUSH1 0x0 DUP1 REVERT JUMPDEST PUSH32 0x4E487B7100000000000000000000000000000000000000000000000000000000 PUSH1 0x0 MSTORE PUSH1 0x41 PUSH1 0x4 MSTORE PUSH1 0x24 PUSH1 0x0 REVERT JUMPDEST PUSH2 0x1424 DUP3 PUSH2 0x11E8 JUMP JUMPDEST DUP2 ADD DUP2 DUP2 LT PUSH8 0xFFFFFFFFFFFFFFFF DUP3 GT OR ISZERO PUSH2 0x1443 JUMPI PUSH2 0x1442 PUSH2 0x13EC JUMP JUMPDEST JUMPDEST DUP1 PUSH1 0x40 MSTORE POP POP POP JUMP JUMPDEST PUSH1 0x0 PUSH2 0x1456 PUSH2 0x1135 JUMP JUMPDEST SWAP1 POP PUSH2 0x1462 DUP3 DUP3 PUSH2 0x141B JUMP JUMPDEST SWAP2 SWAP1 POP JUMP JUMPDEST PUSH1 0x0 DUP1 REVERT JUMPDEST PUSH1 0x0 DUP1 REVERT JUMPDEST PUSH1 0x0 DUP1 REVERT JUMPDEST PUSH1 0x0 PUSH8 0xFFFFFFFFFFFFFFFF DUP3 GT ISZERO PUSH2 0x1491 JUMPI PUSH2 0x1490 PUSH2 0x13EC JUMP JUMPDEST JUMPDEST PUSH2 0x149A DUP3 PUSH2 0x11E8 JUMP JUMPDEST SWAP1 POP PUSH1 0x20 DUP2 ADD SWAP1 POP SWAP2 SWAP1 POP JUMP JUMPDEST DUP3 DUP2 DUP4 CALLDATACOPY PUSH1 0x0 DUP4 DUP4 ADD MSTORE POP POP POP JUMP JUMPDEST PUSH1 0x0 PUSH2 0x14C9 PUSH2 0x14C4 DUP5 PUSH2 0x1476 JUMP JUMPDEST PUSH2 0x144C JUMP JUMPDEST SWAP1 POP DUP3 DUP2 MSTORE PUSH1 0x20 DUP2 ADD DUP5 DUP5 DUP5 ADD GT ISZERO PUSH2 0x14E5 JUMPI PUSH2 0x14E4 PUSH2 0x1471 JUMP JUMPDEST JUMPDEST PUSH2 0x14F0 DUP5 DUP3 DUP6 PUSH2 0x14A7 JUMP JUMPDEST POP SWAP4 SWAP3 POP POP POP JUMP JUMPDEST PUSH1 0x0 DUP3 PUSH1 0x1F DUP4 ADD SLT PUSH2 0x150D JUMPI PUSH2 0x150C PUSH2 0x146C JUMP JUMPDEST JUMPDEST DUP2 CALLDATALOAD PUSH2 0x151D DUP5 DUP3 PUSH1 0x20 DUP7 ADD PUSH2 0x14B6 JUMP JUMPDEST SWAP2 POP POP SWAP3 SWAP2 POP POP JUMP JUMPDEST PUSH1 0x0 PUSH1 0x60 DUP3 DUP5 SUB SLT ISZERO PUSH2 0x153C JUMPI PUSH2 0x153B PUSH2 0x13E7 JUMP JUMPDEST JUMPDEST PUSH2 0x1546 PUSH1 0x60 PUSH2 0x144C JUMP JUMPDEST SWAP1 POP PUSH1 0x0 DUP3 ADD CALLDATALOAD PUSH8 0xFFFFFFFFFFFFFFFF DUP2 GT ISZERO PUSH2 0x1566 JUMPI PUSH2 0x1565 PUSH2 0x1467 JUMP JUMPDEST JUMPDEST PUSH2 0x1572 DUP5 DUP3 DUP6 ADD PUSH2 0x14F8 JUMP JUMPDEST PUSH1 0x0 DUP4 ADD MSTORE POP PUSH1 0x20 DUP3 ADD CALLDATALOAD PUSH8 0xFFFFFFFFFFFFFFFF DUP2 GT ISZERO PUSH2 0x1596 JUMPI PUSH2 0x1595 PUSH2 0x1467 JUMP JUMPDEST JUMPDEST PUSH2 0x15A2 DUP5 DUP3 DUP6 ADD PUSH2 0x14F8 JUMP JUMPDEST PUSH1 0x20 DUP4 ADD MSTORE POP PUSH1 0x40 PUSH2 0x15B6 DUP5 DUP3 DUP6 ADD PUSH2 0x1160 JUMP JUMPDEST PUSH1 0x40 DUP4 ADD MSTORE POP SWAP3 SWAP2 POP POP JUMP JUMPDEST PUSH1 0x0 PUSH1 0x20 DUP3 DUP5 SUB SLT ISZERO PUSH2 0x15D8 JUMPI PUSH2 0x15D7 PUSH2 0x113F JUMP JUMPDEST JUMPDEST PUSH1 0x0 DUP3 ADD CALLDATALOAD PUSH8 0xFFFFFFFFFFFFFFFF DUP2 GT ISZERO PUSH2 0x15F6 JUMPI PUSH2 0x15F5 PUSH2 0x1144 JUMP JUMPDEST JUMPDEST PUSH2 0x1602 DUP5 DUP3 DUP6 ADD PUSH2 0x1526 JUMP JUMPDEST SWAP2 POP POP SWAP3 SWAP2 POP POP JUMP JUMPDEST PUSH2 0x1614 DUP2 PUSH2 0x1348 JUMP JUMPDEST DUP3 MSTORE POP POP JUMP JUMPDEST PUSH1 0x0 PUSH1 0x20 DUP3 ADD SWAP1 POP PUSH2 0x162F PUSH1 0x0 DUP4 ADD DUP5 PUSH2 0x160B JUMP JUMPDEST SWAP3 SWAP2 POP POP JUMP JUMPDEST PUSH1 0x0 DUP1 PUSH1 0x0 PUSH1 0x60 DUP5 DUP7 SUB SLT ISZERO PUSH2 0x164E JUMPI PUSH2 0x164D PUSH2 0x113F JUMP JUMPDEST JUMPDEST PUSH1 0x0 DUP5 ADD CALLDATALOAD PUSH8 0xFFFFFFFFFFFFFFFF DUP2 GT ISZERO PUSH2 0x166C JUMPI PUSH2 0x166B PUSH2 0x1144 JUMP JUMPDEST JUMPDEST PUSH2 0x1678 DUP7 DUP3 DUP8 ADD PUSH2 0x14F8 JUMP JUMPDEST SWAP4 POP POP PUSH1 0x20 DUP5 ADD CALLDATALOAD PUSH8 0xFFFFFFFFFFFFFFFF DUP2 GT ISZERO PUSH2 0x1699 JUMPI PUSH2 0x1698 PUSH2 0x1144 JUMP JUMPDEST JUMPDEST PUSH2 0x16A5 DUP7 DUP3 DUP8 ADD PUSH2 0x14F8 JUMP JUMPDEST SWAP3 POP POP PUSH1 0x40 PUSH2 0x16B6 DUP7 DUP3 DUP8 ADD PUSH2 0x1160 JUMP JUMPDEST SWAP2 POP POP SWAP3 POP SWAP3 POP SWAP3 JUMP JUMPDEST PUSH2 0x16C9 DUP2 PUSH2 0x13B3 JUMP JUMPDEST DUP2 EQ PUSH2 0x16D4 JUMPI PUSH1 0x0 DUP1 REVERT JUMPDEST POP JUMP JUMPDEST PUSH1 0x0 DUP2 CALLDATALOAD SWAP1 POP PUSH2 0x16E6 DUP2 PUSH2 0x16C0 JUMP JUMPDEST SWAP3 SWAP2 POP POP JUMP JUMPDEST PUSH1 0x0 PUSH1 0x20 DUP3 DUP5 SUB SLT ISZERO PUSH2 0x1702 JUMPI PUSH2 0x1701 PUSH2 0x113F JUMP JUMPDEST JUMPDEST PUSH1 0x0 PUSH2 0x1710 DUP5 DUP3 DUP6 ADD PUSH2 0x16D7 JUMP JUMPDEST SWAP2 POP POP SWAP3 SWAP2 POP POP JUMP JUMPDEST PUSH1 0x0 DUP3 DUP3 MSTORE PUSH1 0x20 DUP3 ADD SWAP1 POP SWAP3 SWAP2 POP POP JUMP JUMPDEST PUSH1 0x0 PUSH2 0x1735 DUP3 PUSH2 0x11A2 JUMP JUMPDEST PUSH2 0x173F DUP2 DUP6 PUSH2 0x1719 JUMP JUMPDEST SWAP4 POP PUSH2 0x174F DUP2 DUP6 PUSH1 0x20 DUP7 ADD PUSH2 0x11BE JUMP JUMPDEST PUSH2 0x1758 DUP2 PUSH2 0x11E8 JUMP JUMPDEST DUP5 ADD SWAP2 POP POP SWAP3 SWAP2 POP POP JUMP JUMPDEST PUSH2 0x176C DUP2 PUSH2 0x1101 JUMP JUMPDEST DUP3 MSTORE POP POP JUMP JUMPDEST PUSH1 0x0 PUSH1 0x60 DUP4 ADD PUSH1 0x0 DUP4 ADD MLOAD DUP5 DUP3 SUB PUSH1 0x0 DUP7 ADD MSTORE PUSH2 0x178F DUP3 DUP3 PUSH2 0x172A JUMP JUMPDEST SWAP2 POP POP PUSH1 0x20 DUP4 ADD MLOAD DUP5 DUP3 SUB PUSH1 0x20 DUP7 ADD MSTORE PUSH2 0x17A9 DUP3 DUP3 PUSH2 0x172A JUMP JUMPDEST SWAP2 POP POP PUSH1 0x40 DUP4 ADD MLOAD PUSH2 0x17BE PUSH1 0x40 DUP7 ADD DUP3 PUSH2 0x1763 JUMP JUMPDEST POP DUP1 SWAP2 POP POP SWAP3 SWAP2 POP POP JUMP JUMPDEST PUSH1 0x0 PUSH1 0x20 DUP3 ADD SWAP1 POP DUP2 DUP2 SUB PUSH1 0x0 DUP4 ADD MSTORE PUSH2 0x17E3 DUP2 DUP5 PUSH2 0x1772 JUMP JUMPDEST SWAP1 POP SWAP3 SWAP2 POP POP JUMP JUMPDEST PUSH1 0x0 DUP1 PUSH1 0x40 DUP4 DUP6 SUB SLT ISZERO PUSH2 0x1802 JUMPI PUSH2 0x1801 PUSH2 0x113F JUMP JUMPDEST JUMPDEST PUSH1 0x0 PUSH2 0x1810 DUP6 DUP3 DUP7 ADD PUSH2 0x1371 JUMP JUMPDEST SWAP3 POP POP PUSH1 0x20 PUSH2 0x1821 DUP6 DUP3 DUP7 ADD PUSH2 0x1371 JUMP JUMPDEST SWAP2 POP POP SWAP3 POP SWAP3 SWAP1 POP JUMP JUMPDEST PUSH1 0x0 DUP2 MLOAD SWAP1 POP SWAP2 SWAP1 POP JUMP JUMPDEST PUSH1 0x0 DUP3 DUP3 MSTORE PUSH1 0x20 DUP3 ADD SWAP1 POP SWAP3 SWAP2 POP POP JUMP JUMPDEST PUSH1 0x0 DUP2 SWAP1 POP PUSH1 0x20 DUP3 ADD SWAP1 POP SWAP2 SWAP1 POP JUMP JUMPDEST PUSH1 0x0 PUSH1 0x60 DUP4 ADD PUSH1 0x0 DUP4 ADD MLOAD DUP5 DUP3 SUB PUSH1 0x0 DUP7 ADD MSTORE PUSH2 0x1874 DUP3 DUP3 PUSH2 0x172A JUMP JUMPDEST SWAP2 POP POP PUSH1 0x20 DUP4 ADD MLOAD DUP5 DUP3 SUB PUSH1 0x20 DUP7 ADD MSTORE PUSH2 0x188E DUP3 DUP3 PUSH2 0x172A JUMP JUMPDEST SWAP2 POP POP PUSH1 0x40 DUP4 ADD MLOAD PUSH2 0x18A3 PUSH1 0x40 DUP7 ADD DUP3 PUSH2 0x1763 JUMP JUMPDEST POP DUP1 SWAP2 POP POP SWAP3 SWAP2 POP POP JUMP JUMPDEST PUSH1 0x0 PUSH2 0x18BA DUP4 DUP4 PUSH2 0x1857 JUMP JUMPDEST SWAP1 POP SWAP3 SWAP2 POP POP JUMP JUMPDEST PUSH1 0x0 PUSH1 0x20 DUP3 ADD SWAP1 POP SWAP2 SWAP1 POP JUMP JUMPDEST PUSH1 0x0 PUSH2 0x18DA DUP3 PUSH2 0x182B JUMP JUMPDEST PUSH2 0x18E4 DUP2 DUP6 PUSH2 0x1836 JUMP JUMPDEST SWAP4 POP DUP4 PUSH1 0x20 DUP3 MUL DUP6 ADD PUSH2 0x18F6 DUP6 PUSH2 0x1847 JUMP JUMPDEST DUP1 PUSH1 0x0 JUMPDEST DUP6 DUP2 LT ISZERO PUSH2 0x1932 JUMPI DUP5 DUP5 SUB DUP10 MSTORE DUP2 MLOAD PUSH2 0x1913 DUP6 DUP3 PUSH2 0x18AE JUMP JUMPDEST SWAP5 POP PUSH2 0x191E DUP4 PUSH2 0x18C2 JUMP JUMPDEST SWAP3 POP PUSH1 0x20 DUP11 ADD SWAP10 POP POP PUSH1 0x1 DUP2 ADD SWAP1 POP PUSH2 0x18FA JUMP JUMPDEST POP DUP3 SWAP8 POP DUP8 SWAP6 POP POP POP POP POP POP SWAP3 SWAP2 POP POP JUMP JUMPDEST PUSH1 0x0 PUSH1 0x20 DUP3 ADD SWAP1 POP DUP2 DUP2 SUB PUSH1 0x0 DUP4 ADD MSTORE PUSH2 0x195E DUP2 DUP5 PUSH2 0x18CF JUMP JUMPDEST SWAP1 POP SWAP3 SWAP2 POP POP JUMP JUMPDEST PUSH32 0x4E487B7100000000000000000000000000000000000000000000000000000000 PUSH1 0x0 MSTORE PUSH1 0x22 PUSH1 0x4 MSTORE PUSH1 0x24 PUSH1 0x0 REVERT JUMPDEST PUSH1 0x0 PUSH1 0x2 DUP3 DIV SWAP1 POP PUSH1 0x1 DUP3 AND DUP1 PUSH2 0x19AD JUMPI PUSH1 0x7F DUP3 AND SWAP2 POP JUMPDEST PUSH1 0x20 DUP3 LT DUP2 SUB PUSH2 0x19C0 JUMPI PUSH2 0x19BF PUSH2 0x1966 JUMP JUMPDEST JUMPDEST POP SWAP2 SWAP1 POP JUMP JUMPDEST PUSH32 0x686173206E6F20736C6F74000000000000000000000000000000000000000000 PUSH1 0x0 DUP3 ADD MSTORE POP JUMP JUMPDEST PUSH1 0x0 PUSH2 0x19FC PUSH1 0xB DUP4 PUSH2 0x11AD JUMP JUMPDEST SWAP2 POP PUSH2 0x1A07 DUP3 PUSH2 0x19C6 JUMP JUMPDEST PUSH1 0x20 DUP3 ADD SWAP1 POP SWAP2 SWAP1 POP JUMP JUMPDEST PUSH1 0x0 PUSH1 0x20 DUP3 ADD SWAP1 POP DUP2 DUP2 SUB PUSH1 0x0 DUP4 ADD MSTORE PUSH2 0x1A2B DUP2 PUSH2 0x19EF JUMP JUMPDEST SWAP1 POP SWAP2 SWAP1 POP JUMP JUMPDEST PUSH1 0x0 DUP2 SWAP1 POP DUP2 PUSH1 0x0 MSTORE PUSH1 0x20 PUSH1 0x0 KECCAK256 SWAP1 POP SWAP2 SWAP1 POP JUMP JUMPDEST PUSH1 0x0 PUSH1 0x20 PUSH1 0x1F DUP4 ADD DIV SWAP1 POP SWAP2 SWAP1 POP JUMP JUMPDEST PUSH1 0x0 DUP3 DUP3 SHL SWAP1 POP SWAP3 SWAP2 POP POP JUMP JUMPDEST PUSH1 0x0 PUSH1 0x8 DUP4 MUL PUSH2 0x1A94 PUSH32 0xFFFFFFFFFFFFFFFFFFFFFFFFFFFFFFFFFFFFFFFFFFFFFFFFFFFFFFFFFFFFFFFF DUP3 PUSH2 0x1A57 JUMP JUMPDEST PUSH2 0x1A9E DUP7 DUP4 PUSH2 0x1A57 JUMP JUMPDEST SWAP6 POP DUP1 NOT DUP5 AND SWAP4 POP DUP1 DUP7 AND DUP5 OR SWAP3 POP POP POP SWAP4 SWAP3 POP POP POP JUMP JUMPDEST PUSH1 0x0 DUP2 SWAP1 POP SWAP2 SWAP1 POP JUMP JUMPDEST PUSH1 0x0 PUSH2 0x1ADB PUSH2 0x1AD6 PUSH2 0x1AD1 DUP5 PUSH2 0x1101 JUMP JUMPDEST PUSH2 0x1AB6 JUMP JUMPDEST PUSH2 0x1101 JUMP JUMPDEST SWAP1 POP SWAP2 SWAP1 POP JUMP JUMPDEST PUSH1 0x0 DUP2 SWAP1 POP SWAP2 SWAP1 POP JUMP JUMPDEST PUSH2 0x1AF5 DUP4 PUSH2 0x1AC0 JUMP JUMPDEST PUSH2 0x1B09 PUSH2 0x1B01 DUP3 PUSH2 0x1AE2 JUMP JUMPDEST DUP5 DUP5 SLOAD PUSH2 0x1A64 JUMP JUMPDEST DUP3 SSTORE POP POP POP POP JUMP JUMPDEST PUSH1 0x0 SWAP1 JUMP JUMPDEST PUSH2 0x1B1E PUSH2 0x1B11 JUMP JUMPDEST PUSH2 0x1B29 DUP2 DUP5 DUP5 PUSH2 0x1AEC JUMP JUMPDEST POP POP POP JUMP JUMPDEST JUMPDEST DUP2 DUP2 LT ISZERO PUSH2 0x1B4D JUMPI PUSH2 0x1B42 PUSH1 0x0 DUP3 PUSH2 0x1B16 JUMP JUMPDEST PUSH1 0x1 DUP2 ADD SWAP1 POP PUSH2 0x1B2F JUMP JUMPDEST POP POP JUMP JUMPDEST PUSH1 0x1F DUP3 GT ISZERO PUSH2 0x1B92 JUMPI PUSH2 0x1B63 DUP2 PUSH2 0x1A32 JUMP JUMPDEST PUSH2 0x1B6C DUP5 PUSH2 0x1A47 JUMP JUMPDEST DUP2 ADD PUSH1 0x20 DUP6 LT ISZERO PUSH2 0x1B7B JUMPI DUP2 SWAP1 POP JUMPDEST PUSH2 0x1B8F PUSH2 0x1B87 DUP6 PUSH2 0x1A47 JUMP JUMPDEST DUP4 ADD DUP3 PUSH2 0x1B2E JUMP JUMPDEST POP POP JUMPDEST POP POP POP JUMP JUMPDEST PUSH1 0x0 DUP3 DUP3 SHR SWAP1 POP SWAP3 SWAP2 POP POP JUMP JUMPDEST PUSH1 0x0 PUSH2 0x1BB5 PUSH1 0x0 NOT DUP5 PUSH1 0x8 MUL PUSH2 0x1B97 JUMP JUMPDEST NOT DUP1 DUP4 AND SWAP2 POP POP SWAP3 SWAP2 POP POP JUMP JUMPDEST PUSH1 0x0 PUSH2 0x1BCE DUP4 DUP4 PUSH2 0x1BA4 JUMP JUMPDEST SWAP2 POP DUP3 PUSH1 0x2 MUL DUP3 OR SWAP1 POP SWAP3 SWAP2 POP POP JUMP JUMPDEST PUSH2 0x1BE7 DUP3 PUSH2 0x11A2 JUMP JUMPDEST PUSH8 0xFFFFFFFFFFFFFFFF DUP2 GT ISZERO PUSH2 0x1C00 JUMPI PUSH2 0x1BFF PUSH2 0x13EC JUMP JUMPDEST JUMPDEST PUSH2 0x1C0A DUP3 SLOAD PUSH2 0x1995 JUMP JUMPDEST PUSH2 0x1C15 DUP3 DUP3 DUP6 PUSH2 0x1B51 JUMP JUMPDEST PUSH1 0x0 PUSH1 0x20 SWAP1 POP PUSH1 0x1F DUP4 GT PUSH1 0x1 DUP2 EQ PUSH2 0x1C48 JUMPI PUSH1 0x0 DUP5 ISZERO PUSH2 0x1C36 JUMPI DUP3 DUP8 ADD MLOAD SWAP1 POP JUMPDEST PUSH2 0x1C40 DUP6 DUP3 PUSH2 0x1BC2 JUMP JUMPDEST DUP7 SSTORE POP PUSH2 0x1CA8 JUMP JUMPDEST PUSH1 0x1F NOT DUP5 AND PUSH2 0x1C56 DUP7 PUSH2 0x1A32 JUMP JUMPDEST PUSH1 0x0 JUMPDEST DUP3 DUP2 LT ISZERO PUSH2 0x1C7E JUMPI DUP5 DUP10 ADD MLOAD DUP3 SSTORE PUSH1 0x1 DUP3 ADD SWAP2 POP PUSH1 0x20 DUP6 ADD SWAP5 POP PUSH1 0x20 DUP2 ADD SWAP1 POP PUSH2 0x1C59 JUMP JUMPDEST DUP7 DUP4 LT ISZERO PUSH2 0x1C9B JUMPI DUP5 DUP10 ADD MLOAD PUSH2 0x1C97 PUSH1 0x1F DUP10 AND DUP3 PUSH2 0x1BA4 JUMP JUMPDEST DUP4 SSTORE POP JUMPDEST PUSH1 0x1 PUSH1 0x2 DUP9 MUL ADD DUP9 SSTORE POP POP POP JUMPDEST POP POP POP POP POP POP JUMP JUMPDEST PUSH32 0x4E487B7100000000000000000000000000000000000000000000000000000000 PUSH1 0x0 MSTORE PUSH1 0x32 PUSH1 0x4 MSTORE PUSH1 0x24 PUSH1 0x0 REVERT JUMPDEST PUSH1 0x0 DUP2 SLOAD PUSH2 0x1CEC DUP2 PUSH2 0x1995 JUMP JUMPDEST PUSH2 0x1CF6 DUP2 DUP7 PUSH2 0x11AD JUMP JUMPDEST SWAP5 POP PUSH1 0x1 DUP3 AND PUSH1 0x0 DUP2 EQ PUSH2 0x1D11 JUMPI PUSH1 0x1 DUP2 EQ PUSH2 0x1D27 JUMPI PUSH2 0x1D5A JUMP JUMPDEST PUSH1 0xFF NOT DUP4 AND DUP7 MSTORE DUP2 ISZERO ISZERO PUSH1 0x20 MUL DUP7 ADD SWAP4 POP PUSH2 0x1D5A JUMP JUMPDEST PUSH2 0x1D30 DUP6 PUSH2 0x1A32 JUMP JUMPDEST PUSH1 0x0 JUMPDEST DUP4 DUP2 LT ISZERO PUSH2 0x1D52 JUMPI DUP2 SLOAD DUP2 DUP10 ADD MSTORE PUSH1 0x1 DUP3 ADD SWAP2 POP PUSH1 0x20 DUP2 ADD SWAP1 POP PUSH2 0x1D33 JUMP JUMPDEST DUP1 DUP9 ADD SWAP6 POP POP POP JUMPDEST POP POP POP SWAP3 SWAP2 POP POP JUMP JUMPDEST PUSH1 0x0 PUSH1 0x20 DUP3 ADD SWAP1 POP DUP2 DUP2 SUB PUSH1 0x0 DUP4 ADD MSTORE PUSH2 0x1D7D DUP2 DUP5 PUSH2 0x1CDF JUMP JUMPDEST SWAP1 POP SWAP3 SWAP2 POP POP JUMP JUMPDEST PUSH32 0x4E487B7100000000000000000000000000000000000000000000000000000000 PUSH1 0x0 MSTORE PUSH1 0x11 PUSH1 0x4 MSTORE PUSH1 0x24 PUSH1 0x0 REVERT JUMPDEST PUSH1 0x0 PUSH2 0x1DBF DUP3 PUSH2 0x1101 JUMP JUMPDEST SWAP2 POP PUSH2 0x1DCA DUP4 PUSH2 0x1101 JUMP JUMPDEST SWAP3 POP DUP3 DUP3 ADD SWAP1 POP DUP1 DUP3 GT ISZERO PUSH2 0x1DE2 JUMPI PUSH2 0x1DE1 PUSH2 0x1D85 JUMP JUMPDEST JUMPDEST SWAP3 SWAP2 POP POP JUMP JUMPDEST PUSH1 0x0 PUSH2 0x1DF3 DUP3 PUSH2 0x13B3 JUMP JUMPDEST SWAP2 POP PUSH2 0x1DFE DUP4 PUSH2 0x13B3 JUMP JUMPDEST SWAP3 POP DUP3 DUP3 ADD SWAP1 POP DUP3 DUP2 SLT ISZERO PUSH1 0x0 DUP4 SLT AND DUP4 DUP3 SLT PUSH1 0x0 DUP5 SLT ISZERO AND OR ISZERO PUSH2 0x1E26 JUMPI PUSH2 0x1E25 PUSH2 0x1D85 JUMP JUMPDEST JUMPDEST SWAP3 SWAP2 POP POP JUMP JUMPDEST PUSH1 0x0 PUSH2 0x1E37 DUP3 PUSH2 0x1101 JUMP JUMPDEST SWAP2 POP PUSH32 0xFFFFFFFFFFFFFFFFFFFFFFFFFFFFFFFFFFFFFFFFFFFFFFFFFFFFFFFFFFFFFFFF DUP3 SUB PUSH2 0x1E69 JUMPI PUSH2 0x1E68 PUSH2 0x1D85 JUMP JUMPDEST JUMPDEST PUSH1 0x1 DUP3 ADD SWAP1 POP SWAP2 SWAP1 POP JUMP INVALID LOG2 PUSH5 0x6970667358 0x22 SLT KECCAK256 0xAC 0xA6 0xFC 0xD 0xF8 0x27 0xB5 0xE 0xFC 0x1E 0xB2 0xBF GT 0xD6 0xAE LT 0xEB TIMESTAMP 0xB8 0xE2 CODESIZE LOG0 0xA7 SIGNEXTEND PUSH17 0x1AD30F6D4D30F64736F6C634300081200 CALLER "
				},
				"gasEstimates": {
					"creation": {
						"codeDepositCost": "1570000",
						"executionCost": "infinite",
						"totalCost": "infinite"
					},
					"external": {
						"WhoAmI()": "infinite",
						"accountValues(address)": "infinite",
						"addAdmin((string,string,uint256))": "infinite",
						"admins(uint256)": "infinite",
						"allowance(address,address)": "infinite",
						"allowed()": "2536",
						"assignAddressValues((string,string,uint256))": "infinite",
						"assignAllowence(address)": "infinite",
						"assignValue(string,string,uint256)": "infinite",
						"assignValueStruct((string,string,uint256))": "infinite",
						"buy()": "infinite",
						"count()": "2453",
						"errorMessages(uint256)": "infinite",
						"getAccount()": "infinite",
						"getAllAdmins()": "infinite",
						"getFullName()": "infinite",
						"getSizeOfErrorMessages()": "404",
						"iAmReady()": "infinite",
						"increment(uint256)": "infinite",
						"oneIncrement()": "24627",
						"owner()": "2581",
						"setAllowed(bool)": "24769",
						"signedCount()": "2452",
						"signedIncrement(int256)": "infinite"
					}
				},
				"methodIdentifiers": {
					"WhoAmI()": "48dfcbf0",
					"accountValues(address)": "4fab2bc9",
					"addAdmin((string,string,uint256))": "5faaf352",
					"admins(uint256)": "14bfd6d0",
					"allowance(address,address)": "dd62ed3e",
					"allowed()": "19e1fca4",
					"assignAddressValues((string,string,uint256))": "aa82f350",
					"assignAllowence(address)": "865cebe7",
					"assignValue(string,string,uint256)": "9bead1f8",
					"assignValueStruct((string,string,uint256))": "7b061d35",
					"buy()": "a6f2ae3a",
					"count()": "06661abd",
					"errorMessages(uint256)": "c539ab78",
					"getAccount()": "db613e81",
					"getAllAdmins()": "e9523c97",
					"getFullName()": "8c160186",
					"getSizeOfErrorMessages()": "702051f0",
					"iAmReady()": "7c85cfc2",
					"increment(uint256)": "7cf5dab0",
					"oneIncrement()": "ffac3b1d",
					"owner()": "8da5cb5b",
					"setAllowed(bool)": "2babac22",
					"signedCount()": "5f3d8f4a",
					"signedIncrement(int256)": "be7cb506"
				}
			},
			"storageLayout": {
				"storage": [
					{
						"astId": 30,
						"contract": "contracts/SimpleContract.sol:SimpleContract",
						"label": "allowed",
						"offset": 0,
						"slot": "0",
						"type": "t_bool"
					},
					{
						"astId": 32,
						"contract": "contracts/SimpleContract.sol:SimpleContract",
						"label": "count",
						"offset": 0,
						"slot": "1",
						"type": "t_uint256"
					},
					{
						"astId": 34,
						"contract": "contracts/SimpleContract.sol:SimpleContract",
						"label": "signedCount",
						"offset": 0,
						"slot": "2",
						"type": "t_int256"
					},
					{
						"astId": 40,
						"contract": "contracts/SimpleContract.sol:SimpleContract",
						"label": "allowance",
						"offset": 0,
						"slot": "3",
						"type": "t_mapping(t_address,t_mapping(t_address,t_bool))"
					},
					{
						"astId": 44,
						"contract": "contracts/SimpleContract.sol:SimpleContract",
						"label": "errorMessages",
						"offset": 0,
						"slot": "4",
						"type": "t_array(t_string_storage)2_storage"
					},
					{
						"astId": 46,
						"contract": "contracts/SimpleContract.sol:SimpleContract",
						"label": "owner",
						"offset": 0,
						"slot": "6",
						"type": "t_address"
					},
					{
						"astId": 62,
						"contract": "contracts/SimpleContract.sol:SimpleContract",
						"label": "account",
						"offset": 0,
						"slot": "7",
						"type": "t_struct(Account)59_storage"
					},
					{
						"astId": 67,
						"contract": "contracts/SimpleContract.sol:SimpleContract",
						"label": "accountValues",
						"offset": 0,
						"slot": "10",
						"type": "t_mapping(t_address,t_struct(Account)59_storage)"
					},
					{
						"astId": 71,
						"contract": "contracts/SimpleContract.sol:SimpleContract",
						"label": "admins",
						"offset": 0,
						"slot": "11",
						"type": "t_array(t_struct(Account)59_storage)dyn_storage"
					},
					{
						"astId": 73,
						"contract": "contracts/SimpleContract.sol:SimpleContract",
						"label": "index",
						"offset": 0,
						"slot": "12",
						"type": "t_uint256"
					}
				],
				"types": {
					"t_address": {
						"encoding": "inplace",
						"label": "address",
						"numberOfBytes": "20"
					},
					"t_array(t_string_storage)2_storage": {
						"base": "t_string_storage",
						"encoding": "inplace",
						"label": "string[2]",
						"numberOfBytes": "64"
					},
					"t_array(t_struct(Account)59_storage)dyn_storage": {
						"base": "t_struct(Account)59_storage",
						"encoding": "dynamic_array",
						"label": "struct SimpleContract.Account[]",
						"numberOfBytes": "32"
					},
					"t_bool": {
						"encoding": "inplace",
						"label": "bool",
						"numberOfBytes": "1"
					},
					"t_int256": {
						"encoding": "inplace",
						"label": "int256",
						"numberOfBytes": "32"
					},
					"t_mapping(t_address,t_bool)": {
						"encoding": "mapping",
						"key": "t_address",
						"label": "mapping(address => bool)",
						"numberOfBytes": "32",
						"value": "t_bool"
					},
					"t_mapping(t_address,t_mapping(t_address,t_bool))": {
						"encoding": "mapping",
						"key": "t_address",
						"label": "mapping(address => mapping(address => bool))",
						"numberOfBytes": "32",
						"value": "t_mapping(t_address,t_bool)"
					},
					"t_mapping(t_address,t_struct(Account)59_storage)": {
						"encoding": "mapping",
						"key": "t_address",
						"label": "mapping(address => struct SimpleContract.Account)",
						"numberOfBytes": "32",
						"value": "t_struct(Account)59_storage"
					},
					"t_string_storage": {
						"encoding": "bytes",
						"label": "string",
						"numberOfBytes": "32"
					},
					"t_struct(Account)59_storage": {
						"encoding": "inplace",
						"label": "struct SimpleContract.Account",
						"members": [
							{
								"astId": 54,
								"contract": "contracts/SimpleContract.sol:SimpleContract",
								"label": "name",
								"offset": 0,
								"slot": "0",
								"type": "t_string_storage"
							},
							{
								"astId": 56,
								"contract": "contracts/SimpleContract.sol:SimpleContract",
								"label": "surname",
								"offset": 0,
								"slot": "1",
								"type": "t_string_storage"
							},
							{
								"astId": 58,
								"contract": "contracts/SimpleContract.sol:SimpleContract",
								"label": "balance",
								"offset": 0,
								"slot": "2",
								"type": "t_uint256"
							}
						],
						"numberOfBytes": "96"
					},
					"t_uint256": {
						"encoding": "inplace",
						"label": "uint256",
						"numberOfBytes": "32"
					}
				}
			},
			"userdoc": {
				"kind": "user",
				"methods": {},
				"version": 1
			}
		}
	}
}