{
	"contracts/SimpleContract.sol": {
		"SimpleContract": {
			"abi": [
				{
					"inputs": [
						{
							"internalType": "address",
							"name": "_address",
							"type": "address"
						}
					],
					"stateMutability": "nonpayable",
					"type": "constructor"
				},
				{
					"inputs": [
						{
							"internalType": "address",
							"name": "",
							"type": "address"
						},
						{
							"internalType": "address",
							"name": "",
							"type": "address"
						}
					],
					"name": "allowance",
					"outputs": [
						{
							"internalType": "bool",
							"name": "",
							"type": "bool"
						}
					],
					"stateMutability": "view",
					"type": "function"
				},
				{
					"inputs": [],
					"name": "allowed",
					"outputs": [
						{
							"internalType": "bool",
							"name": "",
							"type": "bool"
						}
					],
					"stateMutability": "view",
					"type": "function"
				},
				{
					"inputs": [
						{
							"internalType": "address",
							"name": "_address",
							"type": "address"
						}
					],
					"name": "assignAllowence",
					"outputs": [],
					"stateMutability": "nonpayable",
					"type": "function"
				},
				{
					"inputs": [],
					"name": "buy",
					"outputs": [],
					"stateMutability": "nonpayable",
					"type": "function"
				},
				{
					"inputs": [],
					"name": "count",
					"outputs": [
						{
							"internalType": "uint256",
							"name": "",
							"type": "uint256"
						}
					],
					"stateMutability": "view",
					"type": "function"
				},
				{
					"inputs": [
						{
							"internalType": "uint256",
							"name": "",
							"type": "uint256"
						}
					],
					"name": "errorMessages",
					"outputs": [
						{
							"internalType": "string",
							"name": "",
							"type": "string"
						}
					],
					"stateMutability": "view",
					"type": "function"
				},
				{
					"inputs": [],
					"name": "getSizeOfErrorMessages",
					"outputs": [
						{
							"internalType": "uint256",
							"name": "",
							"type": "uint256"
						}
					],
					"stateMutability": "view",
					"type": "function"
				},
				{
					"inputs": [
						{
							"internalType": "uint256",
							"name": "_increment",
							"type": "uint256"
						}
					],
					"name": "increment",
					"outputs": [],
					"stateMutability": "nonpayable",
					"type": "function"
				},
				{
					"inputs": [],
					"name": "oneIncrement",
					"outputs": [],
					"stateMutability": "nonpayable",
					"type": "function"
				},
				{
					"inputs": [],
					"name": "owner",
					"outputs": [
						{
							"internalType": "address",
							"name": "",
							"type": "address"
						}
					],
					"stateMutability": "view",
					"type": "function"
				},
				{
					"inputs": [
						{
							"internalType": "bool",
							"name": "_owner",
							"type": "bool"
						}
					],
					"name": "setAllowed",
					"outputs": [],
					"stateMutability": "nonpayable",
					"type": "function"
				},
				{
					"inputs": [],
					"name": "signedCount",
					"outputs": [
						{
							"internalType": "int256",
							"name": "",
							"type": "int256"
						}
					],
					"stateMutability": "view",
					"type": "function"
				},
				{
					"inputs": [
						{
							"internalType": "int256",
							"name": "_increment",
							"type": "int256"
						}
					],
					"name": "signedIncrement",
					"outputs": [],
					"stateMutability": "nonpayable",
					"type": "function"
				}
			],
			"devdoc": {
				"kind": "dev",
				"methods": {},
				"version": 1
			},
			"evm": {
				"assembly": "    /* \"contracts/SimpleContract.sol\":66:1818  contract SimpleContract {... */\n  mstore(0x40, 0x80)\n    /* \"contracts/SimpleContract.sol\":706:947  constructor(address _address){... */\n  callvalue\n  dup1\n  iszero\n  tag_1\n  jumpi\n  0x00\n  dup1\n  revert\ntag_1:\n  pop\n  mload(0x40)\n  sub(codesize, bytecodeSize)\n  dup1\n  bytecodeSize\n  dup4\n  codecopy\n  dup2\n  dup2\n  add\n  0x40\n  mstore\n  dup2\n  add\n  swap1\n  tag_2\n  swap2\n  swap1\n  tag_3\n  jump\t// in\ntag_2:\n    /* \"contracts/SimpleContract.sol\":751:759  _address */\n  dup1\n    /* \"contracts/SimpleContract.sol\":745:750  owner */\n  0x06\n  0x00\n    /* \"contracts/SimpleContract.sol\":745:759  owner=_address */\n  0x0100\n  exp\n  dup2\n  sload\n  dup2\n  0xffffffffffffffffffffffffffffffffffffffff\n  mul\n  not\n  and\n  swap1\n  dup4\n  0xffffffffffffffffffffffffffffffffffffffff\n  and\n  mul\n  or\n  swap1\n  sstore\n  pop\n    /* \"contracts/SimpleContract.sol\":769:804  errorMessages[0] = \"is not allowed\" */\n  mload(0x40)\n  dup1\n  0x40\n  add\n  0x40\n  mstore\n  dup1\n  0x0e\n  dup2\n  mstore\n  0x20\n  add\n  0x6973206e6f7420616c6c6f776564000000000000000000000000000000000000\n  dup2\n  mstore\n  pop\n    /* \"contracts/SimpleContract.sol\":769:782  errorMessages */\n  0x04\n    /* \"contracts/SimpleContract.sol\":783:784  0 */\n  0x00\n    /* \"contracts/SimpleContract.sol\":769:785  errorMessages[0] */\n  0x02\n  dup2\n  lt\n  tag_6\n  jumpi\n  tag_7\n  tag_8\n  jump\t// in\ntag_7:\ntag_6:\n  add\n    /* \"contracts/SimpleContract.sol\":769:804  errorMessages[0] = \"is not allowed\" */\n  swap1\n  dup2\n  tag_10\n  swap2\n  swap1\n  tag_11\n  jump\t// in\ntag_10:\n  pop\n    /* \"contracts/SimpleContract.sol\":814:845  errorMessages[1] = \"only owner\" */\n  mload(0x40)\n  dup1\n  0x40\n  add\n  0x40\n  mstore\n  dup1\n  0x0a\n  dup2\n  mstore\n  0x20\n  add\n  0x6f6e6c79206f776e657200000000000000000000000000000000000000000000\n  dup2\n  mstore\n  pop\n    /* \"contracts/SimpleContract.sol\":814:827  errorMessages */\n  0x04\n    /* \"contracts/SimpleContract.sol\":828:829  1 */\n  0x01\n    /* \"contracts/SimpleContract.sol\":814:830  errorMessages[1] */\n  0x02\n  dup2\n  lt\n  tag_12\n  jumpi\n  tag_13\n  tag_8\n  jump\t// in\ntag_13:\ntag_12:\n  add\n    /* \"contracts/SimpleContract.sol\":814:845  errorMessages[1] = \"only owner\" */\n  swap1\n  dup2\n  tag_15\n  swap2\n  swap1\n  tag_11\n  jump\t// in\ntag_15:\n  pop\n    /* \"contracts/SimpleContract.sol\":706:947  constructor(address _address){... */\n  pop\n    /* \"contracts/SimpleContract.sol\":66:1818  contract SimpleContract {... */\n  jump(tag_16)\n    /* \"#utility.yul\":88:205   */\ntag_18:\n    /* \"#utility.yul\":197:198   */\n  0x00\n    /* \"#utility.yul\":194:195   */\n  dup1\n    /* \"#utility.yul\":187:199   */\n  revert\n    /* \"#utility.yul\":334:460   */\ntag_20:\n    /* \"#utility.yul\":371:378   */\n  0x00\n    /* \"#utility.yul\":411:453   */\n  0xffffffffffffffffffffffffffffffffffffffff\n    /* \"#utility.yul\":404:409   */\n  dup3\n    /* \"#utility.yul\":400:454   */\n  and\n    /* \"#utility.yul\":389:454   */\n  swap1\n  pop\n    /* \"#utility.yul\":334:460   */\n  swap2\n  swap1\n  pop\n  jump\t// out\n    /* \"#utility.yul\":466:562   */\ntag_21:\n    /* \"#utility.yul\":503:510   */\n  0x00\n    /* \"#utility.yul\":532:556   */\n  tag_50\n    /* \"#utility.yul\":550:555   */\n  dup3\n    /* \"#utility.yul\":532:556   */\n  tag_20\n  jump\t// in\ntag_50:\n    /* \"#utility.yul\":521:556   */\n  swap1\n  pop\n    /* \"#utility.yul\":466:562   */\n  swap2\n  swap1\n  pop\n  jump\t// out\n    /* \"#utility.yul\":568:690   */\ntag_22:\n    /* \"#utility.yul\":641:665   */\n  tag_52\n    /* \"#utility.yul\":659:664   */\n  dup2\n    /* \"#utility.yul\":641:665   */\n  tag_21\n  jump\t// in\ntag_52:\n    /* \"#utility.yul\":634:639   */\n  dup2\n    /* \"#utility.yul\":631:666   */\n  eq\n    /* \"#utility.yul\":621:684   */\n  tag_53\n  jumpi\n    /* \"#utility.yul\":680:681   */\n  0x00\n    /* \"#utility.yul\":677:678   */\n  dup1\n    /* \"#utility.yul\":670:682   */\n  revert\n    /* \"#utility.yul\":621:684   */\ntag_53:\n    /* \"#utility.yul\":568:690   */\n  pop\n  jump\t// out\n    /* \"#utility.yul\":696:839   */\ntag_23:\n    /* \"#utility.yul\":753:758   */\n  0x00\n    /* \"#utility.yul\":784:790   */\n  dup2\n    /* \"#utility.yul\":778:791   */\n  mload\n    /* \"#utility.yul\":769:791   */\n  swap1\n  pop\n    /* \"#utility.yul\":800:833   */\n  tag_55\n    /* \"#utility.yul\":827:832   */\n  dup2\n    /* \"#utility.yul\":800:833   */\n  tag_22\n  jump\t// in\ntag_55:\n    /* \"#utility.yul\":696:839   */\n  swap3\n  swap2\n  pop\n  pop\n  jump\t// out\n    /* \"#utility.yul\":845:1196   */\ntag_3:\n    /* \"#utility.yul\":915:921   */\n  0x00\n    /* \"#utility.yul\":964:966   */\n  0x20\n    /* \"#utility.yul\":952:961   */\n  dup3\n    /* \"#utility.yul\":943:950   */\n  dup5\n    /* \"#utility.yul\":939:962   */\n  sub\n    /* \"#utility.yul\":935:967   */\n  slt\n    /* \"#utility.yul\":932:1051   */\n  iszero\n  tag_57\n  jumpi\n    /* \"#utility.yul\":970:1049   */\n  tag_58\n  tag_18\n  jump\t// in\ntag_58:\n    /* \"#utility.yul\":932:1051   */\ntag_57:\n    /* \"#utility.yul\":1090:1091   */\n  0x00\n    /* \"#utility.yul\":1115:1179   */\n  tag_59\n    /* \"#utility.yul\":1171:1178   */\n  dup5\n    /* \"#utility.yul\":1162:1168   */\n  dup3\n    /* \"#utility.yul\":1151:1160   */\n  dup6\n    /* \"#utility.yul\":1147:1169   */\n  add\n    /* \"#utility.yul\":1115:1179   */\n  tag_23\n  jump\t// in\ntag_59:\n    /* \"#utility.yul\":1105:1179   */\n  swap2\n  pop\n    /* \"#utility.yul\":1061:1189   */\n  pop\n    /* \"#utility.yul\":845:1196   */\n  swap3\n  swap2\n  pop\n  pop\n  jump\t// out\n    /* \"#utility.yul\":1202:1382   */\ntag_8:\n    /* \"#utility.yul\":1250:1327   */\n  0x4e487b7100000000000000000000000000000000000000000000000000000000\n    /* \"#utility.yul\":1247:1248   */\n  0x00\n    /* \"#utility.yul\":1240:1328   */\n  mstore\n    /* \"#utility.yul\":1347:1351   */\n  0x32\n    /* \"#utility.yul\":1344:1345   */\n  0x04\n    /* \"#utility.yul\":1337:1352   */\n  mstore\n    /* \"#utility.yul\":1371:1375   */\n  0x24\n    /* \"#utility.yul\":1368:1369   */\n  0x00\n    /* \"#utility.yul\":1361:1376   */\n  revert\n    /* \"#utility.yul\":1388:1487   */\ntag_24:\n    /* \"#utility.yul\":1440:1446   */\n  0x00\n    /* \"#utility.yul\":1474:1479   */\n  dup2\n    /* \"#utility.yul\":1468:1480   */\n  mload\n    /* \"#utility.yul\":1458:1480   */\n  swap1\n  pop\n    /* \"#utility.yul\":1388:1487   */\n  swap2\n  swap1\n  pop\n  jump\t// out\n    /* \"#utility.yul\":1493:1673   */\ntag_25:\n    /* \"#utility.yul\":1541:1618   */\n  0x4e487b7100000000000000000000000000000000000000000000000000000000\n    /* \"#utility.yul\":1538:1539   */\n  0x00\n    /* \"#utility.yul\":1531:1619   */\n  mstore\n    /* \"#utility.yul\":1638:1642   */\n  0x41\n    /* \"#utility.yul\":1635:1636   */\n  0x04\n    /* \"#utility.yul\":1628:1643   */\n  mstore\n    /* \"#utility.yul\":1662:1666   */\n  0x24\n    /* \"#utility.yul\":1659:1660   */\n  0x00\n    /* \"#utility.yul\":1652:1667   */\n  revert\n    /* \"#utility.yul\":1679:1859   */\ntag_26:\n    /* \"#utility.yul\":1727:1804   */\n  0x4e487b7100000000000000000000000000000000000000000000000000000000\n    /* \"#utility.yul\":1724:1725   */\n  0x00\n    /* \"#utility.yul\":1717:1805   */\n  mstore\n    /* \"#utility.yul\":1824:1828   */\n  0x22\n    /* \"#utility.yul\":1821:1822   */\n  0x04\n    /* \"#utility.yul\":1814:1829   */\n  mstore\n    /* \"#utility.yul\":1848:1852   */\n  0x24\n    /* \"#utility.yul\":1845:1846   */\n  0x00\n    /* \"#utility.yul\":1838:1853   */\n  revert\n    /* \"#utility.yul\":1865:2185   */\ntag_27:\n    /* \"#utility.yul\":1909:1915   */\n  0x00\n    /* \"#utility.yul\":1946:1947   */\n  0x02\n    /* \"#utility.yul\":1940:1944   */\n  dup3\n    /* \"#utility.yul\":1936:1948   */\n  div\n    /* \"#utility.yul\":1926:1948   */\n  swap1\n  pop\n    /* \"#utility.yul\":1993:1994   */\n  0x01\n    /* \"#utility.yul\":1987:1991   */\n  dup3\n    /* \"#utility.yul\":1983:1995   */\n  and\n    /* \"#utility.yul\":2014:2032   */\n  dup1\n    /* \"#utility.yul\":2004:2085   */\n  tag_65\n  jumpi\n    /* \"#utility.yul\":2070:2074   */\n  0x7f\n    /* \"#utility.yul\":2062:2068   */\n  dup3\n    /* \"#utility.yul\":2058:2075   */\n  and\n    /* \"#utility.yul\":2048:2075   */\n  swap2\n  pop\n    /* \"#utility.yul\":2004:2085   */\ntag_65:\n    /* \"#utility.yul\":2132:2134   */\n  0x20\n    /* \"#utility.yul\":2124:2130   */\n  dup3\n    /* \"#utility.yul\":2121:2135   */\n  lt\n    /* \"#utility.yul\":2101:2119   */\n  dup2\n    /* \"#utility.yul\":2098:2136   */\n  sub\n    /* \"#utility.yul\":2095:2179   */\n  tag_66\n  jumpi\n    /* \"#utility.yul\":2151:2169   */\n  tag_67\n  tag_26\n  jump\t// in\ntag_67:\n    /* \"#utility.yul\":2095:2179   */\ntag_66:\n    /* \"#utility.yul\":1916:2185   */\n  pop\n    /* \"#utility.yul\":1865:2185   */\n  swap2\n  swap1\n  pop\n  jump\t// out\n    /* \"#utility.yul\":2191:2332   */\ntag_28:\n    /* \"#utility.yul\":2240:2244   */\n  0x00\n    /* \"#utility.yul\":2263:2266   */\n  dup2\n    /* \"#utility.yul\":2255:2266   */\n  swap1\n  pop\n    /* \"#utility.yul\":2286:2289   */\n  dup2\n    /* \"#utility.yul\":2283:2284   */\n  0x00\n    /* \"#utility.yul\":2276:2290   */\n  mstore\n    /* \"#utility.yul\":2320:2324   */\n  0x20\n    /* \"#utility.yul\":2317:2318   */\n  0x00\n    /* \"#utility.yul\":2307:2325   */\n  keccak256\n    /* \"#utility.yul\":2299:2325   */\n  swap1\n  pop\n    /* \"#utility.yul\":2191:2332   */\n  swap2\n  swap1\n  pop\n  jump\t// out\n    /* \"#utility.yul\":2338:2431   */\ntag_29:\n    /* \"#utility.yul\":2375:2381   */\n  0x00\n    /* \"#utility.yul\":2422:2424   */\n  0x20\n    /* \"#utility.yul\":2417:2419   */\n  0x1f\n    /* \"#utility.yul\":2410:2415   */\n  dup4\n    /* \"#utility.yul\":2406:2420   */\n  add\n    /* \"#utility.yul\":2402:2425   */\n  div\n    /* \"#utility.yul\":2392:2425   */\n  swap1\n  pop\n    /* \"#utility.yul\":2338:2431   */\n  swap2\n  swap1\n  pop\n  jump\t// out\n    /* \"#utility.yul\":2437:2544   */\ntag_30:\n    /* \"#utility.yul\":2481:2489   */\n  0x00\n    /* \"#utility.yul\":2531:2536   */\n  dup3\n    /* \"#utility.yul\":2525:2529   */\n  dup3\n    /* \"#utility.yul\":2521:2537   */\n  shl\n    /* \"#utility.yul\":2500:2537   */\n  swap1\n  pop\n    /* \"#utility.yul\":2437:2544   */\n  swap3\n  swap2\n  pop\n  pop\n  jump\t// out\n    /* \"#utility.yul\":2550:2943   */\ntag_31:\n    /* \"#utility.yul\":2619:2625   */\n  0x00\n    /* \"#utility.yul\":2669:2670   */\n  0x08\n    /* \"#utility.yul\":2657:2667   */\n  dup4\n    /* \"#utility.yul\":2653:2671   */\n  mul\n    /* \"#utility.yul\":2692:2789   */\n  tag_72\n    /* \"#utility.yul\":2722:2788   */\n  0xffffffffffffffffffffffffffffffffffffffffffffffffffffffffffffffff\n    /* \"#utility.yul\":2711:2720   */\n  dup3\n    /* \"#utility.yul\":2692:2789   */\n  tag_30\n  jump\t// in\ntag_72:\n    /* \"#utility.yul\":2810:2849   */\n  tag_73\n    /* \"#utility.yul\":2840:2848   */\n  dup7\n    /* \"#utility.yul\":2829:2838   */\n  dup4\n    /* \"#utility.yul\":2810:2849   */\n  tag_30\n  jump\t// in\ntag_73:\n    /* \"#utility.yul\":2798:2849   */\n  swap6\n  pop\n    /* \"#utility.yul\":2882:2886   */\n  dup1\n    /* \"#utility.yul\":2878:2887   */\n  not\n    /* \"#utility.yul\":2871:2876   */\n  dup5\n    /* \"#utility.yul\":2867:2888   */\n  and\n    /* \"#utility.yul\":2858:2888   */\n  swap4\n  pop\n    /* \"#utility.yul\":2931:2935   */\n  dup1\n    /* \"#utility.yul\":2921:2929   */\n  dup7\n    /* \"#utility.yul\":2917:2936   */\n  and\n    /* \"#utility.yul\":2910:2915   */\n  dup5\n    /* \"#utility.yul\":2907:2937   */\n  or\n    /* \"#utility.yul\":2897:2937   */\n  swap3\n  pop\n    /* \"#utility.yul\":2626:2943   */\n  pop\n  pop\n    /* \"#utility.yul\":2550:2943   */\n  swap4\n  swap3\n  pop\n  pop\n  pop\n  jump\t// out\n    /* \"#utility.yul\":2949:3026   */\ntag_32:\n    /* \"#utility.yul\":2986:2993   */\n  0x00\n    /* \"#utility.yul\":3015:3020   */\n  dup2\n    /* \"#utility.yul\":3004:3020   */\n  swap1\n  pop\n    /* \"#utility.yul\":2949:3026   */\n  swap2\n  swap1\n  pop\n  jump\t// out\n    /* \"#utility.yul\":3032:3092   */\ntag_33:\n    /* \"#utility.yul\":3060:3063   */\n  0x00\n    /* \"#utility.yul\":3081:3086   */\n  dup2\n    /* \"#utility.yul\":3074:3086   */\n  swap1\n  pop\n    /* \"#utility.yul\":3032:3092   */\n  swap2\n  swap1\n  pop\n  jump\t// out\n    /* \"#utility.yul\":3098:3240   */\ntag_34:\n    /* \"#utility.yul\":3148:3157   */\n  0x00\n    /* \"#utility.yul\":3181:3234   */\n  tag_77\n    /* \"#utility.yul\":3199:3233   */\n  tag_78\n    /* \"#utility.yul\":3208:3232   */\n  tag_79\n    /* \"#utility.yul\":3226:3231   */\n  dup5\n    /* \"#utility.yul\":3208:3232   */\n  tag_32\n  jump\t// in\ntag_79:\n    /* \"#utility.yul\":3199:3233   */\n  tag_33\n  jump\t// in\ntag_78:\n    /* \"#utility.yul\":3181:3234   */\n  tag_32\n  jump\t// in\ntag_77:\n    /* \"#utility.yul\":3168:3234   */\n  swap1\n  pop\n    /* \"#utility.yul\":3098:3240   */\n  swap2\n  swap1\n  pop\n  jump\t// out\n    /* \"#utility.yul\":3246:3321   */\ntag_35:\n    /* \"#utility.yul\":3289:3292   */\n  0x00\n    /* \"#utility.yul\":3310:3315   */\n  dup2\n    /* \"#utility.yul\":3303:3315   */\n  swap1\n  pop\n    /* \"#utility.yul\":3246:3321   */\n  swap2\n  swap1\n  pop\n  jump\t// out\n    /* \"#utility.yul\":3327:3596   */\ntag_36:\n    /* \"#utility.yul\":3437:3476   */\n  tag_82\n    /* \"#utility.yul\":3468:3475   */\n  dup4\n    /* \"#utility.yul\":3437:3476   */\n  tag_34\n  jump\t// in\ntag_82:\n    /* \"#utility.yul\":3498:3589   */\n  tag_83\n    /* \"#utility.yul\":3547:3588   */\n  tag_84\n    /* \"#utility.yul\":3571:3587   */\n  dup3\n    /* \"#utility.yul\":3547:3588   */\n  tag_35\n  jump\t// in\ntag_84:\n    /* \"#utility.yul\":3539:3545   */\n  dup5\n    /* \"#utility.yul\":3532:3536   */\n  dup5\n    /* \"#utility.yul\":3526:3537   */\n  sload\n    /* \"#utility.yul\":3498:3589   */\n  tag_31\n  jump\t// in\ntag_83:\n    /* \"#utility.yul\":3492:3496   */\n  dup3\n    /* \"#utility.yul\":3485:3590   */\n  sstore\n    /* \"#utility.yul\":3403:3596   */\n  pop\n    /* \"#utility.yul\":3327:3596   */\n  pop\n  pop\n  pop\n  jump\t// out\n    /* \"#utility.yul\":3602:3675   */\ntag_37:\n    /* \"#utility.yul\":3647:3650   */\n  0x00\n    /* \"#utility.yul\":3602:3675   */\n  swap1\n  jump\t// out\n    /* \"#utility.yul\":3681:3870   */\ntag_38:\n    /* \"#utility.yul\":3758:3790   */\n  tag_87\n  tag_37\n  jump\t// in\ntag_87:\n    /* \"#utility.yul\":3799:3864   */\n  tag_88\n    /* \"#utility.yul\":3857:3863   */\n  dup2\n    /* \"#utility.yul\":3849:3855   */\n  dup5\n    /* \"#utility.yul\":3843:3847   */\n  dup5\n    /* \"#utility.yul\":3799:3864   */\n  tag_36\n  jump\t// in\ntag_88:\n    /* \"#utility.yul\":3734:3870   */\n  pop\n    /* \"#utility.yul\":3681:3870   */\n  pop\n  pop\n  jump\t// out\n    /* \"#utility.yul\":3876:4062   */\ntag_39:\n    /* \"#utility.yul\":3936:4056   */\ntag_90:\n    /* \"#utility.yul\":3953:3956   */\n  dup2\n    /* \"#utility.yul\":3946:3951   */\n  dup2\n    /* \"#utility.yul\":3943:3957   */\n  lt\n    /* \"#utility.yul\":3936:4056   */\n  iszero\n  tag_92\n  jumpi\n    /* \"#utility.yul\":4007:4046   */\n  tag_93\n    /* \"#utility.yul\":4044:4045   */\n  0x00\n    /* \"#utility.yul\":4037:4042   */\n  dup3\n    /* \"#utility.yul\":4007:4046   */\n  tag_38\n  jump\t// in\ntag_93:\n    /* \"#utility.yul\":3980:3981   */\n  0x01\n    /* \"#utility.yul\":3973:3978   */\n  dup2\n    /* \"#utility.yul\":3969:3982   */\n  add\n    /* \"#utility.yul\":3960:3982   */\n  swap1\n  pop\n    /* \"#utility.yul\":3936:4056   */\n  jump(tag_90)\ntag_92:\n    /* \"#utility.yul\":3876:4062   */\n  pop\n  pop\n  jump\t// out\n    /* \"#utility.yul\":4068:4611   */\ntag_40:\n    /* \"#utility.yul\":4169:4171   */\n  0x1f\n    /* \"#utility.yul\":4164:4167   */\n  dup3\n    /* \"#utility.yul\":4161:4172   */\n  gt\n    /* \"#utility.yul\":4158:4604   */\n  iszero\n  tag_95\n  jumpi\n    /* \"#utility.yul\":4203:4241   */\n  tag_96\n    /* \"#utility.yul\":4235:4240   */\n  dup2\n    /* \"#utility.yul\":4203:4241   */\n  tag_28\n  jump\t// in\ntag_96:\n    /* \"#utility.yul\":4287:4316   */\n  tag_97\n    /* \"#utility.yul\":4305:4315   */\n  dup5\n    /* \"#utility.yul\":4287:4316   */\n  tag_29\n  jump\t// in\ntag_97:\n    /* \"#utility.yul\":4277:4285   */\n  dup2\n    /* \"#utility.yul\":4273:4317   */\n  add\n    /* \"#utility.yul\":4470:4472   */\n  0x20\n    /* \"#utility.yul\":4458:4468   */\n  dup6\n    /* \"#utility.yul\":4455:4473   */\n  lt\n    /* \"#utility.yul\":4452:4501   */\n  iszero\n  tag_98\n  jumpi\n    /* \"#utility.yul\":4491:4499   */\n  dup2\n    /* \"#utility.yul\":4476:4499   */\n  swap1\n  pop\n    /* \"#utility.yul\":4452:4501   */\ntag_98:\n    /* \"#utility.yul\":4514:4594   */\n  tag_99\n    /* \"#utility.yul\":4570:4592   */\n  tag_100\n    /* \"#utility.yul\":4588:4591   */\n  dup6\n    /* \"#utility.yul\":4570:4592   */\n  tag_29\n  jump\t// in\ntag_100:\n    /* \"#utility.yul\":4560:4568   */\n  dup4\n    /* \"#utility.yul\":4556:4593   */\n  add\n    /* \"#utility.yul\":4543:4554   */\n  dup3\n    /* \"#utility.yul\":4514:4594   */\n  tag_39\n  jump\t// in\ntag_99:\n    /* \"#utility.yul\":4173:4604   */\n  pop\n  pop\n    /* \"#utility.yul\":4158:4604   */\ntag_95:\n    /* \"#utility.yul\":4068:4611   */\n  pop\n  pop\n  pop\n  jump\t// out\n    /* \"#utility.yul\":4617:4734   */\ntag_41:\n    /* \"#utility.yul\":4671:4679   */\n  0x00\n    /* \"#utility.yul\":4721:4726   */\n  dup3\n    /* \"#utility.yul\":4715:4719   */\n  dup3\n    /* \"#utility.yul\":4711:4727   */\n  shr\n    /* \"#utility.yul\":4690:4727   */\n  swap1\n  pop\n    /* \"#utility.yul\":4617:4734   */\n  swap3\n  swap2\n  pop\n  pop\n  jump\t// out\n    /* \"#utility.yul\":4740:4909   */\ntag_42:\n    /* \"#utility.yul\":4784:4790   */\n  0x00\n    /* \"#utility.yul\":4817:4868   */\n  tag_103\n    /* \"#utility.yul\":4865:4866   */\n  0x00\n    /* \"#utility.yul\":4861:4867   */\n  not\n    /* \"#utility.yul\":4853:4858   */\n  dup5\n    /* \"#utility.yul\":4850:4851   */\n  0x08\n    /* \"#utility.yul\":4846:4859   */\n  mul\n    /* \"#utility.yul\":4817:4868   */\n  tag_41\n  jump\t// in\ntag_103:\n    /* \"#utility.yul\":4813:4869   */\n  not\n    /* \"#utility.yul\":4898:4902   */\n  dup1\n    /* \"#utility.yul\":4892:4896   */\n  dup4\n    /* \"#utility.yul\":4888:4903   */\n  and\n    /* \"#utility.yul\":4878:4903   */\n  swap2\n  pop\n    /* \"#utility.yul\":4791:4909   */\n  pop\n    /* \"#utility.yul\":4740:4909   */\n  swap3\n  swap2\n  pop\n  pop\n  jump\t// out\n    /* \"#utility.yul\":4914:5209   */\ntag_43:\n    /* \"#utility.yul\":4990:4994   */\n  0x00\n    /* \"#utility.yul\":5136:5165   */\n  tag_105\n    /* \"#utility.yul\":5161:5164   */\n  dup4\n    /* \"#utility.yul\":5155:5159   */\n  dup4\n    /* \"#utility.yul\":5136:5165   */\n  tag_42\n  jump\t// in\ntag_105:\n    /* \"#utility.yul\":5128:5165   */\n  swap2\n  pop\n    /* \"#utility.yul\":5198:5201   */\n  dup3\n    /* \"#utility.yul\":5195:5196   */\n  0x02\n    /* \"#utility.yul\":5191:5202   */\n  mul\n    /* \"#utility.yul\":5185:5189   */\n  dup3\n    /* \"#utility.yul\":5182:5203   */\n  or\n    /* \"#utility.yul\":5174:5203   */\n  swap1\n  pop\n    /* \"#utility.yul\":4914:5209   */\n  swap3\n  swap2\n  pop\n  pop\n  jump\t// out\n    /* \"#utility.yul\":5214:6609   */\ntag_11:\n    /* \"#utility.yul\":5331:5368   */\n  tag_107\n    /* \"#utility.yul\":5364:5367   */\n  dup3\n    /* \"#utility.yul\":5331:5368   */\n  tag_24\n  jump\t// in\ntag_107:\n    /* \"#utility.yul\":5433:5451   */\n  0xffffffffffffffff\n    /* \"#utility.yul\":5425:5431   */\n  dup2\n    /* \"#utility.yul\":5422:5452   */\n  gt\n    /* \"#utility.yul\":5419:5475   */\n  iszero\n  tag_108\n  jumpi\n    /* \"#utility.yul\":5455:5473   */\n  tag_109\n  tag_25\n  jump\t// in\ntag_109:\n    /* \"#utility.yul\":5419:5475   */\ntag_108:\n    /* \"#utility.yul\":5499:5537   */\n  tag_110\n    /* \"#utility.yul\":5531:5535   */\n  dup3\n    /* \"#utility.yul\":5525:5536   */\n  sload\n    /* \"#utility.yul\":5499:5537   */\n  tag_27\n  jump\t// in\ntag_110:\n    /* \"#utility.yul\":5584:5651   */\n  tag_111\n    /* \"#utility.yul\":5644:5650   */\n  dup3\n    /* \"#utility.yul\":5636:5642   */\n  dup3\n    /* \"#utility.yul\":5630:5634   */\n  dup6\n    /* \"#utility.yul\":5584:5651   */\n  tag_40\n  jump\t// in\ntag_111:\n    /* \"#utility.yul\":5678:5679   */\n  0x00\n    /* \"#utility.yul\":5702:5706   */\n  0x20\n    /* \"#utility.yul\":5689:5706   */\n  swap1\n  pop\n    /* \"#utility.yul\":5734:5736   */\n  0x1f\n    /* \"#utility.yul\":5726:5732   */\n  dup4\n    /* \"#utility.yul\":5723:5737   */\n  gt\n    /* \"#utility.yul\":5751:5752   */\n  0x01\n    /* \"#utility.yul\":5746:6364   */\n  dup2\n  eq\n  tag_113\n  jumpi\n    /* \"#utility.yul\":6408:6409   */\n  0x00\n    /* \"#utility.yul\":6425:6431   */\n  dup5\n    /* \"#utility.yul\":6422:6499   */\n  iszero\n  tag_114\n  jumpi\n    /* \"#utility.yul\":6474:6483   */\n  dup3\n    /* \"#utility.yul\":6469:6472   */\n  dup8\n    /* \"#utility.yul\":6465:6484   */\n  add\n    /* \"#utility.yul\":6459:6485   */\n  mload\n    /* \"#utility.yul\":6450:6485   */\n  swap1\n  pop\n    /* \"#utility.yul\":6422:6499   */\ntag_114:\n    /* \"#utility.yul\":6525:6592   */\n  tag_115\n    /* \"#utility.yul\":6585:6591   */\n  dup6\n    /* \"#utility.yul\":6578:6583   */\n  dup3\n    /* \"#utility.yul\":6525:6592   */\n  tag_43\n  jump\t// in\ntag_115:\n    /* \"#utility.yul\":6519:6523   */\n  dup7\n    /* \"#utility.yul\":6512:6593   */\n  sstore\n    /* \"#utility.yul\":6381:6603   */\n  pop\n    /* \"#utility.yul\":5716:6603   */\n  jump(tag_112)\n    /* \"#utility.yul\":5746:6364   */\ntag_113:\n    /* \"#utility.yul\":5798:5802   */\n  0x1f\n    /* \"#utility.yul\":5794:5803   */\n  not\n    /* \"#utility.yul\":5786:5792   */\n  dup5\n    /* \"#utility.yul\":5782:5804   */\n  and\n    /* \"#utility.yul\":5832:5869   */\n  tag_116\n    /* \"#utility.yul\":5864:5868   */\n  dup7\n    /* \"#utility.yul\":5832:5869   */\n  tag_28\n  jump\t// in\ntag_116:\n    /* \"#utility.yul\":5891:5892   */\n  0x00\n    /* \"#utility.yul\":5905:6113   */\ntag_117:\n    /* \"#utility.yul\":5919:5926   */\n  dup3\n    /* \"#utility.yul\":5916:5917   */\n  dup2\n    /* \"#utility.yul\":5913:5927   */\n  lt\n    /* \"#utility.yul\":5905:6113   */\n  iszero\n  tag_119\n  jumpi\n    /* \"#utility.yul\":5998:6007   */\n  dup5\n    /* \"#utility.yul\":5993:5996   */\n  dup10\n    /* \"#utility.yul\":5989:6008   */\n  add\n    /* \"#utility.yul\":5983:6009   */\n  mload\n    /* \"#utility.yul\":5975:5981   */\n  dup3\n    /* \"#utility.yul\":5968:6010   */\n  sstore\n    /* \"#utility.yul\":6049:6050   */\n  0x01\n    /* \"#utility.yul\":6041:6047   */\n  dup3\n    /* \"#utility.yul\":6037:6051   */\n  add\n    /* \"#utility.yul\":6027:6051   */\n  swap2\n  pop\n    /* \"#utility.yul\":6096:6098   */\n  0x20\n    /* \"#utility.yul\":6085:6094   */\n  dup6\n    /* \"#utility.yul\":6081:6099   */\n  add\n    /* \"#utility.yul\":6068:6099   */\n  swap5\n  pop\n    /* \"#utility.yul\":5942:5946   */\n  0x20\n    /* \"#utility.yul\":5939:5940   */\n  dup2\n    /* \"#utility.yul\":5935:5947   */\n  add\n    /* \"#utility.yul\":5930:5947   */\n  swap1\n  pop\n    /* \"#utility.yul\":5905:6113   */\n  jump(tag_117)\ntag_119:\n    /* \"#utility.yul\":6141:6147   */\n  dup7\n    /* \"#utility.yul\":6132:6139   */\n  dup4\n    /* \"#utility.yul\":6129:6148   */\n  lt\n    /* \"#utility.yul\":6126:6305   */\n  iszero\n  tag_120\n  jumpi\n    /* \"#utility.yul\":6199:6208   */\n  dup5\n    /* \"#utility.yul\":6194:6197   */\n  dup10\n    /* \"#utility.yul\":6190:6209   */\n  add\n    /* \"#utility.yul\":6184:6210   */\n  mload\n    /* \"#utility.yul\":6242:6290   */\n  tag_121\n    /* \"#utility.yul\":6284:6288   */\n  0x1f\n    /* \"#utility.yul\":6276:6282   */\n  dup10\n    /* \"#utility.yul\":6272:6289   */\n  and\n    /* \"#utility.yul\":6261:6270   */\n  dup3\n    /* \"#utility.yul\":6242:6290   */\n  tag_42\n  jump\t// in\ntag_121:\n    /* \"#utility.yul\":6234:6240   */\n  dup4\n    /* \"#utility.yul\":6227:6291   */\n  sstore\n    /* \"#utility.yul\":6149:6305   */\n  pop\n    /* \"#utility.yul\":6126:6305   */\ntag_120:\n    /* \"#utility.yul\":6351:6352   */\n  0x01\n    /* \"#utility.yul\":6347:6348   */\n  0x02\n    /* \"#utility.yul\":6339:6345   */\n  dup9\n    /* \"#utility.yul\":6335:6349   */\n  mul\n    /* \"#utility.yul\":6331:6353   */\n  add\n    /* \"#utility.yul\":6325:6329   */\n  dup9\n    /* \"#utility.yul\":6318:6354   */\n  sstore\n    /* \"#utility.yul\":5753:6364   */\n  pop\n  pop\n  pop\n    /* \"#utility.yul\":5716:6603   */\ntag_112:\n  pop\n    /* \"#utility.yul\":5306:6609   */\n  pop\n  pop\n  pop\n    /* \"#utility.yul\":5214:6609   */\n  pop\n  pop\n  jump\t// out\n    /* \"contracts/SimpleContract.sol\":66:1818  contract SimpleContract {... */\ntag_16:\n  dataSize(sub_0)\n  dup1\n  dataOffset(sub_0)\n  0x00\n  codecopy\n  0x00\n  return\nstop\n\nsub_0: assembly {\n        /* \"contracts/SimpleContract.sol\":66:1818  contract SimpleContract {... */\n      mstore(0x40, 0x80)\n      callvalue\n      dup1\n      iszero\n      tag_1\n      jumpi\n      0x00\n      dup1\n      revert\n    tag_1:\n      pop\n      jumpi(tag_2, lt(calldatasize, 0x04))\n      shr(0xe0, calldataload(0x00))\n      dup1\n      0x865cebe7\n      gt\n      tag_16\n      jumpi\n      dup1\n      0xbe7cb506\n      gt\n      tag_17\n      jumpi\n      dup1\n      0xbe7cb506\n      eq\n      tag_12\n      jumpi\n      dup1\n      0xc539ab78\n      eq\n      tag_13\n      jumpi\n      dup1\n      0xdd62ed3e\n      eq\n      tag_14\n      jumpi\n      dup1\n      0xffac3b1d\n      eq\n      tag_15\n      jumpi\n      jump(tag_2)\n    tag_17:\n      dup1\n      0x865cebe7\n      eq\n      tag_9\n      jumpi\n      dup1\n      0x8da5cb5b\n      eq\n      tag_10\n      jumpi\n      dup1\n      0xa6f2ae3a\n      eq\n      tag_11\n      jumpi\n      jump(tag_2)\n    tag_16:\n      dup1\n      0x06661abd\n      eq\n      tag_3\n      jumpi\n      dup1\n      0x19e1fca4\n      eq\n      tag_4\n      jumpi\n      dup1\n      0x2babac22\n      eq\n      tag_5\n      jumpi\n      dup1\n      0x5f3d8f4a\n      eq\n      tag_6\n      jumpi\n      dup1\n      0x702051f0\n      eq\n      tag_7\n      jumpi\n      dup1\n      0x7cf5dab0\n      eq\n      tag_8\n      jumpi\n    tag_2:\n      0x00\n      dup1\n      revert\n        /* \"contracts/SimpleContract.sol\":121:138  uint public count */\n    tag_3:\n      tag_18\n      tag_19\n      jump\t// in\n    tag_18:\n      mload(0x40)\n      tag_20\n      swap2\n      swap1\n      tag_21\n      jump\t// in\n    tag_20:\n      mload(0x40)\n      dup1\n      swap2\n      sub\n      swap1\n      return\n        /* \"contracts/SimpleContract.sol\":96:115  bool public allowed */\n    tag_4:\n      tag_22\n      tag_23\n      jump\t// in\n    tag_22:\n      mload(0x40)\n      tag_24\n      swap2\n      swap1\n      tag_25\n      jump\t// in\n    tag_24:\n      mload(0x40)\n      dup1\n      swap2\n      sub\n      swap1\n      return\n        /* \"contracts/SimpleContract.sol\":953:1026  function setAllowed(bool _owner) public {... */\n    tag_5:\n      tag_26\n      0x04\n      dup1\n      calldatasize\n      sub\n      dup2\n      add\n      swap1\n      tag_27\n      swap2\n      swap1\n      tag_28\n      jump\t// in\n    tag_27:\n      tag_29\n      jump\t// in\n    tag_26:\n      stop\n        /* \"contracts/SimpleContract.sol\":144:166  int public signedCount */\n    tag_6:\n      tag_30\n      tag_31\n      jump\t// in\n    tag_30:\n      mload(0x40)\n      tag_32\n      swap2\n      swap1\n      tag_33\n      jump\t// in\n    tag_32:\n      mload(0x40)\n      dup1\n      swap2\n      sub\n      swap1\n      return\n        /* \"contracts/SimpleContract.sol\":1711:1815  function getSizeOfErrorMessages() public view returns(uint){... */\n    tag_7:\n      tag_34\n      tag_35\n      jump\t// in\n    tag_34:\n      mload(0x40)\n      tag_36\n      swap2\n      swap1\n      tag_21\n      jump\t// in\n    tag_36:\n      mload(0x40)\n      dup1\n      swap2\n      sub\n      swap1\n      return\n        /* \"contracts/SimpleContract.sol\":1349:1444  function increment(uint _increment) isAllowed public{... */\n    tag_8:\n      tag_37\n      0x04\n      dup1\n      calldatasize\n      sub\n      dup2\n      add\n      swap1\n      tag_38\n      swap2\n      swap1\n      tag_39\n      jump\t// in\n    tag_38:\n      tag_40\n      jump\t// in\n    tag_37:\n      stop\n        /* \"contracts/SimpleContract.sol\":1559:1706  function assignAllowence(address _address) public OnlyOwner{ ... */\n    tag_9:\n      tag_41\n      0x04\n      dup1\n      calldatasize\n      sub\n      dup2\n      add\n      swap1\n      tag_42\n      swap2\n      swap1\n      tag_43\n      jump\t// in\n    tag_42:\n      tag_44\n      jump\t// in\n    tag_41:\n      stop\n        /* \"contracts/SimpleContract.sol\":594:614  address public owner */\n    tag_10:\n      tag_45\n      tag_46\n      jump\t// in\n    tag_45:\n      mload(0x40)\n      tag_47\n      swap2\n      swap1\n      tag_48\n      jump\t// in\n    tag_47:\n      mload(0x40)\n      dup1\n      swap2\n      sub\n      swap1\n      return\n        /* \"contracts/SimpleContract.sol\":1241:1282  function buy() isAllowed public  {... */\n    tag_11:\n      tag_49\n      tag_50\n      jump\t// in\n    tag_49:\n      stop\n        /* \"contracts/SimpleContract.sol\":1450:1553  function signedIncrement(int _increment) public {... */\n    tag_12:\n      tag_51\n      0x04\n      dup1\n      calldatasize\n      sub\n      dup2\n      add\n      swap1\n      tag_52\n      swap2\n      swap1\n      tag_53\n      jump\t// in\n    tag_52:\n      tag_54\n      jump\t// in\n    tag_51:\n      stop\n        /* \"contracts/SimpleContract.sol\":485:515  string[2] public errorMessages */\n    tag_13:\n      tag_55\n      0x04\n      dup1\n      calldatasize\n      sub\n      dup2\n      add\n      swap1\n      tag_56\n      swap2\n      swap1\n      tag_39\n      jump\t// in\n    tag_56:\n      tag_57\n      jump\t// in\n    tag_55:\n      mload(0x40)\n      tag_58\n      swap2\n      swap1\n      tag_59\n      jump\t// in\n    tag_58:\n      mload(0x40)\n      dup1\n      swap2\n      sub\n      swap1\n      return\n        /* \"contracts/SimpleContract.sol\":376:438  mapping(address => mapping(address => bool) ) public allowance */\n    tag_14:\n      tag_60\n      0x04\n      dup1\n      calldatasize\n      sub\n      dup2\n      add\n      swap1\n      tag_61\n      swap2\n      swap1\n      tag_62\n      jump\t// in\n    tag_61:\n      tag_63\n      jump\t// in\n    tag_60:\n      mload(0x40)\n      tag_64\n      swap2\n      swap1\n      tag_25\n      jump\t// in\n    tag_64:\n      mload(0x40)\n      dup1\n      swap2\n      sub\n      swap1\n      return\n        /* \"contracts/SimpleContract.sol\":1288:1343  function oneIncrement() public {... */\n    tag_15:\n      tag_65\n      tag_66\n      jump\t// in\n    tag_65:\n      stop\n        /* \"contracts/SimpleContract.sol\":121:138  uint public count */\n    tag_19:\n      sload(0x01)\n      dup2\n      jump\t// out\n        /* \"contracts/SimpleContract.sol\":96:115  bool public allowed */\n    tag_23:\n      0x00\n      dup1\n      sload\n      swap1\n      0x0100\n      exp\n      swap1\n      div\n      0xff\n      and\n      dup2\n      jump\t// out\n        /* \"contracts/SimpleContract.sol\":953:1026  function setAllowed(bool _owner) public {... */\n    tag_29:\n        /* \"contracts/SimpleContract.sol\":1013:1019  _owner */\n      dup1\n        /* \"contracts/SimpleContract.sol\":1003:1010  allowed */\n      0x00\n      dup1\n        /* \"contracts/SimpleContract.sol\":1003:1019  allowed = _owner */\n      0x0100\n      exp\n      dup2\n      sload\n      dup2\n      0xff\n      mul\n      not\n      and\n      swap1\n      dup4\n      iszero\n      iszero\n      mul\n      or\n      swap1\n      sstore\n      pop\n        /* \"contracts/SimpleContract.sol\":953:1026  function setAllowed(bool _owner) public {... */\n      pop\n      jump\t// out\n        /* \"contracts/SimpleContract.sol\":144:166  int public signedCount */\n    tag_31:\n      sload(0x02)\n      dup2\n      jump\t// out\n        /* \"contracts/SimpleContract.sol\":1711:1815  function getSizeOfErrorMessages() public view returns(uint){... */\n    tag_35:\n        /* \"contracts/SimpleContract.sol\":1765:1769  uint */\n      0x00\n        /* \"contracts/SimpleContract.sol\":1788:1808  errorMessages.length */\n      0x02\n        /* \"contracts/SimpleContract.sol\":1781:1808  return errorMessages.length */\n      swap1\n      pop\n        /* \"contracts/SimpleContract.sol\":1711:1815  function getSizeOfErrorMessages() public view returns(uint){... */\n      swap1\n      jump\t// out\n        /* \"contracts/SimpleContract.sol\":1349:1444  function increment(uint _increment) isAllowed public{... */\n    tag_40:\n        /* \"contracts/SimpleContract.sol\":1070:1079  allowance */\n      0x03\n        /* \"contracts/SimpleContract.sol\":1070:1086  allowance[owner] */\n      0x00\n        /* \"contracts/SimpleContract.sol\":1080:1085  owner */\n      0x06\n      0x00\n      swap1\n      sload\n      swap1\n      0x0100\n      exp\n      swap1\n      div\n      0xffffffffffffffffffffffffffffffffffffffff\n      and\n        /* \"contracts/SimpleContract.sol\":1070:1086  allowance[owner] */\n      0xffffffffffffffffffffffffffffffffffffffff\n      and\n      0xffffffffffffffffffffffffffffffffffffffff\n      and\n      dup2\n      mstore\n      0x20\n      add\n      swap1\n      dup2\n      mstore\n      0x20\n      add\n      0x00\n      keccak256\n        /* \"contracts/SimpleContract.sol\":1070:1098  allowance[owner][msg.sender] */\n      0x00\n        /* \"contracts/SimpleContract.sol\":1087:1097  msg.sender */\n      caller\n        /* \"contracts/SimpleContract.sol\":1070:1098  allowance[owner][msg.sender] */\n      0xffffffffffffffffffffffffffffffffffffffff\n      and\n      0xffffffffffffffffffffffffffffffffffffffff\n      and\n      dup2\n      mstore\n      0x20\n      add\n      swap1\n      dup2\n      mstore\n      0x20\n      add\n      0x00\n      keccak256\n      0x00\n      swap1\n      sload\n      swap1\n      0x0100\n      exp\n      swap1\n      div\n      0xff\n      and\n        /* \"contracts/SimpleContract.sol\":1099:1112  errorMessages */\n      0x04\n        /* \"contracts/SimpleContract.sol\":1113:1114  0 */\n      0x00\n        /* \"contracts/SimpleContract.sol\":1099:1115  errorMessages[0] */\n      0x02\n      dup2\n      lt\n      tag_70\n      jumpi\n      tag_71\n      tag_72\n      jump\t// in\n    tag_71:\n    tag_70:\n      add\n        /* \"contracts/SimpleContract.sol\":1062:1116  require(allowance[owner][msg.sender],errorMessages[0]) */\n      swap1\n      tag_74\n      jumpi\n      mload(0x40)\n      0x08c379a000000000000000000000000000000000000000000000000000000000\n      dup2\n      mstore\n      0x04\n      add\n      tag_75\n      swap2\n      swap1\n      tag_76\n      jump\t// in\n    tag_75:\n      mload(0x40)\n      dup1\n      swap2\n      sub\n      swap1\n      revert\n    tag_74:\n      pop\n        /* \"contracts/SimpleContract.sol\":1427:1437  _increment */\n      dup1\n        /* \"contracts/SimpleContract.sol\":1419:1424  count */\n      sload(0x01)\n        /* \"contracts/SimpleContract.sol\":1419:1437  count + _increment */\n      tag_78\n      swap2\n      swap1\n      tag_79\n      jump\t// in\n    tag_78:\n        /* \"contracts/SimpleContract.sol\":1411:1416  count */\n      0x01\n        /* \"contracts/SimpleContract.sol\":1411:1437  count = count + _increment */\n      dup2\n      swap1\n      sstore\n      pop\n        /* \"contracts/SimpleContract.sol\":1349:1444  function increment(uint _increment) isAllowed public{... */\n      pop\n      jump\t// out\n        /* \"contracts/SimpleContract.sol\":1559:1706  function assignAllowence(address _address) public OnlyOwner{ ... */\n    tag_44:\n        /* \"contracts/SimpleContract.sol\":1187:1197  msg.sender */\n      caller\n        /* \"contracts/SimpleContract.sol\":1178:1197  owner == msg.sender */\n      0xffffffffffffffffffffffffffffffffffffffff\n      and\n        /* \"contracts/SimpleContract.sol\":1178:1183  owner */\n      0x06\n      0x00\n      swap1\n      sload\n      swap1\n      0x0100\n      exp\n      swap1\n      div\n      0xffffffffffffffffffffffffffffffffffffffff\n      and\n        /* \"contracts/SimpleContract.sol\":1178:1197  owner == msg.sender */\n      0xffffffffffffffffffffffffffffffffffffffff\n      and\n      eq\n        /* \"contracts/SimpleContract.sol\":1199:1212  errorMessages */\n      0x04\n        /* \"contracts/SimpleContract.sol\":1213:1214  1 */\n      0x01\n        /* \"contracts/SimpleContract.sol\":1199:1215  errorMessages[1] */\n      0x02\n      dup2\n      lt\n      tag_81\n      jumpi\n      tag_82\n      tag_72\n      jump\t// in\n    tag_82:\n    tag_81:\n      add\n        /* \"contracts/SimpleContract.sol\":1170:1217  require(owner == msg.sender, errorMessages[1] ) */\n      swap1\n      tag_84\n      jumpi\n      mload(0x40)\n      0x08c379a000000000000000000000000000000000000000000000000000000000\n      dup2\n      mstore\n      0x04\n      add\n      tag_85\n      swap2\n      swap1\n      tag_76\n      jump\t// in\n    tag_85:\n      mload(0x40)\n      dup1\n      swap2\n      sub\n      swap1\n      revert\n    tag_84:\n      pop\n        /* \"contracts/SimpleContract.sol\":1658:1662  true */\n      0x01\n        /* \"contracts/SimpleContract.sol\":1629:1638  allowance */\n      0x03\n        /* \"contracts/SimpleContract.sol\":1629:1645  allowance[owner] */\n      0x00\n        /* \"contracts/SimpleContract.sol\":1639:1644  owner */\n      0x06\n      0x00\n      swap1\n      sload\n      swap1\n      0x0100\n      exp\n      swap1\n      div\n      0xffffffffffffffffffffffffffffffffffffffff\n      and\n        /* \"contracts/SimpleContract.sol\":1629:1645  allowance[owner] */\n      0xffffffffffffffffffffffffffffffffffffffff\n      and\n      0xffffffffffffffffffffffffffffffffffffffff\n      and\n      dup2\n      mstore\n      0x20\n      add\n      swap1\n      dup2\n      mstore\n      0x20\n      add\n      0x00\n      keccak256\n        /* \"contracts/SimpleContract.sol\":1629:1655  allowance[owner][_address] */\n      0x00\n        /* \"contracts/SimpleContract.sol\":1646:1654  _address */\n      dup4\n        /* \"contracts/SimpleContract.sol\":1629:1655  allowance[owner][_address] */\n      0xffffffffffffffffffffffffffffffffffffffff\n      and\n      0xffffffffffffffffffffffffffffffffffffffff\n      and\n      dup2\n      mstore\n      0x20\n      add\n      swap1\n      dup2\n      mstore\n      0x20\n      add\n      0x00\n      keccak256\n      0x00\n        /* \"contracts/SimpleContract.sol\":1629:1662  allowance[owner][_address] = true */\n      0x0100\n      exp\n      dup2\n      sload\n      dup2\n      0xff\n      mul\n      not\n      and\n      swap1\n      dup4\n      iszero\n      iszero\n      mul\n      or\n      swap1\n      sstore\n      pop\n        /* \"contracts/SimpleContract.sol\":1559:1706  function assignAllowence(address _address) public OnlyOwner{ ... */\n      pop\n      jump\t// out\n        /* \"contracts/SimpleContract.sol\":594:614  address public owner */\n    tag_46:\n      0x06\n      0x00\n      swap1\n      sload\n      swap1\n      0x0100\n      exp\n      swap1\n      div\n      0xffffffffffffffffffffffffffffffffffffffff\n      and\n      dup2\n      jump\t// out\n        /* \"contracts/SimpleContract.sol\":1241:1282  function buy() isAllowed public  {... */\n    tag_50:\n        /* \"contracts/SimpleContract.sol\":1070:1079  allowance */\n      0x03\n        /* \"contracts/SimpleContract.sol\":1070:1086  allowance[owner] */\n      0x00\n        /* \"contracts/SimpleContract.sol\":1080:1085  owner */\n      0x06\n      0x00\n      swap1\n      sload\n      swap1\n      0x0100\n      exp\n      swap1\n      div\n      0xffffffffffffffffffffffffffffffffffffffff\n      and\n        /* \"contracts/SimpleContract.sol\":1070:1086  allowance[owner] */\n      0xffffffffffffffffffffffffffffffffffffffff\n      and\n      0xffffffffffffffffffffffffffffffffffffffff\n      and\n      dup2\n      mstore\n      0x20\n      add\n      swap1\n      dup2\n      mstore\n      0x20\n      add\n      0x00\n      keccak256\n        /* \"contracts/SimpleContract.sol\":1070:1098  allowance[owner][msg.sender] */\n      0x00\n        /* \"contracts/SimpleContract.sol\":1087:1097  msg.sender */\n      caller\n        /* \"contracts/SimpleContract.sol\":1070:1098  allowance[owner][msg.sender] */\n      0xffffffffffffffffffffffffffffffffffffffff\n      and\n      0xffffffffffffffffffffffffffffffffffffffff\n      and\n      dup2\n      mstore\n      0x20\n      add\n      swap1\n      dup2\n      mstore\n      0x20\n      add\n      0x00\n      keccak256\n      0x00\n      swap1\n      sload\n      swap1\n      0x0100\n      exp\n      swap1\n      div\n      0xff\n      and\n        /* \"contracts/SimpleContract.sol\":1099:1112  errorMessages */\n      0x04\n        /* \"contracts/SimpleContract.sol\":1113:1114  0 */\n      0x00\n        /* \"contracts/SimpleContract.sol\":1099:1115  errorMessages[0] */\n      0x02\n      dup2\n      lt\n      tag_88\n      jumpi\n      tag_89\n      tag_72\n      jump\t// in\n    tag_89:\n    tag_88:\n      add\n        /* \"contracts/SimpleContract.sol\":1062:1116  require(allowance[owner][msg.sender],errorMessages[0]) */\n      swap1\n      tag_91\n      jumpi\n      mload(0x40)\n      0x08c379a000000000000000000000000000000000000000000000000000000000\n      dup2\n      mstore\n      0x04\n      add\n      tag_92\n      swap2\n      swap1\n      tag_76\n      jump\t// in\n    tag_92:\n      mload(0x40)\n      dup1\n      swap2\n      sub\n      swap1\n      revert\n    tag_91:\n      pop\n        /* \"contracts/SimpleContract.sol\":1241:1282  function buy() isAllowed public  {... */\n      jump\t// out\n        /* \"contracts/SimpleContract.sol\":1450:1553  function signedIncrement(int _increment) public {... */\n    tag_54:\n        /* \"contracts/SimpleContract.sol\":1536:1546  _increment */\n      dup1\n        /* \"contracts/SimpleContract.sol\":1522:1533  signedCount */\n      sload(0x02)\n        /* \"contracts/SimpleContract.sol\":1522:1546  signedCount + _increment */\n      tag_95\n      swap2\n      swap1\n      tag_96\n      jump\t// in\n    tag_95:\n        /* \"contracts/SimpleContract.sol\":1508:1519  signedCount */\n      0x02\n        /* \"contracts/SimpleContract.sol\":1508:1546  signedCount = signedCount + _increment */\n      dup2\n      swap1\n      sstore\n      pop\n        /* \"contracts/SimpleContract.sol\":1450:1553  function signedIncrement(int _increment) public {... */\n      pop\n      jump\t// out\n        /* \"contracts/SimpleContract.sol\":485:515  string[2] public errorMessages */\n    tag_57:\n      0x04\n      dup2\n      0x02\n      dup2\n      lt\n      tag_97\n      jumpi\n      0x00\n      dup1\n      revert\n    tag_97:\n      add\n      0x00\n      swap2\n      pop\n      swap1\n      pop\n      dup1\n      sload\n      tag_99\n      swap1\n      tag_100\n      jump\t// in\n    tag_99:\n      dup1\n      0x1f\n      add\n      0x20\n      dup1\n      swap2\n      div\n      mul\n      0x20\n      add\n      mload(0x40)\n      swap1\n      dup2\n      add\n      0x40\n      mstore\n      dup1\n      swap3\n      swap2\n      swap1\n      dup2\n      dup2\n      mstore\n      0x20\n      add\n      dup3\n      dup1\n      sload\n      tag_101\n      swap1\n      tag_100\n      jump\t// in\n    tag_101:\n      dup1\n      iszero\n      tag_102\n      jumpi\n      dup1\n      0x1f\n      lt\n      tag_103\n      jumpi\n      0x0100\n      dup1\n      dup4\n      sload\n      div\n      mul\n      dup4\n      mstore\n      swap2\n      0x20\n      add\n      swap2\n      jump(tag_102)\n    tag_103:\n      dup3\n      add\n      swap2\n      swap1\n      0x00\n      mstore\n      keccak256(0x00, 0x20)\n      swap1\n    tag_104:\n      dup2\n      sload\n      dup2\n      mstore\n      swap1\n      0x01\n      add\n      swap1\n      0x20\n      add\n      dup1\n      dup4\n      gt\n      tag_104\n      jumpi\n      dup3\n      swap1\n      sub\n      0x1f\n      and\n      dup3\n      add\n      swap2\n    tag_102:\n      pop\n      pop\n      pop\n      pop\n      pop\n      dup2\n      jump\t// out\n        /* \"contracts/SimpleContract.sol\":376:438  mapping(address => mapping(address => bool) ) public allowance */\n    tag_63:\n      mstore(0x20, 0x03)\n      dup2\n      0x00\n      mstore\n      mstore(0x20, keccak256(0x00, 0x40))\n      dup1\n      0x00\n      mstore\n      keccak256(0x00, 0x40)\n      0x00\n      swap2\n      pop\n      swap2\n      pop\n      swap1\n      sload\n      swap1\n      0x0100\n      exp\n      swap1\n      div\n      0xff\n      and\n      dup2\n      jump\t// out\n        /* \"contracts/SimpleContract.sol\":1288:1343  function oneIncrement() public {... */\n    tag_66:\n        /* \"contracts/SimpleContract.sol\":1331:1336  count */\n      0x01\n      0x00\n        /* \"contracts/SimpleContract.sol\":1329:1336  ++count */\n      dup2\n      sload\n      tag_106\n      swap1\n      tag_107\n      jump\t// in\n    tag_106:\n      swap2\n      swap1\n      pop\n      dup2\n      swap1\n      sstore\n      pop\n        /* \"contracts/SimpleContract.sol\":1288:1343  function oneIncrement() public {... */\n      jump\t// out\n        /* \"#utility.yul\":7:84   */\n    tag_108:\n        /* \"#utility.yul\":44:51   */\n      0x00\n        /* \"#utility.yul\":73:78   */\n      dup2\n        /* \"#utility.yul\":62:78   */\n      swap1\n      pop\n        /* \"#utility.yul\":7:84   */\n      swap2\n      swap1\n      pop\n      jump\t// out\n        /* \"#utility.yul\":90:208   */\n    tag_109:\n        /* \"#utility.yul\":177:201   */\n      tag_140\n        /* \"#utility.yul\":195:200   */\n      dup2\n        /* \"#utility.yul\":177:201   */\n      tag_108\n      jump\t// in\n    tag_140:\n        /* \"#utility.yul\":172:175   */\n      dup3\n        /* \"#utility.yul\":165:202   */\n      mstore\n        /* \"#utility.yul\":90:208   */\n      pop\n      pop\n      jump\t// out\n        /* \"#utility.yul\":214:436   */\n    tag_21:\n        /* \"#utility.yul\":307:311   */\n      0x00\n        /* \"#utility.yul\":345:347   */\n      0x20\n        /* \"#utility.yul\":334:343   */\n      dup3\n        /* \"#utility.yul\":330:348   */\n      add\n        /* \"#utility.yul\":322:348   */\n      swap1\n      pop\n        /* \"#utility.yul\":358:429   */\n      tag_142\n        /* \"#utility.yul\":426:427   */\n      0x00\n        /* \"#utility.yul\":415:424   */\n      dup4\n        /* \"#utility.yul\":411:428   */\n      add\n        /* \"#utility.yul\":402:408   */\n      dup5\n        /* \"#utility.yul\":358:429   */\n      tag_109\n      jump\t// in\n    tag_142:\n        /* \"#utility.yul\":214:436   */\n      swap3\n      swap2\n      pop\n      pop\n      jump\t// out\n        /* \"#utility.yul\":442:532   */\n    tag_110:\n        /* \"#utility.yul\":476:483   */\n      0x00\n        /* \"#utility.yul\":519:524   */\n      dup2\n        /* \"#utility.yul\":512:525   */\n      iszero\n        /* \"#utility.yul\":505:526   */\n      iszero\n        /* \"#utility.yul\":494:526   */\n      swap1\n      pop\n        /* \"#utility.yul\":442:532   */\n      swap2\n      swap1\n      pop\n      jump\t// out\n        /* \"#utility.yul\":538:647   */\n    tag_111:\n        /* \"#utility.yul\":619:640   */\n      tag_145\n        /* \"#utility.yul\":634:639   */\n      dup2\n        /* \"#utility.yul\":619:640   */\n      tag_110\n      jump\t// in\n    tag_145:\n        /* \"#utility.yul\":614:617   */\n      dup3\n        /* \"#utility.yul\":607:641   */\n      mstore\n        /* \"#utility.yul\":538:647   */\n      pop\n      pop\n      jump\t// out\n        /* \"#utility.yul\":653:863   */\n    tag_25:\n        /* \"#utility.yul\":740:744   */\n      0x00\n        /* \"#utility.yul\":778:780   */\n      0x20\n        /* \"#utility.yul\":767:776   */\n      dup3\n        /* \"#utility.yul\":763:781   */\n      add\n        /* \"#utility.yul\":755:781   */\n      swap1\n      pop\n        /* \"#utility.yul\":791:856   */\n      tag_147\n        /* \"#utility.yul\":853:854   */\n      0x00\n        /* \"#utility.yul\":842:851   */\n      dup4\n        /* \"#utility.yul\":838:855   */\n      add\n        /* \"#utility.yul\":829:835   */\n      dup5\n        /* \"#utility.yul\":791:856   */\n      tag_111\n      jump\t// in\n    tag_147:\n        /* \"#utility.yul\":653:863   */\n      swap3\n      swap2\n      pop\n      pop\n      jump\t// out\n        /* \"#utility.yul\":950:1067   */\n    tag_113:\n        /* \"#utility.yul\":1059:1060   */\n      0x00\n        /* \"#utility.yul\":1056:1057   */\n      dup1\n        /* \"#utility.yul\":1049:1061   */\n      revert\n        /* \"#utility.yul\":1196:1312   */\n    tag_115:\n        /* \"#utility.yul\":1266:1287   */\n      tag_152\n        /* \"#utility.yul\":1281:1286   */\n      dup2\n        /* \"#utility.yul\":1266:1287   */\n      tag_110\n      jump\t// in\n    tag_152:\n        /* \"#utility.yul\":1259:1264   */\n      dup2\n        /* \"#utility.yul\":1256:1288   */\n      eq\n        /* \"#utility.yul\":1246:1306   */\n      tag_153\n      jumpi\n        /* \"#utility.yul\":1302:1303   */\n      0x00\n        /* \"#utility.yul\":1299:1300   */\n      dup1\n        /* \"#utility.yul\":1292:1304   */\n      revert\n        /* \"#utility.yul\":1246:1306   */\n    tag_153:\n        /* \"#utility.yul\":1196:1312   */\n      pop\n      jump\t// out\n        /* \"#utility.yul\":1318:1451   */\n    tag_116:\n        /* \"#utility.yul\":1361:1366   */\n      0x00\n        /* \"#utility.yul\":1399:1405   */\n      dup2\n        /* \"#utility.yul\":1386:1406   */\n      calldataload\n        /* \"#utility.yul\":1377:1406   */\n      swap1\n      pop\n        /* \"#utility.yul\":1415:1445   */\n      tag_155\n        /* \"#utility.yul\":1439:1444   */\n      dup2\n        /* \"#utility.yul\":1415:1445   */\n      tag_115\n      jump\t// in\n    tag_155:\n        /* \"#utility.yul\":1318:1451   */\n      swap3\n      swap2\n      pop\n      pop\n      jump\t// out\n        /* \"#utility.yul\":1457:1780   */\n    tag_28:\n        /* \"#utility.yul\":1513:1519   */\n      0x00\n        /* \"#utility.yul\":1562:1564   */\n      0x20\n        /* \"#utility.yul\":1550:1559   */\n      dup3\n        /* \"#utility.yul\":1541:1548   */\n      dup5\n        /* \"#utility.yul\":1537:1560   */\n      sub\n        /* \"#utility.yul\":1533:1565   */\n      slt\n        /* \"#utility.yul\":1530:1649   */\n      iszero\n      tag_157\n      jumpi\n        /* \"#utility.yul\":1568:1647   */\n      tag_158\n      tag_113\n      jump\t// in\n    tag_158:\n        /* \"#utility.yul\":1530:1649   */\n    tag_157:\n        /* \"#utility.yul\":1688:1689   */\n      0x00\n        /* \"#utility.yul\":1713:1763   */\n      tag_159\n        /* \"#utility.yul\":1755:1762   */\n      dup5\n        /* \"#utility.yul\":1746:1752   */\n      dup3\n        /* \"#utility.yul\":1735:1744   */\n      dup6\n        /* \"#utility.yul\":1731:1753   */\n      add\n        /* \"#utility.yul\":1713:1763   */\n      tag_116\n      jump\t// in\n    tag_159:\n        /* \"#utility.yul\":1703:1763   */\n      swap2\n      pop\n        /* \"#utility.yul\":1659:1773   */\n      pop\n        /* \"#utility.yul\":1457:1780   */\n      swap3\n      swap2\n      pop\n      pop\n      jump\t// out\n        /* \"#utility.yul\":1786:1862   */\n    tag_117:\n        /* \"#utility.yul\":1822:1829   */\n      0x00\n        /* \"#utility.yul\":1851:1856   */\n      dup2\n        /* \"#utility.yul\":1840:1856   */\n      swap1\n      pop\n        /* \"#utility.yul\":1786:1862   */\n      swap2\n      swap1\n      pop\n      jump\t// out\n        /* \"#utility.yul\":1868:1983   */\n    tag_118:\n        /* \"#utility.yul\":1953:1976   */\n      tag_162\n        /* \"#utility.yul\":1970:1975   */\n      dup2\n        /* \"#utility.yul\":1953:1976   */\n      tag_117\n      jump\t// in\n    tag_162:\n        /* \"#utility.yul\":1948:1951   */\n      dup3\n        /* \"#utility.yul\":1941:1977   */\n      mstore\n        /* \"#utility.yul\":1868:1983   */\n      pop\n      pop\n      jump\t// out\n        /* \"#utility.yul\":1989:2207   */\n    tag_33:\n        /* \"#utility.yul\":2080:2084   */\n      0x00\n        /* \"#utility.yul\":2118:2120   */\n      0x20\n        /* \"#utility.yul\":2107:2116   */\n      dup3\n        /* \"#utility.yul\":2103:2121   */\n      add\n        /* \"#utility.yul\":2095:2121   */\n      swap1\n      pop\n        /* \"#utility.yul\":2131:2200   */\n      tag_164\n        /* \"#utility.yul\":2197:2198   */\n      0x00\n        /* \"#utility.yul\":2186:2195   */\n      dup4\n        /* \"#utility.yul\":2182:2199   */\n      add\n        /* \"#utility.yul\":2173:2179   */\n      dup5\n        /* \"#utility.yul\":2131:2200   */\n      tag_118\n      jump\t// in\n    tag_164:\n        /* \"#utility.yul\":1989:2207   */\n      swap3\n      swap2\n      pop\n      pop\n      jump\t// out\n        /* \"#utility.yul\":2213:2335   */\n    tag_119:\n        /* \"#utility.yul\":2286:2310   */\n      tag_166\n        /* \"#utility.yul\":2304:2309   */\n      dup2\n        /* \"#utility.yul\":2286:2310   */\n      tag_108\n      jump\t// in\n    tag_166:\n        /* \"#utility.yul\":2279:2284   */\n      dup2\n        /* \"#utility.yul\":2276:2311   */\n      eq\n        /* \"#utility.yul\":2266:2329   */\n      tag_167\n      jumpi\n        /* \"#utility.yul\":2325:2326   */\n      0x00\n        /* \"#utility.yul\":2322:2323   */\n      dup1\n        /* \"#utility.yul\":2315:2327   */\n      revert\n        /* \"#utility.yul\":2266:2329   */\n    tag_167:\n        /* \"#utility.yul\":2213:2335   */\n      pop\n      jump\t// out\n        /* \"#utility.yul\":2341:2480   */\n    tag_120:\n        /* \"#utility.yul\":2387:2392   */\n      0x00\n        /* \"#utility.yul\":2425:2431   */\n      dup2\n        /* \"#utility.yul\":2412:2432   */\n      calldataload\n        /* \"#utility.yul\":2403:2432   */\n      swap1\n      pop\n        /* \"#utility.yul\":2441:2474   */\n      tag_169\n        /* \"#utility.yul\":2468:2473   */\n      dup2\n        /* \"#utility.yul\":2441:2474   */\n      tag_119\n      jump\t// in\n    tag_169:\n        /* \"#utility.yul\":2341:2480   */\n      swap3\n      swap2\n      pop\n      pop\n      jump\t// out\n        /* \"#utility.yul\":2486:2815   */\n    tag_39:\n        /* \"#utility.yul\":2545:2551   */\n      0x00\n        /* \"#utility.yul\":2594:2596   */\n      0x20\n        /* \"#utility.yul\":2582:2591   */\n      dup3\n        /* \"#utility.yul\":2573:2580   */\n      dup5\n        /* \"#utility.yul\":2569:2592   */\n      sub\n        /* \"#utility.yul\":2565:2597   */\n      slt\n        /* \"#utility.yul\":2562:2681   */\n      iszero\n      tag_171\n      jumpi\n        /* \"#utility.yul\":2600:2679   */\n      tag_172\n      tag_113\n      jump\t// in\n    tag_172:\n        /* \"#utility.yul\":2562:2681   */\n    tag_171:\n        /* \"#utility.yul\":2720:2721   */\n      0x00\n        /* \"#utility.yul\":2745:2798   */\n      tag_173\n        /* \"#utility.yul\":2790:2797   */\n      dup5\n        /* \"#utility.yul\":2781:2787   */\n      dup3\n        /* \"#utility.yul\":2770:2779   */\n      dup6\n        /* \"#utility.yul\":2766:2788   */\n      add\n        /* \"#utility.yul\":2745:2798   */\n      tag_120\n      jump\t// in\n    tag_173:\n        /* \"#utility.yul\":2735:2798   */\n      swap2\n      pop\n        /* \"#utility.yul\":2691:2808   */\n      pop\n        /* \"#utility.yul\":2486:2815   */\n      swap3\n      swap2\n      pop\n      pop\n      jump\t// out\n        /* \"#utility.yul\":2821:2947   */\n    tag_121:\n        /* \"#utility.yul\":2858:2865   */\n      0x00\n        /* \"#utility.yul\":2898:2940   */\n      0xffffffffffffffffffffffffffffffffffffffff\n        /* \"#utility.yul\":2891:2896   */\n      dup3\n        /* \"#utility.yul\":2887:2941   */\n      and\n        /* \"#utility.yul\":2876:2941   */\n      swap1\n      pop\n        /* \"#utility.yul\":2821:2947   */\n      swap2\n      swap1\n      pop\n      jump\t// out\n        /* \"#utility.yul\":2953:3049   */\n    tag_122:\n        /* \"#utility.yul\":2990:2997   */\n      0x00\n        /* \"#utility.yul\":3019:3043   */\n      tag_176\n        /* \"#utility.yul\":3037:3042   */\n      dup3\n        /* \"#utility.yul\":3019:3043   */\n      tag_121\n      jump\t// in\n    tag_176:\n        /* \"#utility.yul\":3008:3043   */\n      swap1\n      pop\n        /* \"#utility.yul\":2953:3049   */\n      swap2\n      swap1\n      pop\n      jump\t// out\n        /* \"#utility.yul\":3055:3177   */\n    tag_123:\n        /* \"#utility.yul\":3128:3152   */\n      tag_178\n        /* \"#utility.yul\":3146:3151   */\n      dup2\n        /* \"#utility.yul\":3128:3152   */\n      tag_122\n      jump\t// in\n    tag_178:\n        /* \"#utility.yul\":3121:3126   */\n      dup2\n        /* \"#utility.yul\":3118:3153   */\n      eq\n        /* \"#utility.yul\":3108:3171   */\n      tag_179\n      jumpi\n        /* \"#utility.yul\":3167:3168   */\n      0x00\n        /* \"#utility.yul\":3164:3165   */\n      dup1\n        /* \"#utility.yul\":3157:3169   */\n      revert\n        /* \"#utility.yul\":3108:3171   */\n    tag_179:\n        /* \"#utility.yul\":3055:3177   */\n      pop\n      jump\t// out\n        /* \"#utility.yul\":3183:3322   */\n    tag_124:\n        /* \"#utility.yul\":3229:3234   */\n      0x00\n        /* \"#utility.yul\":3267:3273   */\n      dup2\n        /* \"#utility.yul\":3254:3274   */\n      calldataload\n        /* \"#utility.yul\":3245:3274   */\n      swap1\n      pop\n        /* \"#utility.yul\":3283:3316   */\n      tag_181\n        /* \"#utility.yul\":3310:3315   */\n      dup2\n        /* \"#utility.yul\":3283:3316   */\n      tag_123\n      jump\t// in\n    tag_181:\n        /* \"#utility.yul\":3183:3322   */\n      swap3\n      swap2\n      pop\n      pop\n      jump\t// out\n        /* \"#utility.yul\":3328:3657   */\n    tag_43:\n        /* \"#utility.yul\":3387:3393   */\n      0x00\n        /* \"#utility.yul\":3436:3438   */\n      0x20\n        /* \"#utility.yul\":3424:3433   */\n      dup3\n        /* \"#utility.yul\":3415:3422   */\n      dup5\n        /* \"#utility.yul\":3411:3434   */\n      sub\n        /* \"#utility.yul\":3407:3439   */\n      slt\n        /* \"#utility.yul\":3404:3523   */\n      iszero\n      tag_183\n      jumpi\n        /* \"#utility.yul\":3442:3521   */\n      tag_184\n      tag_113\n      jump\t// in\n    tag_184:\n        /* \"#utility.yul\":3404:3523   */\n    tag_183:\n        /* \"#utility.yul\":3562:3563   */\n      0x00\n        /* \"#utility.yul\":3587:3640   */\n      tag_185\n        /* \"#utility.yul\":3632:3639   */\n      dup5\n        /* \"#utility.yul\":3623:3629   */\n      dup3\n        /* \"#utility.yul\":3612:3621   */\n      dup6\n        /* \"#utility.yul\":3608:3630   */\n      add\n        /* \"#utility.yul\":3587:3640   */\n      tag_124\n      jump\t// in\n    tag_185:\n        /* \"#utility.yul\":3577:3640   */\n      swap2\n      pop\n        /* \"#utility.yul\":3533:3650   */\n      pop\n        /* \"#utility.yul\":3328:3657   */\n      swap3\n      swap2\n      pop\n      pop\n      jump\t// out\n        /* \"#utility.yul\":3663:3781   */\n    tag_125:\n        /* \"#utility.yul\":3750:3774   */\n      tag_187\n        /* \"#utility.yul\":3768:3773   */\n      dup2\n        /* \"#utility.yul\":3750:3774   */\n      tag_122\n      jump\t// in\n    tag_187:\n        /* \"#utility.yul\":3745:3748   */\n      dup3\n        /* \"#utility.yul\":3738:3775   */\n      mstore\n        /* \"#utility.yul\":3663:3781   */\n      pop\n      pop\n      jump\t// out\n        /* \"#utility.yul\":3787:4009   */\n    tag_48:\n        /* \"#utility.yul\":3880:3884   */\n      0x00\n        /* \"#utility.yul\":3918:3920   */\n      0x20\n        /* \"#utility.yul\":3907:3916   */\n      dup3\n        /* \"#utility.yul\":3903:3921   */\n      add\n        /* \"#utility.yul\":3895:3921   */\n      swap1\n      pop\n        /* \"#utility.yul\":3931:4002   */\n      tag_189\n        /* \"#utility.yul\":3999:4000   */\n      0x00\n        /* \"#utility.yul\":3988:3997   */\n      dup4\n        /* \"#utility.yul\":3984:4001   */\n      add\n        /* \"#utility.yul\":3975:3981   */\n      dup5\n        /* \"#utility.yul\":3931:4002   */\n      tag_125\n      jump\t// in\n    tag_189:\n        /* \"#utility.yul\":3787:4009   */\n      swap3\n      swap2\n      pop\n      pop\n      jump\t// out\n        /* \"#utility.yul\":4015:4135   */\n    tag_126:\n        /* \"#utility.yul\":4087:4110   */\n      tag_191\n        /* \"#utility.yul\":4104:4109   */\n      dup2\n        /* \"#utility.yul\":4087:4110   */\n      tag_117\n      jump\t// in\n    tag_191:\n        /* \"#utility.yul\":4080:4085   */\n      dup2\n        /* \"#utility.yul\":4077:4111   */\n      eq\n        /* \"#utility.yul\":4067:4129   */\n      tag_192\n      jumpi\n        /* \"#utility.yul\":4125:4126   */\n      0x00\n        /* \"#utility.yul\":4122:4123   */\n      dup1\n        /* \"#utility.yul\":4115:4127   */\n      revert\n        /* \"#utility.yul\":4067:4129   */\n    tag_192:\n        /* \"#utility.yul\":4015:4135   */\n      pop\n      jump\t// out\n        /* \"#utility.yul\":4141:4278   */\n    tag_127:\n        /* \"#utility.yul\":4186:4191   */\n      0x00\n        /* \"#utility.yul\":4224:4230   */\n      dup2\n        /* \"#utility.yul\":4211:4231   */\n      calldataload\n        /* \"#utility.yul\":4202:4231   */\n      swap1\n      pop\n        /* \"#utility.yul\":4240:4272   */\n      tag_194\n        /* \"#utility.yul\":4266:4271   */\n      dup2\n        /* \"#utility.yul\":4240:4272   */\n      tag_126\n      jump\t// in\n    tag_194:\n        /* \"#utility.yul\":4141:4278   */\n      swap3\n      swap2\n      pop\n      pop\n      jump\t// out\n        /* \"#utility.yul\":4284:4611   */\n    tag_53:\n        /* \"#utility.yul\":4342:4348   */\n      0x00\n        /* \"#utility.yul\":4391:4393   */\n      0x20\n        /* \"#utility.yul\":4379:4388   */\n      dup3\n        /* \"#utility.yul\":4370:4377   */\n      dup5\n        /* \"#utility.yul\":4366:4389   */\n      sub\n        /* \"#utility.yul\":4362:4394   */\n      slt\n        /* \"#utility.yul\":4359:4478   */\n      iszero\n      tag_196\n      jumpi\n        /* \"#utility.yul\":4397:4476   */\n      tag_197\n      tag_113\n      jump\t// in\n    tag_197:\n        /* \"#utility.yul\":4359:4478   */\n    tag_196:\n        /* \"#utility.yul\":4517:4518   */\n      0x00\n        /* \"#utility.yul\":4542:4594   */\n      tag_198\n        /* \"#utility.yul\":4586:4593   */\n      dup5\n        /* \"#utility.yul\":4577:4583   */\n      dup3\n        /* \"#utility.yul\":4566:4575   */\n      dup6\n        /* \"#utility.yul\":4562:4584   */\n      add\n        /* \"#utility.yul\":4542:4594   */\n      tag_127\n      jump\t// in\n    tag_198:\n        /* \"#utility.yul\":4532:4594   */\n      swap2\n      pop\n        /* \"#utility.yul\":4488:4604   */\n      pop\n        /* \"#utility.yul\":4284:4611   */\n      swap3\n      swap2\n      pop\n      pop\n      jump\t// out\n        /* \"#utility.yul\":4617:4716   */\n    tag_128:\n        /* \"#utility.yul\":4669:4675   */\n      0x00\n        /* \"#utility.yul\":4703:4708   */\n      dup2\n        /* \"#utility.yul\":4697:4709   */\n      mload\n        /* \"#utility.yul\":4687:4709   */\n      swap1\n      pop\n        /* \"#utility.yul\":4617:4716   */\n      swap2\n      swap1\n      pop\n      jump\t// out\n        /* \"#utility.yul\":4722:4891   */\n    tag_129:\n        /* \"#utility.yul\":4806:4817   */\n      0x00\n        /* \"#utility.yul\":4840:4846   */\n      dup3\n        /* \"#utility.yul\":4835:4838   */\n      dup3\n        /* \"#utility.yul\":4828:4847   */\n      mstore\n        /* \"#utility.yul\":4880:4884   */\n      0x20\n        /* \"#utility.yul\":4875:4878   */\n      dup3\n        /* \"#utility.yul\":4871:4885   */\n      add\n        /* \"#utility.yul\":4856:4885   */\n      swap1\n      pop\n        /* \"#utility.yul\":4722:4891   */\n      swap3\n      swap2\n      pop\n      pop\n      jump\t// out\n        /* \"#utility.yul\":4897:5143   */\n    tag_130:\n        /* \"#utility.yul\":4978:4979   */\n      0x00\n        /* \"#utility.yul\":4988:5101   */\n    tag_202:\n        /* \"#utility.yul\":5002:5008   */\n      dup4\n        /* \"#utility.yul\":4999:5000   */\n      dup2\n        /* \"#utility.yul\":4996:5009   */\n      lt\n        /* \"#utility.yul\":4988:5101   */\n      iszero\n      tag_204\n      jumpi\n        /* \"#utility.yul\":5087:5088   */\n      dup1\n        /* \"#utility.yul\":5082:5085   */\n      dup3\n        /* \"#utility.yul\":5078:5089   */\n      add\n        /* \"#utility.yul\":5072:5090   */\n      mload\n        /* \"#utility.yul\":5068:5069   */\n      dup2\n        /* \"#utility.yul\":5063:5066   */\n      dup5\n        /* \"#utility.yul\":5059:5070   */\n      add\n        /* \"#utility.yul\":5052:5091   */\n      mstore\n        /* \"#utility.yul\":5024:5026   */\n      0x20\n        /* \"#utility.yul\":5021:5022   */\n      dup2\n        /* \"#utility.yul\":5017:5027   */\n      add\n        /* \"#utility.yul\":5012:5027   */\n      swap1\n      pop\n        /* \"#utility.yul\":4988:5101   */\n      jump(tag_202)\n    tag_204:\n        /* \"#utility.yul\":5135:5136   */\n      0x00\n        /* \"#utility.yul\":5126:5132   */\n      dup5\n        /* \"#utility.yul\":5121:5124   */\n      dup5\n        /* \"#utility.yul\":5117:5133   */\n      add\n        /* \"#utility.yul\":5110:5137   */\n      mstore\n        /* \"#utility.yul\":4959:5143   */\n      pop\n        /* \"#utility.yul\":4897:5143   */\n      pop\n      pop\n      pop\n      jump\t// out\n        /* \"#utility.yul\":5149:5251   */\n    tag_131:\n        /* \"#utility.yul\":5190:5196   */\n      0x00\n        /* \"#utility.yul\":5241:5243   */\n      0x1f\n        /* \"#utility.yul\":5237:5244   */\n      not\n        /* \"#utility.yul\":5232:5234   */\n      0x1f\n        /* \"#utility.yul\":5225:5230   */\n      dup4\n        /* \"#utility.yul\":5221:5235   */\n      add\n        /* \"#utility.yul\":5217:5245   */\n      and\n        /* \"#utility.yul\":5207:5245   */\n      swap1\n      pop\n        /* \"#utility.yul\":5149:5251   */\n      swap2\n      swap1\n      pop\n      jump\t// out\n        /* \"#utility.yul\":5257:5634   */\n    tag_132:\n        /* \"#utility.yul\":5345:5348   */\n      0x00\n        /* \"#utility.yul\":5373:5412   */\n      tag_207\n        /* \"#utility.yul\":5406:5411   */\n      dup3\n        /* \"#utility.yul\":5373:5412   */\n      tag_128\n      jump\t// in\n    tag_207:\n        /* \"#utility.yul\":5428:5499   */\n      tag_208\n        /* \"#utility.yul\":5492:5498   */\n      dup2\n        /* \"#utility.yul\":5487:5490   */\n      dup6\n        /* \"#utility.yul\":5428:5499   */\n      tag_129\n      jump\t// in\n    tag_208:\n        /* \"#utility.yul\":5421:5499   */\n      swap4\n      pop\n        /* \"#utility.yul\":5508:5573   */\n      tag_209\n        /* \"#utility.yul\":5566:5572   */\n      dup2\n        /* \"#utility.yul\":5561:5564   */\n      dup6\n        /* \"#utility.yul\":5554:5558   */\n      0x20\n        /* \"#utility.yul\":5547:5552   */\n      dup7\n        /* \"#utility.yul\":5543:5559   */\n      add\n        /* \"#utility.yul\":5508:5573   */\n      tag_130\n      jump\t// in\n    tag_209:\n        /* \"#utility.yul\":5598:5627   */\n      tag_210\n        /* \"#utility.yul\":5620:5626   */\n      dup2\n        /* \"#utility.yul\":5598:5627   */\n      tag_131\n      jump\t// in\n    tag_210:\n        /* \"#utility.yul\":5593:5596   */\n      dup5\n        /* \"#utility.yul\":5589:5628   */\n      add\n        /* \"#utility.yul\":5582:5628   */\n      swap2\n      pop\n        /* \"#utility.yul\":5349:5634   */\n      pop\n        /* \"#utility.yul\":5257:5634   */\n      swap3\n      swap2\n      pop\n      pop\n      jump\t// out\n        /* \"#utility.yul\":5640:5953   */\n    tag_59:\n        /* \"#utility.yul\":5753:5757   */\n      0x00\n        /* \"#utility.yul\":5791:5793   */\n      0x20\n        /* \"#utility.yul\":5780:5789   */\n      dup3\n        /* \"#utility.yul\":5776:5794   */\n      add\n        /* \"#utility.yul\":5768:5794   */\n      swap1\n      pop\n        /* \"#utility.yul\":5840:5849   */\n      dup2\n        /* \"#utility.yul\":5834:5838   */\n      dup2\n        /* \"#utility.yul\":5830:5850   */\n      sub\n        /* \"#utility.yul\":5826:5827   */\n      0x00\n        /* \"#utility.yul\":5815:5824   */\n      dup4\n        /* \"#utility.yul\":5811:5828   */\n      add\n        /* \"#utility.yul\":5804:5851   */\n      mstore\n        /* \"#utility.yul\":5868:5946   */\n      tag_212\n        /* \"#utility.yul\":5941:5945   */\n      dup2\n        /* \"#utility.yul\":5932:5938   */\n      dup5\n        /* \"#utility.yul\":5868:5946   */\n      tag_132\n      jump\t// in\n    tag_212:\n        /* \"#utility.yul\":5860:5946   */\n      swap1\n      pop\n        /* \"#utility.yul\":5640:5953   */\n      swap3\n      swap2\n      pop\n      pop\n      jump\t// out\n        /* \"#utility.yul\":5959:6433   */\n    tag_62:\n        /* \"#utility.yul\":6027:6033   */\n      0x00\n        /* \"#utility.yul\":6035:6041   */\n      dup1\n        /* \"#utility.yul\":6084:6086   */\n      0x40\n        /* \"#utility.yul\":6072:6081   */\n      dup4\n        /* \"#utility.yul\":6063:6070   */\n      dup6\n        /* \"#utility.yul\":6059:6082   */\n      sub\n        /* \"#utility.yul\":6055:6087   */\n      slt\n        /* \"#utility.yul\":6052:6171   */\n      iszero\n      tag_214\n      jumpi\n        /* \"#utility.yul\":6090:6169   */\n      tag_215\n      tag_113\n      jump\t// in\n    tag_215:\n        /* \"#utility.yul\":6052:6171   */\n    tag_214:\n        /* \"#utility.yul\":6210:6211   */\n      0x00\n        /* \"#utility.yul\":6235:6288   */\n      tag_216\n        /* \"#utility.yul\":6280:6287   */\n      dup6\n        /* \"#utility.yul\":6271:6277   */\n      dup3\n        /* \"#utility.yul\":6260:6269   */\n      dup7\n        /* \"#utility.yul\":6256:6278   */\n      add\n        /* \"#utility.yul\":6235:6288   */\n      tag_124\n      jump\t// in\n    tag_216:\n        /* \"#utility.yul\":6225:6288   */\n      swap3\n      pop\n        /* \"#utility.yul\":6181:6298   */\n      pop\n        /* \"#utility.yul\":6337:6339   */\n      0x20\n        /* \"#utility.yul\":6363:6416   */\n      tag_217\n        /* \"#utility.yul\":6408:6415   */\n      dup6\n        /* \"#utility.yul\":6399:6405   */\n      dup3\n        /* \"#utility.yul\":6388:6397   */\n      dup7\n        /* \"#utility.yul\":6384:6406   */\n      add\n        /* \"#utility.yul\":6363:6416   */\n      tag_124\n      jump\t// in\n    tag_217:\n        /* \"#utility.yul\":6353:6416   */\n      swap2\n      pop\n        /* \"#utility.yul\":6308:6426   */\n      pop\n        /* \"#utility.yul\":5959:6433   */\n      swap3\n      pop\n      swap3\n      swap1\n      pop\n      jump\t// out\n        /* \"#utility.yul\":6439:6619   */\n    tag_72:\n        /* \"#utility.yul\":6487:6564   */\n      0x4e487b7100000000000000000000000000000000000000000000000000000000\n        /* \"#utility.yul\":6484:6485   */\n      0x00\n        /* \"#utility.yul\":6477:6565   */\n      mstore\n        /* \"#utility.yul\":6584:6588   */\n      0x32\n        /* \"#utility.yul\":6581:6582   */\n      0x04\n        /* \"#utility.yul\":6574:6589   */\n      mstore\n        /* \"#utility.yul\":6608:6612   */\n      0x24\n        /* \"#utility.yul\":6605:6606   */\n      0x00\n        /* \"#utility.yul\":6598:6613   */\n      revert\n        /* \"#utility.yul\":6625:6805   */\n    tag_133:\n        /* \"#utility.yul\":6673:6750   */\n      0x4e487b7100000000000000000000000000000000000000000000000000000000\n        /* \"#utility.yul\":6670:6671   */\n      0x00\n        /* \"#utility.yul\":6663:6751   */\n      mstore\n        /* \"#utility.yul\":6770:6774   */\n      0x22\n        /* \"#utility.yul\":6767:6768   */\n      0x04\n        /* \"#utility.yul\":6760:6775   */\n      mstore\n        /* \"#utility.yul\":6794:6798   */\n      0x24\n        /* \"#utility.yul\":6791:6792   */\n      0x00\n        /* \"#utility.yul\":6784:6799   */\n      revert\n        /* \"#utility.yul\":6811:7131   */\n    tag_100:\n        /* \"#utility.yul\":6855:6861   */\n      0x00\n        /* \"#utility.yul\":6892:6893   */\n      0x02\n        /* \"#utility.yul\":6886:6890   */\n      dup3\n        /* \"#utility.yul\":6882:6894   */\n      div\n        /* \"#utility.yul\":6872:6894   */\n      swap1\n      pop\n        /* \"#utility.yul\":6939:6940   */\n      0x01\n        /* \"#utility.yul\":6933:6937   */\n      dup3\n        /* \"#utility.yul\":6929:6941   */\n      and\n        /* \"#utility.yul\":6960:6978   */\n      dup1\n        /* \"#utility.yul\":6950:7031   */\n      tag_221\n      jumpi\n        /* \"#utility.yul\":7016:7020   */\n      0x7f\n        /* \"#utility.yul\":7008:7014   */\n      dup3\n        /* \"#utility.yul\":7004:7021   */\n      and\n        /* \"#utility.yul\":6994:7021   */\n      swap2\n      pop\n        /* \"#utility.yul\":6950:7031   */\n    tag_221:\n        /* \"#utility.yul\":7078:7080   */\n      0x20\n        /* \"#utility.yul\":7070:7076   */\n      dup3\n        /* \"#utility.yul\":7067:7081   */\n      lt\n        /* \"#utility.yul\":7047:7065   */\n      dup2\n        /* \"#utility.yul\":7044:7082   */\n      sub\n        /* \"#utility.yul\":7041:7125   */\n      tag_222\n      jumpi\n        /* \"#utility.yul\":7097:7115   */\n      tag_223\n      tag_133\n      jump\t// in\n    tag_223:\n        /* \"#utility.yul\":7041:7125   */\n    tag_222:\n        /* \"#utility.yul\":6862:7131   */\n      pop\n        /* \"#utility.yul\":6811:7131   */\n      swap2\n      swap1\n      pop\n      jump\t// out\n        /* \"#utility.yul\":7137:7278   */\n    tag_134:\n        /* \"#utility.yul\":7186:7190   */\n      0x00\n        /* \"#utility.yul\":7209:7212   */\n      dup2\n        /* \"#utility.yul\":7201:7212   */\n      swap1\n      pop\n        /* \"#utility.yul\":7232:7235   */\n      dup2\n        /* \"#utility.yul\":7229:7230   */\n      0x00\n        /* \"#utility.yul\":7222:7236   */\n      mstore\n        /* \"#utility.yul\":7266:7270   */\n      0x20\n        /* \"#utility.yul\":7263:7264   */\n      0x00\n        /* \"#utility.yul\":7253:7271   */\n      keccak256\n        /* \"#utility.yul\":7245:7271   */\n      swap1\n      pop\n        /* \"#utility.yul\":7137:7278   */\n      swap2\n      swap1\n      pop\n      jump\t// out\n        /* \"#utility.yul\":7308:8139   */\n    tag_135:\n        /* \"#utility.yul\":7393:7396   */\n      0x00\n        /* \"#utility.yul\":7430:7435   */\n      dup2\n        /* \"#utility.yul\":7424:7436   */\n      sload\n        /* \"#utility.yul\":7459:7495   */\n      tag_226\n        /* \"#utility.yul\":7485:7494   */\n      dup2\n        /* \"#utility.yul\":7459:7495   */\n      tag_100\n      jump\t// in\n    tag_226:\n        /* \"#utility.yul\":7511:7582   */\n      tag_227\n        /* \"#utility.yul\":7575:7581   */\n      dup2\n        /* \"#utility.yul\":7570:7573   */\n      dup7\n        /* \"#utility.yul\":7511:7582   */\n      tag_129\n      jump\t// in\n    tag_227:\n        /* \"#utility.yul\":7504:7582   */\n      swap5\n      pop\n        /* \"#utility.yul\":7613:7614   */\n      0x01\n        /* \"#utility.yul\":7602:7611   */\n      dup3\n        /* \"#utility.yul\":7598:7615   */\n      and\n        /* \"#utility.yul\":7629:7630   */\n      0x00\n        /* \"#utility.yul\":7624:7788   */\n      dup2\n      eq\n      tag_229\n      jumpi\n        /* \"#utility.yul\":7802:7803   */\n      0x01\n        /* \"#utility.yul\":7797:8133   */\n      dup2\n      eq\n      tag_230\n      jumpi\n        /* \"#utility.yul\":7591:8133   */\n      jump(tag_228)\n        /* \"#utility.yul\":7624:7788   */\n    tag_229:\n        /* \"#utility.yul\":7708:7712   */\n      0xff\n        /* \"#utility.yul\":7704:7713   */\n      not\n        /* \"#utility.yul\":7693:7702   */\n      dup4\n        /* \"#utility.yul\":7689:7714   */\n      and\n        /* \"#utility.yul\":7684:7687   */\n      dup7\n        /* \"#utility.yul\":7677:7715   */\n      mstore\n        /* \"#utility.yul\":7768:7774   */\n      dup2\n        /* \"#utility.yul\":7761:7775   */\n      iszero\n        /* \"#utility.yul\":7754:7776   */\n      iszero\n        /* \"#utility.yul\":7748:7752   */\n      0x20\n        /* \"#utility.yul\":7744:7777   */\n      mul\n        /* \"#utility.yul\":7739:7742   */\n      dup7\n        /* \"#utility.yul\":7735:7778   */\n      add\n        /* \"#utility.yul\":7728:7778   */\n      swap4\n      pop\n        /* \"#utility.yul\":7624:7788   */\n      jump(tag_228)\n        /* \"#utility.yul\":7797:8133   */\n    tag_230:\n        /* \"#utility.yul\":7864:7902   */\n      tag_231\n        /* \"#utility.yul\":7896:7901   */\n      dup6\n        /* \"#utility.yul\":7864:7902   */\n      tag_134\n      jump\t// in\n    tag_231:\n        /* \"#utility.yul\":7924:7925   */\n      0x00\n        /* \"#utility.yul\":7938:8092   */\n    tag_232:\n        /* \"#utility.yul\":7952:7958   */\n      dup4\n        /* \"#utility.yul\":7949:7950   */\n      dup2\n        /* \"#utility.yul\":7946:7959   */\n      lt\n        /* \"#utility.yul\":7938:8092   */\n      iszero\n      tag_234\n      jumpi\n        /* \"#utility.yul\":8026:8033   */\n      dup2\n        /* \"#utility.yul\":8020:8034   */\n      sload\n        /* \"#utility.yul\":8016:8017   */\n      dup2\n        /* \"#utility.yul\":8011:8014   */\n      dup10\n        /* \"#utility.yul\":8007:8018   */\n      add\n        /* \"#utility.yul\":8000:8035   */\n      mstore\n        /* \"#utility.yul\":8076:8077   */\n      0x01\n        /* \"#utility.yul\":8067:8074   */\n      dup3\n        /* \"#utility.yul\":8063:8078   */\n      add\n        /* \"#utility.yul\":8052:8078   */\n      swap2\n      pop\n        /* \"#utility.yul\":7974:7978   */\n      0x20\n        /* \"#utility.yul\":7971:7972   */\n      dup2\n        /* \"#utility.yul\":7967:7979   */\n      add\n        /* \"#utility.yul\":7962:7979   */\n      swap1\n      pop\n        /* \"#utility.yul\":7938:8092   */\n      jump(tag_232)\n    tag_234:\n        /* \"#utility.yul\":8121:8122   */\n      dup1\n        /* \"#utility.yul\":8116:8119   */\n      dup9\n        /* \"#utility.yul\":8112:8123   */\n      add\n        /* \"#utility.yul\":8105:8123   */\n      swap6\n      pop\n        /* \"#utility.yul\":7804:8133   */\n      pop\n      pop\n        /* \"#utility.yul\":7591:8133   */\n    tag_228:\n      pop\n        /* \"#utility.yul\":7397:8139   */\n      pop\n      pop\n        /* \"#utility.yul\":7308:8139   */\n      swap3\n      swap2\n      pop\n      pop\n      jump\t// out\n        /* \"#utility.yul\":8145:8452   */\n    tag_76:\n        /* \"#utility.yul\":8255:8259   */\n      0x00\n        /* \"#utility.yul\":8293:8295   */\n      0x20\n        /* \"#utility.yul\":8282:8291   */\n      dup3\n        /* \"#utility.yul\":8278:8296   */\n      add\n        /* \"#utility.yul\":8270:8296   */\n      swap1\n      pop\n        /* \"#utility.yul\":8342:8351   */\n      dup2\n        /* \"#utility.yul\":8336:8340   */\n      dup2\n        /* \"#utility.yul\":8332:8352   */\n      sub\n        /* \"#utility.yul\":8328:8329   */\n      0x00\n        /* \"#utility.yul\":8317:8326   */\n      dup4\n        /* \"#utility.yul\":8313:8330   */\n      add\n        /* \"#utility.yul\":8306:8353   */\n      mstore\n        /* \"#utility.yul\":8370:8445   */\n      tag_236\n        /* \"#utility.yul\":8440:8444   */\n      dup2\n        /* \"#utility.yul\":8431:8437   */\n      dup5\n        /* \"#utility.yul\":8370:8445   */\n      tag_135\n      jump\t// in\n    tag_236:\n        /* \"#utility.yul\":8362:8445   */\n      swap1\n      pop\n        /* \"#utility.yul\":8145:8452   */\n      swap3\n      swap2\n      pop\n      pop\n      jump\t// out\n        /* \"#utility.yul\":8458:8638   */\n    tag_136:\n        /* \"#utility.yul\":8506:8583   */\n      0x4e487b7100000000000000000000000000000000000000000000000000000000\n        /* \"#utility.yul\":8503:8504   */\n      0x00\n        /* \"#utility.yul\":8496:8584   */\n      mstore\n        /* \"#utility.yul\":8603:8607   */\n      0x11\n        /* \"#utility.yul\":8600:8601   */\n      0x04\n        /* \"#utility.yul\":8593:8608   */\n      mstore\n        /* \"#utility.yul\":8627:8631   */\n      0x24\n        /* \"#utility.yul\":8624:8625   */\n      0x00\n        /* \"#utility.yul\":8617:8632   */\n      revert\n        /* \"#utility.yul\":8644:8835   */\n    tag_79:\n        /* \"#utility.yul\":8684:8687   */\n      0x00\n        /* \"#utility.yul\":8703:8723   */\n      tag_239\n        /* \"#utility.yul\":8721:8722   */\n      dup3\n        /* \"#utility.yul\":8703:8723   */\n      tag_108\n      jump\t// in\n    tag_239:\n        /* \"#utility.yul\":8698:8723   */\n      swap2\n      pop\n        /* \"#utility.yul\":8737:8757   */\n      tag_240\n        /* \"#utility.yul\":8755:8756   */\n      dup4\n        /* \"#utility.yul\":8737:8757   */\n      tag_108\n      jump\t// in\n    tag_240:\n        /* \"#utility.yul\":8732:8757   */\n      swap3\n      pop\n        /* \"#utility.yul\":8780:8781   */\n      dup3\n        /* \"#utility.yul\":8777:8778   */\n      dup3\n        /* \"#utility.yul\":8773:8782   */\n      add\n        /* \"#utility.yul\":8766:8782   */\n      swap1\n      pop\n        /* \"#utility.yul\":8801:8804   */\n      dup1\n        /* \"#utility.yul\":8798:8799   */\n      dup3\n        /* \"#utility.yul\":8795:8805   */\n      gt\n        /* \"#utility.yul\":8792:8828   */\n      iszero\n      tag_241\n      jumpi\n        /* \"#utility.yul\":8808:8826   */\n      tag_242\n      tag_136\n      jump\t// in\n    tag_242:\n        /* \"#utility.yul\":8792:8828   */\n    tag_241:\n        /* \"#utility.yul\":8644:8835   */\n      swap3\n      swap2\n      pop\n      pop\n      jump\t// out\n        /* \"#utility.yul\":8841:9216   */\n    tag_96:\n        /* \"#utility.yul\":8880:8883   */\n      0x00\n        /* \"#utility.yul\":8899:8918   */\n      tag_244\n        /* \"#utility.yul\":8916:8917   */\n      dup3\n        /* \"#utility.yul\":8899:8918   */\n      tag_117\n      jump\t// in\n    tag_244:\n        /* \"#utility.yul\":8894:8918   */\n      swap2\n      pop\n        /* \"#utility.yul\":8932:8951   */\n      tag_245\n        /* \"#utility.yul\":8949:8950   */\n      dup4\n        /* \"#utility.yul\":8932:8951   */\n      tag_117\n      jump\t// in\n    tag_245:\n        /* \"#utility.yul\":8927:8951   */\n      swap3\n      pop\n        /* \"#utility.yul\":8974:8975   */\n      dup3\n        /* \"#utility.yul\":8971:8972   */\n      dup3\n        /* \"#utility.yul\":8967:8976   */\n      add\n        /* \"#utility.yul\":8960:8976   */\n      swap1\n      pop\n        /* \"#utility.yul\":9172:9173   */\n      dup3\n        /* \"#utility.yul\":9167:9170   */\n      dup2\n        /* \"#utility.yul\":9163:9174   */\n      slt\n        /* \"#utility.yul\":9156:9175   */\n      iszero\n        /* \"#utility.yul\":9152:9153   */\n      0x00\n        /* \"#utility.yul\":9149:9150   */\n      dup4\n        /* \"#utility.yul\":9145:9154   */\n      slt\n        /* \"#utility.yul\":9141:9176   */\n      and\n        /* \"#utility.yul\":9124:9125   */\n      dup4\n        /* \"#utility.yul\":9119:9122   */\n      dup3\n        /* \"#utility.yul\":9115:9126   */\n      slt\n        /* \"#utility.yul\":9110:9111   */\n      0x00\n        /* \"#utility.yul\":9107:9108   */\n      dup5\n        /* \"#utility.yul\":9103:9112   */\n      slt\n        /* \"#utility.yul\":9096:9113   */\n      iszero\n        /* \"#utility.yul\":9092:9127   */\n      and\n        /* \"#utility.yul\":9076:9186   */\n      or\n        /* \"#utility.yul\":9073:9209   */\n      iszero\n      tag_246\n      jumpi\n        /* \"#utility.yul\":9189:9207   */\n      tag_247\n      tag_136\n      jump\t// in\n    tag_247:\n        /* \"#utility.yul\":9073:9209   */\n    tag_246:\n        /* \"#utility.yul\":8841:9216   */\n      swap3\n      swap2\n      pop\n      pop\n      jump\t// out\n        /* \"#utility.yul\":9222:9455   */\n    tag_107:\n        /* \"#utility.yul\":9261:9264   */\n      0x00\n        /* \"#utility.yul\":9284:9308   */\n      tag_249\n        /* \"#utility.yul\":9302:9307   */\n      dup3\n        /* \"#utility.yul\":9284:9308   */\n      tag_108\n      jump\t// in\n    tag_249:\n        /* \"#utility.yul\":9275:9308   */\n      swap2\n      pop\n        /* \"#utility.yul\":9330:9396   */\n      0xffffffffffffffffffffffffffffffffffffffffffffffffffffffffffffffff\n        /* \"#utility.yul\":9323:9328   */\n      dup3\n        /* \"#utility.yul\":9320:9397   */\n      sub\n        /* \"#utility.yul\":9317:9420   */\n      tag_250\n      jumpi\n        /* \"#utility.yul\":9400:9418   */\n      tag_251\n      tag_136\n      jump\t// in\n    tag_251:\n        /* \"#utility.yul\":9317:9420   */\n    tag_250:\n        /* \"#utility.yul\":9447:9448   */\n      0x01\n        /* \"#utility.yul\":9440:9445   */\n      dup3\n        /* \"#utility.yul\":9436:9449   */\n      add\n        /* \"#utility.yul\":9429:9449   */\n      swap1\n      pop\n        /* \"#utility.yul\":9222:9455   */\n      swap2\n      swap1\n      pop\n      jump\t// out\n\n    auxdata: 0xa26469706673582212204c018542fd3a00fe307a69a8f3c7271b2fb51cb6aca68302deafcbdad0864f0164736f6c63430008120033\n}\n",
				"bytecode": {
					"linkReferences": {},
					"object": "60806040523480156200001157600080fd5b5060405162001276380380620012768339818101604052810190620000379190620001a5565b80600660006101000a81548173ffffffffffffffffffffffffffffffffffffffff021916908373ffffffffffffffffffffffffffffffffffffffff1602179055506040518060400160405280600e81526020017f6973206e6f7420616c6c6f7765640000000000000000000000000000000000008152506004600060028110620000c657620000c5620001d7565b5b019081620000d5919062000480565b506040518060400160405280600a81526020017f6f6e6c79206f776e6572000000000000000000000000000000000000000000008152506004600160028110620001245762000123620001d7565b5b01908162000133919062000480565b505062000567565b600080fd5b600073ffffffffffffffffffffffffffffffffffffffff82169050919050565b60006200016d8262000140565b9050919050565b6200017f8162000160565b81146200018b57600080fd5b50565b6000815190506200019f8162000174565b92915050565b600060208284031215620001be57620001bd6200013b565b5b6000620001ce848285016200018e565b91505092915050565b7f4e487b7100000000000000000000000000000000000000000000000000000000600052603260045260246000fd5b600081519050919050565b7f4e487b7100000000000000000000000000000000000000000000000000000000600052604160045260246000fd5b7f4e487b7100000000000000000000000000000000000000000000000000000000600052602260045260246000fd5b600060028204905060018216806200028857607f821691505b6020821081036200029e576200029d62000240565b5b50919050565b60008190508160005260206000209050919050565b60006020601f8301049050919050565b600082821b905092915050565b600060088302620003087fffffffffffffffffffffffffffffffffffffffffffffffffffffffffffffffff82620002c9565b620003148683620002c9565b95508019841693508086168417925050509392505050565b6000819050919050565b6000819050919050565b6000620003616200035b62000355846200032c565b62000336565b6200032c565b9050919050565b6000819050919050565b6200037d8362000340565b620003956200038c8262000368565b848454620002d6565b825550505050565b600090565b620003ac6200039d565b620003b981848462000372565b505050565b5b81811015620003e157620003d5600082620003a2565b600181019050620003bf565b5050565b601f8211156200043057620003fa81620002a4565b6200040584620002b9565b8101602085101562000415578190505b6200042d6200042485620002b9565b830182620003be565b50505b505050565b600082821c905092915050565b6000620004556000198460080262000435565b1980831691505092915050565b600062000470838362000442565b9150826002028217905092915050565b6200048b8262000206565b67ffffffffffffffff811115620004a757620004a662000211565b5b620004b382546200026f565b620004c0828285620003e5565b600060209050601f831160018114620004f85760008415620004e3578287015190505b620004ef858262000462565b8655506200055f565b601f1984166200050886620002a4565b60005b8281101562000532578489015182556001820191506020850194506020810190506200050b565b868310156200055257848901516200054e601f89168262000442565b8355505b6001600288020188555050505b505050505050565b610cff80620005776000396000f3fe608060405234801561001057600080fd5b50600436106100cf5760003560e01c8063865cebe71161008c578063be7cb50611610066578063be7cb506146101c8578063c539ab78146101e4578063dd62ed3e14610214578063ffac3b1d14610244576100cf565b8063865cebe7146101845780638da5cb5b146101a0578063a6f2ae3a146101be576100cf565b806306661abd146100d457806319e1fca4146100f25780632babac22146101105780635f3d8f4a1461012c578063702051f01461014a5780637cf5dab014610168575b600080fd5b6100dc61024e565b6040516100e99190610754565b60405180910390f35b6100fa610254565b604051610107919061078a565b60405180910390f35b61012a600480360381019061012591906107d6565b610265565b005b610134610281565b604051610141919061081c565b60405180910390f35b610152610287565b60405161015f9190610754565b60405180910390f35b610182600480360381019061017d9190610863565b610290565b005b61019e600480360381019061019991906108ee565b6103ab565b005b6101a861050e565b6040516101b5919061092a565b60405180910390f35b6101c6610534565b005b6101e260048036038101906101dd9190610971565b61063a565b005b6101fe60048036038101906101f99190610863565b610651565b60405161020b9190610a2e565b60405180910390f35b61022e60048036038101906102299190610a50565b6106f4565b60405161023b919061078a565b60405180910390f35b61024c610723565b005b60015481565b60008054906101000a900460ff1681565b806000806101000a81548160ff02191690831515021790555050565b60025481565b60006002905090565b60036000600660009054906101000a900473ffffffffffffffffffffffffffffffffffffffff1673ffffffffffffffffffffffffffffffffffffffff1673ffffffffffffffffffffffffffffffffffffffff16815260200190815260200160002060003373ffffffffffffffffffffffffffffffffffffffff1673ffffffffffffffffffffffffffffffffffffffff16815260200190815260200160002060009054906101000a900460ff16600460006002811061035157610350610a90565b5b0190610393576040517f08c379a000000000000000000000000000000000000000000000000000000000815260040161038a9190610bb8565b60405180910390fd5b50806001546103a29190610c09565b60018190555050565b3373ffffffffffffffffffffffffffffffffffffffff16600660009054906101000a900473ffffffffffffffffffffffffffffffffffffffff1673ffffffffffffffffffffffffffffffffffffffff1614600460016002811061041157610410610a90565b5b0190610453576040517f08c379a000000000000000000000000000000000000000000000000000000000815260040161044a9190610bb8565b60405180910390fd5b50600160036000600660009054906101000a900473ffffffffffffffffffffffffffffffffffffffff1673ffffffffffffffffffffffffffffffffffffffff1673ffffffffffffffffffffffffffffffffffffffff16815260200190815260200160002060008373ffffffffffffffffffffffffffffffffffffffff1673ffffffffffffffffffffffffffffffffffffffff16815260200190815260200160002060006101000a81548160ff02191690831515021790555050565b600660009054906101000a900473ffffffffffffffffffffffffffffffffffffffff1681565b60036000600660009054906101000a900473ffffffffffffffffffffffffffffffffffffffff1673ffffffffffffffffffffffffffffffffffffffff1673ffffffffffffffffffffffffffffffffffffffff16815260200190815260200160002060003373ffffffffffffffffffffffffffffffffffffffff1673ffffffffffffffffffffffffffffffffffffffff16815260200190815260200160002060009054906101000a900460ff1660046000600281106105f5576105f4610a90565b5b0190610637576040517f08c379a000000000000000000000000000000000000000000000000000000000815260040161062e9190610bb8565b60405180910390fd5b50565b806002546106489190610c3d565b60028190555050565b6004816002811061066157600080fd5b01600091509050805461067390610aee565b80601f016020809104026020016040519081016040528092919081815260200182805461069f90610aee565b80156106ec5780601f106106c1576101008083540402835291602001916106ec565b820191906000526020600020905b8154815290600101906020018083116106cf57829003601f168201915b505050505081565b60036020528160005260406000206020528060005260406000206000915091509054906101000a900460ff1681565b60016000815461073290610c81565b91905081905550565b6000819050919050565b61074e8161073b565b82525050565b60006020820190506107696000830184610745565b92915050565b60008115159050919050565b6107848161076f565b82525050565b600060208201905061079f600083018461077b565b92915050565b600080fd5b6107b38161076f565b81146107be57600080fd5b50565b6000813590506107d0816107aa565b92915050565b6000602082840312156107ec576107eb6107a5565b5b60006107fa848285016107c1565b91505092915050565b6000819050919050565b61081681610803565b82525050565b6000602082019050610831600083018461080d565b92915050565b6108408161073b565b811461084b57600080fd5b50565b60008135905061085d81610837565b92915050565b600060208284031215610879576108786107a5565b5b60006108878482850161084e565b91505092915050565b600073ffffffffffffffffffffffffffffffffffffffff82169050919050565b60006108bb82610890565b9050919050565b6108cb816108b0565b81146108d657600080fd5b50565b6000813590506108e8816108c2565b92915050565b600060208284031215610904576109036107a5565b5b6000610912848285016108d9565b91505092915050565b610924816108b0565b82525050565b600060208201905061093f600083018461091b565b92915050565b61094e81610803565b811461095957600080fd5b50565b60008135905061096b81610945565b92915050565b600060208284031215610987576109866107a5565b5b60006109958482850161095c565b91505092915050565b600081519050919050565b600082825260208201905092915050565b60005b838110156109d85780820151818401526020810190506109bd565b60008484015250505050565b6000601f19601f8301169050919050565b6000610a008261099e565b610a0a81856109a9565b9350610a1a8185602086016109ba565b610a23816109e4565b840191505092915050565b60006020820190508181036000830152610a4881846109f5565b905092915050565b60008060408385031215610a6757610a666107a5565b5b6000610a75858286016108d9565b9250506020610a86858286016108d9565b9150509250929050565b7f4e487b7100000000000000000000000000000000000000000000000000000000600052603260045260246000fd5b7f4e487b7100000000000000000000000000000000000000000000000000000000600052602260045260246000fd5b60006002820490506001821680610b0657607f821691505b602082108103610b1957610b18610abf565b5b50919050565b60008190508160005260206000209050919050565b60008154610b4181610aee565b610b4b81866109a9565b94506001821660008114610b665760018114610b7c57610baf565b60ff198316865281151560200286019350610baf565b610b8585610b1f565b60005b83811015610ba757815481890152600182019150602081019050610b88565b808801955050505b50505092915050565b60006020820190508181036000830152610bd28184610b34565b905092915050565b7f4e487b7100000000000000000000000000000000000000000000000000000000600052601160045260246000fd5b6000610c148261073b565b9150610c1f8361073b565b9250828201905080821115610c3757610c36610bda565b5b92915050565b6000610c4882610803565b9150610c5383610803565b925082820190508281121560008312168382126000841215161715610c7b57610c7a610bda565b5b92915050565b6000610c8c8261073b565b91507fffffffffffffffffffffffffffffffffffffffffffffffffffffffffffffffff8203610cbe57610cbd610bda565b5b60018201905091905056fea26469706673582212204c018542fd3a00fe307a69a8f3c7271b2fb51cb6aca68302deafcbdad0864f0164736f6c63430008120033",
					"opcodes": "PUSH1 0x80 PUSH1 0x40 MSTORE CALLVALUE DUP1 ISZERO PUSH3 0x11 JUMPI PUSH1 0x0 DUP1 REVERT JUMPDEST POP PUSH1 0x40 MLOAD PUSH3 0x1276 CODESIZE SUB DUP1 PUSH3 0x1276 DUP4 CODECOPY DUP2 DUP2 ADD PUSH1 0x40 MSTORE DUP2 ADD SWAP1 PUSH3 0x37 SWAP2 SWAP1 PUSH3 0x1A5 JUMP JUMPDEST DUP1 PUSH1 0x6 PUSH1 0x0 PUSH2 0x100 EXP DUP2 SLOAD DUP2 PUSH20 0xFFFFFFFFFFFFFFFFFFFFFFFFFFFFFFFFFFFFFFFF MUL NOT AND SWAP1 DUP4 PUSH20 0xFFFFFFFFFFFFFFFFFFFFFFFFFFFFFFFFFFFFFFFF AND MUL OR SWAP1 SSTORE POP PUSH1 0x40 MLOAD DUP1 PUSH1 0x40 ADD PUSH1 0x40 MSTORE DUP1 PUSH1 0xE DUP2 MSTORE PUSH1 0x20 ADD PUSH32 0x6973206E6F7420616C6C6F776564000000000000000000000000000000000000 DUP2 MSTORE POP PUSH1 0x4 PUSH1 0x0 PUSH1 0x2 DUP2 LT PUSH3 0xC6 JUMPI PUSH3 0xC5 PUSH3 0x1D7 JUMP JUMPDEST JUMPDEST ADD SWAP1 DUP2 PUSH3 0xD5 SWAP2 SWAP1 PUSH3 0x480 JUMP JUMPDEST POP PUSH1 0x40 MLOAD DUP1 PUSH1 0x40 ADD PUSH1 0x40 MSTORE DUP1 PUSH1 0xA DUP2 MSTORE PUSH1 0x20 ADD PUSH32 0x6F6E6C79206F776E657200000000000000000000000000000000000000000000 DUP2 MSTORE POP PUSH1 0x4 PUSH1 0x1 PUSH1 0x2 DUP2 LT PUSH3 0x124 JUMPI PUSH3 0x123 PUSH3 0x1D7 JUMP JUMPDEST JUMPDEST ADD SWAP1 DUP2 PUSH3 0x133 SWAP2 SWAP1 PUSH3 0x480 JUMP JUMPDEST POP POP PUSH3 0x567 JUMP JUMPDEST PUSH1 0x0 DUP1 REVERT JUMPDEST PUSH1 0x0 PUSH20 0xFFFFFFFFFFFFFFFFFFFFFFFFFFFFFFFFFFFFFFFF DUP3 AND SWAP1 POP SWAP2 SWAP1 POP JUMP JUMPDEST PUSH1 0x0 PUSH3 0x16D DUP3 PUSH3 0x140 JUMP JUMPDEST SWAP1 POP SWAP2 SWAP1 POP JUMP JUMPDEST PUSH3 0x17F DUP2 PUSH3 0x160 JUMP JUMPDEST DUP2 EQ PUSH3 0x18B JUMPI PUSH1 0x0 DUP1 REVERT JUMPDEST POP JUMP JUMPDEST PUSH1 0x0 DUP2 MLOAD SWAP1 POP PUSH3 0x19F DUP2 PUSH3 0x174 JUMP JUMPDEST SWAP3 SWAP2 POP POP JUMP JUMPDEST PUSH1 0x0 PUSH1 0x20 DUP3 DUP5 SUB SLT ISZERO PUSH3 0x1BE JUMPI PUSH3 0x1BD PUSH3 0x13B JUMP JUMPDEST JUMPDEST PUSH1 0x0 PUSH3 0x1CE DUP5 DUP3 DUP6 ADD PUSH3 0x18E JUMP JUMPDEST SWAP2 POP POP SWAP3 SWAP2 POP POP JUMP JUMPDEST PUSH32 0x4E487B7100000000000000000000000000000000000000000000000000000000 PUSH1 0x0 MSTORE PUSH1 0x32 PUSH1 0x4 MSTORE PUSH1 0x24 PUSH1 0x0 REVERT JUMPDEST PUSH1 0x0 DUP2 MLOAD SWAP1 POP SWAP2 SWAP1 POP JUMP JUMPDEST PUSH32 0x4E487B7100000000000000000000000000000000000000000000000000000000 PUSH1 0x0 MSTORE PUSH1 0x41 PUSH1 0x4 MSTORE PUSH1 0x24 PUSH1 0x0 REVERT JUMPDEST PUSH32 0x4E487B7100000000000000000000000000000000000000000000000000000000 PUSH1 0x0 MSTORE PUSH1 0x22 PUSH1 0x4 MSTORE PUSH1 0x24 PUSH1 0x0 REVERT JUMPDEST PUSH1 0x0 PUSH1 0x2 DUP3 DIV SWAP1 POP PUSH1 0x1 DUP3 AND DUP1 PUSH3 0x288 JUMPI PUSH1 0x7F DUP3 AND SWAP2 POP JUMPDEST PUSH1 0x20 DUP3 LT DUP2 SUB PUSH3 0x29E JUMPI PUSH3 0x29D PUSH3 0x240 JUMP JUMPDEST JUMPDEST POP SWAP2 SWAP1 POP JUMP JUMPDEST PUSH1 0x0 DUP2 SWAP1 POP DUP2 PUSH1 0x0 MSTORE PUSH1 0x20 PUSH1 0x0 KECCAK256 SWAP1 POP SWAP2 SWAP1 POP JUMP JUMPDEST PUSH1 0x0 PUSH1 0x20 PUSH1 0x1F DUP4 ADD DIV SWAP1 POP SWAP2 SWAP1 POP JUMP JUMPDEST PUSH1 0x0 DUP3 DUP3 SHL SWAP1 POP SWAP3 SWAP2 POP POP JUMP JUMPDEST PUSH1 0x0 PUSH1 0x8 DUP4 MUL PUSH3 0x308 PUSH32 0xFFFFFFFFFFFFFFFFFFFFFFFFFFFFFFFFFFFFFFFFFFFFFFFFFFFFFFFFFFFFFFFF DUP3 PUSH3 0x2C9 JUMP JUMPDEST PUSH3 0x314 DUP7 DUP4 PUSH3 0x2C9 JUMP JUMPDEST SWAP6 POP DUP1 NOT DUP5 AND SWAP4 POP DUP1 DUP7 AND DUP5 OR SWAP3 POP POP POP SWAP4 SWAP3 POP POP POP JUMP JUMPDEST PUSH1 0x0 DUP2 SWAP1 POP SWAP2 SWAP1 POP JUMP JUMPDEST PUSH1 0x0 DUP2 SWAP1 POP SWAP2 SWAP1 POP JUMP JUMPDEST PUSH1 0x0 PUSH3 0x361 PUSH3 0x35B PUSH3 0x355 DUP5 PUSH3 0x32C JUMP JUMPDEST PUSH3 0x336 JUMP JUMPDEST PUSH3 0x32C JUMP JUMPDEST SWAP1 POP SWAP2 SWAP1 POP JUMP JUMPDEST PUSH1 0x0 DUP2 SWAP1 POP SWAP2 SWAP1 POP JUMP JUMPDEST PUSH3 0x37D DUP4 PUSH3 0x340 JUMP JUMPDEST PUSH3 0x395 PUSH3 0x38C DUP3 PUSH3 0x368 JUMP JUMPDEST DUP5 DUP5 SLOAD PUSH3 0x2D6 JUMP JUMPDEST DUP3 SSTORE POP POP POP POP JUMP JUMPDEST PUSH1 0x0 SWAP1 JUMP JUMPDEST PUSH3 0x3AC PUSH3 0x39D JUMP JUMPDEST PUSH3 0x3B9 DUP2 DUP5 DUP5 PUSH3 0x372 JUMP JUMPDEST POP POP POP JUMP JUMPDEST JUMPDEST DUP2 DUP2 LT ISZERO PUSH3 0x3E1 JUMPI PUSH3 0x3D5 PUSH1 0x0 DUP3 PUSH3 0x3A2 JUMP JUMPDEST PUSH1 0x1 DUP2 ADD SWAP1 POP PUSH3 0x3BF JUMP JUMPDEST POP POP JUMP JUMPDEST PUSH1 0x1F DUP3 GT ISZERO PUSH3 0x430 JUMPI PUSH3 0x3FA DUP2 PUSH3 0x2A4 JUMP JUMPDEST PUSH3 0x405 DUP5 PUSH3 0x2B9 JUMP JUMPDEST DUP2 ADD PUSH1 0x20 DUP6 LT ISZERO PUSH3 0x415 JUMPI DUP2 SWAP1 POP JUMPDEST PUSH3 0x42D PUSH3 0x424 DUP6 PUSH3 0x2B9 JUMP JUMPDEST DUP4 ADD DUP3 PUSH3 0x3BE JUMP JUMPDEST POP POP JUMPDEST POP POP POP JUMP JUMPDEST PUSH1 0x0 DUP3 DUP3 SHR SWAP1 POP SWAP3 SWAP2 POP POP JUMP JUMPDEST PUSH1 0x0 PUSH3 0x455 PUSH1 0x0 NOT DUP5 PUSH1 0x8 MUL PUSH3 0x435 JUMP JUMPDEST NOT DUP1 DUP4 AND SWAP2 POP POP SWAP3 SWAP2 POP POP JUMP JUMPDEST PUSH1 0x0 PUSH3 0x470 DUP4 DUP4 PUSH3 0x442 JUMP JUMPDEST SWAP2 POP DUP3 PUSH1 0x2 MUL DUP3 OR SWAP1 POP SWAP3 SWAP2 POP POP JUMP JUMPDEST PUSH3 0x48B DUP3 PUSH3 0x206 JUMP JUMPDEST PUSH8 0xFFFFFFFFFFFFFFFF DUP2 GT ISZERO PUSH3 0x4A7 JUMPI PUSH3 0x4A6 PUSH3 0x211 JUMP JUMPDEST JUMPDEST PUSH3 0x4B3 DUP3 SLOAD PUSH3 0x26F JUMP JUMPDEST PUSH3 0x4C0 DUP3 DUP3 DUP6 PUSH3 0x3E5 JUMP JUMPDEST PUSH1 0x0 PUSH1 0x20 SWAP1 POP PUSH1 0x1F DUP4 GT PUSH1 0x1 DUP2 EQ PUSH3 0x4F8 JUMPI PUSH1 0x0 DUP5 ISZERO PUSH3 0x4E3 JUMPI DUP3 DUP8 ADD MLOAD SWAP1 POP JUMPDEST PUSH3 0x4EF DUP6 DUP3 PUSH3 0x462 JUMP JUMPDEST DUP7 SSTORE POP PUSH3 0x55F JUMP JUMPDEST PUSH1 0x1F NOT DUP5 AND PUSH3 0x508 DUP7 PUSH3 0x2A4 JUMP JUMPDEST PUSH1 0x0 JUMPDEST DUP3 DUP2 LT ISZERO PUSH3 0x532 JUMPI DUP5 DUP10 ADD MLOAD DUP3 SSTORE PUSH1 0x1 DUP3 ADD SWAP2 POP PUSH1 0x20 DUP6 ADD SWAP5 POP PUSH1 0x20 DUP2 ADD SWAP1 POP PUSH3 0x50B JUMP JUMPDEST DUP7 DUP4 LT ISZERO PUSH3 0x552 JUMPI DUP5 DUP10 ADD MLOAD PUSH3 0x54E PUSH1 0x1F DUP10 AND DUP3 PUSH3 0x442 JUMP JUMPDEST DUP4 SSTORE POP JUMPDEST PUSH1 0x1 PUSH1 0x2 DUP9 MUL ADD DUP9 SSTORE POP POP POP JUMPDEST POP POP POP POP POP POP JUMP JUMPDEST PUSH2 0xCFF DUP1 PUSH3 0x577 PUSH1 0x0 CODECOPY PUSH1 0x0 RETURN INVALID PUSH1 0x80 PUSH1 0x40 MSTORE CALLVALUE DUP1 ISZERO PUSH2 0x10 JUMPI PUSH1 0x0 DUP1 REVERT JUMPDEST POP PUSH1 0x4 CALLDATASIZE LT PUSH2 0xCF JUMPI PUSH1 0x0 CALLDATALOAD PUSH1 0xE0 SHR DUP1 PUSH4 0x865CEBE7 GT PUSH2 0x8C JUMPI DUP1 PUSH4 0xBE7CB506 GT PUSH2 0x66 JUMPI DUP1 PUSH4 0xBE7CB506 EQ PUSH2 0x1C8 JUMPI DUP1 PUSH4 0xC539AB78 EQ PUSH2 0x1E4 JUMPI DUP1 PUSH4 0xDD62ED3E EQ PUSH2 0x214 JUMPI DUP1 PUSH4 0xFFAC3B1D EQ PUSH2 0x244 JUMPI PUSH2 0xCF JUMP JUMPDEST DUP1 PUSH4 0x865CEBE7 EQ PUSH2 0x184 JUMPI DUP1 PUSH4 0x8DA5CB5B EQ PUSH2 0x1A0 JUMPI DUP1 PUSH4 0xA6F2AE3A EQ PUSH2 0x1BE JUMPI PUSH2 0xCF JUMP JUMPDEST DUP1 PUSH4 0x6661ABD EQ PUSH2 0xD4 JUMPI DUP1 PUSH4 0x19E1FCA4 EQ PUSH2 0xF2 JUMPI DUP1 PUSH4 0x2BABAC22 EQ PUSH2 0x110 JUMPI DUP1 PUSH4 0x5F3D8F4A EQ PUSH2 0x12C JUMPI DUP1 PUSH4 0x702051F0 EQ PUSH2 0x14A JUMPI DUP1 PUSH4 0x7CF5DAB0 EQ PUSH2 0x168 JUMPI JUMPDEST PUSH1 0x0 DUP1 REVERT JUMPDEST PUSH2 0xDC PUSH2 0x24E JUMP JUMPDEST PUSH1 0x40 MLOAD PUSH2 0xE9 SWAP2 SWAP1 PUSH2 0x754 JUMP JUMPDEST PUSH1 0x40 MLOAD DUP1 SWAP2 SUB SWAP1 RETURN JUMPDEST PUSH2 0xFA PUSH2 0x254 JUMP JUMPDEST PUSH1 0x40 MLOAD PUSH2 0x107 SWAP2 SWAP1 PUSH2 0x78A JUMP JUMPDEST PUSH1 0x40 MLOAD DUP1 SWAP2 SUB SWAP1 RETURN JUMPDEST PUSH2 0x12A PUSH1 0x4 DUP1 CALLDATASIZE SUB DUP2 ADD SWAP1 PUSH2 0x125 SWAP2 SWAP1 PUSH2 0x7D6 JUMP JUMPDEST PUSH2 0x265 JUMP JUMPDEST STOP JUMPDEST PUSH2 0x134 PUSH2 0x281 JUMP JUMPDEST PUSH1 0x40 MLOAD PUSH2 0x141 SWAP2 SWAP1 PUSH2 0x81C JUMP JUMPDEST PUSH1 0x40 MLOAD DUP1 SWAP2 SUB SWAP1 RETURN JUMPDEST PUSH2 0x152 PUSH2 0x287 JUMP JUMPDEST PUSH1 0x40 MLOAD PUSH2 0x15F SWAP2 SWAP1 PUSH2 0x754 JUMP JUMPDEST PUSH1 0x40 MLOAD DUP1 SWAP2 SUB SWAP1 RETURN JUMPDEST PUSH2 0x182 PUSH1 0x4 DUP1 CALLDATASIZE SUB DUP2 ADD SWAP1 PUSH2 0x17D SWAP2 SWAP1 PUSH2 0x863 JUMP JUMPDEST PUSH2 0x290 JUMP JUMPDEST STOP JUMPDEST PUSH2 0x19E PUSH1 0x4 DUP1 CALLDATASIZE SUB DUP2 ADD SWAP1 PUSH2 0x199 SWAP2 SWAP1 PUSH2 0x8EE JUMP JUMPDEST PUSH2 0x3AB JUMP JUMPDEST STOP JUMPDEST PUSH2 0x1A8 PUSH2 0x50E JUMP JUMPDEST PUSH1 0x40 MLOAD PUSH2 0x1B5 SWAP2 SWAP1 PUSH2 0x92A JUMP JUMPDEST PUSH1 0x40 MLOAD DUP1 SWAP2 SUB SWAP1 RETURN JUMPDEST PUSH2 0x1C6 PUSH2 0x534 JUMP JUMPDEST STOP JUMPDEST PUSH2 0x1E2 PUSH1 0x4 DUP1 CALLDATASIZE SUB DUP2 ADD SWAP1 PUSH2 0x1DD SWAP2 SWAP1 PUSH2 0x971 JUMP JUMPDEST PUSH2 0x63A JUMP JUMPDEST STOP JUMPDEST PUSH2 0x1FE PUSH1 0x4 DUP1 CALLDATASIZE SUB DUP2 ADD SWAP1 PUSH2 0x1F9 SWAP2 SWAP1 PUSH2 0x863 JUMP JUMPDEST PUSH2 0x651 JUMP JUMPDEST PUSH1 0x40 MLOAD PUSH2 0x20B SWAP2 SWAP1 PUSH2 0xA2E JUMP JUMPDEST PUSH1 0x40 MLOAD DUP1 SWAP2 SUB SWAP1 RETURN JUMPDEST PUSH2 0x22E PUSH1 0x4 DUP1 CALLDATASIZE SUB DUP2 ADD SWAP1 PUSH2 0x229 SWAP2 SWAP1 PUSH2 0xA50 JUMP JUMPDEST PUSH2 0x6F4 JUMP JUMPDEST PUSH1 0x40 MLOAD PUSH2 0x23B SWAP2 SWAP1 PUSH2 0x78A JUMP JUMPDEST PUSH1 0x40 MLOAD DUP1 SWAP2 SUB SWAP1 RETURN JUMPDEST PUSH2 0x24C PUSH2 0x723 JUMP JUMPDEST STOP JUMPDEST PUSH1 0x1 SLOAD DUP2 JUMP JUMPDEST PUSH1 0x0 DUP1 SLOAD SWAP1 PUSH2 0x100 EXP SWAP1 DIV PUSH1 0xFF AND DUP2 JUMP JUMPDEST DUP1 PUSH1 0x0 DUP1 PUSH2 0x100 EXP DUP2 SLOAD DUP2 PUSH1 0xFF MUL NOT AND SWAP1 DUP4 ISZERO ISZERO MUL OR SWAP1 SSTORE POP POP JUMP JUMPDEST PUSH1 0x2 SLOAD DUP2 JUMP JUMPDEST PUSH1 0x0 PUSH1 0x2 SWAP1 POP SWAP1 JUMP JUMPDEST PUSH1 0x3 PUSH1 0x0 PUSH1 0x6 PUSH1 0x0 SWAP1 SLOAD SWAP1 PUSH2 0x100 EXP SWAP1 DIV PUSH20 0xFFFFFFFFFFFFFFFFFFFFFFFFFFFFFFFFFFFFFFFF AND PUSH20 0xFFFFFFFFFFFFFFFFFFFFFFFFFFFFFFFFFFFFFFFF AND PUSH20 0xFFFFFFFFFFFFFFFFFFFFFFFFFFFFFFFFFFFFFFFF AND DUP2 MSTORE PUSH1 0x20 ADD SWAP1 DUP2 MSTORE PUSH1 0x20 ADD PUSH1 0x0 KECCAK256 PUSH1 0x0 CALLER PUSH20 0xFFFFFFFFFFFFFFFFFFFFFFFFFFFFFFFFFFFFFFFF AND PUSH20 0xFFFFFFFFFFFFFFFFFFFFFFFFFFFFFFFFFFFFFFFF AND DUP2 MSTORE PUSH1 0x20 ADD SWAP1 DUP2 MSTORE PUSH1 0x20 ADD PUSH1 0x0 KECCAK256 PUSH1 0x0 SWAP1 SLOAD SWAP1 PUSH2 0x100 EXP SWAP1 DIV PUSH1 0xFF AND PUSH1 0x4 PUSH1 0x0 PUSH1 0x2 DUP2 LT PUSH2 0x351 JUMPI PUSH2 0x350 PUSH2 0xA90 JUMP JUMPDEST JUMPDEST ADD SWAP1 PUSH2 0x393 JUMPI PUSH1 0x40 MLOAD PUSH32 0x8C379A000000000000000000000000000000000000000000000000000000000 DUP2 MSTORE PUSH1 0x4 ADD PUSH2 0x38A SWAP2 SWAP1 PUSH2 0xBB8 JUMP JUMPDEST PUSH1 0x40 MLOAD DUP1 SWAP2 SUB SWAP1 REVERT JUMPDEST POP DUP1 PUSH1 0x1 SLOAD PUSH2 0x3A2 SWAP2 SWAP1 PUSH2 0xC09 JUMP JUMPDEST PUSH1 0x1 DUP2 SWAP1 SSTORE POP POP JUMP JUMPDEST CALLER PUSH20 0xFFFFFFFFFFFFFFFFFFFFFFFFFFFFFFFFFFFFFFFF AND PUSH1 0x6 PUSH1 0x0 SWAP1 SLOAD SWAP1 PUSH2 0x100 EXP SWAP1 DIV PUSH20 0xFFFFFFFFFFFFFFFFFFFFFFFFFFFFFFFFFFFFFFFF AND PUSH20 0xFFFFFFFFFFFFFFFFFFFFFFFFFFFFFFFFFFFFFFFF AND EQ PUSH1 0x4 PUSH1 0x1 PUSH1 0x2 DUP2 LT PUSH2 0x411 JUMPI PUSH2 0x410 PUSH2 0xA90 JUMP JUMPDEST JUMPDEST ADD SWAP1 PUSH2 0x453 JUMPI PUSH1 0x40 MLOAD PUSH32 0x8C379A000000000000000000000000000000000000000000000000000000000 DUP2 MSTORE PUSH1 0x4 ADD PUSH2 0x44A SWAP2 SWAP1 PUSH2 0xBB8 JUMP JUMPDEST PUSH1 0x40 MLOAD DUP1 SWAP2 SUB SWAP1 REVERT JUMPDEST POP PUSH1 0x1 PUSH1 0x3 PUSH1 0x0 PUSH1 0x6 PUSH1 0x0 SWAP1 SLOAD SWAP1 PUSH2 0x100 EXP SWAP1 DIV PUSH20 0xFFFFFFFFFFFFFFFFFFFFFFFFFFFFFFFFFFFFFFFF AND PUSH20 0xFFFFFFFFFFFFFFFFFFFFFFFFFFFFFFFFFFFFFFFF AND PUSH20 0xFFFFFFFFFFFFFFFFFFFFFFFFFFFFFFFFFFFFFFFF AND DUP2 MSTORE PUSH1 0x20 ADD SWAP1 DUP2 MSTORE PUSH1 0x20 ADD PUSH1 0x0 KECCAK256 PUSH1 0x0 DUP4 PUSH20 0xFFFFFFFFFFFFFFFFFFFFFFFFFFFFFFFFFFFFFFFF AND PUSH20 0xFFFFFFFFFFFFFFFFFFFFFFFFFFFFFFFFFFFFFFFF AND DUP2 MSTORE PUSH1 0x20 ADD SWAP1 DUP2 MSTORE PUSH1 0x20 ADD PUSH1 0x0 KECCAK256 PUSH1 0x0 PUSH2 0x100 EXP DUP2 SLOAD DUP2 PUSH1 0xFF MUL NOT AND SWAP1 DUP4 ISZERO ISZERO MUL OR SWAP1 SSTORE POP POP JUMP JUMPDEST PUSH1 0x6 PUSH1 0x0 SWAP1 SLOAD SWAP1 PUSH2 0x100 EXP SWAP1 DIV PUSH20 0xFFFFFFFFFFFFFFFFFFFFFFFFFFFFFFFFFFFFFFFF AND DUP2 JUMP JUMPDEST PUSH1 0x3 PUSH1 0x0 PUSH1 0x6 PUSH1 0x0 SWAP1 SLOAD SWAP1 PUSH2 0x100 EXP SWAP1 DIV PUSH20 0xFFFFFFFFFFFFFFFFFFFFFFFFFFFFFFFFFFFFFFFF AND PUSH20 0xFFFFFFFFFFFFFFFFFFFFFFFFFFFFFFFFFFFFFFFF AND PUSH20 0xFFFFFFFFFFFFFFFFFFFFFFFFFFFFFFFFFFFFFFFF AND DUP2 MSTORE PUSH1 0x20 ADD SWAP1 DUP2 MSTORE PUSH1 0x20 ADD PUSH1 0x0 KECCAK256 PUSH1 0x0 CALLER PUSH20 0xFFFFFFFFFFFFFFFFFFFFFFFFFFFFFFFFFFFFFFFF AND PUSH20 0xFFFFFFFFFFFFFFFFFFFFFFFFFFFFFFFFFFFFFFFF AND DUP2 MSTORE PUSH1 0x20 ADD SWAP1 DUP2 MSTORE PUSH1 0x20 ADD PUSH1 0x0 KECCAK256 PUSH1 0x0 SWAP1 SLOAD SWAP1 PUSH2 0x100 EXP SWAP1 DIV PUSH1 0xFF AND PUSH1 0x4 PUSH1 0x0 PUSH1 0x2 DUP2 LT PUSH2 0x5F5 JUMPI PUSH2 0x5F4 PUSH2 0xA90 JUMP JUMPDEST JUMPDEST ADD SWAP1 PUSH2 0x637 JUMPI PUSH1 0x40 MLOAD PUSH32 0x8C379A000000000000000000000000000000000000000000000000000000000 DUP2 MSTORE PUSH1 0x4 ADD PUSH2 0x62E SWAP2 SWAP1 PUSH2 0xBB8 JUMP JUMPDEST PUSH1 0x40 MLOAD DUP1 SWAP2 SUB SWAP1 REVERT JUMPDEST POP JUMP JUMPDEST DUP1 PUSH1 0x2 SLOAD PUSH2 0x648 SWAP2 SWAP1 PUSH2 0xC3D JUMP JUMPDEST PUSH1 0x2 DUP2 SWAP1 SSTORE POP POP JUMP JUMPDEST PUSH1 0x4 DUP2 PUSH1 0x2 DUP2 LT PUSH2 0x661 JUMPI PUSH1 0x0 DUP1 REVERT JUMPDEST ADD PUSH1 0x0 SWAP2 POP SWAP1 POP DUP1 SLOAD PUSH2 0x673 SWAP1 PUSH2 0xAEE JUMP JUMPDEST DUP1 PUSH1 0x1F ADD PUSH1 0x20 DUP1 SWAP2 DIV MUL PUSH1 0x20 ADD PUSH1 0x40 MLOAD SWAP1 DUP2 ADD PUSH1 0x40 MSTORE DUP1 SWAP3 SWAP2 SWAP1 DUP2 DUP2 MSTORE PUSH1 0x20 ADD DUP3 DUP1 SLOAD PUSH2 0x69F SWAP1 PUSH2 0xAEE JUMP JUMPDEST DUP1 ISZERO PUSH2 0x6EC JUMPI DUP1 PUSH1 0x1F LT PUSH2 0x6C1 JUMPI PUSH2 0x100 DUP1 DUP4 SLOAD DIV MUL DUP4 MSTORE SWAP2 PUSH1 0x20 ADD SWAP2 PUSH2 0x6EC JUMP JUMPDEST DUP3 ADD SWAP2 SWAP1 PUSH1 0x0 MSTORE PUSH1 0x20 PUSH1 0x0 KECCAK256 SWAP1 JUMPDEST DUP2 SLOAD DUP2 MSTORE SWAP1 PUSH1 0x1 ADD SWAP1 PUSH1 0x20 ADD DUP1 DUP4 GT PUSH2 0x6CF JUMPI DUP3 SWAP1 SUB PUSH1 0x1F AND DUP3 ADD SWAP2 JUMPDEST POP POP POP POP POP DUP2 JUMP JUMPDEST PUSH1 0x3 PUSH1 0x20 MSTORE DUP2 PUSH1 0x0 MSTORE PUSH1 0x40 PUSH1 0x0 KECCAK256 PUSH1 0x20 MSTORE DUP1 PUSH1 0x0 MSTORE PUSH1 0x40 PUSH1 0x0 KECCAK256 PUSH1 0x0 SWAP2 POP SWAP2 POP SWAP1 SLOAD SWAP1 PUSH2 0x100 EXP SWAP1 DIV PUSH1 0xFF AND DUP2 JUMP JUMPDEST PUSH1 0x1 PUSH1 0x0 DUP2 SLOAD PUSH2 0x732 SWAP1 PUSH2 0xC81 JUMP JUMPDEST SWAP2 SWAP1 POP DUP2 SWAP1 SSTORE POP JUMP JUMPDEST PUSH1 0x0 DUP2 SWAP1 POP SWAP2 SWAP1 POP JUMP JUMPDEST PUSH2 0x74E DUP2 PUSH2 0x73B JUMP JUMPDEST DUP3 MSTORE POP POP JUMP JUMPDEST PUSH1 0x0 PUSH1 0x20 DUP3 ADD SWAP1 POP PUSH2 0x769 PUSH1 0x0 DUP4 ADD DUP5 PUSH2 0x745 JUMP JUMPDEST SWAP3 SWAP2 POP POP JUMP JUMPDEST PUSH1 0x0 DUP2 ISZERO ISZERO SWAP1 POP SWAP2 SWAP1 POP JUMP JUMPDEST PUSH2 0x784 DUP2 PUSH2 0x76F JUMP JUMPDEST DUP3 MSTORE POP POP JUMP JUMPDEST PUSH1 0x0 PUSH1 0x20 DUP3 ADD SWAP1 POP PUSH2 0x79F PUSH1 0x0 DUP4 ADD DUP5 PUSH2 0x77B JUMP JUMPDEST SWAP3 SWAP2 POP POP JUMP JUMPDEST PUSH1 0x0 DUP1 REVERT JUMPDEST PUSH2 0x7B3 DUP2 PUSH2 0x76F JUMP JUMPDEST DUP2 EQ PUSH2 0x7BE JUMPI PUSH1 0x0 DUP1 REVERT JUMPDEST POP JUMP JUMPDEST PUSH1 0x0 DUP2 CALLDATALOAD SWAP1 POP PUSH2 0x7D0 DUP2 PUSH2 0x7AA JUMP JUMPDEST SWAP3 SWAP2 POP POP JUMP JUMPDEST PUSH1 0x0 PUSH1 0x20 DUP3 DUP5 SUB SLT ISZERO PUSH2 0x7EC JUMPI PUSH2 0x7EB PUSH2 0x7A5 JUMP JUMPDEST JUMPDEST PUSH1 0x0 PUSH2 0x7FA DUP5 DUP3 DUP6 ADD PUSH2 0x7C1 JUMP JUMPDEST SWAP2 POP POP SWAP3 SWAP2 POP POP JUMP JUMPDEST PUSH1 0x0 DUP2 SWAP1 POP SWAP2 SWAP1 POP JUMP JUMPDEST PUSH2 0x816 DUP2 PUSH2 0x803 JUMP JUMPDEST DUP3 MSTORE POP POP JUMP JUMPDEST PUSH1 0x0 PUSH1 0x20 DUP3 ADD SWAP1 POP PUSH2 0x831 PUSH1 0x0 DUP4 ADD DUP5 PUSH2 0x80D JUMP JUMPDEST SWAP3 SWAP2 POP POP JUMP JUMPDEST PUSH2 0x840 DUP2 PUSH2 0x73B JUMP JUMPDEST DUP2 EQ PUSH2 0x84B JUMPI PUSH1 0x0 DUP1 REVERT JUMPDEST POP JUMP JUMPDEST PUSH1 0x0 DUP2 CALLDATALOAD SWAP1 POP PUSH2 0x85D DUP2 PUSH2 0x837 JUMP JUMPDEST SWAP3 SWAP2 POP POP JUMP JUMPDEST PUSH1 0x0 PUSH1 0x20 DUP3 DUP5 SUB SLT ISZERO PUSH2 0x879 JUMPI PUSH2 0x878 PUSH2 0x7A5 JUMP JUMPDEST JUMPDEST PUSH1 0x0 PUSH2 0x887 DUP5 DUP3 DUP6 ADD PUSH2 0x84E JUMP JUMPDEST SWAP2 POP POP SWAP3 SWAP2 POP POP JUMP JUMPDEST PUSH1 0x0 PUSH20 0xFFFFFFFFFFFFFFFFFFFFFFFFFFFFFFFFFFFFFFFF DUP3 AND SWAP1 POP SWAP2 SWAP1 POP JUMP JUMPDEST PUSH1 0x0 PUSH2 0x8BB DUP3 PUSH2 0x890 JUMP JUMPDEST SWAP1 POP SWAP2 SWAP1 POP JUMP JUMPDEST PUSH2 0x8CB DUP2 PUSH2 0x8B0 JUMP JUMPDEST DUP2 EQ PUSH2 0x8D6 JUMPI PUSH1 0x0 DUP1 REVERT JUMPDEST POP JUMP JUMPDEST PUSH1 0x0 DUP2 CALLDATALOAD SWAP1 POP PUSH2 0x8E8 DUP2 PUSH2 0x8C2 JUMP JUMPDEST SWAP3 SWAP2 POP POP JUMP JUMPDEST PUSH1 0x0 PUSH1 0x20 DUP3 DUP5 SUB SLT ISZERO PUSH2 0x904 JUMPI PUSH2 0x903 PUSH2 0x7A5 JUMP JUMPDEST JUMPDEST PUSH1 0x0 PUSH2 0x912 DUP5 DUP3 DUP6 ADD PUSH2 0x8D9 JUMP JUMPDEST SWAP2 POP POP SWAP3 SWAP2 POP POP JUMP JUMPDEST PUSH2 0x924 DUP2 PUSH2 0x8B0 JUMP JUMPDEST DUP3 MSTORE POP POP JUMP JUMPDEST PUSH1 0x0 PUSH1 0x20 DUP3 ADD SWAP1 POP PUSH2 0x93F PUSH1 0x0 DUP4 ADD DUP5 PUSH2 0x91B JUMP JUMPDEST SWAP3 SWAP2 POP POP JUMP JUMPDEST PUSH2 0x94E DUP2 PUSH2 0x803 JUMP JUMPDEST DUP2 EQ PUSH2 0x959 JUMPI PUSH1 0x0 DUP1 REVERT JUMPDEST POP JUMP JUMPDEST PUSH1 0x0 DUP2 CALLDATALOAD SWAP1 POP PUSH2 0x96B DUP2 PUSH2 0x945 JUMP JUMPDEST SWAP3 SWAP2 POP POP JUMP JUMPDEST PUSH1 0x0 PUSH1 0x20 DUP3 DUP5 SUB SLT ISZERO PUSH2 0x987 JUMPI PUSH2 0x986 PUSH2 0x7A5 JUMP JUMPDEST JUMPDEST PUSH1 0x0 PUSH2 0x995 DUP5 DUP3 DUP6 ADD PUSH2 0x95C JUMP JUMPDEST SWAP2 POP POP SWAP3 SWAP2 POP POP JUMP JUMPDEST PUSH1 0x0 DUP2 MLOAD SWAP1 POP SWAP2 SWAP1 POP JUMP JUMPDEST PUSH1 0x0 DUP3 DUP3 MSTORE PUSH1 0x20 DUP3 ADD SWAP1 POP SWAP3 SWAP2 POP POP JUMP JUMPDEST PUSH1 0x0 JUMPDEST DUP4 DUP2 LT ISZERO PUSH2 0x9D8 JUMPI DUP1 DUP3 ADD MLOAD DUP2 DUP5 ADD MSTORE PUSH1 0x20 DUP2 ADD SWAP1 POP PUSH2 0x9BD JUMP JUMPDEST PUSH1 0x0 DUP5 DUP5 ADD MSTORE POP POP POP POP JUMP JUMPDEST PUSH1 0x0 PUSH1 0x1F NOT PUSH1 0x1F DUP4 ADD AND SWAP1 POP SWAP2 SWAP1 POP JUMP JUMPDEST PUSH1 0x0 PUSH2 0xA00 DUP3 PUSH2 0x99E JUMP JUMPDEST PUSH2 0xA0A DUP2 DUP6 PUSH2 0x9A9 JUMP JUMPDEST SWAP4 POP PUSH2 0xA1A DUP2 DUP6 PUSH1 0x20 DUP7 ADD PUSH2 0x9BA JUMP JUMPDEST PUSH2 0xA23 DUP2 PUSH2 0x9E4 JUMP JUMPDEST DUP5 ADD SWAP2 POP POP SWAP3 SWAP2 POP POP JUMP JUMPDEST PUSH1 0x0 PUSH1 0x20 DUP3 ADD SWAP1 POP DUP2 DUP2 SUB PUSH1 0x0 DUP4 ADD MSTORE PUSH2 0xA48 DUP2 DUP5 PUSH2 0x9F5 JUMP JUMPDEST SWAP1 POP SWAP3 SWAP2 POP POP JUMP JUMPDEST PUSH1 0x0 DUP1 PUSH1 0x40 DUP4 DUP6 SUB SLT ISZERO PUSH2 0xA67 JUMPI PUSH2 0xA66 PUSH2 0x7A5 JUMP JUMPDEST JUMPDEST PUSH1 0x0 PUSH2 0xA75 DUP6 DUP3 DUP7 ADD PUSH2 0x8D9 JUMP JUMPDEST SWAP3 POP POP PUSH1 0x20 PUSH2 0xA86 DUP6 DUP3 DUP7 ADD PUSH2 0x8D9 JUMP JUMPDEST SWAP2 POP POP SWAP3 POP SWAP3 SWAP1 POP JUMP JUMPDEST PUSH32 0x4E487B7100000000000000000000000000000000000000000000000000000000 PUSH1 0x0 MSTORE PUSH1 0x32 PUSH1 0x4 MSTORE PUSH1 0x24 PUSH1 0x0 REVERT JUMPDEST PUSH32 0x4E487B7100000000000000000000000000000000000000000000000000000000 PUSH1 0x0 MSTORE PUSH1 0x22 PUSH1 0x4 MSTORE PUSH1 0x24 PUSH1 0x0 REVERT JUMPDEST PUSH1 0x0 PUSH1 0x2 DUP3 DIV SWAP1 POP PUSH1 0x1 DUP3 AND DUP1 PUSH2 0xB06 JUMPI PUSH1 0x7F DUP3 AND SWAP2 POP JUMPDEST PUSH1 0x20 DUP3 LT DUP2 SUB PUSH2 0xB19 JUMPI PUSH2 0xB18 PUSH2 0xABF JUMP JUMPDEST JUMPDEST POP SWAP2 SWAP1 POP JUMP JUMPDEST PUSH1 0x0 DUP2 SWAP1 POP DUP2 PUSH1 0x0 MSTORE PUSH1 0x20 PUSH1 0x0 KECCAK256 SWAP1 POP SWAP2 SWAP1 POP JUMP JUMPDEST PUSH1 0x0 DUP2 SLOAD PUSH2 0xB41 DUP2 PUSH2 0xAEE JUMP JUMPDEST PUSH2 0xB4B DUP2 DUP7 PUSH2 0x9A9 JUMP JUMPDEST SWAP5 POP PUSH1 0x1 DUP3 AND PUSH1 0x0 DUP2 EQ PUSH2 0xB66 JUMPI PUSH1 0x1 DUP2 EQ PUSH2 0xB7C JUMPI PUSH2 0xBAF JUMP JUMPDEST PUSH1 0xFF NOT DUP4 AND DUP7 MSTORE DUP2 ISZERO ISZERO PUSH1 0x20 MUL DUP7 ADD SWAP4 POP PUSH2 0xBAF JUMP JUMPDEST PUSH2 0xB85 DUP6 PUSH2 0xB1F JUMP JUMPDEST PUSH1 0x0 JUMPDEST DUP4 DUP2 LT ISZERO PUSH2 0xBA7 JUMPI DUP2 SLOAD DUP2 DUP10 ADD MSTORE PUSH1 0x1 DUP3 ADD SWAP2 POP PUSH1 0x20 DUP2 ADD SWAP1 POP PUSH2 0xB88 JUMP JUMPDEST DUP1 DUP9 ADD SWAP6 POP POP POP JUMPDEST POP POP POP SWAP3 SWAP2 POP POP JUMP JUMPDEST PUSH1 0x0 PUSH1 0x20 DUP3 ADD SWAP1 POP DUP2 DUP2 SUB PUSH1 0x0 DUP4 ADD MSTORE PUSH2 0xBD2 DUP2 DUP5 PUSH2 0xB34 JUMP JUMPDEST SWAP1 POP SWAP3 SWAP2 POP POP JUMP JUMPDEST PUSH32 0x4E487B7100000000000000000000000000000000000000000000000000000000 PUSH1 0x0 MSTORE PUSH1 0x11 PUSH1 0x4 MSTORE PUSH1 0x24 PUSH1 0x0 REVERT JUMPDEST PUSH1 0x0 PUSH2 0xC14 DUP3 PUSH2 0x73B JUMP JUMPDEST SWAP2 POP PUSH2 0xC1F DUP4 PUSH2 0x73B JUMP JUMPDEST SWAP3 POP DUP3 DUP3 ADD SWAP1 POP DUP1 DUP3 GT ISZERO PUSH2 0xC37 JUMPI PUSH2 0xC36 PUSH2 0xBDA JUMP JUMPDEST JUMPDEST SWAP3 SWAP2 POP POP JUMP JUMPDEST PUSH1 0x0 PUSH2 0xC48 DUP3 PUSH2 0x803 JUMP JUMPDEST SWAP2 POP PUSH2 0xC53 DUP4 PUSH2 0x803 JUMP JUMPDEST SWAP3 POP DUP3 DUP3 ADD SWAP1 POP DUP3 DUP2 SLT ISZERO PUSH1 0x0 DUP4 SLT AND DUP4 DUP3 SLT PUSH1 0x0 DUP5 SLT ISZERO AND OR ISZERO PUSH2 0xC7B JUMPI PUSH2 0xC7A PUSH2 0xBDA JUMP JUMPDEST JUMPDEST SWAP3 SWAP2 POP POP JUMP JUMPDEST PUSH1 0x0 PUSH2 0xC8C DUP3 PUSH2 0x73B JUMP JUMPDEST SWAP2 POP PUSH32 0xFFFFFFFFFFFFFFFFFFFFFFFFFFFFFFFFFFFFFFFFFFFFFFFFFFFFFFFFFFFFFFFF DUP3 SUB PUSH2 0xCBE JUMPI PUSH2 0xCBD PUSH2 0xBDA JUMP JUMPDEST JUMPDEST PUSH1 0x1 DUP3 ADD SWAP1 POP SWAP2 SWAP1 POP JUMP INVALID LOG2 PUSH5 0x6970667358 0x22 SLT KECCAK256 0x4C ADD DUP6 TIMESTAMP REVERT GASPRICE STOP INVALID ADDRESS PUSH27 0x69A8F3C7271B2FB51CB6ACA68302DEAFCBDAD0864F0164736F6C63 NUMBER STOP ADDMOD SLT STOP CALLER "
				},
				"gasEstimates": {
					"creation": {
						"codeDepositCost": "665400",
						"executionCost": "infinite",
						"totalCost": "infinite"
					},
					"external": {
						"allowance(address,address)": "infinite",
						"allowed()": "2491",
						"assignAllowence(address)": "infinite",
						"buy()": "infinite",
						"count()": "2430",
						"errorMessages(uint256)": "infinite",
						"getSizeOfErrorMessages()": "426",
						"increment(uint256)": "infinite",
						"oneIncrement()": "24583",
						"owner()": "2559",
						"setAllowed(bool)": "24724",
						"signedCount()": "2496",
						"signedIncrement(int256)": "infinite"
					}
				},
				"methodIdentifiers": {
					"allowance(address,address)": "dd62ed3e",
					"allowed()": "19e1fca4",
					"assignAllowence(address)": "865cebe7",
					"buy()": "a6f2ae3a",
					"count()": "06661abd",
					"errorMessages(uint256)": "c539ab78",
					"getSizeOfErrorMessages()": "702051f0",
					"increment(uint256)": "7cf5dab0",
					"oneIncrement()": "ffac3b1d",
					"owner()": "8da5cb5b",
					"setAllowed(bool)": "2babac22",
					"signedCount()": "5f3d8f4a",
					"signedIncrement(int256)": "be7cb506"
				}
			},
			"storageLayout": {
				"storage": [
					{
						"astId": 3,
						"contract": "contracts/SimpleContract.sol:SimpleContract",
						"label": "allowed",
						"offset": 0,
						"slot": "0",
						"type": "t_bool"
					},
					{
						"astId": 5,
						"contract": "contracts/SimpleContract.sol:SimpleContract",
						"label": "count",
						"offset": 0,
						"slot": "1",
						"type": "t_uint256"
					},
					{
						"astId": 7,
						"contract": "contracts/SimpleContract.sol:SimpleContract",
						"label": "signedCount",
						"offset": 0,
						"slot": "2",
						"type": "t_int256"
					},
					{
						"astId": 13,
						"contract": "contracts/SimpleContract.sol:SimpleContract",
						"label": "allowance",
						"offset": 0,
						"slot": "3",
						"type": "t_mapping(t_address,t_mapping(t_address,t_bool))"
					},
					{
						"astId": 17,
						"contract": "contracts/SimpleContract.sol:SimpleContract",
						"label": "errorMessages",
						"offset": 0,
						"slot": "4",
						"type": "t_array(t_string_storage)2_storage"
					},
					{
						"astId": 19,
						"contract": "contracts/SimpleContract.sol:SimpleContract",
						"label": "owner",
						"offset": 0,
						"slot": "6",
						"type": "t_address"
					}
				],
				"types": {
					"t_address": {
						"encoding": "inplace",
						"label": "address",
						"numberOfBytes": "20"
					},
					"t_array(t_string_storage)2_storage": {
						"base": "t_string_storage",
						"encoding": "inplace",
						"label": "string[2]",
						"numberOfBytes": "64"
					},
					"t_bool": {
						"encoding": "inplace",
						"label": "bool",
						"numberOfBytes": "1"
					},
					"t_int256": {
						"encoding": "inplace",
						"label": "int256",
						"numberOfBytes": "32"
					},
					"t_mapping(t_address,t_bool)": {
						"encoding": "mapping",
						"key": "t_address",
						"label": "mapping(address => bool)",
						"numberOfBytes": "32",
						"value": "t_bool"
					},
					"t_mapping(t_address,t_mapping(t_address,t_bool))": {
						"encoding": "mapping",
						"key": "t_address",
						"label": "mapping(address => mapping(address => bool))",
						"numberOfBytes": "32",
						"value": "t_mapping(t_address,t_bool)"
					},
					"t_string_storage": {
						"encoding": "bytes",
						"label": "string",
						"numberOfBytes": "32"
					},
					"t_uint256": {
						"encoding": "inplace",
						"label": "uint256",
						"numberOfBytes": "32"
					}
				}
			},
			"userdoc": {
				"kind": "user",
				"methods": {},
				"version": 1
			}
		}
	}
}