{
	"contracts/SimpleContract.sol": {
		"SimpleContract": {
			"abi": [
				{
					"inputs": [],
					"name": "allowed",
					"outputs": [
						{
							"internalType": "bool",
							"name": "",
							"type": "bool"
						}
					],
					"stateMutability": "view",
					"type": "function"
				},
				{
					"inputs": [],
					"name": "buy",
					"outputs": [],
					"stateMutability": "nonpayable",
					"type": "function"
				},
				{
					"inputs": [],
					"name": "count",
					"outputs": [
						{
							"internalType": "uint256",
							"name": "",
							"type": "uint256"
						}
					],
					"stateMutability": "view",
					"type": "function"
				},
				{
					"inputs": [
						{
							"internalType": "uint256",
							"name": "_increment",
							"type": "uint256"
						}
					],
					"name": "increment",
					"outputs": [],
					"stateMutability": "nonpayable",
					"type": "function"
				},
				{
					"inputs": [],
					"name": "oneIncrement",
					"outputs": [],
					"stateMutability": "nonpayable",
					"type": "function"
				},
				{
					"inputs": [
						{
							"internalType": "bool",
							"name": "_allowed",
							"type": "bool"
						}
					],
					"name": "setAllowed",
					"outputs": [],
					"stateMutability": "nonpayable",
					"type": "function"
				},
				{
					"inputs": [],
					"name": "signedCount",
					"outputs": [
						{
							"internalType": "int256",
							"name": "",
							"type": "int256"
						}
					],
					"stateMutability": "view",
					"type": "function"
				},
				{
					"inputs": [
						{
							"internalType": "int256",
							"name": "_increment",
							"type": "int256"
						}
					],
					"name": "signedIncrement",
					"outputs": [],
					"stateMutability": "nonpayable",
					"type": "function"
				}
			],
			"devdoc": {
				"kind": "dev",
				"methods": {},
				"version": 1
			},
			"evm": {
				"assembly": "    /* \"contracts/SimpleContract.sol\":66:724  contract SimpleContract {... */\n  mstore(0x40, 0x80)\n    /* \"contracts/SimpleContract.sol\":172:235  string private errorMessage = unicode\"bu özellik aktif değil\" */\n  mload(0x40)\n  dup1\n  0x40\n  add\n  0x40\n  mstore\n  dup1\n  0x18\n  dup2\n  mstore\n  0x20\n  add\n  0x627520c3b67a656c6c696b20616b746966206465c49f696c0000000000000000\n  dup2\n  mstore\n  pop\n  0x03\n  swap1\n  dup2\n  tag_1\n  swap2\n  swap1\n  tag_2\n  jump\t// in\ntag_1:\n  pop\n    /* \"contracts/SimpleContract.sol\":66:724  contract SimpleContract {... */\n  callvalue\n  dup1\n  iszero\n  tag_3\n  jumpi\n  0x00\n  dup1\n  revert\ntag_3:\n  pop\n  jump(tag_4)\n    /* \"#utility.yul\":7:106   */\ntag_5:\n    /* \"#utility.yul\":59:65   */\n  0x00\n    /* \"#utility.yul\":93:98   */\n  dup2\n    /* \"#utility.yul\":87:99   */\n  mload\n    /* \"#utility.yul\":77:99   */\n  swap1\n  pop\n    /* \"#utility.yul\":7:106   */\n  swap2\n  swap1\n  pop\n  jump\t// out\n    /* \"#utility.yul\":112:292   */\ntag_6:\n    /* \"#utility.yul\":160:237   */\n  0x4e487b7100000000000000000000000000000000000000000000000000000000\n    /* \"#utility.yul\":157:158   */\n  0x00\n    /* \"#utility.yul\":150:238   */\n  mstore\n    /* \"#utility.yul\":257:261   */\n  0x41\n    /* \"#utility.yul\":254:255   */\n  0x04\n    /* \"#utility.yul\":247:262   */\n  mstore\n    /* \"#utility.yul\":281:285   */\n  0x24\n    /* \"#utility.yul\":278:279   */\n  0x00\n    /* \"#utility.yul\":271:286   */\n  revert\n    /* \"#utility.yul\":298:478   */\ntag_7:\n    /* \"#utility.yul\":346:423   */\n  0x4e487b7100000000000000000000000000000000000000000000000000000000\n    /* \"#utility.yul\":343:344   */\n  0x00\n    /* \"#utility.yul\":336:424   */\n  mstore\n    /* \"#utility.yul\":443:447   */\n  0x22\n    /* \"#utility.yul\":440:441   */\n  0x04\n    /* \"#utility.yul\":433:448   */\n  mstore\n    /* \"#utility.yul\":467:471   */\n  0x24\n    /* \"#utility.yul\":464:465   */\n  0x00\n    /* \"#utility.yul\":457:472   */\n  revert\n    /* \"#utility.yul\":484:804   */\ntag_8:\n    /* \"#utility.yul\":528:534   */\n  0x00\n    /* \"#utility.yul\":565:566   */\n  0x02\n    /* \"#utility.yul\":559:563   */\n  dup3\n    /* \"#utility.yul\":555:567   */\n  div\n    /* \"#utility.yul\":545:567   */\n  swap1\n  pop\n    /* \"#utility.yul\":612:613   */\n  0x01\n    /* \"#utility.yul\":606:610   */\n  dup3\n    /* \"#utility.yul\":602:614   */\n  and\n    /* \"#utility.yul\":633:651   */\n  dup1\n    /* \"#utility.yul\":623:704   */\n  tag_30\n  jumpi\n    /* \"#utility.yul\":689:693   */\n  0x7f\n    /* \"#utility.yul\":681:687   */\n  dup3\n    /* \"#utility.yul\":677:694   */\n  and\n    /* \"#utility.yul\":667:694   */\n  swap2\n  pop\n    /* \"#utility.yul\":623:704   */\ntag_30:\n    /* \"#utility.yul\":751:753   */\n  0x20\n    /* \"#utility.yul\":743:749   */\n  dup3\n    /* \"#utility.yul\":740:754   */\n  lt\n    /* \"#utility.yul\":720:738   */\n  dup2\n    /* \"#utility.yul\":717:755   */\n  sub\n    /* \"#utility.yul\":714:798   */\n  tag_31\n  jumpi\n    /* \"#utility.yul\":770:788   */\n  tag_32\n  tag_7\n  jump\t// in\ntag_32:\n    /* \"#utility.yul\":714:798   */\ntag_31:\n    /* \"#utility.yul\":535:804   */\n  pop\n    /* \"#utility.yul\":484:804   */\n  swap2\n  swap1\n  pop\n  jump\t// out\n    /* \"#utility.yul\":810:951   */\ntag_9:\n    /* \"#utility.yul\":859:863   */\n  0x00\n    /* \"#utility.yul\":882:885   */\n  dup2\n    /* \"#utility.yul\":874:885   */\n  swap1\n  pop\n    /* \"#utility.yul\":905:908   */\n  dup2\n    /* \"#utility.yul\":902:903   */\n  0x00\n    /* \"#utility.yul\":895:909   */\n  mstore\n    /* \"#utility.yul\":939:943   */\n  0x20\n    /* \"#utility.yul\":936:937   */\n  0x00\n    /* \"#utility.yul\":926:944   */\n  keccak256\n    /* \"#utility.yul\":918:944   */\n  swap1\n  pop\n    /* \"#utility.yul\":810:951   */\n  swap2\n  swap1\n  pop\n  jump\t// out\n    /* \"#utility.yul\":957:1050   */\ntag_10:\n    /* \"#utility.yul\":994:1000   */\n  0x00\n    /* \"#utility.yul\":1041:1043   */\n  0x20\n    /* \"#utility.yul\":1036:1038   */\n  0x1f\n    /* \"#utility.yul\":1029:1034   */\n  dup4\n    /* \"#utility.yul\":1025:1039   */\n  add\n    /* \"#utility.yul\":1021:1044   */\n  div\n    /* \"#utility.yul\":1011:1044   */\n  swap1\n  pop\n    /* \"#utility.yul\":957:1050   */\n  swap2\n  swap1\n  pop\n  jump\t// out\n    /* \"#utility.yul\":1056:1163   */\ntag_11:\n    /* \"#utility.yul\":1100:1108   */\n  0x00\n    /* \"#utility.yul\":1150:1155   */\n  dup3\n    /* \"#utility.yul\":1144:1148   */\n  dup3\n    /* \"#utility.yul\":1140:1156   */\n  shl\n    /* \"#utility.yul\":1119:1156   */\n  swap1\n  pop\n    /* \"#utility.yul\":1056:1163   */\n  swap3\n  swap2\n  pop\n  pop\n  jump\t// out\n    /* \"#utility.yul\":1169:1562   */\ntag_12:\n    /* \"#utility.yul\":1238:1244   */\n  0x00\n    /* \"#utility.yul\":1288:1289   */\n  0x08\n    /* \"#utility.yul\":1276:1286   */\n  dup4\n    /* \"#utility.yul\":1272:1290   */\n  mul\n    /* \"#utility.yul\":1311:1408   */\n  tag_37\n    /* \"#utility.yul\":1341:1407   */\n  0xffffffffffffffffffffffffffffffffffffffffffffffffffffffffffffffff\n    /* \"#utility.yul\":1330:1339   */\n  dup3\n    /* \"#utility.yul\":1311:1408   */\n  tag_11\n  jump\t// in\ntag_37:\n    /* \"#utility.yul\":1429:1468   */\n  tag_38\n    /* \"#utility.yul\":1459:1467   */\n  dup7\n    /* \"#utility.yul\":1448:1457   */\n  dup4\n    /* \"#utility.yul\":1429:1468   */\n  tag_11\n  jump\t// in\ntag_38:\n    /* \"#utility.yul\":1417:1468   */\n  swap6\n  pop\n    /* \"#utility.yul\":1501:1505   */\n  dup1\n    /* \"#utility.yul\":1497:1506   */\n  not\n    /* \"#utility.yul\":1490:1495   */\n  dup5\n    /* \"#utility.yul\":1486:1507   */\n  and\n    /* \"#utility.yul\":1477:1507   */\n  swap4\n  pop\n    /* \"#utility.yul\":1550:1554   */\n  dup1\n    /* \"#utility.yul\":1540:1548   */\n  dup7\n    /* \"#utility.yul\":1536:1555   */\n  and\n    /* \"#utility.yul\":1529:1534   */\n  dup5\n    /* \"#utility.yul\":1526:1556   */\n  or\n    /* \"#utility.yul\":1516:1556   */\n  swap3\n  pop\n    /* \"#utility.yul\":1245:1562   */\n  pop\n  pop\n    /* \"#utility.yul\":1169:1562   */\n  swap4\n  swap3\n  pop\n  pop\n  pop\n  jump\t// out\n    /* \"#utility.yul\":1568:1645   */\ntag_13:\n    /* \"#utility.yul\":1605:1612   */\n  0x00\n    /* \"#utility.yul\":1634:1639   */\n  dup2\n    /* \"#utility.yul\":1623:1639   */\n  swap1\n  pop\n    /* \"#utility.yul\":1568:1645   */\n  swap2\n  swap1\n  pop\n  jump\t// out\n    /* \"#utility.yul\":1651:1711   */\ntag_14:\n    /* \"#utility.yul\":1679:1682   */\n  0x00\n    /* \"#utility.yul\":1700:1705   */\n  dup2\n    /* \"#utility.yul\":1693:1705   */\n  swap1\n  pop\n    /* \"#utility.yul\":1651:1711   */\n  swap2\n  swap1\n  pop\n  jump\t// out\n    /* \"#utility.yul\":1717:1859   */\ntag_15:\n    /* \"#utility.yul\":1767:1776   */\n  0x00\n    /* \"#utility.yul\":1800:1853   */\n  tag_42\n    /* \"#utility.yul\":1818:1852   */\n  tag_43\n    /* \"#utility.yul\":1827:1851   */\n  tag_44\n    /* \"#utility.yul\":1845:1850   */\n  dup5\n    /* \"#utility.yul\":1827:1851   */\n  tag_13\n  jump\t// in\ntag_44:\n    /* \"#utility.yul\":1818:1852   */\n  tag_14\n  jump\t// in\ntag_43:\n    /* \"#utility.yul\":1800:1853   */\n  tag_13\n  jump\t// in\ntag_42:\n    /* \"#utility.yul\":1787:1853   */\n  swap1\n  pop\n    /* \"#utility.yul\":1717:1859   */\n  swap2\n  swap1\n  pop\n  jump\t// out\n    /* \"#utility.yul\":1865:1940   */\ntag_16:\n    /* \"#utility.yul\":1908:1911   */\n  0x00\n    /* \"#utility.yul\":1929:1934   */\n  dup2\n    /* \"#utility.yul\":1922:1934   */\n  swap1\n  pop\n    /* \"#utility.yul\":1865:1940   */\n  swap2\n  swap1\n  pop\n  jump\t// out\n    /* \"#utility.yul\":1946:2215   */\ntag_17:\n    /* \"#utility.yul\":2056:2095   */\n  tag_47\n    /* \"#utility.yul\":2087:2094   */\n  dup4\n    /* \"#utility.yul\":2056:2095   */\n  tag_15\n  jump\t// in\ntag_47:\n    /* \"#utility.yul\":2117:2208   */\n  tag_48\n    /* \"#utility.yul\":2166:2207   */\n  tag_49\n    /* \"#utility.yul\":2190:2206   */\n  dup3\n    /* \"#utility.yul\":2166:2207   */\n  tag_16\n  jump\t// in\ntag_49:\n    /* \"#utility.yul\":2158:2164   */\n  dup5\n    /* \"#utility.yul\":2151:2155   */\n  dup5\n    /* \"#utility.yul\":2145:2156   */\n  sload\n    /* \"#utility.yul\":2117:2208   */\n  tag_12\n  jump\t// in\ntag_48:\n    /* \"#utility.yul\":2111:2115   */\n  dup3\n    /* \"#utility.yul\":2104:2209   */\n  sstore\n    /* \"#utility.yul\":2022:2215   */\n  pop\n    /* \"#utility.yul\":1946:2215   */\n  pop\n  pop\n  pop\n  jump\t// out\n    /* \"#utility.yul\":2221:2294   */\ntag_18:\n    /* \"#utility.yul\":2266:2269   */\n  0x00\n    /* \"#utility.yul\":2221:2294   */\n  swap1\n  jump\t// out\n    /* \"#utility.yul\":2300:2489   */\ntag_19:\n    /* \"#utility.yul\":2377:2409   */\n  tag_52\n  tag_18\n  jump\t// in\ntag_52:\n    /* \"#utility.yul\":2418:2483   */\n  tag_53\n    /* \"#utility.yul\":2476:2482   */\n  dup2\n    /* \"#utility.yul\":2468:2474   */\n  dup5\n    /* \"#utility.yul\":2462:2466   */\n  dup5\n    /* \"#utility.yul\":2418:2483   */\n  tag_17\n  jump\t// in\ntag_53:\n    /* \"#utility.yul\":2353:2489   */\n  pop\n    /* \"#utility.yul\":2300:2489   */\n  pop\n  pop\n  jump\t// out\n    /* \"#utility.yul\":2495:2681   */\ntag_20:\n    /* \"#utility.yul\":2555:2675   */\ntag_55:\n    /* \"#utility.yul\":2572:2575   */\n  dup2\n    /* \"#utility.yul\":2565:2570   */\n  dup2\n    /* \"#utility.yul\":2562:2576   */\n  lt\n    /* \"#utility.yul\":2555:2675   */\n  iszero\n  tag_57\n  jumpi\n    /* \"#utility.yul\":2626:2665   */\n  tag_58\n    /* \"#utility.yul\":2663:2664   */\n  0x00\n    /* \"#utility.yul\":2656:2661   */\n  dup3\n    /* \"#utility.yul\":2626:2665   */\n  tag_19\n  jump\t// in\ntag_58:\n    /* \"#utility.yul\":2599:2600   */\n  0x01\n    /* \"#utility.yul\":2592:2597   */\n  dup2\n    /* \"#utility.yul\":2588:2601   */\n  add\n    /* \"#utility.yul\":2579:2601   */\n  swap1\n  pop\n    /* \"#utility.yul\":2555:2675   */\n  jump(tag_55)\ntag_57:\n    /* \"#utility.yul\":2495:2681   */\n  pop\n  pop\n  jump\t// out\n    /* \"#utility.yul\":2687:3230   */\ntag_21:\n    /* \"#utility.yul\":2788:2790   */\n  0x1f\n    /* \"#utility.yul\":2783:2786   */\n  dup3\n    /* \"#utility.yul\":2780:2791   */\n  gt\n    /* \"#utility.yul\":2777:3223   */\n  iszero\n  tag_60\n  jumpi\n    /* \"#utility.yul\":2822:2860   */\n  tag_61\n    /* \"#utility.yul\":2854:2859   */\n  dup2\n    /* \"#utility.yul\":2822:2860   */\n  tag_9\n  jump\t// in\ntag_61:\n    /* \"#utility.yul\":2906:2935   */\n  tag_62\n    /* \"#utility.yul\":2924:2934   */\n  dup5\n    /* \"#utility.yul\":2906:2935   */\n  tag_10\n  jump\t// in\ntag_62:\n    /* \"#utility.yul\":2896:2904   */\n  dup2\n    /* \"#utility.yul\":2892:2936   */\n  add\n    /* \"#utility.yul\":3089:3091   */\n  0x20\n    /* \"#utility.yul\":3077:3087   */\n  dup6\n    /* \"#utility.yul\":3074:3092   */\n  lt\n    /* \"#utility.yul\":3071:3120   */\n  iszero\n  tag_63\n  jumpi\n    /* \"#utility.yul\":3110:3118   */\n  dup2\n    /* \"#utility.yul\":3095:3118   */\n  swap1\n  pop\n    /* \"#utility.yul\":3071:3120   */\ntag_63:\n    /* \"#utility.yul\":3133:3213   */\n  tag_64\n    /* \"#utility.yul\":3189:3211   */\n  tag_65\n    /* \"#utility.yul\":3207:3210   */\n  dup6\n    /* \"#utility.yul\":3189:3211   */\n  tag_10\n  jump\t// in\ntag_65:\n    /* \"#utility.yul\":3179:3187   */\n  dup4\n    /* \"#utility.yul\":3175:3212   */\n  add\n    /* \"#utility.yul\":3162:3173   */\n  dup3\n    /* \"#utility.yul\":3133:3213   */\n  tag_20\n  jump\t// in\ntag_64:\n    /* \"#utility.yul\":2792:3223   */\n  pop\n  pop\n    /* \"#utility.yul\":2777:3223   */\ntag_60:\n    /* \"#utility.yul\":2687:3230   */\n  pop\n  pop\n  pop\n  jump\t// out\n    /* \"#utility.yul\":3236:3353   */\ntag_22:\n    /* \"#utility.yul\":3290:3298   */\n  0x00\n    /* \"#utility.yul\":3340:3345   */\n  dup3\n    /* \"#utility.yul\":3334:3338   */\n  dup3\n    /* \"#utility.yul\":3330:3346   */\n  shr\n    /* \"#utility.yul\":3309:3346   */\n  swap1\n  pop\n    /* \"#utility.yul\":3236:3353   */\n  swap3\n  swap2\n  pop\n  pop\n  jump\t// out\n    /* \"#utility.yul\":3359:3528   */\ntag_23:\n    /* \"#utility.yul\":3403:3409   */\n  0x00\n    /* \"#utility.yul\":3436:3487   */\n  tag_68\n    /* \"#utility.yul\":3484:3485   */\n  0x00\n    /* \"#utility.yul\":3480:3486   */\n  not\n    /* \"#utility.yul\":3472:3477   */\n  dup5\n    /* \"#utility.yul\":3469:3470   */\n  0x08\n    /* \"#utility.yul\":3465:3478   */\n  mul\n    /* \"#utility.yul\":3436:3487   */\n  tag_22\n  jump\t// in\ntag_68:\n    /* \"#utility.yul\":3432:3488   */\n  not\n    /* \"#utility.yul\":3517:3521   */\n  dup1\n    /* \"#utility.yul\":3511:3515   */\n  dup4\n    /* \"#utility.yul\":3507:3522   */\n  and\n    /* \"#utility.yul\":3497:3522   */\n  swap2\n  pop\n    /* \"#utility.yul\":3410:3528   */\n  pop\n    /* \"#utility.yul\":3359:3528   */\n  swap3\n  swap2\n  pop\n  pop\n  jump\t// out\n    /* \"#utility.yul\":3533:3828   */\ntag_24:\n    /* \"#utility.yul\":3609:3613   */\n  0x00\n    /* \"#utility.yul\":3755:3784   */\n  tag_70\n    /* \"#utility.yul\":3780:3783   */\n  dup4\n    /* \"#utility.yul\":3774:3778   */\n  dup4\n    /* \"#utility.yul\":3755:3784   */\n  tag_23\n  jump\t// in\ntag_70:\n    /* \"#utility.yul\":3747:3784   */\n  swap2\n  pop\n    /* \"#utility.yul\":3817:3820   */\n  dup3\n    /* \"#utility.yul\":3814:3815   */\n  0x02\n    /* \"#utility.yul\":3810:3821   */\n  mul\n    /* \"#utility.yul\":3804:3808   */\n  dup3\n    /* \"#utility.yul\":3801:3822   */\n  or\n    /* \"#utility.yul\":3793:3822   */\n  swap1\n  pop\n    /* \"#utility.yul\":3533:3828   */\n  swap3\n  swap2\n  pop\n  pop\n  jump\t// out\n    /* \"#utility.yul\":3833:5228   */\ntag_2:\n    /* \"#utility.yul\":3950:3987   */\n  tag_72\n    /* \"#utility.yul\":3983:3986   */\n  dup3\n    /* \"#utility.yul\":3950:3987   */\n  tag_5\n  jump\t// in\ntag_72:\n    /* \"#utility.yul\":4052:4070   */\n  0xffffffffffffffff\n    /* \"#utility.yul\":4044:4050   */\n  dup2\n    /* \"#utility.yul\":4041:4071   */\n  gt\n    /* \"#utility.yul\":4038:4094   */\n  iszero\n  tag_73\n  jumpi\n    /* \"#utility.yul\":4074:4092   */\n  tag_74\n  tag_6\n  jump\t// in\ntag_74:\n    /* \"#utility.yul\":4038:4094   */\ntag_73:\n    /* \"#utility.yul\":4118:4156   */\n  tag_75\n    /* \"#utility.yul\":4150:4154   */\n  dup3\n    /* \"#utility.yul\":4144:4155   */\n  sload\n    /* \"#utility.yul\":4118:4156   */\n  tag_8\n  jump\t// in\ntag_75:\n    /* \"#utility.yul\":4203:4270   */\n  tag_76\n    /* \"#utility.yul\":4263:4269   */\n  dup3\n    /* \"#utility.yul\":4255:4261   */\n  dup3\n    /* \"#utility.yul\":4249:4253   */\n  dup6\n    /* \"#utility.yul\":4203:4270   */\n  tag_21\n  jump\t// in\ntag_76:\n    /* \"#utility.yul\":4297:4298   */\n  0x00\n    /* \"#utility.yul\":4321:4325   */\n  0x20\n    /* \"#utility.yul\":4308:4325   */\n  swap1\n  pop\n    /* \"#utility.yul\":4353:4355   */\n  0x1f\n    /* \"#utility.yul\":4345:4351   */\n  dup4\n    /* \"#utility.yul\":4342:4356   */\n  gt\n    /* \"#utility.yul\":4370:4371   */\n  0x01\n    /* \"#utility.yul\":4365:4983   */\n  dup2\n  eq\n  tag_78\n  jumpi\n    /* \"#utility.yul\":5027:5028   */\n  0x00\n    /* \"#utility.yul\":5044:5050   */\n  dup5\n    /* \"#utility.yul\":5041:5118   */\n  iszero\n  tag_79\n  jumpi\n    /* \"#utility.yul\":5093:5102   */\n  dup3\n    /* \"#utility.yul\":5088:5091   */\n  dup8\n    /* \"#utility.yul\":5084:5103   */\n  add\n    /* \"#utility.yul\":5078:5104   */\n  mload\n    /* \"#utility.yul\":5069:5104   */\n  swap1\n  pop\n    /* \"#utility.yul\":5041:5118   */\ntag_79:\n    /* \"#utility.yul\":5144:5211   */\n  tag_80\n    /* \"#utility.yul\":5204:5210   */\n  dup6\n    /* \"#utility.yul\":5197:5202   */\n  dup3\n    /* \"#utility.yul\":5144:5211   */\n  tag_24\n  jump\t// in\ntag_80:\n    /* \"#utility.yul\":5138:5142   */\n  dup7\n    /* \"#utility.yul\":5131:5212   */\n  sstore\n    /* \"#utility.yul\":5000:5222   */\n  pop\n    /* \"#utility.yul\":4335:5222   */\n  jump(tag_77)\n    /* \"#utility.yul\":4365:4983   */\ntag_78:\n    /* \"#utility.yul\":4417:4421   */\n  0x1f\n    /* \"#utility.yul\":4413:4422   */\n  not\n    /* \"#utility.yul\":4405:4411   */\n  dup5\n    /* \"#utility.yul\":4401:4423   */\n  and\n    /* \"#utility.yul\":4451:4488   */\n  tag_81\n    /* \"#utility.yul\":4483:4487   */\n  dup7\n    /* \"#utility.yul\":4451:4488   */\n  tag_9\n  jump\t// in\ntag_81:\n    /* \"#utility.yul\":4510:4511   */\n  0x00\n    /* \"#utility.yul\":4524:4732   */\ntag_82:\n    /* \"#utility.yul\":4538:4545   */\n  dup3\n    /* \"#utility.yul\":4535:4536   */\n  dup2\n    /* \"#utility.yul\":4532:4546   */\n  lt\n    /* \"#utility.yul\":4524:4732   */\n  iszero\n  tag_84\n  jumpi\n    /* \"#utility.yul\":4617:4626   */\n  dup5\n    /* \"#utility.yul\":4612:4615   */\n  dup10\n    /* \"#utility.yul\":4608:4627   */\n  add\n    /* \"#utility.yul\":4602:4628   */\n  mload\n    /* \"#utility.yul\":4594:4600   */\n  dup3\n    /* \"#utility.yul\":4587:4629   */\n  sstore\n    /* \"#utility.yul\":4668:4669   */\n  0x01\n    /* \"#utility.yul\":4660:4666   */\n  dup3\n    /* \"#utility.yul\":4656:4670   */\n  add\n    /* \"#utility.yul\":4646:4670   */\n  swap2\n  pop\n    /* \"#utility.yul\":4715:4717   */\n  0x20\n    /* \"#utility.yul\":4704:4713   */\n  dup6\n    /* \"#utility.yul\":4700:4718   */\n  add\n    /* \"#utility.yul\":4687:4718   */\n  swap5\n  pop\n    /* \"#utility.yul\":4561:4565   */\n  0x20\n    /* \"#utility.yul\":4558:4559   */\n  dup2\n    /* \"#utility.yul\":4554:4566   */\n  add\n    /* \"#utility.yul\":4549:4566   */\n  swap1\n  pop\n    /* \"#utility.yul\":4524:4732   */\n  jump(tag_82)\ntag_84:\n    /* \"#utility.yul\":4760:4766   */\n  dup7\n    /* \"#utility.yul\":4751:4758   */\n  dup4\n    /* \"#utility.yul\":4748:4767   */\n  lt\n    /* \"#utility.yul\":4745:4924   */\n  iszero\n  tag_85\n  jumpi\n    /* \"#utility.yul\":4818:4827   */\n  dup5\n    /* \"#utility.yul\":4813:4816   */\n  dup10\n    /* \"#utility.yul\":4809:4828   */\n  add\n    /* \"#utility.yul\":4803:4829   */\n  mload\n    /* \"#utility.yul\":4861:4909   */\n  tag_86\n    /* \"#utility.yul\":4903:4907   */\n  0x1f\n    /* \"#utility.yul\":4895:4901   */\n  dup10\n    /* \"#utility.yul\":4891:4908   */\n  and\n    /* \"#utility.yul\":4880:4889   */\n  dup3\n    /* \"#utility.yul\":4861:4909   */\n  tag_23\n  jump\t// in\ntag_86:\n    /* \"#utility.yul\":4853:4859   */\n  dup4\n    /* \"#utility.yul\":4846:4910   */\n  sstore\n    /* \"#utility.yul\":4768:4924   */\n  pop\n    /* \"#utility.yul\":4745:4924   */\ntag_85:\n    /* \"#utility.yul\":4970:4971   */\n  0x01\n    /* \"#utility.yul\":4966:4967   */\n  0x02\n    /* \"#utility.yul\":4958:4964   */\n  dup9\n    /* \"#utility.yul\":4954:4968   */\n  mul\n    /* \"#utility.yul\":4950:4972   */\n  add\n    /* \"#utility.yul\":4944:4948   */\n  dup9\n    /* \"#utility.yul\":4937:4973   */\n  sstore\n    /* \"#utility.yul\":4372:4983   */\n  pop\n  pop\n  pop\n    /* \"#utility.yul\":4335:5222   */\ntag_77:\n  pop\n    /* \"#utility.yul\":3925:5228   */\n  pop\n  pop\n  pop\n    /* \"#utility.yul\":3833:5228   */\n  pop\n  pop\n  jump\t// out\n    /* \"contracts/SimpleContract.sol\":66:724  contract SimpleContract {... */\ntag_4:\n  dataSize(sub_0)\n  dup1\n  dataOffset(sub_0)\n  0x00\n  codecopy\n  0x00\n  return\nstop\n\nsub_0: assembly {\n        /* \"contracts/SimpleContract.sol\":66:724  contract SimpleContract {... */\n      mstore(0x40, 0x80)\n      callvalue\n      dup1\n      iszero\n      tag_1\n      jumpi\n      0x00\n      dup1\n      revert\n    tag_1:\n      pop\n      jumpi(tag_2, lt(calldatasize, 0x04))\n      shr(0xe0, calldataload(0x00))\n      dup1\n      0x7cf5dab0\n      gt\n      tag_11\n      jumpi\n      dup1\n      0x7cf5dab0\n      eq\n      tag_7\n      jumpi\n      dup1\n      0xa6f2ae3a\n      eq\n      tag_8\n      jumpi\n      dup1\n      0xbe7cb506\n      eq\n      tag_9\n      jumpi\n      dup1\n      0xffac3b1d\n      eq\n      tag_10\n      jumpi\n      jump(tag_2)\n    tag_11:\n      dup1\n      0x06661abd\n      eq\n      tag_3\n      jumpi\n      dup1\n      0x19e1fca4\n      eq\n      tag_4\n      jumpi\n      dup1\n      0x2babac22\n      eq\n      tag_5\n      jumpi\n      dup1\n      0x5f3d8f4a\n      eq\n      tag_6\n      jumpi\n    tag_2:\n      0x00\n      dup1\n      revert\n        /* \"contracts/SimpleContract.sol\":121:138  uint public count */\n    tag_3:\n      tag_12\n      tag_13\n      jump\t// in\n    tag_12:\n      mload(0x40)\n      tag_14\n      swap2\n      swap1\n      tag_15\n      jump\t// in\n    tag_14:\n      mload(0x40)\n      dup1\n      swap2\n      sub\n      swap1\n      return\n        /* \"contracts/SimpleContract.sol\":96:115  bool public allowed */\n    tag_4:\n      tag_16\n      tag_17\n      jump\t// in\n    tag_16:\n      mload(0x40)\n      tag_18\n      swap2\n      swap1\n      tag_19\n      jump\t// in\n    tag_18:\n      mload(0x40)\n      dup1\n      swap2\n      sub\n      swap1\n      return\n        /* \"contracts/SimpleContract.sol\":242:319  function setAllowed(bool _allowed) public {... */\n    tag_5:\n      tag_20\n      0x04\n      dup1\n      calldatasize\n      sub\n      dup2\n      add\n      swap1\n      tag_21\n      swap2\n      swap1\n      tag_22\n      jump\t// in\n    tag_21:\n      tag_23\n      jump\t// in\n    tag_20:\n      stop\n        /* \"contracts/SimpleContract.sol\":144:166  int public signedCount */\n    tag_6:\n      tag_24\n      tag_25\n      jump\t// in\n    tag_24:\n      mload(0x40)\n      tag_26\n      swap2\n      swap1\n      tag_27\n      jump\t// in\n    tag_26:\n      mload(0x40)\n      dup1\n      swap2\n      sub\n      swap1\n      return\n        /* \"contracts/SimpleContract.sol\":516:611  function increment(uint _increment) isAllowed public{... */\n    tag_7:\n      tag_28\n      0x04\n      dup1\n      calldatasize\n      sub\n      dup2\n      add\n      swap1\n      tag_29\n      swap2\n      swap1\n      tag_30\n      jump\t// in\n    tag_29:\n      tag_31\n      jump\t// in\n    tag_28:\n      stop\n        /* \"contracts/SimpleContract.sol\":408:449  function buy() isAllowed public  {... */\n    tag_8:\n      tag_32\n      tag_33\n      jump\t// in\n    tag_32:\n      stop\n        /* \"contracts/SimpleContract.sol\":617:720  function signedIncrement(int _increment) public {... */\n    tag_9:\n      tag_34\n      0x04\n      dup1\n      calldatasize\n      sub\n      dup2\n      add\n      swap1\n      tag_35\n      swap2\n      swap1\n      tag_36\n      jump\t// in\n    tag_35:\n      tag_37\n      jump\t// in\n    tag_34:\n      stop\n        /* \"contracts/SimpleContract.sol\":455:510  function oneIncrement() public {... */\n    tag_10:\n      tag_38\n      tag_39\n      jump\t// in\n    tag_38:\n      stop\n        /* \"contracts/SimpleContract.sol\":121:138  uint public count */\n    tag_13:\n      sload(0x01)\n      dup2\n      jump\t// out\n        /* \"contracts/SimpleContract.sol\":96:115  bool public allowed */\n    tag_17:\n      0x00\n      dup1\n      sload\n      swap1\n      0x0100\n      exp\n      swap1\n      div\n      0xff\n      and\n      dup2\n      jump\t// out\n        /* \"contracts/SimpleContract.sol\":242:319  function setAllowed(bool _allowed) public {... */\n    tag_23:\n        /* \"contracts/SimpleContract.sol\":304:312  _allowed */\n      dup1\n        /* \"contracts/SimpleContract.sol\":294:301  allowed */\n      0x00\n      dup1\n        /* \"contracts/SimpleContract.sol\":294:312  allowed = _allowed */\n      0x0100\n      exp\n      dup2\n      sload\n      dup2\n      0xff\n      mul\n      not\n      and\n      swap1\n      dup4\n      iszero\n      iszero\n      mul\n      or\n      swap1\n      sstore\n      pop\n        /* \"contracts/SimpleContract.sol\":242:319  function setAllowed(bool _allowed) public {... */\n      pop\n      jump\t// out\n        /* \"contracts/SimpleContract.sol\":144:166  int public signedCount */\n    tag_25:\n      sload(0x02)\n      dup2\n      jump\t// out\n        /* \"contracts/SimpleContract.sol\":516:611  function increment(uint _increment) isAllowed public{... */\n    tag_31:\n        /* \"contracts/SimpleContract.sol\":363:370  allowed */\n      0x00\n      dup1\n      sload\n      swap1\n      0x0100\n      exp\n      swap1\n      div\n      0xff\n      and\n        /* \"contracts/SimpleContract.sol\":371:383  errorMessage */\n      0x03\n        /* \"contracts/SimpleContract.sol\":355:384  require(allowed,errorMessage) */\n      swap1\n      tag_42\n      jumpi\n      mload(0x40)\n      0x08c379a000000000000000000000000000000000000000000000000000000000\n      dup2\n      mstore\n      0x04\n      add\n      tag_43\n      swap2\n      swap1\n      tag_44\n      jump\t// in\n    tag_43:\n      mload(0x40)\n      dup1\n      swap2\n      sub\n      swap1\n      revert\n    tag_42:\n      pop\n        /* \"contracts/SimpleContract.sol\":594:604  _increment */\n      dup1\n        /* \"contracts/SimpleContract.sol\":586:591  count */\n      sload(0x01)\n        /* \"contracts/SimpleContract.sol\":586:604  count + _increment */\n      tag_46\n      swap2\n      swap1\n      tag_47\n      jump\t// in\n    tag_46:\n        /* \"contracts/SimpleContract.sol\":578:583  count */\n      0x01\n        /* \"contracts/SimpleContract.sol\":578:604  count = count + _increment */\n      dup2\n      swap1\n      sstore\n      pop\n        /* \"contracts/SimpleContract.sol\":516:611  function increment(uint _increment) isAllowed public{... */\n      pop\n      jump\t// out\n        /* \"contracts/SimpleContract.sol\":408:449  function buy() isAllowed public  {... */\n    tag_33:\n        /* \"contracts/SimpleContract.sol\":363:370  allowed */\n      0x00\n      dup1\n      sload\n      swap1\n      0x0100\n      exp\n      swap1\n      div\n      0xff\n      and\n        /* \"contracts/SimpleContract.sol\":371:383  errorMessage */\n      0x03\n        /* \"contracts/SimpleContract.sol\":355:384  require(allowed,errorMessage) */\n      swap1\n      tag_49\n      jumpi\n      mload(0x40)\n      0x08c379a000000000000000000000000000000000000000000000000000000000\n      dup2\n      mstore\n      0x04\n      add\n      tag_50\n      swap2\n      swap1\n      tag_44\n      jump\t// in\n    tag_50:\n      mload(0x40)\n      dup1\n      swap2\n      sub\n      swap1\n      revert\n    tag_49:\n      pop\n        /* \"contracts/SimpleContract.sol\":408:449  function buy() isAllowed public  {... */\n      jump\t// out\n        /* \"contracts/SimpleContract.sol\":617:720  function signedIncrement(int _increment) public {... */\n    tag_37:\n        /* \"contracts/SimpleContract.sol\":703:713  _increment */\n      dup1\n        /* \"contracts/SimpleContract.sol\":689:700  signedCount */\n      sload(0x02)\n        /* \"contracts/SimpleContract.sol\":689:713  signedCount + _increment */\n      tag_53\n      swap2\n      swap1\n      tag_54\n      jump\t// in\n    tag_53:\n        /* \"contracts/SimpleContract.sol\":675:686  signedCount */\n      0x02\n        /* \"contracts/SimpleContract.sol\":675:713  signedCount = signedCount + _increment */\n      dup2\n      swap1\n      sstore\n      pop\n        /* \"contracts/SimpleContract.sol\":617:720  function signedIncrement(int _increment) public {... */\n      pop\n      jump\t// out\n        /* \"contracts/SimpleContract.sol\":455:510  function oneIncrement() public {... */\n    tag_39:\n        /* \"contracts/SimpleContract.sol\":498:503  count */\n      0x01\n      0x00\n        /* \"contracts/SimpleContract.sol\":496:503  ++count */\n      dup2\n      sload\n      tag_56\n      swap1\n      tag_57\n      jump\t// in\n    tag_56:\n      swap2\n      swap1\n      pop\n      dup2\n      swap1\n      sstore\n      pop\n        /* \"contracts/SimpleContract.sol\":455:510  function oneIncrement() public {... */\n      jump\t// out\n        /* \"#utility.yul\":7:84   */\n    tag_58:\n        /* \"#utility.yul\":44:51   */\n      0x00\n        /* \"#utility.yul\":73:78   */\n      dup2\n        /* \"#utility.yul\":62:78   */\n      swap1\n      pop\n        /* \"#utility.yul\":7:84   */\n      swap2\n      swap1\n      pop\n      jump\t// out\n        /* \"#utility.yul\":90:208   */\n    tag_59:\n        /* \"#utility.yul\":177:201   */\n      tag_82\n        /* \"#utility.yul\":195:200   */\n      dup2\n        /* \"#utility.yul\":177:201   */\n      tag_58\n      jump\t// in\n    tag_82:\n        /* \"#utility.yul\":172:175   */\n      dup3\n        /* \"#utility.yul\":165:202   */\n      mstore\n        /* \"#utility.yul\":90:208   */\n      pop\n      pop\n      jump\t// out\n        /* \"#utility.yul\":214:436   */\n    tag_15:\n        /* \"#utility.yul\":307:311   */\n      0x00\n        /* \"#utility.yul\":345:347   */\n      0x20\n        /* \"#utility.yul\":334:343   */\n      dup3\n        /* \"#utility.yul\":330:348   */\n      add\n        /* \"#utility.yul\":322:348   */\n      swap1\n      pop\n        /* \"#utility.yul\":358:429   */\n      tag_84\n        /* \"#utility.yul\":426:427   */\n      0x00\n        /* \"#utility.yul\":415:424   */\n      dup4\n        /* \"#utility.yul\":411:428   */\n      add\n        /* \"#utility.yul\":402:408   */\n      dup5\n        /* \"#utility.yul\":358:429   */\n      tag_59\n      jump\t// in\n    tag_84:\n        /* \"#utility.yul\":214:436   */\n      swap3\n      swap2\n      pop\n      pop\n      jump\t// out\n        /* \"#utility.yul\":442:532   */\n    tag_60:\n        /* \"#utility.yul\":476:483   */\n      0x00\n        /* \"#utility.yul\":519:524   */\n      dup2\n        /* \"#utility.yul\":512:525   */\n      iszero\n        /* \"#utility.yul\":505:526   */\n      iszero\n        /* \"#utility.yul\":494:526   */\n      swap1\n      pop\n        /* \"#utility.yul\":442:532   */\n      swap2\n      swap1\n      pop\n      jump\t// out\n        /* \"#utility.yul\":538:647   */\n    tag_61:\n        /* \"#utility.yul\":619:640   */\n      tag_87\n        /* \"#utility.yul\":634:639   */\n      dup2\n        /* \"#utility.yul\":619:640   */\n      tag_60\n      jump\t// in\n    tag_87:\n        /* \"#utility.yul\":614:617   */\n      dup3\n        /* \"#utility.yul\":607:641   */\n      mstore\n        /* \"#utility.yul\":538:647   */\n      pop\n      pop\n      jump\t// out\n        /* \"#utility.yul\":653:863   */\n    tag_19:\n        /* \"#utility.yul\":740:744   */\n      0x00\n        /* \"#utility.yul\":778:780   */\n      0x20\n        /* \"#utility.yul\":767:776   */\n      dup3\n        /* \"#utility.yul\":763:781   */\n      add\n        /* \"#utility.yul\":755:781   */\n      swap1\n      pop\n        /* \"#utility.yul\":791:856   */\n      tag_89\n        /* \"#utility.yul\":853:854   */\n      0x00\n        /* \"#utility.yul\":842:851   */\n      dup4\n        /* \"#utility.yul\":838:855   */\n      add\n        /* \"#utility.yul\":829:835   */\n      dup5\n        /* \"#utility.yul\":791:856   */\n      tag_61\n      jump\t// in\n    tag_89:\n        /* \"#utility.yul\":653:863   */\n      swap3\n      swap2\n      pop\n      pop\n      jump\t// out\n        /* \"#utility.yul\":950:1067   */\n    tag_63:\n        /* \"#utility.yul\":1059:1060   */\n      0x00\n        /* \"#utility.yul\":1056:1057   */\n      dup1\n        /* \"#utility.yul\":1049:1061   */\n      revert\n        /* \"#utility.yul\":1196:1312   */\n    tag_65:\n        /* \"#utility.yul\":1266:1287   */\n      tag_94\n        /* \"#utility.yul\":1281:1286   */\n      dup2\n        /* \"#utility.yul\":1266:1287   */\n      tag_60\n      jump\t// in\n    tag_94:\n        /* \"#utility.yul\":1259:1264   */\n      dup2\n        /* \"#utility.yul\":1256:1288   */\n      eq\n        /* \"#utility.yul\":1246:1306   */\n      tag_95\n      jumpi\n        /* \"#utility.yul\":1302:1303   */\n      0x00\n        /* \"#utility.yul\":1299:1300   */\n      dup1\n        /* \"#utility.yul\":1292:1304   */\n      revert\n        /* \"#utility.yul\":1246:1306   */\n    tag_95:\n        /* \"#utility.yul\":1196:1312   */\n      pop\n      jump\t// out\n        /* \"#utility.yul\":1318:1451   */\n    tag_66:\n        /* \"#utility.yul\":1361:1366   */\n      0x00\n        /* \"#utility.yul\":1399:1405   */\n      dup2\n        /* \"#utility.yul\":1386:1406   */\n      calldataload\n        /* \"#utility.yul\":1377:1406   */\n      swap1\n      pop\n        /* \"#utility.yul\":1415:1445   */\n      tag_97\n        /* \"#utility.yul\":1439:1444   */\n      dup2\n        /* \"#utility.yul\":1415:1445   */\n      tag_65\n      jump\t// in\n    tag_97:\n        /* \"#utility.yul\":1318:1451   */\n      swap3\n      swap2\n      pop\n      pop\n      jump\t// out\n        /* \"#utility.yul\":1457:1780   */\n    tag_22:\n        /* \"#utility.yul\":1513:1519   */\n      0x00\n        /* \"#utility.yul\":1562:1564   */\n      0x20\n        /* \"#utility.yul\":1550:1559   */\n      dup3\n        /* \"#utility.yul\":1541:1548   */\n      dup5\n        /* \"#utility.yul\":1537:1560   */\n      sub\n        /* \"#utility.yul\":1533:1565   */\n      slt\n        /* \"#utility.yul\":1530:1649   */\n      iszero\n      tag_99\n      jumpi\n        /* \"#utility.yul\":1568:1647   */\n      tag_100\n      tag_63\n      jump\t// in\n    tag_100:\n        /* \"#utility.yul\":1530:1649   */\n    tag_99:\n        /* \"#utility.yul\":1688:1689   */\n      0x00\n        /* \"#utility.yul\":1713:1763   */\n      tag_101\n        /* \"#utility.yul\":1755:1762   */\n      dup5\n        /* \"#utility.yul\":1746:1752   */\n      dup3\n        /* \"#utility.yul\":1735:1744   */\n      dup6\n        /* \"#utility.yul\":1731:1753   */\n      add\n        /* \"#utility.yul\":1713:1763   */\n      tag_66\n      jump\t// in\n    tag_101:\n        /* \"#utility.yul\":1703:1763   */\n      swap2\n      pop\n        /* \"#utility.yul\":1659:1773   */\n      pop\n        /* \"#utility.yul\":1457:1780   */\n      swap3\n      swap2\n      pop\n      pop\n      jump\t// out\n        /* \"#utility.yul\":1786:1862   */\n    tag_67:\n        /* \"#utility.yul\":1822:1829   */\n      0x00\n        /* \"#utility.yul\":1851:1856   */\n      dup2\n        /* \"#utility.yul\":1840:1856   */\n      swap1\n      pop\n        /* \"#utility.yul\":1786:1862   */\n      swap2\n      swap1\n      pop\n      jump\t// out\n        /* \"#utility.yul\":1868:1983   */\n    tag_68:\n        /* \"#utility.yul\":1953:1976   */\n      tag_104\n        /* \"#utility.yul\":1970:1975   */\n      dup2\n        /* \"#utility.yul\":1953:1976   */\n      tag_67\n      jump\t// in\n    tag_104:\n        /* \"#utility.yul\":1948:1951   */\n      dup3\n        /* \"#utility.yul\":1941:1977   */\n      mstore\n        /* \"#utility.yul\":1868:1983   */\n      pop\n      pop\n      jump\t// out\n        /* \"#utility.yul\":1989:2207   */\n    tag_27:\n        /* \"#utility.yul\":2080:2084   */\n      0x00\n        /* \"#utility.yul\":2118:2120   */\n      0x20\n        /* \"#utility.yul\":2107:2116   */\n      dup3\n        /* \"#utility.yul\":2103:2121   */\n      add\n        /* \"#utility.yul\":2095:2121   */\n      swap1\n      pop\n        /* \"#utility.yul\":2131:2200   */\n      tag_106\n        /* \"#utility.yul\":2197:2198   */\n      0x00\n        /* \"#utility.yul\":2186:2195   */\n      dup4\n        /* \"#utility.yul\":2182:2199   */\n      add\n        /* \"#utility.yul\":2173:2179   */\n      dup5\n        /* \"#utility.yul\":2131:2200   */\n      tag_68\n      jump\t// in\n    tag_106:\n        /* \"#utility.yul\":1989:2207   */\n      swap3\n      swap2\n      pop\n      pop\n      jump\t// out\n        /* \"#utility.yul\":2213:2335   */\n    tag_69:\n        /* \"#utility.yul\":2286:2310   */\n      tag_108\n        /* \"#utility.yul\":2304:2309   */\n      dup2\n        /* \"#utility.yul\":2286:2310   */\n      tag_58\n      jump\t// in\n    tag_108:\n        /* \"#utility.yul\":2279:2284   */\n      dup2\n        /* \"#utility.yul\":2276:2311   */\n      eq\n        /* \"#utility.yul\":2266:2329   */\n      tag_109\n      jumpi\n        /* \"#utility.yul\":2325:2326   */\n      0x00\n        /* \"#utility.yul\":2322:2323   */\n      dup1\n        /* \"#utility.yul\":2315:2327   */\n      revert\n        /* \"#utility.yul\":2266:2329   */\n    tag_109:\n        /* \"#utility.yul\":2213:2335   */\n      pop\n      jump\t// out\n        /* \"#utility.yul\":2341:2480   */\n    tag_70:\n        /* \"#utility.yul\":2387:2392   */\n      0x00\n        /* \"#utility.yul\":2425:2431   */\n      dup2\n        /* \"#utility.yul\":2412:2432   */\n      calldataload\n        /* \"#utility.yul\":2403:2432   */\n      swap1\n      pop\n        /* \"#utility.yul\":2441:2474   */\n      tag_111\n        /* \"#utility.yul\":2468:2473   */\n      dup2\n        /* \"#utility.yul\":2441:2474   */\n      tag_69\n      jump\t// in\n    tag_111:\n        /* \"#utility.yul\":2341:2480   */\n      swap3\n      swap2\n      pop\n      pop\n      jump\t// out\n        /* \"#utility.yul\":2486:2815   */\n    tag_30:\n        /* \"#utility.yul\":2545:2551   */\n      0x00\n        /* \"#utility.yul\":2594:2596   */\n      0x20\n        /* \"#utility.yul\":2582:2591   */\n      dup3\n        /* \"#utility.yul\":2573:2580   */\n      dup5\n        /* \"#utility.yul\":2569:2592   */\n      sub\n        /* \"#utility.yul\":2565:2597   */\n      slt\n        /* \"#utility.yul\":2562:2681   */\n      iszero\n      tag_113\n      jumpi\n        /* \"#utility.yul\":2600:2679   */\n      tag_114\n      tag_63\n      jump\t// in\n    tag_114:\n        /* \"#utility.yul\":2562:2681   */\n    tag_113:\n        /* \"#utility.yul\":2720:2721   */\n      0x00\n        /* \"#utility.yul\":2745:2798   */\n      tag_115\n        /* \"#utility.yul\":2790:2797   */\n      dup5\n        /* \"#utility.yul\":2781:2787   */\n      dup3\n        /* \"#utility.yul\":2770:2779   */\n      dup6\n        /* \"#utility.yul\":2766:2788   */\n      add\n        /* \"#utility.yul\":2745:2798   */\n      tag_70\n      jump\t// in\n    tag_115:\n        /* \"#utility.yul\":2735:2798   */\n      swap2\n      pop\n        /* \"#utility.yul\":2691:2808   */\n      pop\n        /* \"#utility.yul\":2486:2815   */\n      swap3\n      swap2\n      pop\n      pop\n      jump\t// out\n        /* \"#utility.yul\":2821:2941   */\n    tag_71:\n        /* \"#utility.yul\":2893:2916   */\n      tag_117\n        /* \"#utility.yul\":2910:2915   */\n      dup2\n        /* \"#utility.yul\":2893:2916   */\n      tag_67\n      jump\t// in\n    tag_117:\n        /* \"#utility.yul\":2886:2891   */\n      dup2\n        /* \"#utility.yul\":2883:2917   */\n      eq\n        /* \"#utility.yul\":2873:2935   */\n      tag_118\n      jumpi\n        /* \"#utility.yul\":2931:2932   */\n      0x00\n        /* \"#utility.yul\":2928:2929   */\n      dup1\n        /* \"#utility.yul\":2921:2933   */\n      revert\n        /* \"#utility.yul\":2873:2935   */\n    tag_118:\n        /* \"#utility.yul\":2821:2941   */\n      pop\n      jump\t// out\n        /* \"#utility.yul\":2947:3084   */\n    tag_72:\n        /* \"#utility.yul\":2992:2997   */\n      0x00\n        /* \"#utility.yul\":3030:3036   */\n      dup2\n        /* \"#utility.yul\":3017:3037   */\n      calldataload\n        /* \"#utility.yul\":3008:3037   */\n      swap1\n      pop\n        /* \"#utility.yul\":3046:3078   */\n      tag_120\n        /* \"#utility.yul\":3072:3077   */\n      dup2\n        /* \"#utility.yul\":3046:3078   */\n      tag_71\n      jump\t// in\n    tag_120:\n        /* \"#utility.yul\":2947:3084   */\n      swap3\n      swap2\n      pop\n      pop\n      jump\t// out\n        /* \"#utility.yul\":3090:3417   */\n    tag_36:\n        /* \"#utility.yul\":3148:3154   */\n      0x00\n        /* \"#utility.yul\":3197:3199   */\n      0x20\n        /* \"#utility.yul\":3185:3194   */\n      dup3\n        /* \"#utility.yul\":3176:3183   */\n      dup5\n        /* \"#utility.yul\":3172:3195   */\n      sub\n        /* \"#utility.yul\":3168:3200   */\n      slt\n        /* \"#utility.yul\":3165:3284   */\n      iszero\n      tag_122\n      jumpi\n        /* \"#utility.yul\":3203:3282   */\n      tag_123\n      tag_63\n      jump\t// in\n    tag_123:\n        /* \"#utility.yul\":3165:3284   */\n    tag_122:\n        /* \"#utility.yul\":3323:3324   */\n      0x00\n        /* \"#utility.yul\":3348:3400   */\n      tag_124\n        /* \"#utility.yul\":3392:3399   */\n      dup5\n        /* \"#utility.yul\":3383:3389   */\n      dup3\n        /* \"#utility.yul\":3372:3381   */\n      dup6\n        /* \"#utility.yul\":3368:3390   */\n      add\n        /* \"#utility.yul\":3348:3400   */\n      tag_72\n      jump\t// in\n    tag_124:\n        /* \"#utility.yul\":3338:3400   */\n      swap2\n      pop\n        /* \"#utility.yul\":3294:3410   */\n      pop\n        /* \"#utility.yul\":3090:3417   */\n      swap3\n      swap2\n      pop\n      pop\n      jump\t// out\n        /* \"#utility.yul\":3423:3603   */\n    tag_73:\n        /* \"#utility.yul\":3471:3548   */\n      0x4e487b7100000000000000000000000000000000000000000000000000000000\n        /* \"#utility.yul\":3468:3469   */\n      0x00\n        /* \"#utility.yul\":3461:3549   */\n      mstore\n        /* \"#utility.yul\":3568:3572   */\n      0x22\n        /* \"#utility.yul\":3565:3566   */\n      0x04\n        /* \"#utility.yul\":3558:3573   */\n      mstore\n        /* \"#utility.yul\":3592:3596   */\n      0x24\n        /* \"#utility.yul\":3589:3590   */\n      0x00\n        /* \"#utility.yul\":3582:3597   */\n      revert\n        /* \"#utility.yul\":3609:3929   */\n    tag_74:\n        /* \"#utility.yul\":3653:3659   */\n      0x00\n        /* \"#utility.yul\":3690:3691   */\n      0x02\n        /* \"#utility.yul\":3684:3688   */\n      dup3\n        /* \"#utility.yul\":3680:3692   */\n      div\n        /* \"#utility.yul\":3670:3692   */\n      swap1\n      pop\n        /* \"#utility.yul\":3737:3738   */\n      0x01\n        /* \"#utility.yul\":3731:3735   */\n      dup3\n        /* \"#utility.yul\":3727:3739   */\n      and\n        /* \"#utility.yul\":3758:3776   */\n      dup1\n        /* \"#utility.yul\":3748:3829   */\n      tag_127\n      jumpi\n        /* \"#utility.yul\":3814:3818   */\n      0x7f\n        /* \"#utility.yul\":3806:3812   */\n      dup3\n        /* \"#utility.yul\":3802:3819   */\n      and\n        /* \"#utility.yul\":3792:3819   */\n      swap2\n      pop\n        /* \"#utility.yul\":3748:3829   */\n    tag_127:\n        /* \"#utility.yul\":3876:3878   */\n      0x20\n        /* \"#utility.yul\":3868:3874   */\n      dup3\n        /* \"#utility.yul\":3865:3879   */\n      lt\n        /* \"#utility.yul\":3845:3863   */\n      dup2\n        /* \"#utility.yul\":3842:3880   */\n      sub\n        /* \"#utility.yul\":3839:3923   */\n      tag_128\n      jumpi\n        /* \"#utility.yul\":3895:3913   */\n      tag_129\n      tag_73\n      jump\t// in\n    tag_129:\n        /* \"#utility.yul\":3839:3923   */\n    tag_128:\n        /* \"#utility.yul\":3660:3929   */\n      pop\n        /* \"#utility.yul\":3609:3929   */\n      swap2\n      swap1\n      pop\n      jump\t// out\n        /* \"#utility.yul\":3935:4104   */\n    tag_75:\n        /* \"#utility.yul\":4019:4030   */\n      0x00\n        /* \"#utility.yul\":4053:4059   */\n      dup3\n        /* \"#utility.yul\":4048:4051   */\n      dup3\n        /* \"#utility.yul\":4041:4060   */\n      mstore\n        /* \"#utility.yul\":4093:4097   */\n      0x20\n        /* \"#utility.yul\":4088:4091   */\n      dup3\n        /* \"#utility.yul\":4084:4098   */\n      add\n        /* \"#utility.yul\":4069:4098   */\n      swap1\n      pop\n        /* \"#utility.yul\":3935:4104   */\n      swap3\n      swap2\n      pop\n      pop\n      jump\t// out\n        /* \"#utility.yul\":4110:4251   */\n    tag_76:\n        /* \"#utility.yul\":4159:4163   */\n      0x00\n        /* \"#utility.yul\":4182:4185   */\n      dup2\n        /* \"#utility.yul\":4174:4185   */\n      swap1\n      pop\n        /* \"#utility.yul\":4205:4208   */\n      dup2\n        /* \"#utility.yul\":4202:4203   */\n      0x00\n        /* \"#utility.yul\":4195:4209   */\n      mstore\n        /* \"#utility.yul\":4239:4243   */\n      0x20\n        /* \"#utility.yul\":4236:4237   */\n      0x00\n        /* \"#utility.yul\":4226:4244   */\n      keccak256\n        /* \"#utility.yul\":4218:4244   */\n      swap1\n      pop\n        /* \"#utility.yul\":4110:4251   */\n      swap2\n      swap1\n      pop\n      jump\t// out\n        /* \"#utility.yul\":4281:5112   */\n    tag_77:\n        /* \"#utility.yul\":4366:4369   */\n      0x00\n        /* \"#utility.yul\":4403:4408   */\n      dup2\n        /* \"#utility.yul\":4397:4409   */\n      sload\n        /* \"#utility.yul\":4432:4468   */\n      tag_133\n        /* \"#utility.yul\":4458:4467   */\n      dup2\n        /* \"#utility.yul\":4432:4468   */\n      tag_74\n      jump\t// in\n    tag_133:\n        /* \"#utility.yul\":4484:4555   */\n      tag_134\n        /* \"#utility.yul\":4548:4554   */\n      dup2\n        /* \"#utility.yul\":4543:4546   */\n      dup7\n        /* \"#utility.yul\":4484:4555   */\n      tag_75\n      jump\t// in\n    tag_134:\n        /* \"#utility.yul\":4477:4555   */\n      swap5\n      pop\n        /* \"#utility.yul\":4586:4587   */\n      0x01\n        /* \"#utility.yul\":4575:4584   */\n      dup3\n        /* \"#utility.yul\":4571:4588   */\n      and\n        /* \"#utility.yul\":4602:4603   */\n      0x00\n        /* \"#utility.yul\":4597:4761   */\n      dup2\n      eq\n      tag_136\n      jumpi\n        /* \"#utility.yul\":4775:4776   */\n      0x01\n        /* \"#utility.yul\":4770:5106   */\n      dup2\n      eq\n      tag_137\n      jumpi\n        /* \"#utility.yul\":4564:5106   */\n      jump(tag_135)\n        /* \"#utility.yul\":4597:4761   */\n    tag_136:\n        /* \"#utility.yul\":4681:4685   */\n      0xff\n        /* \"#utility.yul\":4677:4686   */\n      not\n        /* \"#utility.yul\":4666:4675   */\n      dup4\n        /* \"#utility.yul\":4662:4687   */\n      and\n        /* \"#utility.yul\":4657:4660   */\n      dup7\n        /* \"#utility.yul\":4650:4688   */\n      mstore\n        /* \"#utility.yul\":4741:4747   */\n      dup2\n        /* \"#utility.yul\":4734:4748   */\n      iszero\n        /* \"#utility.yul\":4727:4749   */\n      iszero\n        /* \"#utility.yul\":4721:4725   */\n      0x20\n        /* \"#utility.yul\":4717:4750   */\n      mul\n        /* \"#utility.yul\":4712:4715   */\n      dup7\n        /* \"#utility.yul\":4708:4751   */\n      add\n        /* \"#utility.yul\":4701:4751   */\n      swap4\n      pop\n        /* \"#utility.yul\":4597:4761   */\n      jump(tag_135)\n        /* \"#utility.yul\":4770:5106   */\n    tag_137:\n        /* \"#utility.yul\":4837:4875   */\n      tag_138\n        /* \"#utility.yul\":4869:4874   */\n      dup6\n        /* \"#utility.yul\":4837:4875   */\n      tag_76\n      jump\t// in\n    tag_138:\n        /* \"#utility.yul\":4897:4898   */\n      0x00\n        /* \"#utility.yul\":4911:5065   */\n    tag_139:\n        /* \"#utility.yul\":4925:4931   */\n      dup4\n        /* \"#utility.yul\":4922:4923   */\n      dup2\n        /* \"#utility.yul\":4919:4932   */\n      lt\n        /* \"#utility.yul\":4911:5065   */\n      iszero\n      tag_141\n      jumpi\n        /* \"#utility.yul\":4999:5006   */\n      dup2\n        /* \"#utility.yul\":4993:5007   */\n      sload\n        /* \"#utility.yul\":4989:4990   */\n      dup2\n        /* \"#utility.yul\":4984:4987   */\n      dup10\n        /* \"#utility.yul\":4980:4991   */\n      add\n        /* \"#utility.yul\":4973:5008   */\n      mstore\n        /* \"#utility.yul\":5049:5050   */\n      0x01\n        /* \"#utility.yul\":5040:5047   */\n      dup3\n        /* \"#utility.yul\":5036:5051   */\n      add\n        /* \"#utility.yul\":5025:5051   */\n      swap2\n      pop\n        /* \"#utility.yul\":4947:4951   */\n      0x20\n        /* \"#utility.yul\":4944:4945   */\n      dup2\n        /* \"#utility.yul\":4940:4952   */\n      add\n        /* \"#utility.yul\":4935:4952   */\n      swap1\n      pop\n        /* \"#utility.yul\":4911:5065   */\n      jump(tag_139)\n    tag_141:\n        /* \"#utility.yul\":5094:5095   */\n      dup1\n        /* \"#utility.yul\":5089:5092   */\n      dup9\n        /* \"#utility.yul\":5085:5096   */\n      add\n        /* \"#utility.yul\":5078:5096   */\n      swap6\n      pop\n        /* \"#utility.yul\":4777:5106   */\n      pop\n      pop\n        /* \"#utility.yul\":4564:5106   */\n    tag_135:\n      pop\n        /* \"#utility.yul\":4370:5112   */\n      pop\n      pop\n        /* \"#utility.yul\":4281:5112   */\n      swap3\n      swap2\n      pop\n      pop\n      jump\t// out\n        /* \"#utility.yul\":5118:5425   */\n    tag_44:\n        /* \"#utility.yul\":5228:5232   */\n      0x00\n        /* \"#utility.yul\":5266:5268   */\n      0x20\n        /* \"#utility.yul\":5255:5264   */\n      dup3\n        /* \"#utility.yul\":5251:5269   */\n      add\n        /* \"#utility.yul\":5243:5269   */\n      swap1\n      pop\n        /* \"#utility.yul\":5315:5324   */\n      dup2\n        /* \"#utility.yul\":5309:5313   */\n      dup2\n        /* \"#utility.yul\":5305:5325   */\n      sub\n        /* \"#utility.yul\":5301:5302   */\n      0x00\n        /* \"#utility.yul\":5290:5299   */\n      dup4\n        /* \"#utility.yul\":5286:5303   */\n      add\n        /* \"#utility.yul\":5279:5326   */\n      mstore\n        /* \"#utility.yul\":5343:5418   */\n      tag_143\n        /* \"#utility.yul\":5413:5417   */\n      dup2\n        /* \"#utility.yul\":5404:5410   */\n      dup5\n        /* \"#utility.yul\":5343:5418   */\n      tag_77\n      jump\t// in\n    tag_143:\n        /* \"#utility.yul\":5335:5418   */\n      swap1\n      pop\n        /* \"#utility.yul\":5118:5425   */\n      swap3\n      swap2\n      pop\n      pop\n      jump\t// out\n        /* \"#utility.yul\":5431:5611   */\n    tag_78:\n        /* \"#utility.yul\":5479:5556   */\n      0x4e487b7100000000000000000000000000000000000000000000000000000000\n        /* \"#utility.yul\":5476:5477   */\n      0x00\n        /* \"#utility.yul\":5469:5557   */\n      mstore\n        /* \"#utility.yul\":5576:5580   */\n      0x11\n        /* \"#utility.yul\":5573:5574   */\n      0x04\n        /* \"#utility.yul\":5566:5581   */\n      mstore\n        /* \"#utility.yul\":5600:5604   */\n      0x24\n        /* \"#utility.yul\":5597:5598   */\n      0x00\n        /* \"#utility.yul\":5590:5605   */\n      revert\n        /* \"#utility.yul\":5617:5808   */\n    tag_47:\n        /* \"#utility.yul\":5657:5660   */\n      0x00\n        /* \"#utility.yul\":5676:5696   */\n      tag_146\n        /* \"#utility.yul\":5694:5695   */\n      dup3\n        /* \"#utility.yul\":5676:5696   */\n      tag_58\n      jump\t// in\n    tag_146:\n        /* \"#utility.yul\":5671:5696   */\n      swap2\n      pop\n        /* \"#utility.yul\":5710:5730   */\n      tag_147\n        /* \"#utility.yul\":5728:5729   */\n      dup4\n        /* \"#utility.yul\":5710:5730   */\n      tag_58\n      jump\t// in\n    tag_147:\n        /* \"#utility.yul\":5705:5730   */\n      swap3\n      pop\n        /* \"#utility.yul\":5753:5754   */\n      dup3\n        /* \"#utility.yul\":5750:5751   */\n      dup3\n        /* \"#utility.yul\":5746:5755   */\n      add\n        /* \"#utility.yul\":5739:5755   */\n      swap1\n      pop\n        /* \"#utility.yul\":5774:5777   */\n      dup1\n        /* \"#utility.yul\":5771:5772   */\n      dup3\n        /* \"#utility.yul\":5768:5778   */\n      gt\n        /* \"#utility.yul\":5765:5801   */\n      iszero\n      tag_148\n      jumpi\n        /* \"#utility.yul\":5781:5799   */\n      tag_149\n      tag_78\n      jump\t// in\n    tag_149:\n        /* \"#utility.yul\":5765:5801   */\n    tag_148:\n        /* \"#utility.yul\":5617:5808   */\n      swap3\n      swap2\n      pop\n      pop\n      jump\t// out\n        /* \"#utility.yul\":5814:6189   */\n    tag_54:\n        /* \"#utility.yul\":5853:5856   */\n      0x00\n        /* \"#utility.yul\":5872:5891   */\n      tag_151\n        /* \"#utility.yul\":5889:5890   */\n      dup3\n        /* \"#utility.yul\":5872:5891   */\n      tag_67\n      jump\t// in\n    tag_151:\n        /* \"#utility.yul\":5867:5891   */\n      swap2\n      pop\n        /* \"#utility.yul\":5905:5924   */\n      tag_152\n        /* \"#utility.yul\":5922:5923   */\n      dup4\n        /* \"#utility.yul\":5905:5924   */\n      tag_67\n      jump\t// in\n    tag_152:\n        /* \"#utility.yul\":5900:5924   */\n      swap3\n      pop\n        /* \"#utility.yul\":5947:5948   */\n      dup3\n        /* \"#utility.yul\":5944:5945   */\n      dup3\n        /* \"#utility.yul\":5940:5949   */\n      add\n        /* \"#utility.yul\":5933:5949   */\n      swap1\n      pop\n        /* \"#utility.yul\":6145:6146   */\n      dup3\n        /* \"#utility.yul\":6140:6143   */\n      dup2\n        /* \"#utility.yul\":6136:6147   */\n      slt\n        /* \"#utility.yul\":6129:6148   */\n      iszero\n        /* \"#utility.yul\":6125:6126   */\n      0x00\n        /* \"#utility.yul\":6122:6123   */\n      dup4\n        /* \"#utility.yul\":6118:6127   */\n      slt\n        /* \"#utility.yul\":6114:6149   */\n      and\n        /* \"#utility.yul\":6097:6098   */\n      dup4\n        /* \"#utility.yul\":6092:6095   */\n      dup3\n        /* \"#utility.yul\":6088:6099   */\n      slt\n        /* \"#utility.yul\":6083:6084   */\n      0x00\n        /* \"#utility.yul\":6080:6081   */\n      dup5\n        /* \"#utility.yul\":6076:6085   */\n      slt\n        /* \"#utility.yul\":6069:6086   */\n      iszero\n        /* \"#utility.yul\":6065:6100   */\n      and\n        /* \"#utility.yul\":6049:6159   */\n      or\n        /* \"#utility.yul\":6046:6182   */\n      iszero\n      tag_153\n      jumpi\n        /* \"#utility.yul\":6162:6180   */\n      tag_154\n      tag_78\n      jump\t// in\n    tag_154:\n        /* \"#utility.yul\":6046:6182   */\n    tag_153:\n        /* \"#utility.yul\":5814:6189   */\n      swap3\n      swap2\n      pop\n      pop\n      jump\t// out\n        /* \"#utility.yul\":6195:6428   */\n    tag_57:\n        /* \"#utility.yul\":6234:6237   */\n      0x00\n        /* \"#utility.yul\":6257:6281   */\n      tag_156\n        /* \"#utility.yul\":6275:6280   */\n      dup3\n        /* \"#utility.yul\":6257:6281   */\n      tag_58\n      jump\t// in\n    tag_156:\n        /* \"#utility.yul\":6248:6281   */\n      swap2\n      pop\n        /* \"#utility.yul\":6303:6369   */\n      0xffffffffffffffffffffffffffffffffffffffffffffffffffffffffffffffff\n        /* \"#utility.yul\":6296:6301   */\n      dup3\n        /* \"#utility.yul\":6293:6370   */\n      sub\n        /* \"#utility.yul\":6290:6393   */\n      tag_157\n      jumpi\n        /* \"#utility.yul\":6373:6391   */\n      tag_158\n      tag_78\n      jump\t// in\n    tag_158:\n        /* \"#utility.yul\":6290:6393   */\n    tag_157:\n        /* \"#utility.yul\":6420:6421   */\n      0x01\n        /* \"#utility.yul\":6413:6418   */\n      dup3\n        /* \"#utility.yul\":6409:6422   */\n      add\n        /* \"#utility.yul\":6402:6422   */\n      swap1\n      pop\n        /* \"#utility.yul\":6195:6428   */\n      swap2\n      swap1\n      pop\n      jump\t// out\n\n    auxdata: 0xa26469706673582212204d0fea77dfe04b2b3e73ac48ca98117b1fdde6cc1afe8c0b7648dabf7a62569764736f6c63430008120033\n}\n",
				"bytecode": {
					"linkReferences": {},
					"object": "60806040526040518060400160405280601881526020017f627520c3b67a656c6c696b20616b746966206465c49f696c0000000000000000815250600390816200004a9190620002d9565b503480156200005857600080fd5b50620003c0565b600081519050919050565b7f4e487b7100000000000000000000000000000000000000000000000000000000600052604160045260246000fd5b7f4e487b7100000000000000000000000000000000000000000000000000000000600052602260045260246000fd5b60006002820490506001821680620000e157607f821691505b602082108103620000f757620000f662000099565b5b50919050565b60008190508160005260206000209050919050565b60006020601f8301049050919050565b600082821b905092915050565b600060088302620001617fffffffffffffffffffffffffffffffffffffffffffffffffffffffffffffffff8262000122565b6200016d868362000122565b95508019841693508086168417925050509392505050565b6000819050919050565b6000819050919050565b6000620001ba620001b4620001ae8462000185565b6200018f565b62000185565b9050919050565b6000819050919050565b620001d68362000199565b620001ee620001e582620001c1565b8484546200012f565b825550505050565b600090565b62000205620001f6565b62000212818484620001cb565b505050565b5b818110156200023a576200022e600082620001fb565b60018101905062000218565b5050565b601f82111562000289576200025381620000fd565b6200025e8462000112565b810160208510156200026e578190505b620002866200027d8562000112565b83018262000217565b50505b505050565b600082821c905092915050565b6000620002ae600019846008026200028e565b1980831691505092915050565b6000620002c983836200029b565b9150826002028217905092915050565b620002e4826200005f565b67ffffffffffffffff8111156200030057620002ff6200006a565b5b6200030c8254620000c8565b620003198282856200023e565b600060209050601f8311600181146200035157600084156200033c578287015190505b620003488582620002bb565b865550620003b8565b601f1984166200036186620000fd565b60005b828110156200038b5784890151825560018201915060208501945060208101905062000364565b86831015620003ab5784890151620003a7601f8916826200029b565b8355505b6001600288020188555050505b505050505050565b61067380620003d06000396000f3fe608060405234801561001057600080fd5b50600436106100885760003560e01c80637cf5dab01161005b5780637cf5dab014610103578063a6f2ae3a1461011f578063be7cb50614610129578063ffac3b1d1461014557610088565b806306661abd1461008d57806319e1fca4146100ab5780632babac22146100c95780635f3d8f4a146100e5575b600080fd5b61009561014f565b6040516100a2919061028d565b60405180910390f35b6100b3610155565b6040516100c091906102c3565b60405180910390f35b6100e360048036038101906100de919061030f565b610166565b005b6100ed610182565b6040516100fa9190610355565b60405180910390f35b61011d6004803603810190610118919061039c565b610188565b005b6101276101f1565b005b610143600480360381019061013e91906103f5565b610245565b005b61014d61025c565b005b60015481565b60008054906101000a900460ff1681565b806000806101000a81548160ff02191690831515021790555050565b60025481565b60008054906101000a900460ff166003906101d9576040517f08c379a00000000000000000000000000000000000000000000000000000000081526004016101d0919061052c565b60405180910390fd5b50806001546101e8919061057d565b60018190555050565b60008054906101000a900460ff16600390610242576040517f08c379a0000000000000000000000000000000000000000000000000000000008152600401610239919061052c565b60405180910390fd5b50565b8060025461025391906105b1565b60028190555050565b60016000815461026b906105f5565b91905081905550565b6000819050919050565b61028781610274565b82525050565b60006020820190506102a2600083018461027e565b92915050565b60008115159050919050565b6102bd816102a8565b82525050565b60006020820190506102d860008301846102b4565b92915050565b600080fd5b6102ec816102a8565b81146102f757600080fd5b50565b600081359050610309816102e3565b92915050565b600060208284031215610325576103246102de565b5b6000610333848285016102fa565b91505092915050565b6000819050919050565b61034f8161033c565b82525050565b600060208201905061036a6000830184610346565b92915050565b61037981610274565b811461038457600080fd5b50565b60008135905061039681610370565b92915050565b6000602082840312156103b2576103b16102de565b5b60006103c084828501610387565b91505092915050565b6103d28161033c565b81146103dd57600080fd5b50565b6000813590506103ef816103c9565b92915050565b60006020828403121561040b5761040a6102de565b5b6000610419848285016103e0565b91505092915050565b7f4e487b7100000000000000000000000000000000000000000000000000000000600052602260045260246000fd5b6000600282049050600182168061046957607f821691505b60208210810361047c5761047b610422565b5b50919050565b600082825260208201905092915050565b60008190508160005260206000209050919050565b600081546104b581610451565b6104bf8186610482565b945060018216600081146104da57600181146104f057610523565b60ff198316865281151560200286019350610523565b6104f985610493565b60005b8381101561051b578154818901526001820191506020810190506104fc565b808801955050505b50505092915050565b6000602082019050818103600083015261054681846104a8565b905092915050565b7f4e487b7100000000000000000000000000000000000000000000000000000000600052601160045260246000fd5b600061058882610274565b915061059383610274565b92508282019050808211156105ab576105aa61054e565b5b92915050565b60006105bc8261033c565b91506105c78361033c565b9250828201905082811215600083121683821260008412151617156105ef576105ee61054e565b5b92915050565b600061060082610274565b91507fffffffffffffffffffffffffffffffffffffffffffffffffffffffffffffffff82036106325761063161054e565b5b60018201905091905056fea26469706673582212204d0fea77dfe04b2b3e73ac48ca98117b1fdde6cc1afe8c0b7648dabf7a62569764736f6c63430008120033",
					"opcodes": "PUSH1 0x80 PUSH1 0x40 MSTORE PUSH1 0x40 MLOAD DUP1 PUSH1 0x40 ADD PUSH1 0x40 MSTORE DUP1 PUSH1 0x18 DUP2 MSTORE PUSH1 0x20 ADD PUSH32 0x627520C3B67A656C6C696B20616B746966206465C49F696C0000000000000000 DUP2 MSTORE POP PUSH1 0x3 SWAP1 DUP2 PUSH3 0x4A SWAP2 SWAP1 PUSH3 0x2D9 JUMP JUMPDEST POP CALLVALUE DUP1 ISZERO PUSH3 0x58 JUMPI PUSH1 0x0 DUP1 REVERT JUMPDEST POP PUSH3 0x3C0 JUMP JUMPDEST PUSH1 0x0 DUP2 MLOAD SWAP1 POP SWAP2 SWAP1 POP JUMP JUMPDEST PUSH32 0x4E487B7100000000000000000000000000000000000000000000000000000000 PUSH1 0x0 MSTORE PUSH1 0x41 PUSH1 0x4 MSTORE PUSH1 0x24 PUSH1 0x0 REVERT JUMPDEST PUSH32 0x4E487B7100000000000000000000000000000000000000000000000000000000 PUSH1 0x0 MSTORE PUSH1 0x22 PUSH1 0x4 MSTORE PUSH1 0x24 PUSH1 0x0 REVERT JUMPDEST PUSH1 0x0 PUSH1 0x2 DUP3 DIV SWAP1 POP PUSH1 0x1 DUP3 AND DUP1 PUSH3 0xE1 JUMPI PUSH1 0x7F DUP3 AND SWAP2 POP JUMPDEST PUSH1 0x20 DUP3 LT DUP2 SUB PUSH3 0xF7 JUMPI PUSH3 0xF6 PUSH3 0x99 JUMP JUMPDEST JUMPDEST POP SWAP2 SWAP1 POP JUMP JUMPDEST PUSH1 0x0 DUP2 SWAP1 POP DUP2 PUSH1 0x0 MSTORE PUSH1 0x20 PUSH1 0x0 KECCAK256 SWAP1 POP SWAP2 SWAP1 POP JUMP JUMPDEST PUSH1 0x0 PUSH1 0x20 PUSH1 0x1F DUP4 ADD DIV SWAP1 POP SWAP2 SWAP1 POP JUMP JUMPDEST PUSH1 0x0 DUP3 DUP3 SHL SWAP1 POP SWAP3 SWAP2 POP POP JUMP JUMPDEST PUSH1 0x0 PUSH1 0x8 DUP4 MUL PUSH3 0x161 PUSH32 0xFFFFFFFFFFFFFFFFFFFFFFFFFFFFFFFFFFFFFFFFFFFFFFFFFFFFFFFFFFFFFFFF DUP3 PUSH3 0x122 JUMP JUMPDEST PUSH3 0x16D DUP7 DUP4 PUSH3 0x122 JUMP JUMPDEST SWAP6 POP DUP1 NOT DUP5 AND SWAP4 POP DUP1 DUP7 AND DUP5 OR SWAP3 POP POP POP SWAP4 SWAP3 POP POP POP JUMP JUMPDEST PUSH1 0x0 DUP2 SWAP1 POP SWAP2 SWAP1 POP JUMP JUMPDEST PUSH1 0x0 DUP2 SWAP1 POP SWAP2 SWAP1 POP JUMP JUMPDEST PUSH1 0x0 PUSH3 0x1BA PUSH3 0x1B4 PUSH3 0x1AE DUP5 PUSH3 0x185 JUMP JUMPDEST PUSH3 0x18F JUMP JUMPDEST PUSH3 0x185 JUMP JUMPDEST SWAP1 POP SWAP2 SWAP1 POP JUMP JUMPDEST PUSH1 0x0 DUP2 SWAP1 POP SWAP2 SWAP1 POP JUMP JUMPDEST PUSH3 0x1D6 DUP4 PUSH3 0x199 JUMP JUMPDEST PUSH3 0x1EE PUSH3 0x1E5 DUP3 PUSH3 0x1C1 JUMP JUMPDEST DUP5 DUP5 SLOAD PUSH3 0x12F JUMP JUMPDEST DUP3 SSTORE POP POP POP POP JUMP JUMPDEST PUSH1 0x0 SWAP1 JUMP JUMPDEST PUSH3 0x205 PUSH3 0x1F6 JUMP JUMPDEST PUSH3 0x212 DUP2 DUP5 DUP5 PUSH3 0x1CB JUMP JUMPDEST POP POP POP JUMP JUMPDEST JUMPDEST DUP2 DUP2 LT ISZERO PUSH3 0x23A JUMPI PUSH3 0x22E PUSH1 0x0 DUP3 PUSH3 0x1FB JUMP JUMPDEST PUSH1 0x1 DUP2 ADD SWAP1 POP PUSH3 0x218 JUMP JUMPDEST POP POP JUMP JUMPDEST PUSH1 0x1F DUP3 GT ISZERO PUSH3 0x289 JUMPI PUSH3 0x253 DUP2 PUSH3 0xFD JUMP JUMPDEST PUSH3 0x25E DUP5 PUSH3 0x112 JUMP JUMPDEST DUP2 ADD PUSH1 0x20 DUP6 LT ISZERO PUSH3 0x26E JUMPI DUP2 SWAP1 POP JUMPDEST PUSH3 0x286 PUSH3 0x27D DUP6 PUSH3 0x112 JUMP JUMPDEST DUP4 ADD DUP3 PUSH3 0x217 JUMP JUMPDEST POP POP JUMPDEST POP POP POP JUMP JUMPDEST PUSH1 0x0 DUP3 DUP3 SHR SWAP1 POP SWAP3 SWAP2 POP POP JUMP JUMPDEST PUSH1 0x0 PUSH3 0x2AE PUSH1 0x0 NOT DUP5 PUSH1 0x8 MUL PUSH3 0x28E JUMP JUMPDEST NOT DUP1 DUP4 AND SWAP2 POP POP SWAP3 SWAP2 POP POP JUMP JUMPDEST PUSH1 0x0 PUSH3 0x2C9 DUP4 DUP4 PUSH3 0x29B JUMP JUMPDEST SWAP2 POP DUP3 PUSH1 0x2 MUL DUP3 OR SWAP1 POP SWAP3 SWAP2 POP POP JUMP JUMPDEST PUSH3 0x2E4 DUP3 PUSH3 0x5F JUMP JUMPDEST PUSH8 0xFFFFFFFFFFFFFFFF DUP2 GT ISZERO PUSH3 0x300 JUMPI PUSH3 0x2FF PUSH3 0x6A JUMP JUMPDEST JUMPDEST PUSH3 0x30C DUP3 SLOAD PUSH3 0xC8 JUMP JUMPDEST PUSH3 0x319 DUP3 DUP3 DUP6 PUSH3 0x23E JUMP JUMPDEST PUSH1 0x0 PUSH1 0x20 SWAP1 POP PUSH1 0x1F DUP4 GT PUSH1 0x1 DUP2 EQ PUSH3 0x351 JUMPI PUSH1 0x0 DUP5 ISZERO PUSH3 0x33C JUMPI DUP3 DUP8 ADD MLOAD SWAP1 POP JUMPDEST PUSH3 0x348 DUP6 DUP3 PUSH3 0x2BB JUMP JUMPDEST DUP7 SSTORE POP PUSH3 0x3B8 JUMP JUMPDEST PUSH1 0x1F NOT DUP5 AND PUSH3 0x361 DUP7 PUSH3 0xFD JUMP JUMPDEST PUSH1 0x0 JUMPDEST DUP3 DUP2 LT ISZERO PUSH3 0x38B JUMPI DUP5 DUP10 ADD MLOAD DUP3 SSTORE PUSH1 0x1 DUP3 ADD SWAP2 POP PUSH1 0x20 DUP6 ADD SWAP5 POP PUSH1 0x20 DUP2 ADD SWAP1 POP PUSH3 0x364 JUMP JUMPDEST DUP7 DUP4 LT ISZERO PUSH3 0x3AB JUMPI DUP5 DUP10 ADD MLOAD PUSH3 0x3A7 PUSH1 0x1F DUP10 AND DUP3 PUSH3 0x29B JUMP JUMPDEST DUP4 SSTORE POP JUMPDEST PUSH1 0x1 PUSH1 0x2 DUP9 MUL ADD DUP9 SSTORE POP POP POP JUMPDEST POP POP POP POP POP POP JUMP JUMPDEST PUSH2 0x673 DUP1 PUSH3 0x3D0 PUSH1 0x0 CODECOPY PUSH1 0x0 RETURN INVALID PUSH1 0x80 PUSH1 0x40 MSTORE CALLVALUE DUP1 ISZERO PUSH2 0x10 JUMPI PUSH1 0x0 DUP1 REVERT JUMPDEST POP PUSH1 0x4 CALLDATASIZE LT PUSH2 0x88 JUMPI PUSH1 0x0 CALLDATALOAD PUSH1 0xE0 SHR DUP1 PUSH4 0x7CF5DAB0 GT PUSH2 0x5B JUMPI DUP1 PUSH4 0x7CF5DAB0 EQ PUSH2 0x103 JUMPI DUP1 PUSH4 0xA6F2AE3A EQ PUSH2 0x11F JUMPI DUP1 PUSH4 0xBE7CB506 EQ PUSH2 0x129 JUMPI DUP1 PUSH4 0xFFAC3B1D EQ PUSH2 0x145 JUMPI PUSH2 0x88 JUMP JUMPDEST DUP1 PUSH4 0x6661ABD EQ PUSH2 0x8D JUMPI DUP1 PUSH4 0x19E1FCA4 EQ PUSH2 0xAB JUMPI DUP1 PUSH4 0x2BABAC22 EQ PUSH2 0xC9 JUMPI DUP1 PUSH4 0x5F3D8F4A EQ PUSH2 0xE5 JUMPI JUMPDEST PUSH1 0x0 DUP1 REVERT JUMPDEST PUSH2 0x95 PUSH2 0x14F JUMP JUMPDEST PUSH1 0x40 MLOAD PUSH2 0xA2 SWAP2 SWAP1 PUSH2 0x28D JUMP JUMPDEST PUSH1 0x40 MLOAD DUP1 SWAP2 SUB SWAP1 RETURN JUMPDEST PUSH2 0xB3 PUSH2 0x155 JUMP JUMPDEST PUSH1 0x40 MLOAD PUSH2 0xC0 SWAP2 SWAP1 PUSH2 0x2C3 JUMP JUMPDEST PUSH1 0x40 MLOAD DUP1 SWAP2 SUB SWAP1 RETURN JUMPDEST PUSH2 0xE3 PUSH1 0x4 DUP1 CALLDATASIZE SUB DUP2 ADD SWAP1 PUSH2 0xDE SWAP2 SWAP1 PUSH2 0x30F JUMP JUMPDEST PUSH2 0x166 JUMP JUMPDEST STOP JUMPDEST PUSH2 0xED PUSH2 0x182 JUMP JUMPDEST PUSH1 0x40 MLOAD PUSH2 0xFA SWAP2 SWAP1 PUSH2 0x355 JUMP JUMPDEST PUSH1 0x40 MLOAD DUP1 SWAP2 SUB SWAP1 RETURN JUMPDEST PUSH2 0x11D PUSH1 0x4 DUP1 CALLDATASIZE SUB DUP2 ADD SWAP1 PUSH2 0x118 SWAP2 SWAP1 PUSH2 0x39C JUMP JUMPDEST PUSH2 0x188 JUMP JUMPDEST STOP JUMPDEST PUSH2 0x127 PUSH2 0x1F1 JUMP JUMPDEST STOP JUMPDEST PUSH2 0x143 PUSH1 0x4 DUP1 CALLDATASIZE SUB DUP2 ADD SWAP1 PUSH2 0x13E SWAP2 SWAP1 PUSH2 0x3F5 JUMP JUMPDEST PUSH2 0x245 JUMP JUMPDEST STOP JUMPDEST PUSH2 0x14D PUSH2 0x25C JUMP JUMPDEST STOP JUMPDEST PUSH1 0x1 SLOAD DUP2 JUMP JUMPDEST PUSH1 0x0 DUP1 SLOAD SWAP1 PUSH2 0x100 EXP SWAP1 DIV PUSH1 0xFF AND DUP2 JUMP JUMPDEST DUP1 PUSH1 0x0 DUP1 PUSH2 0x100 EXP DUP2 SLOAD DUP2 PUSH1 0xFF MUL NOT AND SWAP1 DUP4 ISZERO ISZERO MUL OR SWAP1 SSTORE POP POP JUMP JUMPDEST PUSH1 0x2 SLOAD DUP2 JUMP JUMPDEST PUSH1 0x0 DUP1 SLOAD SWAP1 PUSH2 0x100 EXP SWAP1 DIV PUSH1 0xFF AND PUSH1 0x3 SWAP1 PUSH2 0x1D9 JUMPI PUSH1 0x40 MLOAD PUSH32 0x8C379A000000000000000000000000000000000000000000000000000000000 DUP2 MSTORE PUSH1 0x4 ADD PUSH2 0x1D0 SWAP2 SWAP1 PUSH2 0x52C JUMP JUMPDEST PUSH1 0x40 MLOAD DUP1 SWAP2 SUB SWAP1 REVERT JUMPDEST POP DUP1 PUSH1 0x1 SLOAD PUSH2 0x1E8 SWAP2 SWAP1 PUSH2 0x57D JUMP JUMPDEST PUSH1 0x1 DUP2 SWAP1 SSTORE POP POP JUMP JUMPDEST PUSH1 0x0 DUP1 SLOAD SWAP1 PUSH2 0x100 EXP SWAP1 DIV PUSH1 0xFF AND PUSH1 0x3 SWAP1 PUSH2 0x242 JUMPI PUSH1 0x40 MLOAD PUSH32 0x8C379A000000000000000000000000000000000000000000000000000000000 DUP2 MSTORE PUSH1 0x4 ADD PUSH2 0x239 SWAP2 SWAP1 PUSH2 0x52C JUMP JUMPDEST PUSH1 0x40 MLOAD DUP1 SWAP2 SUB SWAP1 REVERT JUMPDEST POP JUMP JUMPDEST DUP1 PUSH1 0x2 SLOAD PUSH2 0x253 SWAP2 SWAP1 PUSH2 0x5B1 JUMP JUMPDEST PUSH1 0x2 DUP2 SWAP1 SSTORE POP POP JUMP JUMPDEST PUSH1 0x1 PUSH1 0x0 DUP2 SLOAD PUSH2 0x26B SWAP1 PUSH2 0x5F5 JUMP JUMPDEST SWAP2 SWAP1 POP DUP2 SWAP1 SSTORE POP JUMP JUMPDEST PUSH1 0x0 DUP2 SWAP1 POP SWAP2 SWAP1 POP JUMP JUMPDEST PUSH2 0x287 DUP2 PUSH2 0x274 JUMP JUMPDEST DUP3 MSTORE POP POP JUMP JUMPDEST PUSH1 0x0 PUSH1 0x20 DUP3 ADD SWAP1 POP PUSH2 0x2A2 PUSH1 0x0 DUP4 ADD DUP5 PUSH2 0x27E JUMP JUMPDEST SWAP3 SWAP2 POP POP JUMP JUMPDEST PUSH1 0x0 DUP2 ISZERO ISZERO SWAP1 POP SWAP2 SWAP1 POP JUMP JUMPDEST PUSH2 0x2BD DUP2 PUSH2 0x2A8 JUMP JUMPDEST DUP3 MSTORE POP POP JUMP JUMPDEST PUSH1 0x0 PUSH1 0x20 DUP3 ADD SWAP1 POP PUSH2 0x2D8 PUSH1 0x0 DUP4 ADD DUP5 PUSH2 0x2B4 JUMP JUMPDEST SWAP3 SWAP2 POP POP JUMP JUMPDEST PUSH1 0x0 DUP1 REVERT JUMPDEST PUSH2 0x2EC DUP2 PUSH2 0x2A8 JUMP JUMPDEST DUP2 EQ PUSH2 0x2F7 JUMPI PUSH1 0x0 DUP1 REVERT JUMPDEST POP JUMP JUMPDEST PUSH1 0x0 DUP2 CALLDATALOAD SWAP1 POP PUSH2 0x309 DUP2 PUSH2 0x2E3 JUMP JUMPDEST SWAP3 SWAP2 POP POP JUMP JUMPDEST PUSH1 0x0 PUSH1 0x20 DUP3 DUP5 SUB SLT ISZERO PUSH2 0x325 JUMPI PUSH2 0x324 PUSH2 0x2DE JUMP JUMPDEST JUMPDEST PUSH1 0x0 PUSH2 0x333 DUP5 DUP3 DUP6 ADD PUSH2 0x2FA JUMP JUMPDEST SWAP2 POP POP SWAP3 SWAP2 POP POP JUMP JUMPDEST PUSH1 0x0 DUP2 SWAP1 POP SWAP2 SWAP1 POP JUMP JUMPDEST PUSH2 0x34F DUP2 PUSH2 0x33C JUMP JUMPDEST DUP3 MSTORE POP POP JUMP JUMPDEST PUSH1 0x0 PUSH1 0x20 DUP3 ADD SWAP1 POP PUSH2 0x36A PUSH1 0x0 DUP4 ADD DUP5 PUSH2 0x346 JUMP JUMPDEST SWAP3 SWAP2 POP POP JUMP JUMPDEST PUSH2 0x379 DUP2 PUSH2 0x274 JUMP JUMPDEST DUP2 EQ PUSH2 0x384 JUMPI PUSH1 0x0 DUP1 REVERT JUMPDEST POP JUMP JUMPDEST PUSH1 0x0 DUP2 CALLDATALOAD SWAP1 POP PUSH2 0x396 DUP2 PUSH2 0x370 JUMP JUMPDEST SWAP3 SWAP2 POP POP JUMP JUMPDEST PUSH1 0x0 PUSH1 0x20 DUP3 DUP5 SUB SLT ISZERO PUSH2 0x3B2 JUMPI PUSH2 0x3B1 PUSH2 0x2DE JUMP JUMPDEST JUMPDEST PUSH1 0x0 PUSH2 0x3C0 DUP5 DUP3 DUP6 ADD PUSH2 0x387 JUMP JUMPDEST SWAP2 POP POP SWAP3 SWAP2 POP POP JUMP JUMPDEST PUSH2 0x3D2 DUP2 PUSH2 0x33C JUMP JUMPDEST DUP2 EQ PUSH2 0x3DD JUMPI PUSH1 0x0 DUP1 REVERT JUMPDEST POP JUMP JUMPDEST PUSH1 0x0 DUP2 CALLDATALOAD SWAP1 POP PUSH2 0x3EF DUP2 PUSH2 0x3C9 JUMP JUMPDEST SWAP3 SWAP2 POP POP JUMP JUMPDEST PUSH1 0x0 PUSH1 0x20 DUP3 DUP5 SUB SLT ISZERO PUSH2 0x40B JUMPI PUSH2 0x40A PUSH2 0x2DE JUMP JUMPDEST JUMPDEST PUSH1 0x0 PUSH2 0x419 DUP5 DUP3 DUP6 ADD PUSH2 0x3E0 JUMP JUMPDEST SWAP2 POP POP SWAP3 SWAP2 POP POP JUMP JUMPDEST PUSH32 0x4E487B7100000000000000000000000000000000000000000000000000000000 PUSH1 0x0 MSTORE PUSH1 0x22 PUSH1 0x4 MSTORE PUSH1 0x24 PUSH1 0x0 REVERT JUMPDEST PUSH1 0x0 PUSH1 0x2 DUP3 DIV SWAP1 POP PUSH1 0x1 DUP3 AND DUP1 PUSH2 0x469 JUMPI PUSH1 0x7F DUP3 AND SWAP2 POP JUMPDEST PUSH1 0x20 DUP3 LT DUP2 SUB PUSH2 0x47C JUMPI PUSH2 0x47B PUSH2 0x422 JUMP JUMPDEST JUMPDEST POP SWAP2 SWAP1 POP JUMP JUMPDEST PUSH1 0x0 DUP3 DUP3 MSTORE PUSH1 0x20 DUP3 ADD SWAP1 POP SWAP3 SWAP2 POP POP JUMP JUMPDEST PUSH1 0x0 DUP2 SWAP1 POP DUP2 PUSH1 0x0 MSTORE PUSH1 0x20 PUSH1 0x0 KECCAK256 SWAP1 POP SWAP2 SWAP1 POP JUMP JUMPDEST PUSH1 0x0 DUP2 SLOAD PUSH2 0x4B5 DUP2 PUSH2 0x451 JUMP JUMPDEST PUSH2 0x4BF DUP2 DUP7 PUSH2 0x482 JUMP JUMPDEST SWAP5 POP PUSH1 0x1 DUP3 AND PUSH1 0x0 DUP2 EQ PUSH2 0x4DA JUMPI PUSH1 0x1 DUP2 EQ PUSH2 0x4F0 JUMPI PUSH2 0x523 JUMP JUMPDEST PUSH1 0xFF NOT DUP4 AND DUP7 MSTORE DUP2 ISZERO ISZERO PUSH1 0x20 MUL DUP7 ADD SWAP4 POP PUSH2 0x523 JUMP JUMPDEST PUSH2 0x4F9 DUP6 PUSH2 0x493 JUMP JUMPDEST PUSH1 0x0 JUMPDEST DUP4 DUP2 LT ISZERO PUSH2 0x51B JUMPI DUP2 SLOAD DUP2 DUP10 ADD MSTORE PUSH1 0x1 DUP3 ADD SWAP2 POP PUSH1 0x20 DUP2 ADD SWAP1 POP PUSH2 0x4FC JUMP JUMPDEST DUP1 DUP9 ADD SWAP6 POP POP POP JUMPDEST POP POP POP SWAP3 SWAP2 POP POP JUMP JUMPDEST PUSH1 0x0 PUSH1 0x20 DUP3 ADD SWAP1 POP DUP2 DUP2 SUB PUSH1 0x0 DUP4 ADD MSTORE PUSH2 0x546 DUP2 DUP5 PUSH2 0x4A8 JUMP JUMPDEST SWAP1 POP SWAP3 SWAP2 POP POP JUMP JUMPDEST PUSH32 0x4E487B7100000000000000000000000000000000000000000000000000000000 PUSH1 0x0 MSTORE PUSH1 0x11 PUSH1 0x4 MSTORE PUSH1 0x24 PUSH1 0x0 REVERT JUMPDEST PUSH1 0x0 PUSH2 0x588 DUP3 PUSH2 0x274 JUMP JUMPDEST SWAP2 POP PUSH2 0x593 DUP4 PUSH2 0x274 JUMP JUMPDEST SWAP3 POP DUP3 DUP3 ADD SWAP1 POP DUP1 DUP3 GT ISZERO PUSH2 0x5AB JUMPI PUSH2 0x5AA PUSH2 0x54E JUMP JUMPDEST JUMPDEST SWAP3 SWAP2 POP POP JUMP JUMPDEST PUSH1 0x0 PUSH2 0x5BC DUP3 PUSH2 0x33C JUMP JUMPDEST SWAP2 POP PUSH2 0x5C7 DUP4 PUSH2 0x33C JUMP JUMPDEST SWAP3 POP DUP3 DUP3 ADD SWAP1 POP DUP3 DUP2 SLT ISZERO PUSH1 0x0 DUP4 SLT AND DUP4 DUP3 SLT PUSH1 0x0 DUP5 SLT ISZERO AND OR ISZERO PUSH2 0x5EF JUMPI PUSH2 0x5EE PUSH2 0x54E JUMP JUMPDEST JUMPDEST SWAP3 SWAP2 POP POP JUMP JUMPDEST PUSH1 0x0 PUSH2 0x600 DUP3 PUSH2 0x274 JUMP JUMPDEST SWAP2 POP PUSH32 0xFFFFFFFFFFFFFFFFFFFFFFFFFFFFFFFFFFFFFFFFFFFFFFFFFFFFFFFFFFFFFFFF DUP3 SUB PUSH2 0x632 JUMPI PUSH2 0x631 PUSH2 0x54E JUMP JUMPDEST JUMPDEST PUSH1 0x1 DUP3 ADD SWAP1 POP SWAP2 SWAP1 POP JUMP INVALID LOG2 PUSH5 0x6970667358 0x22 SLT KECCAK256 0x4D 0xF 0xEA PUSH24 0xDFE04B2B3E73AC48CA98117B1FDDE6CC1AFE8C0B7648DABF PUSH27 0x62569764736F6C6343000812003300000000000000000000000000 "
				},
				"gasEstimates": {
					"creation": {
						"codeDepositCost": "330200",
						"executionCost": "infinite",
						"totalCost": "infinite"
					},
					"external": {
						"allowed()": "2491",
						"buy()": "infinite",
						"count()": "2430",
						"increment(uint256)": "infinite",
						"oneIncrement()": "24561",
						"setAllowed(bool)": "24724",
						"signedCount()": "2496",
						"signedIncrement(int256)": "infinite"
					}
				},
				"methodIdentifiers": {
					"allowed()": "19e1fca4",
					"buy()": "a6f2ae3a",
					"count()": "06661abd",
					"increment(uint256)": "7cf5dab0",
					"oneIncrement()": "ffac3b1d",
					"setAllowed(bool)": "2babac22",
					"signedCount()": "5f3d8f4a",
					"signedIncrement(int256)": "be7cb506"
				}
			},
			"storageLayout": {
				"storage": [
					{
						"astId": 3,
						"contract": "contracts/SimpleContract.sol:SimpleContract",
						"label": "allowed",
						"offset": 0,
						"slot": "0",
						"type": "t_bool"
					},
					{
						"astId": 5,
						"contract": "contracts/SimpleContract.sol:SimpleContract",
						"label": "count",
						"offset": 0,
						"slot": "1",
						"type": "t_uint256"
					},
					{
						"astId": 7,
						"contract": "contracts/SimpleContract.sol:SimpleContract",
						"label": "signedCount",
						"offset": 0,
						"slot": "2",
						"type": "t_int256"
					},
					{
						"astId": 10,
						"contract": "contracts/SimpleContract.sol:SimpleContract",
						"label": "errorMessage",
						"offset": 0,
						"slot": "3",
						"type": "t_string_storage"
					}
				],
				"types": {
					"t_bool": {
						"encoding": "inplace",
						"label": "bool",
						"numberOfBytes": "1"
					},
					"t_int256": {
						"encoding": "inplace",
						"label": "int256",
						"numberOfBytes": "32"
					},
					"t_string_storage": {
						"encoding": "bytes",
						"label": "string",
						"numberOfBytes": "32"
					},
					"t_uint256": {
						"encoding": "inplace",
						"label": "uint256",
						"numberOfBytes": "32"
					}
				}
			},
			"userdoc": {
				"kind": "user",
				"methods": {},
				"version": 1
			}
		}
	}
}